{
	"contracts/ChatRoom.sol": {
		"ChatRoom": {
			"abi": [
				{
					"inputs": [
						{
							"internalType": "address",
							"name": "_chatRoomFinance",
							"type": "address"
						}
					],
					"stateMutability": "nonpayable",
					"type": "constructor"
				},
				{
					"inputs": [
						{
							"internalType": "address",
							"name": "owner",
							"type": "address"
						}
					],
					"name": "OwnableInvalidOwner",
					"type": "error"
				},
				{
					"inputs": [
						{
							"internalType": "address",
							"name": "account",
							"type": "address"
						}
					],
					"name": "OwnableUnauthorizedAccount",
					"type": "error"
				},
				{
					"anonymous": false,
					"inputs": [
						{
							"indexed": true,
							"internalType": "address",
							"name": "sender",
							"type": "address"
						},
						{
							"indexed": false,
							"internalType": "string",
							"name": "content",
							"type": "string"
						},
						{
							"indexed": false,
							"internalType": "uint256",
							"name": "timestamp",
							"type": "uint256"
						}
					],
					"name": "MessageSent",
					"type": "event"
				},
				{
					"anonymous": false,
					"inputs": [
						{
							"indexed": true,
							"internalType": "address",
							"name": "previousOwner",
							"type": "address"
						},
						{
							"indexed": true,
							"internalType": "address",
							"name": "newOwner",
							"type": "address"
						}
					],
					"name": "OwnershipTransferred",
					"type": "event"
				},
				{
					"inputs": [],
					"name": "chatRoomFinance",
					"outputs": [
						{
							"internalType": "address",
							"name": "",
							"type": "address"
						}
					],
					"stateMutability": "view",
					"type": "function"
				},
				{
					"inputs": [],
					"name": "getMessageCount",
					"outputs": [
						{
							"internalType": "uint256",
							"name": "",
							"type": "uint256"
						}
					],
					"stateMutability": "view",
					"type": "function"
				},
				{
					"inputs": [
						{
							"internalType": "uint256",
							"name": "",
							"type": "uint256"
						}
					],
					"name": "messages",
					"outputs": [
						{
							"internalType": "address",
							"name": "sender",
							"type": "address"
						},
						{
							"internalType": "string",
							"name": "content",
							"type": "string"
						},
						{
							"internalType": "uint256",
							"name": "timestamp",
							"type": "uint256"
						}
					],
					"stateMutability": "view",
					"type": "function"
				},
				{
					"inputs": [],
					"name": "owner",
					"outputs": [
						{
							"internalType": "address",
							"name": "",
							"type": "address"
						}
					],
					"stateMutability": "view",
					"type": "function"
				},
				{
					"inputs": [
						{
							"internalType": "uint256",
							"name": "index",
							"type": "uint256"
						}
					],
					"name": "readMessage",
					"outputs": [
						{
							"internalType": "address",
							"name": "",
							"type": "address"
						},
						{
							"internalType": "string",
							"name": "",
							"type": "string"
						},
						{
							"internalType": "uint256",
							"name": "",
							"type": "uint256"
						}
					],
					"stateMutability": "view",
					"type": "function"
				},
				{
					"inputs": [],
					"name": "renounceOwnership",
					"outputs": [],
					"stateMutability": "nonpayable",
					"type": "function"
				},
				{
					"inputs": [
						{
							"internalType": "string",
							"name": "content",
							"type": "string"
						},
						{
							"internalType": "uint256",
							"name": "ownerCommissionPercent",
							"type": "uint256"
						}
					],
					"name": "sendMessage",
					"outputs": [],
					"stateMutability": "payable",
					"type": "function"
				},
				{
					"inputs": [
						{
							"internalType": "address",
							"name": "newOwner",
							"type": "address"
						}
					],
					"name": "transferOwnership",
					"outputs": [],
					"stateMutability": "nonpayable",
					"type": "function"
				}
			],
			"devdoc": {
				"errors": {
					"OwnableInvalidOwner(address)": [
						{
							"details": "The owner is not a valid owner account. (eg. `address(0)`)"
						}
					],
					"OwnableUnauthorizedAccount(address)": [
						{
							"details": "The caller account is not authorized to perform an operation."
						}
					]
				},
				"kind": "dev",
				"methods": {
					"owner()": {
						"details": "Returns the address of the current owner."
					},
					"renounceOwnership()": {
						"details": "Leaves the contract without owner. It will not be possible to call `onlyOwner` functions. Can only be called by the current owner. NOTE: Renouncing ownership will leave the contract without an owner, thereby disabling any functionality that is only available to the owner."
					},
					"transferOwnership(address)": {
						"details": "Transfers ownership of the contract to a new account (`newOwner`). Can only be called by the current owner."
					}
				},
				"version": 1
			},
			"evm": {
				"assembly": "    /* \"contracts/ChatRoom.sol\":778:3361  contract ChatRoom is Ownable {... */\n  mstore(0x40, 0x80)\n    /* \"contracts/ChatRoom.sol\":1552:1793  constructor(address _chatRoomFinance) Ownable(_chatRoomFinance) {... */\n  callvalue\n  dup1\n  iszero\n  tag_1\n  jumpi\n  0x00\n  dup1\n  revert\ntag_1:\n  pop\n  mload(0x40)\n  sub(codesize, bytecodeSize)\n  dup1\n  bytecodeSize\n  dup4\n  codecopy\n  dup2\n  dup2\n  add\n  0x40\n  mstore\n  dup2\n  add\n  swap1\n  tag_2\n  swap2\n  swap1\n  tag_3\n  jump\t// in\ntag_2:\n    /* \"contracts/ChatRoom.sol\":1598:1614  _chatRoomFinance */\n  dup1\n    /* \"@openzeppelin/contracts/access/Ownable.sol\":1297:1298  0 */\n  0x00\n    /* \"@openzeppelin/contracts/access/Ownable.sol\":1273:1299  initialOwner == address(0) */\n  0xffffffffffffffffffffffffffffffffffffffff\n  and\n    /* \"@openzeppelin/contracts/access/Ownable.sol\":1273:1285  initialOwner */\n  dup2\n    /* \"@openzeppelin/contracts/access/Ownable.sol\":1273:1299  initialOwner == address(0) */\n  0xffffffffffffffffffffffffffffffffffffffff\n  and\n  sub\n    /* \"@openzeppelin/contracts/access/Ownable.sol\":1269:1364  if (initialOwner == address(0)) {... */\n  tag_7\n  jumpi\n    /* \"@openzeppelin/contracts/access/Ownable.sol\":1350:1351  0 */\n  0x00\n    /* \"@openzeppelin/contracts/access/Ownable.sol\":1322:1353  OwnableInvalidOwner(address(0)) */\n  mload(0x40)\n  0x1e4fbdf700000000000000000000000000000000000000000000000000000000\n  dup2\n  mstore\n  0x04\n  add\n  tag_8\n  swap2\n  swap1\n  tag_9\n  jump\t// in\ntag_8:\n  mload(0x40)\n  dup1\n  swap2\n  sub\n  swap1\n  revert\n    /* \"@openzeppelin/contracts/access/Ownable.sol\":1269:1364  if (initialOwner == address(0)) {... */\ntag_7:\n    /* \"@openzeppelin/contracts/access/Ownable.sol\":1373:1405  _transferOwnership(initialOwner) */\n  tag_10\n    /* \"@openzeppelin/contracts/access/Ownable.sol\":1392:1404  initialOwner */\n  dup2\n    /* \"@openzeppelin/contracts/access/Ownable.sol\":1373:1391  _transferOwnership */\n  shl(0x20, tag_11)\n    /* \"@openzeppelin/contracts/access/Ownable.sol\":1373:1405  _transferOwnership(initialOwner) */\n  0x20\n  shr\n  jump\t// in\ntag_10:\n    /* \"@openzeppelin/contracts/access/Ownable.sol\":1225:1412  constructor(address initialOwner) {... */\n  pop\n    /* \"contracts/ChatRoom.sol\":1675:1676  0 */\n  0x00\n    /* \"contracts/ChatRoom.sol\":1647:1677  _chatRoomFinance != address(0) */\n  0xffffffffffffffffffffffffffffffffffffffff\n  and\n    /* \"contracts/ChatRoom.sol\":1647:1663  _chatRoomFinance */\n  dup2\n    /* \"contracts/ChatRoom.sol\":1647:1677  _chatRoomFinance != address(0) */\n  0xffffffffffffffffffffffffffffffffffffffff\n  and\n  sub\n    /* \"contracts/ChatRoom.sol\":1626:1742  require(... */\n  tag_13\n  jumpi\n  mload(0x40)\n  0x08c379a000000000000000000000000000000000000000000000000000000000\n  dup2\n  mstore\n  0x04\n  add\n  tag_14\n  swap1\n  tag_15\n  jump\t// in\ntag_14:\n  mload(0x40)\n  dup1\n  swap2\n  sub\n  swap1\n  revert\ntag_13:\n    /* \"contracts/ChatRoom.sol\":1770:1786  _chatRoomFinance */\n  dup1\n    /* \"contracts/ChatRoom.sol\":1752:1767  chatRoomFinance */\n  0x01\n  0x00\n    /* \"contracts/ChatRoom.sol\":1752:1786  chatRoomFinance = _chatRoomFinance */\n  0x0100\n  exp\n  dup2\n  sload\n  dup2\n  0xffffffffffffffffffffffffffffffffffffffff\n  mul\n  not\n  and\n  swap1\n  dup4\n  0xffffffffffffffffffffffffffffffffffffffff\n  and\n  mul\n  or\n  swap1\n  sstore\n  pop\n    /* \"contracts/ChatRoom.sol\":1552:1793  constructor(address _chatRoomFinance) Ownable(_chatRoomFinance) {... */\n  pop\n    /* \"contracts/ChatRoom.sol\":778:3361  contract ChatRoom is Ownable {... */\n  jump(tag_16)\n    /* \"@openzeppelin/contracts/access/Ownable.sol\":2912:3099  function _transferOwnership(address newOwner) internal virtual {... */\ntag_11:\n    /* \"@openzeppelin/contracts/access/Ownable.sol\":2985:3001  address oldOwner */\n  0x00\n    /* \"@openzeppelin/contracts/access/Ownable.sol\":3004:3010  _owner */\n  dup1\n  0x00\n  swap1\n  sload\n  swap1\n  0x0100\n  exp\n  swap1\n  div\n  0xffffffffffffffffffffffffffffffffffffffff\n  and\n    /* \"@openzeppelin/contracts/access/Ownable.sol\":2985:3010  address oldOwner = _owner */\n  swap1\n  pop\n    /* \"@openzeppelin/contracts/access/Ownable.sol\":3029:3037  newOwner */\n  dup2\n    /* \"@openzeppelin/contracts/access/Ownable.sol\":3020:3026  _owner */\n  0x00\n  dup1\n    /* \"@openzeppelin/contracts/access/Ownable.sol\":3020:3037  _owner = newOwner */\n  0x0100\n  exp\n  dup2\n  sload\n  dup2\n  0xffffffffffffffffffffffffffffffffffffffff\n  mul\n  not\n  and\n  swap1\n  dup4\n  0xffffffffffffffffffffffffffffffffffffffff\n  and\n  mul\n  or\n  swap1\n  sstore\n  pop\n    /* \"@openzeppelin/contracts/access/Ownable.sol\":3083:3091  newOwner */\n  dup2\n    /* \"@openzeppelin/contracts/access/Ownable.sol\":3052:3092  OwnershipTransferred(oldOwner, newOwner) */\n  0xffffffffffffffffffffffffffffffffffffffff\n  and\n    /* \"@openzeppelin/contracts/access/Ownable.sol\":3073:3081  oldOwner */\n  dup2\n    /* \"@openzeppelin/contracts/access/Ownable.sol\":3052:3092  OwnershipTransferred(oldOwner, newOwner) */\n  0xffffffffffffffffffffffffffffffffffffffff\n  and\n  0x8be0079c531659141344cd1fd0a4f28419497f9722a3daafe3b4186f6b6457e0\n  mload(0x40)\n  mload(0x40)\n  dup1\n  swap2\n  sub\n  swap1\n  log3\n    /* \"@openzeppelin/contracts/access/Ownable.sol\":2975:3099  {... */\n  pop\n    /* \"@openzeppelin/contracts/access/Ownable.sol\":2912:3099  function _transferOwnership(address newOwner) internal virtual {... */\n  pop\n  jump\t// out\n    /* \"#utility.yul\":88:205   */\ntag_19:\n    /* \"#utility.yul\":197:198   */\n  0x00\n    /* \"#utility.yul\":194:195   */\n  dup1\n    /* \"#utility.yul\":187:199   */\n  revert\n    /* \"#utility.yul\":334:460   */\ntag_21:\n    /* \"#utility.yul\":371:378   */\n  0x00\n    /* \"#utility.yul\":411:453   */\n  0xffffffffffffffffffffffffffffffffffffffff\n    /* \"#utility.yul\":404:409   */\n  dup3\n    /* \"#utility.yul\":400:454   */\n  and\n    /* \"#utility.yul\":389:454   */\n  swap1\n  pop\n    /* \"#utility.yul\":334:460   */\n  swap2\n  swap1\n  pop\n  jump\t// out\n    /* \"#utility.yul\":466:562   */\ntag_22:\n    /* \"#utility.yul\":503:510   */\n  0x00\n    /* \"#utility.yul\":532:556   */\n  tag_35\n    /* \"#utility.yul\":550:555   */\n  dup3\n    /* \"#utility.yul\":532:556   */\n  tag_21\n  jump\t// in\ntag_35:\n    /* \"#utility.yul\":521:556   */\n  swap1\n  pop\n    /* \"#utility.yul\":466:562   */\n  swap2\n  swap1\n  pop\n  jump\t// out\n    /* \"#utility.yul\":568:690   */\ntag_23:\n    /* \"#utility.yul\":641:665   */\n  tag_37\n    /* \"#utility.yul\":659:664   */\n  dup2\n    /* \"#utility.yul\":641:665   */\n  tag_22\n  jump\t// in\ntag_37:\n    /* \"#utility.yul\":634:639   */\n  dup2\n    /* \"#utility.yul\":631:666   */\n  eq\n    /* \"#utility.yul\":621:684   */\n  tag_38\n  jumpi\n    /* \"#utility.yul\":680:681   */\n  0x00\n    /* \"#utility.yul\":677:678   */\n  dup1\n    /* \"#utility.yul\":670:682   */\n  revert\n    /* \"#utility.yul\":621:684   */\ntag_38:\n    /* \"#utility.yul\":568:690   */\n  pop\n  jump\t// out\n    /* \"#utility.yul\":696:839   */\ntag_24:\n    /* \"#utility.yul\":753:758   */\n  0x00\n    /* \"#utility.yul\":784:790   */\n  dup2\n    /* \"#utility.yul\":778:791   */\n  mload\n    /* \"#utility.yul\":769:791   */\n  swap1\n  pop\n    /* \"#utility.yul\":800:833   */\n  tag_40\n    /* \"#utility.yul\":827:832   */\n  dup2\n    /* \"#utility.yul\":800:833   */\n  tag_23\n  jump\t// in\ntag_40:\n    /* \"#utility.yul\":696:839   */\n  swap3\n  swap2\n  pop\n  pop\n  jump\t// out\n    /* \"#utility.yul\":845:1196   */\ntag_3:\n    /* \"#utility.yul\":915:921   */\n  0x00\n    /* \"#utility.yul\":964:966   */\n  0x20\n    /* \"#utility.yul\":952:961   */\n  dup3\n    /* \"#utility.yul\":943:950   */\n  dup5\n    /* \"#utility.yul\":939:962   */\n  sub\n    /* \"#utility.yul\":935:967   */\n  slt\n    /* \"#utility.yul\":932:1051   */\n  iszero\n  tag_42\n  jumpi\n    /* \"#utility.yul\":970:1049   */\n  tag_43\n  tag_19\n  jump\t// in\ntag_43:\n    /* \"#utility.yul\":932:1051   */\ntag_42:\n    /* \"#utility.yul\":1090:1091   */\n  0x00\n    /* \"#utility.yul\":1115:1179   */\n  tag_44\n    /* \"#utility.yul\":1171:1178   */\n  dup5\n    /* \"#utility.yul\":1162:1168   */\n  dup3\n    /* \"#utility.yul\":1151:1160   */\n  dup6\n    /* \"#utility.yul\":1147:1169   */\n  add\n    /* \"#utility.yul\":1115:1179   */\n  tag_24\n  jump\t// in\ntag_44:\n    /* \"#utility.yul\":1105:1179   */\n  swap2\n  pop\n    /* \"#utility.yul\":1061:1189   */\n  pop\n    /* \"#utility.yul\":845:1196   */\n  swap3\n  swap2\n  pop\n  pop\n  jump\t// out\n    /* \"#utility.yul\":1202:1320   */\ntag_25:\n    /* \"#utility.yul\":1289:1313   */\n  tag_46\n    /* \"#utility.yul\":1307:1312   */\n  dup2\n    /* \"#utility.yul\":1289:1313   */\n  tag_22\n  jump\t// in\ntag_46:\n    /* \"#utility.yul\":1284:1287   */\n  dup3\n    /* \"#utility.yul\":1277:1314   */\n  mstore\n    /* \"#utility.yul\":1202:1320   */\n  pop\n  pop\n  jump\t// out\n    /* \"#utility.yul\":1326:1548   */\ntag_9:\n    /* \"#utility.yul\":1419:1423   */\n  0x00\n    /* \"#utility.yul\":1457:1459   */\n  0x20\n    /* \"#utility.yul\":1446:1455   */\n  dup3\n    /* \"#utility.yul\":1442:1460   */\n  add\n    /* \"#utility.yul\":1434:1460   */\n  swap1\n  pop\n    /* \"#utility.yul\":1470:1541   */\n  tag_48\n    /* \"#utility.yul\":1538:1539   */\n  0x00\n    /* \"#utility.yul\":1527:1536   */\n  dup4\n    /* \"#utility.yul\":1523:1540   */\n  add\n    /* \"#utility.yul\":1514:1520   */\n  dup5\n    /* \"#utility.yul\":1470:1541   */\n  tag_25\n  jump\t// in\ntag_48:\n    /* \"#utility.yul\":1326:1548   */\n  swap3\n  swap2\n  pop\n  pop\n  jump\t// out\n    /* \"#utility.yul\":1554:1723   */\ntag_26:\n    /* \"#utility.yul\":1638:1649   */\n  0x00\n    /* \"#utility.yul\":1672:1678   */\n  dup3\n    /* \"#utility.yul\":1667:1670   */\n  dup3\n    /* \"#utility.yul\":1660:1679   */\n  mstore\n    /* \"#utility.yul\":1712:1716   */\n  0x20\n    /* \"#utility.yul\":1707:1710   */\n  dup3\n    /* \"#utility.yul\":1703:1717   */\n  add\n    /* \"#utility.yul\":1688:1717   */\n  swap1\n  pop\n    /* \"#utility.yul\":1554:1723   */\n  swap3\n  swap2\n  pop\n  pop\n  jump\t// out\n    /* \"#utility.yul\":1729:1955   */\ntag_27:\n    /* \"#utility.yul\":1869:1903   */\n  0x43686174526f6f6d46696e616e636520616464726573732063616e6e6f742062\n    /* \"#utility.yul\":1865:1866   */\n  0x00\n    /* \"#utility.yul\":1857:1863   */\n  dup3\n    /* \"#utility.yul\":1853:1867   */\n  add\n    /* \"#utility.yul\":1846:1904   */\n  mstore\n    /* \"#utility.yul\":1938:1947   */\n  0x65207a65726f2e00000000000000000000000000000000000000000000000000\n    /* \"#utility.yul\":1933:1935   */\n  0x20\n    /* \"#utility.yul\":1925:1931   */\n  dup3\n    /* \"#utility.yul\":1921:1936   */\n  add\n    /* \"#utility.yul\":1914:1948   */\n  mstore\n    /* \"#utility.yul\":1729:1955   */\n  pop\n  jump\t// out\n    /* \"#utility.yul\":1961:2327   */\ntag_28:\n    /* \"#utility.yul\":2103:2106   */\n  0x00\n    /* \"#utility.yul\":2124:2191   */\n  tag_52\n    /* \"#utility.yul\":2188:2190   */\n  0x27\n    /* \"#utility.yul\":2183:2186   */\n  dup4\n    /* \"#utility.yul\":2124:2191   */\n  tag_26\n  jump\t// in\ntag_52:\n    /* \"#utility.yul\":2117:2191   */\n  swap2\n  pop\n    /* \"#utility.yul\":2200:2293   */\n  tag_53\n    /* \"#utility.yul\":2289:2292   */\n  dup3\n    /* \"#utility.yul\":2200:2293   */\n  tag_27\n  jump\t// in\ntag_53:\n    /* \"#utility.yul\":2318:2320   */\n  0x40\n    /* \"#utility.yul\":2313:2316   */\n  dup3\n    /* \"#utility.yul\":2309:2321   */\n  add\n    /* \"#utility.yul\":2302:2321   */\n  swap1\n  pop\n    /* \"#utility.yul\":1961:2327   */\n  swap2\n  swap1\n  pop\n  jump\t// out\n    /* \"#utility.yul\":2333:2752   */\ntag_15:\n    /* \"#utility.yul\":2499:2503   */\n  0x00\n    /* \"#utility.yul\":2537:2539   */\n  0x20\n    /* \"#utility.yul\":2526:2535   */\n  dup3\n    /* \"#utility.yul\":2522:2540   */\n  add\n    /* \"#utility.yul\":2514:2540   */\n  swap1\n  pop\n    /* \"#utility.yul\":2586:2595   */\n  dup2\n    /* \"#utility.yul\":2580:2584   */\n  dup2\n    /* \"#utility.yul\":2576:2596   */\n  sub\n    /* \"#utility.yul\":2572:2573   */\n  0x00\n    /* \"#utility.yul\":2561:2570   */\n  dup4\n    /* \"#utility.yul\":2557:2574   */\n  add\n    /* \"#utility.yul\":2550:2597   */\n  mstore\n    /* \"#utility.yul\":2614:2745   */\n  tag_55\n    /* \"#utility.yul\":2740:2744   */\n  dup2\n    /* \"#utility.yul\":2614:2745   */\n  tag_28\n  jump\t// in\ntag_55:\n    /* \"#utility.yul\":2606:2745   */\n  swap1\n  pop\n    /* \"#utility.yul\":2333:2752   */\n  swap2\n  swap1\n  pop\n  jump\t// out\n    /* \"contracts/ChatRoom.sol\":778:3361  contract ChatRoom is Ownable {... */\ntag_16:\n  dataSize(sub_0)\n  dup1\n  dataOffset(sub_0)\n  0x00\n  codecopy\n  0x00\n  return\nstop\n\nsub_0: assembly {\n        /* \"contracts/ChatRoom.sol\":778:3361  contract ChatRoom is Ownable {... */\n      mstore(0x40, 0x80)\n      jumpi(tag_1, lt(calldatasize, 0x04))\n      shr(0xe0, calldataload(0x00))\n      dup1\n      0xa7d27056\n      gt\n      tag_10\n      jumpi\n      dup1\n      0xa7d27056\n      eq\n      tag_6\n      jumpi\n      dup1\n      0xab7ee590\n      eq\n      tag_7\n      jumpi\n      dup1\n      0xd013bef0\n      eq\n      tag_8\n      jumpi\n      dup1\n      0xf2fde38b\n      eq\n      tag_9\n      jumpi\n      jump(tag_1)\n    tag_10:\n      dup1\n      0x0d80fefd\n      eq\n      tag_2\n      jumpi\n      dup1\n      0x31933916\n      eq\n      tag_3\n      jumpi\n      dup1\n      0x715018a6\n      eq\n      tag_4\n      jumpi\n      dup1\n      0x8da5cb5b\n      eq\n      tag_5\n      jumpi\n    tag_1:\n      0x00\n      dup1\n      revert\n        /* \"contracts/ChatRoom.sol\":1196:1221  Message[] public messages */\n    tag_2:\n      callvalue\n      dup1\n      iszero\n      tag_11\n      jumpi\n      0x00\n      dup1\n      revert\n    tag_11:\n      pop\n      tag_12\n      0x04\n      dup1\n      calldatasize\n      sub\n      dup2\n      add\n      swap1\n      tag_13\n      swap2\n      swap1\n      tag_14\n      jump\t// in\n    tag_13:\n      tag_15\n      jump\t// in\n    tag_12:\n      mload(0x40)\n      tag_16\n      swap4\n      swap3\n      swap2\n      swap1\n      tag_17\n      jump\t// in\n    tag_16:\n      mload(0x40)\n      dup1\n      swap2\n      sub\n      swap1\n      return\n        /* \"contracts/ChatRoom.sol\":2789:2885  function getMessageCount() public view returns (uint256) {... */\n    tag_3:\n      callvalue\n      dup1\n      iszero\n      tag_18\n      jumpi\n      0x00\n      dup1\n      revert\n    tag_18:\n      pop\n      tag_19\n      tag_20\n      jump\t// in\n    tag_19:\n      mload(0x40)\n      tag_21\n      swap2\n      swap1\n      tag_22\n      jump\t// in\n    tag_21:\n      mload(0x40)\n      dup1\n      swap2\n      sub\n      swap1\n      return\n        /* \"@openzeppelin/contracts/access/Ownable.sol\":2293:2394  function renounceOwnership() public virtual onlyOwner {... */\n    tag_4:\n      callvalue\n      dup1\n      iszero\n      tag_23\n      jumpi\n      0x00\n      dup1\n      revert\n    tag_23:\n      pop\n      tag_24\n      tag_25\n      jump\t// in\n    tag_24:\n      stop\n        /* \"@openzeppelin/contracts/access/Ownable.sol\":1638:1723  function owner() public view virtual returns (address) {... */\n    tag_5:\n      callvalue\n      dup1\n      iszero\n      tag_26\n      jumpi\n      0x00\n      dup1\n      revert\n    tag_26:\n      pop\n      tag_27\n      tag_28\n      jump\t// in\n    tag_27:\n      mload(0x40)\n      tag_29\n      swap2\n      swap1\n      tag_30\n      jump\t// in\n    tag_29:\n      mload(0x40)\n      dup1\n      swap2\n      sub\n      swap1\n      return\n        /* \"contracts/ChatRoom.sol\":2995:3359  function readMessage(uint256 index)... */\n    tag_6:\n      callvalue\n      dup1\n      iszero\n      tag_31\n      jumpi\n      0x00\n      dup1\n      revert\n    tag_31:\n      pop\n      tag_32\n      0x04\n      dup1\n      calldatasize\n      sub\n      dup2\n      add\n      swap1\n      tag_33\n      swap2\n      swap1\n      tag_14\n      jump\t// in\n    tag_33:\n      tag_34\n      jump\t// in\n    tag_32:\n      mload(0x40)\n      tag_35\n      swap4\n      swap3\n      swap2\n      swap1\n      tag_17\n      jump\t// in\n    tag_35:\n      mload(0x40)\n      dup1\n      swap2\n      sub\n      swap1\n      return\n        /* \"contracts/ChatRoom.sol\":903:933  address public chatRoomFinance */\n    tag_7:\n      callvalue\n      dup1\n      iszero\n      tag_36\n      jumpi\n      0x00\n      dup1\n      revert\n    tag_36:\n      pop\n      tag_37\n      tag_38\n      jump\t// in\n    tag_37:\n      mload(0x40)\n      tag_39\n      swap2\n      swap1\n      tag_30\n      jump\t// in\n    tag_39:\n      mload(0x40)\n      dup1\n      swap2\n      sub\n      swap1\n      return\n        /* \"contracts/ChatRoom.sol\":1874:2683  function sendMessage(string memory content, uint256 ownerCommissionPercent)... */\n    tag_8:\n      tag_40\n      0x04\n      dup1\n      calldatasize\n      sub\n      dup2\n      add\n      swap1\n      tag_41\n      swap2\n      swap1\n      tag_42\n      jump\t// in\n    tag_41:\n      tag_43\n      jump\t// in\n    tag_40:\n      stop\n        /* \"@openzeppelin/contracts/access/Ownable.sol\":2543:2758  function transferOwnership(address newOwner) public virtual onlyOwner {... */\n    tag_9:\n      callvalue\n      dup1\n      iszero\n      tag_44\n      jumpi\n      0x00\n      dup1\n      revert\n    tag_44:\n      pop\n      tag_45\n      0x04\n      dup1\n      calldatasize\n      sub\n      dup2\n      add\n      swap1\n      tag_46\n      swap2\n      swap1\n      tag_47\n      jump\t// in\n    tag_46:\n      tag_48\n      jump\t// in\n    tag_45:\n      stop\n        /* \"contracts/ChatRoom.sol\":1196:1221  Message[] public messages */\n    tag_15:\n      0x02\n      dup2\n      dup2\n      sload\n      dup2\n      lt\n      tag_49\n      jumpi\n      0x00\n      dup1\n      revert\n    tag_49:\n      swap1\n      0x00\n      mstore\n      keccak256(0x00, 0x20)\n      swap1\n      0x03\n      mul\n      add\n      0x00\n      swap2\n      pop\n      swap1\n      pop\n      dup1\n      0x00\n      add\n      0x00\n      swap1\n      sload\n      swap1\n      0x0100\n      exp\n      swap1\n      div\n      0xffffffffffffffffffffffffffffffffffffffff\n      and\n      swap1\n      dup1\n      0x01\n      add\n      dup1\n      sload\n      tag_51\n      swap1\n      tag_52\n      jump\t// in\n    tag_51:\n      dup1\n      0x1f\n      add\n      0x20\n      dup1\n      swap2\n      div\n      mul\n      0x20\n      add\n      mload(0x40)\n      swap1\n      dup2\n      add\n      0x40\n      mstore\n      dup1\n      swap3\n      swap2\n      swap1\n      dup2\n      dup2\n      mstore\n      0x20\n      add\n      dup3\n      dup1\n      sload\n      tag_53\n      swap1\n      tag_52\n      jump\t// in\n    tag_53:\n      dup1\n      iszero\n      tag_54\n      jumpi\n      dup1\n      0x1f\n      lt\n      tag_55\n      jumpi\n      0x0100\n      dup1\n      dup4\n      sload\n      div\n      mul\n      dup4\n      mstore\n      swap2\n      0x20\n      add\n      swap2\n      jump(tag_54)\n    tag_55:\n      dup3\n      add\n      swap2\n      swap1\n      0x00\n      mstore\n      keccak256(0x00, 0x20)\n      swap1\n    tag_56:\n      dup2\n      sload\n      dup2\n      mstore\n      swap1\n      0x01\n      add\n      swap1\n      0x20\n      add\n      dup1\n      dup4\n      gt\n      tag_56\n      jumpi\n      dup3\n      swap1\n      sub\n      0x1f\n      and\n      dup3\n      add\n      swap2\n    tag_54:\n      pop\n      pop\n      pop\n      pop\n      pop\n      swap1\n      dup1\n      0x02\n      add\n      sload\n      swap1\n      pop\n      dup4\n      jump\t// out\n        /* \"contracts/ChatRoom.sol\":2789:2885  function getMessageCount() public view returns (uint256) {... */\n    tag_20:\n        /* \"contracts/ChatRoom.sol\":2837:2844  uint256 */\n      0x00\n        /* \"contracts/ChatRoom.sol\":2863:2871  messages */\n      0x02\n        /* \"contracts/ChatRoom.sol\":2863:2878  messages.length */\n      dup1\n      sload\n      swap1\n      pop\n        /* \"contracts/ChatRoom.sol\":2856:2878  return messages.length */\n      swap1\n      pop\n        /* \"contracts/ChatRoom.sol\":2789:2885  function getMessageCount() public view returns (uint256) {... */\n      swap1\n      jump\t// out\n        /* \"@openzeppelin/contracts/access/Ownable.sol\":2293:2394  function renounceOwnership() public virtual onlyOwner {... */\n    tag_25:\n        /* \"@openzeppelin/contracts/access/Ownable.sol\":1531:1544  _checkOwner() */\n      tag_59\n        /* \"@openzeppelin/contracts/access/Ownable.sol\":1531:1542  _checkOwner */\n      tag_60\n        /* \"@openzeppelin/contracts/access/Ownable.sol\":1531:1544  _checkOwner() */\n      jump\t// in\n    tag_59:\n        /* \"@openzeppelin/contracts/access/Ownable.sol\":2357:2387  _transferOwnership(address(0)) */\n      tag_62\n        /* \"@openzeppelin/contracts/access/Ownable.sol\":2384:2385  0 */\n      0x00\n        /* \"@openzeppelin/contracts/access/Ownable.sol\":2357:2375  _transferOwnership */\n      tag_63\n        /* \"@openzeppelin/contracts/access/Ownable.sol\":2357:2387  _transferOwnership(address(0)) */\n      jump\t// in\n    tag_62:\n        /* \"@openzeppelin/contracts/access/Ownable.sol\":2293:2394  function renounceOwnership() public virtual onlyOwner {... */\n      jump\t// out\n        /* \"@openzeppelin/contracts/access/Ownable.sol\":1638:1723  function owner() public view virtual returns (address) {... */\n    tag_28:\n        /* \"@openzeppelin/contracts/access/Ownable.sol\":1684:1691  address */\n      0x00\n        /* \"@openzeppelin/contracts/access/Ownable.sol\":1710:1716  _owner */\n      dup1\n      0x00\n      swap1\n      sload\n      swap1\n      0x0100\n      exp\n      swap1\n      div\n      0xffffffffffffffffffffffffffffffffffffffff\n      and\n        /* \"@openzeppelin/contracts/access/Ownable.sol\":1703:1716  return _owner */\n      swap1\n      pop\n        /* \"@openzeppelin/contracts/access/Ownable.sol\":1638:1723  function owner() public view virtual returns (address) {... */\n      swap1\n      jump\t// out\n        /* \"contracts/ChatRoom.sol\":2995:3359  function readMessage(uint256 index)... */\n    tag_34:\n        /* \"contracts/ChatRoom.sol\":3089:3096  address */\n      0x00\n        /* \"contracts/ChatRoom.sol\":3110:3123  string memory */\n      0x60\n        /* \"contracts/ChatRoom.sol\":3137:3144  uint256 */\n      0x00\n        /* \"contracts/ChatRoom.sol\":3185:3193  messages */\n      0x02\n        /* \"contracts/ChatRoom.sol\":3185:3200  messages.length */\n      dup1\n      sload\n      swap1\n      pop\n        /* \"contracts/ChatRoom.sol\":3177:3182  index */\n      dup5\n        /* \"contracts/ChatRoom.sol\":3177:3200  index < messages.length */\n      lt\n        /* \"contracts/ChatRoom.sol\":3169:3232  require(index < messages.length, \"Message index out of bounds\") */\n      tag_66\n      jumpi\n      mload(0x40)\n      0x08c379a000000000000000000000000000000000000000000000000000000000\n      dup2\n      mstore\n      0x04\n      add\n      tag_67\n      swap1\n      tag_68\n      jump\t// in\n    tag_67:\n      mload(0x40)\n      dup1\n      swap2\n      sub\n      swap1\n      revert\n    tag_66:\n        /* \"contracts/ChatRoom.sol\":3242:3265  Message storage message */\n      0x00\n        /* \"contracts/ChatRoom.sol\":3268:3276  messages */\n      0x02\n        /* \"contracts/ChatRoom.sol\":3277:3282  index */\n      dup6\n        /* \"contracts/ChatRoom.sol\":3268:3283  messages[index] */\n      dup2\n      sload\n      dup2\n      lt\n      tag_69\n      jumpi\n      tag_70\n      tag_71\n      jump\t// in\n    tag_70:\n    tag_69:\n      swap1\n      0x00\n      mstore\n      keccak256(0x00, 0x20)\n      swap1\n      0x03\n      mul\n      add\n        /* \"contracts/ChatRoom.sol\":3242:3283  Message storage message = messages[index] */\n      swap1\n      pop\n        /* \"contracts/ChatRoom.sol\":3301:3308  message */\n      dup1\n        /* \"contracts/ChatRoom.sol\":3301:3315  message.sender */\n      0x00\n      add\n      0x00\n      swap1\n      sload\n      swap1\n      0x0100\n      exp\n      swap1\n      div\n      0xffffffffffffffffffffffffffffffffffffffff\n      and\n        /* \"contracts/ChatRoom.sol\":3317:3324  message */\n      dup2\n        /* \"contracts/ChatRoom.sol\":3317:3332  message.content */\n      0x01\n      add\n        /* \"contracts/ChatRoom.sol\":3334:3341  message */\n      dup3\n        /* \"contracts/ChatRoom.sol\":3334:3351  message.timestamp */\n      0x02\n      add\n      sload\n        /* \"contracts/ChatRoom.sol\":3293:3352  return (message.sender, message.content, message.timestamp) */\n      dup2\n      dup1\n      sload\n      tag_73\n      swap1\n      tag_52\n      jump\t// in\n    tag_73:\n      dup1\n      0x1f\n      add\n      0x20\n      dup1\n      swap2\n      div\n      mul\n      0x20\n      add\n      mload(0x40)\n      swap1\n      dup2\n      add\n      0x40\n      mstore\n      dup1\n      swap3\n      swap2\n      swap1\n      dup2\n      dup2\n      mstore\n      0x20\n      add\n      dup3\n      dup1\n      sload\n      tag_74\n      swap1\n      tag_52\n      jump\t// in\n    tag_74:\n      dup1\n      iszero\n      tag_75\n      jumpi\n      dup1\n      0x1f\n      lt\n      tag_76\n      jumpi\n      0x0100\n      dup1\n      dup4\n      sload\n      div\n      mul\n      dup4\n      mstore\n      swap2\n      0x20\n      add\n      swap2\n      jump(tag_75)\n    tag_76:\n      dup3\n      add\n      swap2\n      swap1\n      0x00\n      mstore\n      keccak256(0x00, 0x20)\n      swap1\n    tag_77:\n      dup2\n      sload\n      dup2\n      mstore\n      swap1\n      0x01\n      add\n      swap1\n      0x20\n      add\n      dup1\n      dup4\n      gt\n      tag_77\n      jumpi\n      dup3\n      swap1\n      sub\n      0x1f\n      and\n      dup3\n      add\n      swap2\n    tag_75:\n      pop\n      pop\n      pop\n      pop\n      pop\n      swap2\n      pop\n      swap4\n      pop\n      swap4\n      pop\n      swap4\n      pop\n      pop\n        /* \"contracts/ChatRoom.sol\":2995:3359  function readMessage(uint256 index)... */\n      swap2\n      swap4\n      swap1\n      swap3\n      pop\n      jump\t// out\n        /* \"contracts/ChatRoom.sol\":903:933  address public chatRoomFinance */\n    tag_38:\n      0x01\n      0x00\n      swap1\n      sload\n      swap1\n      0x0100\n      exp\n      swap1\n      div\n      0xffffffffffffffffffffffffffffffffffffffff\n      and\n      dup2\n      jump\t// out\n        /* \"contracts/ChatRoom.sol\":1874:2683  function sendMessage(string memory content, uint256 ownerCommissionPercent)... */\n    tag_43:\n        /* \"contracts/ChatRoom.sol\":2015:2016  0 */\n      0x00\n        /* \"contracts/ChatRoom.sol\":2003:2012  msg.value */\n      callvalue\n        /* \"contracts/ChatRoom.sol\":2003:2016  msg.value > 0 */\n      gt\n        /* \"contracts/ChatRoom.sol\":1995:2046  require(msg.value > 0, \"Message must have a price\") */\n      tag_79\n      jumpi\n      mload(0x40)\n      0x08c379a000000000000000000000000000000000000000000000000000000000\n      dup2\n      mstore\n      0x04\n      add\n      tag_80\n      swap1\n      tag_81\n      jump\t// in\n    tag_80:\n      mload(0x40)\n      dup1\n      swap2\n      sub\n      swap1\n      revert\n    tag_79:\n        /* \"contracts/ChatRoom.sol\":2182:2194  bool success */\n      0x00\n        /* \"contracts/ChatRoom.sol\":2200:2215  chatRoomFinance */\n      0x01\n      0x00\n      swap1\n      sload\n      swap1\n      0x0100\n      exp\n      swap1\n      div\n      0xffffffffffffffffffffffffffffffffffffffff\n      and\n        /* \"contracts/ChatRoom.sol\":2200:2220  chatRoomFinance.call */\n      0xffffffffffffffffffffffffffffffffffffffff\n      and\n        /* \"contracts/ChatRoom.sol\":2228:2237  msg.value */\n      callvalue\n        /* \"contracts/ChatRoom.sol\":2336:2358  ownerCommissionPercent */\n      dup4\n        /* \"contracts/ChatRoom.sol\":2252:2372  abi.encodeWithSignature(... */\n      add(0x24, mload(0x40))\n      tag_82\n      swap2\n      swap1\n      tag_22\n      jump\t// in\n    tag_82:\n      mload(0x40)\n      0x20\n      dup2\n      dup4\n      sub\n      sub\n      dup2\n      mstore\n      swap1\n      0x40\n      mstore\n      and(not(0xffffffffffffffffffffffffffffffffffffffffffffffffffffffff), 0x3a2f848500000000000000000000000000000000000000000000000000000000)\n      0x20\n      dup3\n      add\n      dup1\n      mload\n      0xffffffffffffffffffffffffffffffffffffffffffffffffffffffff\n      dup4\n      dup2\n      dup4\n      and\n      or\n      dup4\n      mstore\n      pop\n      pop\n      pop\n      pop\n        /* \"contracts/ChatRoom.sol\":2200:2382  chatRoomFinance.call{value: msg.value}(... */\n      mload(0x40)\n      tag_83\n      swap2\n      swap1\n      tag_84\n      jump\t// in\n    tag_83:\n      0x00\n      mload(0x40)\n      dup1\n      dup4\n      sub\n      dup2\n      dup6\n      dup8\n      gas\n      call\n      swap3\n      pop\n      pop\n      pop\n      returndatasize\n      dup1\n      0x00\n      dup2\n      eq\n      tag_87\n      jumpi\n      mload(0x40)\n      swap2\n      pop\n      and(add(returndatasize, 0x3f), not(0x1f))\n      dup3\n      add\n      0x40\n      mstore\n      returndatasize\n      dup3\n      mstore\n      returndatasize\n      0x00\n      0x20\n      dup5\n      add\n      returndatacopy\n      jump(tag_86)\n    tag_87:\n      0x60\n      swap2\n      pop\n    tag_86:\n      pop\n        /* \"contracts/ChatRoom.sol\":2181:2382  (bool success, ) = chatRoomFinance.call{value: msg.value}(... */\n      pop\n      swap1\n      pop\n        /* \"contracts/ChatRoom.sol\":2400:2407  success */\n      dup1\n        /* \"contracts/ChatRoom.sol\":2392:2426  require(success, \"Payment failed\") */\n      tag_88\n      jumpi\n      mload(0x40)\n      0x08c379a000000000000000000000000000000000000000000000000000000000\n      dup2\n      mstore\n      0x04\n      add\n      tag_89\n      swap1\n      tag_90\n      jump\t// in\n    tag_89:\n      mload(0x40)\n      dup1\n      swap2\n      sub\n      swap1\n      revert\n    tag_88:\n        /* \"contracts/ChatRoom.sol\":2437:2445  messages */\n      0x02\n        /* \"contracts/ChatRoom.sol\":2464:2601  Message({... */\n      mload(0x40)\n      dup1\n      0x60\n      add\n      0x40\n      mstore\n      dup1\n        /* \"contracts/ChatRoom.sol\":2498:2508  msg.sender */\n      caller\n        /* \"contracts/ChatRoom.sol\":2464:2601  Message({... */\n      0xffffffffffffffffffffffffffffffffffffffff\n      and\n      dup2\n      mstore\n      0x20\n      add\n        /* \"contracts/ChatRoom.sol\":2535:2542  content */\n      dup6\n        /* \"contracts/ChatRoom.sol\":2464:2601  Message({... */\n      dup2\n      mstore\n      0x20\n      add\n        /* \"contracts/ChatRoom.sol\":2571:2586  block.timestamp */\n      timestamp\n        /* \"contracts/ChatRoom.sol\":2464:2601  Message({... */\n      dup2\n      mstore\n      pop\n        /* \"contracts/ChatRoom.sol\":2437:2611  messages.push(... */\n      swap1\n      dup1\n      0x01\n      dup2\n      sload\n      add\n      dup1\n      dup3\n      sstore\n      dup1\n      swap2\n      pop\n      pop\n      0x01\n      swap1\n      sub\n      swap1\n      0x00\n      mstore\n      keccak256(0x00, 0x20)\n      swap1\n      0x03\n      mul\n      add\n      0x00\n      swap1\n      swap2\n      swap1\n      swap2\n      swap1\n      swap2\n      pop\n      0x00\n      dup3\n      add\n      mload\n      dup2\n      0x00\n      add\n      exp(0x0100, 0x00)\n      dup2\n      sload\n      dup2\n      0xffffffffffffffffffffffffffffffffffffffff\n      mul\n      not\n      and\n      swap1\n      dup4\n      0xffffffffffffffffffffffffffffffffffffffff\n      and\n      mul\n      or\n      swap1\n      sstore\n      pop\n      0x20\n      dup3\n      add\n      mload\n      dup2\n      0x01\n      add\n      swap1\n      dup2\n      tag_92\n      swap2\n      swap1\n      tag_93\n      jump\t// in\n    tag_92:\n      pop\n      0x40\n      dup3\n      add\n      mload\n      dup2\n      0x02\n      add\n      sstore\n      pop\n      pop\n        /* \"contracts/ChatRoom.sol\":2639:2649  msg.sender */\n      caller\n        /* \"contracts/ChatRoom.sol\":2627:2676  MessageSent(msg.sender, content, block.timestamp) */\n      0xffffffffffffffffffffffffffffffffffffffff\n      and\n      0x4816bdd3b9d39acdd4da0ae7412d5523081e916c6a56e481063e475b86ef7c5b\n        /* \"contracts/ChatRoom.sol\":2651:2658  content */\n      dup5\n        /* \"contracts/ChatRoom.sol\":2660:2675  block.timestamp */\n      timestamp\n        /* \"contracts/ChatRoom.sol\":2627:2676  MessageSent(msg.sender, content, block.timestamp) */\n      mload(0x40)\n      tag_94\n      swap3\n      swap2\n      swap1\n      tag_95\n      jump\t// in\n    tag_94:\n      mload(0x40)\n      dup1\n      swap2\n      sub\n      swap1\n      log2\n        /* \"contracts/ChatRoom.sol\":1985:2683  {... */\n      pop\n        /* \"contracts/ChatRoom.sol\":1874:2683  function sendMessage(string memory content, uint256 ownerCommissionPercent)... */\n      pop\n      pop\n      jump\t// out\n        /* \"@openzeppelin/contracts/access/Ownable.sol\":2543:2758  function transferOwnership(address newOwner) public virtual onlyOwner {... */\n    tag_48:\n        /* \"@openzeppelin/contracts/access/Ownable.sol\":1531:1544  _checkOwner() */\n      tag_97\n        /* \"@openzeppelin/contracts/access/Ownable.sol\":1531:1542  _checkOwner */\n      tag_60\n        /* \"@openzeppelin/contracts/access/Ownable.sol\":1531:1544  _checkOwner() */\n      jump\t// in\n    tag_97:\n        /* \"@openzeppelin/contracts/access/Ownable.sol\":2647:2648  0 */\n      0x00\n        /* \"@openzeppelin/contracts/access/Ownable.sol\":2627:2649  newOwner == address(0) */\n      0xffffffffffffffffffffffffffffffffffffffff\n      and\n        /* \"@openzeppelin/contracts/access/Ownable.sol\":2627:2635  newOwner */\n      dup2\n        /* \"@openzeppelin/contracts/access/Ownable.sol\":2627:2649  newOwner == address(0) */\n      0xffffffffffffffffffffffffffffffffffffffff\n      and\n      sub\n        /* \"@openzeppelin/contracts/access/Ownable.sol\":2623:2714  if (newOwner == address(0)) {... */\n      tag_99\n      jumpi\n        /* \"@openzeppelin/contracts/access/Ownable.sol\":2700:2701  0 */\n      0x00\n        /* \"@openzeppelin/contracts/access/Ownable.sol\":2672:2703  OwnableInvalidOwner(address(0)) */\n      mload(0x40)\n      0x1e4fbdf700000000000000000000000000000000000000000000000000000000\n      dup2\n      mstore\n      0x04\n      add\n      tag_100\n      swap2\n      swap1\n      tag_30\n      jump\t// in\n    tag_100:\n      mload(0x40)\n      dup1\n      swap2\n      sub\n      swap1\n      revert\n        /* \"@openzeppelin/contracts/access/Ownable.sol\":2623:2714  if (newOwner == address(0)) {... */\n    tag_99:\n        /* \"@openzeppelin/contracts/access/Ownable.sol\":2723:2751  _transferOwnership(newOwner) */\n      tag_101\n        /* \"@openzeppelin/contracts/access/Ownable.sol\":2742:2750  newOwner */\n      dup2\n        /* \"@openzeppelin/contracts/access/Ownable.sol\":2723:2741  _transferOwnership */\n      tag_63\n        /* \"@openzeppelin/contracts/access/Ownable.sol\":2723:2751  _transferOwnership(newOwner) */\n      jump\t// in\n    tag_101:\n        /* \"@openzeppelin/contracts/access/Ownable.sol\":2543:2758  function transferOwnership(address newOwner) public virtual onlyOwner {... */\n      pop\n      jump\t// out\n        /* \"@openzeppelin/contracts/access/Ownable.sol\":1796:1958  function _checkOwner() internal view virtual {... */\n    tag_60:\n        /* \"@openzeppelin/contracts/access/Ownable.sol\":1866:1878  _msgSender() */\n      tag_103\n        /* \"@openzeppelin/contracts/access/Ownable.sol\":1866:1876  _msgSender */\n      tag_104\n        /* \"@openzeppelin/contracts/access/Ownable.sol\":1866:1878  _msgSender() */\n      jump\t// in\n    tag_103:\n        /* \"@openzeppelin/contracts/access/Ownable.sol\":1855:1878  owner() != _msgSender() */\n      0xffffffffffffffffffffffffffffffffffffffff\n      and\n        /* \"@openzeppelin/contracts/access/Ownable.sol\":1855:1862  owner() */\n      tag_105\n        /* \"@openzeppelin/contracts/access/Ownable.sol\":1855:1860  owner */\n      tag_28\n        /* \"@openzeppelin/contracts/access/Ownable.sol\":1855:1862  owner() */\n      jump\t// in\n    tag_105:\n        /* \"@openzeppelin/contracts/access/Ownable.sol\":1855:1878  owner() != _msgSender() */\n      0xffffffffffffffffffffffffffffffffffffffff\n      and\n      eq\n        /* \"@openzeppelin/contracts/access/Ownable.sol\":1851:1952  if (owner() != _msgSender()) {... */\n      tag_106\n      jumpi\n        /* \"@openzeppelin/contracts/access/Ownable.sol\":1928:1940  _msgSender() */\n      tag_107\n        /* \"@openzeppelin/contracts/access/Ownable.sol\":1928:1938  _msgSender */\n      tag_104\n        /* \"@openzeppelin/contracts/access/Ownable.sol\":1928:1940  _msgSender() */\n      jump\t// in\n    tag_107:\n        /* \"@openzeppelin/contracts/access/Ownable.sol\":1901:1941  OwnableUnauthorizedAccount(_msgSender()) */\n      mload(0x40)\n      0x118cdaa700000000000000000000000000000000000000000000000000000000\n      dup2\n      mstore\n      0x04\n      add\n      tag_108\n      swap2\n      swap1\n      tag_30\n      jump\t// in\n    tag_108:\n      mload(0x40)\n      dup1\n      swap2\n      sub\n      swap1\n      revert\n        /* \"@openzeppelin/contracts/access/Ownable.sol\":1851:1952  if (owner() != _msgSender()) {... */\n    tag_106:\n        /* \"@openzeppelin/contracts/access/Ownable.sol\":1796:1958  function _checkOwner() internal view virtual {... */\n      jump\t// out\n        /* \"@openzeppelin/contracts/access/Ownable.sol\":2912:3099  function _transferOwnership(address newOwner) internal virtual {... */\n    tag_63:\n        /* \"@openzeppelin/contracts/access/Ownable.sol\":2985:3001  address oldOwner */\n      0x00\n        /* \"@openzeppelin/contracts/access/Ownable.sol\":3004:3010  _owner */\n      dup1\n      0x00\n      swap1\n      sload\n      swap1\n      0x0100\n      exp\n      swap1\n      div\n      0xffffffffffffffffffffffffffffffffffffffff\n      and\n        /* \"@openzeppelin/contracts/access/Ownable.sol\":2985:3010  address oldOwner = _owner */\n      swap1\n      pop\n        /* \"@openzeppelin/contracts/access/Ownable.sol\":3029:3037  newOwner */\n      dup2\n        /* \"@openzeppelin/contracts/access/Ownable.sol\":3020:3026  _owner */\n      0x00\n      dup1\n        /* \"@openzeppelin/contracts/access/Ownable.sol\":3020:3037  _owner = newOwner */\n      0x0100\n      exp\n      dup2\n      sload\n      dup2\n      0xffffffffffffffffffffffffffffffffffffffff\n      mul\n      not\n      and\n      swap1\n      dup4\n      0xffffffffffffffffffffffffffffffffffffffff\n      and\n      mul\n      or\n      swap1\n      sstore\n      pop\n        /* \"@openzeppelin/contracts/access/Ownable.sol\":3083:3091  newOwner */\n      dup2\n        /* \"@openzeppelin/contracts/access/Ownable.sol\":3052:3092  OwnershipTransferred(oldOwner, newOwner) */\n      0xffffffffffffffffffffffffffffffffffffffff\n      and\n        /* \"@openzeppelin/contracts/access/Ownable.sol\":3073:3081  oldOwner */\n      dup2\n        /* \"@openzeppelin/contracts/access/Ownable.sol\":3052:3092  OwnershipTransferred(oldOwner, newOwner) */\n      0xffffffffffffffffffffffffffffffffffffffff\n      and\n      0x8be0079c531659141344cd1fd0a4f28419497f9722a3daafe3b4186f6b6457e0\n      mload(0x40)\n      mload(0x40)\n      dup1\n      swap2\n      sub\n      swap1\n      log3\n        /* \"@openzeppelin/contracts/access/Ownable.sol\":2975:3099  {... */\n      pop\n        /* \"@openzeppelin/contracts/access/Ownable.sol\":2912:3099  function _transferOwnership(address newOwner) internal virtual {... */\n      pop\n      jump\t// out\n        /* \"@openzeppelin/contracts/utils/Context.sol\":656:752  function _msgSender() internal view virtual returns (address) {... */\n    tag_104:\n        /* \"@openzeppelin/contracts/utils/Context.sol\":709:716  address */\n      0x00\n        /* \"@openzeppelin/contracts/utils/Context.sol\":735:745  msg.sender */\n      caller\n        /* \"@openzeppelin/contracts/utils/Context.sol\":728:745  return msg.sender */\n      swap1\n      pop\n        /* \"@openzeppelin/contracts/utils/Context.sol\":656:752  function _msgSender() internal view virtual returns (address) {... */\n      swap1\n      jump\t// out\n        /* \"#utility.yul\":7:82   */\n    tag_111:\n        /* \"#utility.yul\":40:46   */\n      0x00\n        /* \"#utility.yul\":73:75   */\n      0x40\n        /* \"#utility.yul\":67:76   */\n      mload\n        /* \"#utility.yul\":57:76   */\n      swap1\n      pop\n        /* \"#utility.yul\":7:82   */\n      swap1\n      jump\t// out\n        /* \"#utility.yul\":88:205   */\n    tag_112:\n        /* \"#utility.yul\":197:198   */\n      0x00\n        /* \"#utility.yul\":194:195   */\n      dup1\n        /* \"#utility.yul\":187:199   */\n      revert\n        /* \"#utility.yul\":211:328   */\n    tag_113:\n        /* \"#utility.yul\":320:321   */\n      0x00\n        /* \"#utility.yul\":317:318   */\n      dup1\n        /* \"#utility.yul\":310:322   */\n      revert\n        /* \"#utility.yul\":334:411   */\n    tag_114:\n        /* \"#utility.yul\":371:378   */\n      0x00\n        /* \"#utility.yul\":400:405   */\n      dup2\n        /* \"#utility.yul\":389:405   */\n      swap1\n      pop\n        /* \"#utility.yul\":334:411   */\n      swap2\n      swap1\n      pop\n      jump\t// out\n        /* \"#utility.yul\":417:539   */\n    tag_115:\n        /* \"#utility.yul\":490:514   */\n      tag_168\n        /* \"#utility.yul\":508:513   */\n      dup2\n        /* \"#utility.yul\":490:514   */\n      tag_114\n      jump\t// in\n    tag_168:\n        /* \"#utility.yul\":483:488   */\n      dup2\n        /* \"#utility.yul\":480:515   */\n      eq\n        /* \"#utility.yul\":470:533   */\n      tag_169\n      jumpi\n        /* \"#utility.yul\":529:530   */\n      0x00\n        /* \"#utility.yul\":526:527   */\n      dup1\n        /* \"#utility.yul\":519:531   */\n      revert\n        /* \"#utility.yul\":470:533   */\n    tag_169:\n        /* \"#utility.yul\":417:539   */\n      pop\n      jump\t// out\n        /* \"#utility.yul\":545:684   */\n    tag_116:\n        /* \"#utility.yul\":591:596   */\n      0x00\n        /* \"#utility.yul\":629:635   */\n      dup2\n        /* \"#utility.yul\":616:636   */\n      calldataload\n        /* \"#utility.yul\":607:636   */\n      swap1\n      pop\n        /* \"#utility.yul\":645:678   */\n      tag_171\n        /* \"#utility.yul\":672:677   */\n      dup2\n        /* \"#utility.yul\":645:678   */\n      tag_115\n      jump\t// in\n    tag_171:\n        /* \"#utility.yul\":545:684   */\n      swap3\n      swap2\n      pop\n      pop\n      jump\t// out\n        /* \"#utility.yul\":690:1019   */\n    tag_14:\n        /* \"#utility.yul\":749:755   */\n      0x00\n        /* \"#utility.yul\":798:800   */\n      0x20\n        /* \"#utility.yul\":786:795   */\n      dup3\n        /* \"#utility.yul\":777:784   */\n      dup5\n        /* \"#utility.yul\":773:796   */\n      sub\n        /* \"#utility.yul\":769:801   */\n      slt\n        /* \"#utility.yul\":766:885   */\n      iszero\n      tag_173\n      jumpi\n        /* \"#utility.yul\":804:883   */\n      tag_174\n      tag_112\n      jump\t// in\n    tag_174:\n        /* \"#utility.yul\":766:885   */\n    tag_173:\n        /* \"#utility.yul\":924:925   */\n      0x00\n        /* \"#utility.yul\":949:1002   */\n      tag_175\n        /* \"#utility.yul\":994:1001   */\n      dup5\n        /* \"#utility.yul\":985:991   */\n      dup3\n        /* \"#utility.yul\":974:983   */\n      dup6\n        /* \"#utility.yul\":970:992   */\n      add\n        /* \"#utility.yul\":949:1002   */\n      tag_116\n      jump\t// in\n    tag_175:\n        /* \"#utility.yul\":939:1002   */\n      swap2\n      pop\n        /* \"#utility.yul\":895:1012   */\n      pop\n        /* \"#utility.yul\":690:1019   */\n      swap3\n      swap2\n      pop\n      pop\n      jump\t// out\n        /* \"#utility.yul\":1025:1151   */\n    tag_117:\n        /* \"#utility.yul\":1062:1069   */\n      0x00\n        /* \"#utility.yul\":1102:1144   */\n      0xffffffffffffffffffffffffffffffffffffffff\n        /* \"#utility.yul\":1095:1100   */\n      dup3\n        /* \"#utility.yul\":1091:1145   */\n      and\n        /* \"#utility.yul\":1080:1145   */\n      swap1\n      pop\n        /* \"#utility.yul\":1025:1151   */\n      swap2\n      swap1\n      pop\n      jump\t// out\n        /* \"#utility.yul\":1157:1253   */\n    tag_118:\n        /* \"#utility.yul\":1194:1201   */\n      0x00\n        /* \"#utility.yul\":1223:1247   */\n      tag_178\n        /* \"#utility.yul\":1241:1246   */\n      dup3\n        /* \"#utility.yul\":1223:1247   */\n      tag_117\n      jump\t// in\n    tag_178:\n        /* \"#utility.yul\":1212:1247   */\n      swap1\n      pop\n        /* \"#utility.yul\":1157:1253   */\n      swap2\n      swap1\n      pop\n      jump\t// out\n        /* \"#utility.yul\":1259:1377   */\n    tag_119:\n        /* \"#utility.yul\":1346:1370   */\n      tag_180\n        /* \"#utility.yul\":1364:1369   */\n      dup2\n        /* \"#utility.yul\":1346:1370   */\n      tag_118\n      jump\t// in\n    tag_180:\n        /* \"#utility.yul\":1341:1344   */\n      dup3\n        /* \"#utility.yul\":1334:1371   */\n      mstore\n        /* \"#utility.yul\":1259:1377   */\n      pop\n      pop\n      jump\t// out\n        /* \"#utility.yul\":1383:1482   */\n    tag_120:\n        /* \"#utility.yul\":1435:1441   */\n      0x00\n        /* \"#utility.yul\":1469:1474   */\n      dup2\n        /* \"#utility.yul\":1463:1475   */\n      mload\n        /* \"#utility.yul\":1453:1475   */\n      swap1\n      pop\n        /* \"#utility.yul\":1383:1482   */\n      swap2\n      swap1\n      pop\n      jump\t// out\n        /* \"#utility.yul\":1488:1657   */\n    tag_121:\n        /* \"#utility.yul\":1572:1583   */\n      0x00\n        /* \"#utility.yul\":1606:1612   */\n      dup3\n        /* \"#utility.yul\":1601:1604   */\n      dup3\n        /* \"#utility.yul\":1594:1613   */\n      mstore\n        /* \"#utility.yul\":1646:1650   */\n      0x20\n        /* \"#utility.yul\":1641:1644   */\n      dup3\n        /* \"#utility.yul\":1637:1651   */\n      add\n        /* \"#utility.yul\":1622:1651   */\n      swap1\n      pop\n        /* \"#utility.yul\":1488:1657   */\n      swap3\n      swap2\n      pop\n      pop\n      jump\t// out\n        /* \"#utility.yul\":1663:1802   */\n    tag_122:\n        /* \"#utility.yul\":1752:1758   */\n      dup3\n        /* \"#utility.yul\":1747:1750   */\n      dup2\n        /* \"#utility.yul\":1742:1745   */\n      dup4\n        /* \"#utility.yul\":1736:1759   */\n      mcopy\n        /* \"#utility.yul\":1793:1794   */\n      0x00\n        /* \"#utility.yul\":1784:1790   */\n      dup4\n        /* \"#utility.yul\":1779:1782   */\n      dup4\n        /* \"#utility.yul\":1775:1791   */\n      add\n        /* \"#utility.yul\":1768:1795   */\n      mstore\n        /* \"#utility.yul\":1663:1802   */\n      pop\n      pop\n      pop\n      jump\t// out\n        /* \"#utility.yul\":1808:1910   */\n    tag_123:\n        /* \"#utility.yul\":1849:1855   */\n      0x00\n        /* \"#utility.yul\":1900:1902   */\n      0x1f\n        /* \"#utility.yul\":1896:1903   */\n      not\n        /* \"#utility.yul\":1891:1893   */\n      0x1f\n        /* \"#utility.yul\":1884:1889   */\n      dup4\n        /* \"#utility.yul\":1880:1894   */\n      add\n        /* \"#utility.yul\":1876:1904   */\n      and\n        /* \"#utility.yul\":1866:1904   */\n      swap1\n      pop\n        /* \"#utility.yul\":1808:1910   */\n      swap2\n      swap1\n      pop\n      jump\t// out\n        /* \"#utility.yul\":1916:2293   */\n    tag_124:\n        /* \"#utility.yul\":2004:2007   */\n      0x00\n        /* \"#utility.yul\":2032:2071   */\n      tag_186\n        /* \"#utility.yul\":2065:2070   */\n      dup3\n        /* \"#utility.yul\":2032:2071   */\n      tag_120\n      jump\t// in\n    tag_186:\n        /* \"#utility.yul\":2087:2158   */\n      tag_187\n        /* \"#utility.yul\":2151:2157   */\n      dup2\n        /* \"#utility.yul\":2146:2149   */\n      dup6\n        /* \"#utility.yul\":2087:2158   */\n      tag_121\n      jump\t// in\n    tag_187:\n        /* \"#utility.yul\":2080:2158   */\n      swap4\n      pop\n        /* \"#utility.yul\":2167:2232   */\n      tag_188\n        /* \"#utility.yul\":2225:2231   */\n      dup2\n        /* \"#utility.yul\":2220:2223   */\n      dup6\n        /* \"#utility.yul\":2213:2217   */\n      0x20\n        /* \"#utility.yul\":2206:2211   */\n      dup7\n        /* \"#utility.yul\":2202:2218   */\n      add\n        /* \"#utility.yul\":2167:2232   */\n      tag_122\n      jump\t// in\n    tag_188:\n        /* \"#utility.yul\":2257:2286   */\n      tag_189\n        /* \"#utility.yul\":2279:2285   */\n      dup2\n        /* \"#utility.yul\":2257:2286   */\n      tag_123\n      jump\t// in\n    tag_189:\n        /* \"#utility.yul\":2252:2255   */\n      dup5\n        /* \"#utility.yul\":2248:2287   */\n      add\n        /* \"#utility.yul\":2241:2287   */\n      swap2\n      pop\n        /* \"#utility.yul\":2008:2293   */\n      pop\n        /* \"#utility.yul\":1916:2293   */\n      swap3\n      swap2\n      pop\n      pop\n      jump\t// out\n        /* \"#utility.yul\":2299:2417   */\n    tag_125:\n        /* \"#utility.yul\":2386:2410   */\n      tag_191\n        /* \"#utility.yul\":2404:2409   */\n      dup2\n        /* \"#utility.yul\":2386:2410   */\n      tag_114\n      jump\t// in\n    tag_191:\n        /* \"#utility.yul\":2381:2384   */\n      dup3\n        /* \"#utility.yul\":2374:2411   */\n      mstore\n        /* \"#utility.yul\":2299:2417   */\n      pop\n      pop\n      jump\t// out\n        /* \"#utility.yul\":2423:2956   */\n    tag_17:\n        /* \"#utility.yul\":2592:2596   */\n      0x00\n        /* \"#utility.yul\":2630:2632   */\n      0x60\n        /* \"#utility.yul\":2619:2628   */\n      dup3\n        /* \"#utility.yul\":2615:2633   */\n      add\n        /* \"#utility.yul\":2607:2633   */\n      swap1\n      pop\n        /* \"#utility.yul\":2643:2714   */\n      tag_193\n        /* \"#utility.yul\":2711:2712   */\n      0x00\n        /* \"#utility.yul\":2700:2709   */\n      dup4\n        /* \"#utility.yul\":2696:2713   */\n      add\n        /* \"#utility.yul\":2687:2693   */\n      dup7\n        /* \"#utility.yul\":2643:2714   */\n      tag_119\n      jump\t// in\n    tag_193:\n        /* \"#utility.yul\":2761:2770   */\n      dup2\n        /* \"#utility.yul\":2755:2759   */\n      dup2\n        /* \"#utility.yul\":2751:2771   */\n      sub\n        /* \"#utility.yul\":2746:2748   */\n      0x20\n        /* \"#utility.yul\":2735:2744   */\n      dup4\n        /* \"#utility.yul\":2731:2749   */\n      add\n        /* \"#utility.yul\":2724:2772   */\n      mstore\n        /* \"#utility.yul\":2789:2867   */\n      tag_194\n        /* \"#utility.yul\":2862:2866   */\n      dup2\n        /* \"#utility.yul\":2853:2859   */\n      dup6\n        /* \"#utility.yul\":2789:2867   */\n      tag_124\n      jump\t// in\n    tag_194:\n        /* \"#utility.yul\":2781:2867   */\n      swap1\n      pop\n        /* \"#utility.yul\":2877:2949   */\n      tag_195\n        /* \"#utility.yul\":2945:2947   */\n      0x40\n        /* \"#utility.yul\":2934:2943   */\n      dup4\n        /* \"#utility.yul\":2930:2948   */\n      add\n        /* \"#utility.yul\":2921:2927   */\n      dup5\n        /* \"#utility.yul\":2877:2949   */\n      tag_125\n      jump\t// in\n    tag_195:\n        /* \"#utility.yul\":2423:2956   */\n      swap5\n      swap4\n      pop\n      pop\n      pop\n      pop\n      jump\t// out\n        /* \"#utility.yul\":2962:3184   */\n    tag_22:\n        /* \"#utility.yul\":3055:3059   */\n      0x00\n        /* \"#utility.yul\":3093:3095   */\n      0x20\n        /* \"#utility.yul\":3082:3091   */\n      dup3\n        /* \"#utility.yul\":3078:3096   */\n      add\n        /* \"#utility.yul\":3070:3096   */\n      swap1\n      pop\n        /* \"#utility.yul\":3106:3177   */\n      tag_197\n        /* \"#utility.yul\":3174:3175   */\n      0x00\n        /* \"#utility.yul\":3163:3172   */\n      dup4\n        /* \"#utility.yul\":3159:3176   */\n      add\n        /* \"#utility.yul\":3150:3156   */\n      dup5\n        /* \"#utility.yul\":3106:3177   */\n      tag_125\n      jump\t// in\n    tag_197:\n        /* \"#utility.yul\":2962:3184   */\n      swap3\n      swap2\n      pop\n      pop\n      jump\t// out\n        /* \"#utility.yul\":3190:3412   */\n    tag_30:\n        /* \"#utility.yul\":3283:3287   */\n      0x00\n        /* \"#utility.yul\":3321:3323   */\n      0x20\n        /* \"#utility.yul\":3310:3319   */\n      dup3\n        /* \"#utility.yul\":3306:3324   */\n      add\n        /* \"#utility.yul\":3298:3324   */\n      swap1\n      pop\n        /* \"#utility.yul\":3334:3405   */\n      tag_199\n        /* \"#utility.yul\":3402:3403   */\n      0x00\n        /* \"#utility.yul\":3391:3400   */\n      dup4\n        /* \"#utility.yul\":3387:3404   */\n      add\n        /* \"#utility.yul\":3378:3384   */\n      dup5\n        /* \"#utility.yul\":3334:3405   */\n      tag_119\n      jump\t// in\n    tag_199:\n        /* \"#utility.yul\":3190:3412   */\n      swap3\n      swap2\n      pop\n      pop\n      jump\t// out\n        /* \"#utility.yul\":3418:3535   */\n    tag_126:\n        /* \"#utility.yul\":3527:3528   */\n      0x00\n        /* \"#utility.yul\":3524:3525   */\n      dup1\n        /* \"#utility.yul\":3517:3529   */\n      revert\n        /* \"#utility.yul\":3541:3658   */\n    tag_127:\n        /* \"#utility.yul\":3650:3651   */\n      0x00\n        /* \"#utility.yul\":3647:3648   */\n      dup1\n        /* \"#utility.yul\":3640:3652   */\n      revert\n        /* \"#utility.yul\":3664:3844   */\n    tag_128:\n        /* \"#utility.yul\":3712:3789   */\n      0x4e487b7100000000000000000000000000000000000000000000000000000000\n        /* \"#utility.yul\":3709:3710   */\n      0x00\n        /* \"#utility.yul\":3702:3790   */\n      mstore\n        /* \"#utility.yul\":3809:3813   */\n      0x41\n        /* \"#utility.yul\":3806:3807   */\n      0x04\n        /* \"#utility.yul\":3799:3814   */\n      mstore\n        /* \"#utility.yul\":3833:3837   */\n      0x24\n        /* \"#utility.yul\":3830:3831   */\n      0x00\n        /* \"#utility.yul\":3823:3838   */\n      revert\n        /* \"#utility.yul\":3850:4131   */\n    tag_129:\n        /* \"#utility.yul\":3933:3960   */\n      tag_204\n        /* \"#utility.yul\":3955:3959   */\n      dup3\n        /* \"#utility.yul\":3933:3960   */\n      tag_123\n      jump\t// in\n    tag_204:\n        /* \"#utility.yul\":3925:3931   */\n      dup2\n        /* \"#utility.yul\":3921:3961   */\n      add\n        /* \"#utility.yul\":4063:4069   */\n      dup2\n        /* \"#utility.yul\":4051:4061   */\n      dup2\n        /* \"#utility.yul\":4048:4070   */\n      lt\n        /* \"#utility.yul\":4027:4045   */\n      0xffffffffffffffff\n        /* \"#utility.yul\":4015:4025   */\n      dup3\n        /* \"#utility.yul\":4012:4046   */\n      gt\n        /* \"#utility.yul\":4009:4071   */\n      or\n        /* \"#utility.yul\":4006:4094   */\n      iszero\n      tag_205\n      jumpi\n        /* \"#utility.yul\":4074:4092   */\n      tag_206\n      tag_128\n      jump\t// in\n    tag_206:\n        /* \"#utility.yul\":4006:4094   */\n    tag_205:\n        /* \"#utility.yul\":4114:4124   */\n      dup1\n        /* \"#utility.yul\":4110:4112   */\n      0x40\n        /* \"#utility.yul\":4103:4125   */\n      mstore\n        /* \"#utility.yul\":3893:4131   */\n      pop\n        /* \"#utility.yul\":3850:4131   */\n      pop\n      pop\n      jump\t// out\n        /* \"#utility.yul\":4137:4266   */\n    tag_130:\n        /* \"#utility.yul\":4171:4177   */\n      0x00\n        /* \"#utility.yul\":4198:4218   */\n      tag_208\n      tag_111\n      jump\t// in\n    tag_208:\n        /* \"#utility.yul\":4188:4218   */\n      swap1\n      pop\n        /* \"#utility.yul\":4227:4260   */\n      tag_209\n        /* \"#utility.yul\":4255:4259   */\n      dup3\n        /* \"#utility.yul\":4247:4253   */\n      dup3\n        /* \"#utility.yul\":4227:4260   */\n      tag_129\n      jump\t// in\n    tag_209:\n        /* \"#utility.yul\":4137:4266   */\n      swap2\n      swap1\n      pop\n      jump\t// out\n        /* \"#utility.yul\":4272:4580   */\n    tag_131:\n        /* \"#utility.yul\":4334:4338   */\n      0x00\n        /* \"#utility.yul\":4424:4442   */\n      0xffffffffffffffff\n        /* \"#utility.yul\":4416:4422   */\n      dup3\n        /* \"#utility.yul\":4413:4443   */\n      gt\n        /* \"#utility.yul\":4410:4466   */\n      iszero\n      tag_211\n      jumpi\n        /* \"#utility.yul\":4446:4464   */\n      tag_212\n      tag_128\n      jump\t// in\n    tag_212:\n        /* \"#utility.yul\":4410:4466   */\n    tag_211:\n        /* \"#utility.yul\":4484:4513   */\n      tag_213\n        /* \"#utility.yul\":4506:4512   */\n      dup3\n        /* \"#utility.yul\":4484:4513   */\n      tag_123\n      jump\t// in\n    tag_213:\n        /* \"#utility.yul\":4476:4513   */\n      swap1\n      pop\n        /* \"#utility.yul\":4568:4572   */\n      0x20\n        /* \"#utility.yul\":4562:4566   */\n      dup2\n        /* \"#utility.yul\":4558:4573   */\n      add\n        /* \"#utility.yul\":4550:4573   */\n      swap1\n      pop\n        /* \"#utility.yul\":4272:4580   */\n      swap2\n      swap1\n      pop\n      jump\t// out\n        /* \"#utility.yul\":4586:4734   */\n    tag_132:\n        /* \"#utility.yul\":4684:4690   */\n      dup3\n        /* \"#utility.yul\":4679:4682   */\n      dup2\n        /* \"#utility.yul\":4674:4677   */\n      dup4\n        /* \"#utility.yul\":4661:4691   */\n      calldatacopy\n        /* \"#utility.yul\":4725:4726   */\n      0x00\n        /* \"#utility.yul\":4716:4722   */\n      dup4\n        /* \"#utility.yul\":4711:4714   */\n      dup4\n        /* \"#utility.yul\":4707:4723   */\n      add\n        /* \"#utility.yul\":4700:4727   */\n      mstore\n        /* \"#utility.yul\":4586:4734   */\n      pop\n      pop\n      pop\n      jump\t// out\n        /* \"#utility.yul\":4740:5165   */\n    tag_133:\n        /* \"#utility.yul\":4818:4823   */\n      0x00\n        /* \"#utility.yul\":4843:4909   */\n      tag_216\n        /* \"#utility.yul\":4859:4908   */\n      tag_217\n        /* \"#utility.yul\":4901:4907   */\n      dup5\n        /* \"#utility.yul\":4859:4908   */\n      tag_131\n      jump\t// in\n    tag_217:\n        /* \"#utility.yul\":4843:4909   */\n      tag_130\n      jump\t// in\n    tag_216:\n        /* \"#utility.yul\":4834:4909   */\n      swap1\n      pop\n        /* \"#utility.yul\":4932:4938   */\n      dup3\n        /* \"#utility.yul\":4925:4930   */\n      dup2\n        /* \"#utility.yul\":4918:4939   */\n      mstore\n        /* \"#utility.yul\":4970:4974   */\n      0x20\n        /* \"#utility.yul\":4963:4968   */\n      dup2\n        /* \"#utility.yul\":4959:4975   */\n      add\n        /* \"#utility.yul\":5008:5011   */\n      dup5\n        /* \"#utility.yul\":4999:5005   */\n      dup5\n        /* \"#utility.yul\":4994:4997   */\n      dup5\n        /* \"#utility.yul\":4990:5006   */\n      add\n        /* \"#utility.yul\":4987:5012   */\n      gt\n        /* \"#utility.yul\":4984:5096   */\n      iszero\n      tag_218\n      jumpi\n        /* \"#utility.yul\":5015:5094   */\n      tag_219\n      tag_127\n      jump\t// in\n    tag_219:\n        /* \"#utility.yul\":4984:5096   */\n    tag_218:\n        /* \"#utility.yul\":5105:5159   */\n      tag_220\n        /* \"#utility.yul\":5152:5158   */\n      dup5\n        /* \"#utility.yul\":5147:5150   */\n      dup3\n        /* \"#utility.yul\":5142:5145   */\n      dup6\n        /* \"#utility.yul\":5105:5159   */\n      tag_132\n      jump\t// in\n    tag_220:\n        /* \"#utility.yul\":4824:5165   */\n      pop\n        /* \"#utility.yul\":4740:5165   */\n      swap4\n      swap3\n      pop\n      pop\n      pop\n      jump\t// out\n        /* \"#utility.yul\":5185:5525   */\n    tag_134:\n        /* \"#utility.yul\":5241:5246   */\n      0x00\n        /* \"#utility.yul\":5290:5293   */\n      dup3\n        /* \"#utility.yul\":5283:5287   */\n      0x1f\n        /* \"#utility.yul\":5275:5281   */\n      dup4\n        /* \"#utility.yul\":5271:5288   */\n      add\n        /* \"#utility.yul\":5267:5294   */\n      slt\n        /* \"#utility.yul\":5257:5379   */\n      tag_222\n      jumpi\n        /* \"#utility.yul\":5298:5377   */\n      tag_223\n      tag_126\n      jump\t// in\n    tag_223:\n        /* \"#utility.yul\":5257:5379   */\n    tag_222:\n        /* \"#utility.yul\":5415:5421   */\n      dup2\n        /* \"#utility.yul\":5402:5422   */\n      calldataload\n        /* \"#utility.yul\":5440:5519   */\n      tag_224\n        /* \"#utility.yul\":5515:5518   */\n      dup5\n        /* \"#utility.yul\":5507:5513   */\n      dup3\n        /* \"#utility.yul\":5500:5504   */\n      0x20\n        /* \"#utility.yul\":5492:5498   */\n      dup7\n        /* \"#utility.yul\":5488:5505   */\n      add\n        /* \"#utility.yul\":5440:5519   */\n      tag_133\n      jump\t// in\n    tag_224:\n        /* \"#utility.yul\":5431:5519   */\n      swap2\n      pop\n        /* \"#utility.yul\":5247:5525   */\n      pop\n        /* \"#utility.yul\":5185:5525   */\n      swap3\n      swap2\n      pop\n      pop\n      jump\t// out\n        /* \"#utility.yul\":5531:6185   */\n    tag_42:\n        /* \"#utility.yul\":5609:5615   */\n      0x00\n        /* \"#utility.yul\":5617:5623   */\n      dup1\n        /* \"#utility.yul\":5666:5668   */\n      0x40\n        /* \"#utility.yul\":5654:5663   */\n      dup4\n        /* \"#utility.yul\":5645:5652   */\n      dup6\n        /* \"#utility.yul\":5641:5664   */\n      sub\n        /* \"#utility.yul\":5637:5669   */\n      slt\n        /* \"#utility.yul\":5634:5753   */\n      iszero\n      tag_226\n      jumpi\n        /* \"#utility.yul\":5672:5751   */\n      tag_227\n      tag_112\n      jump\t// in\n    tag_227:\n        /* \"#utility.yul\":5634:5753   */\n    tag_226:\n        /* \"#utility.yul\":5820:5821   */\n      0x00\n        /* \"#utility.yul\":5809:5818   */\n      dup4\n        /* \"#utility.yul\":5805:5822   */\n      add\n        /* \"#utility.yul\":5792:5823   */\n      calldataload\n        /* \"#utility.yul\":5850:5868   */\n      0xffffffffffffffff\n        /* \"#utility.yul\":5842:5848   */\n      dup2\n        /* \"#utility.yul\":5839:5869   */\n      gt\n        /* \"#utility.yul\":5836:5953   */\n      iszero\n      tag_228\n      jumpi\n        /* \"#utility.yul\":5872:5951   */\n      tag_229\n      tag_113\n      jump\t// in\n    tag_229:\n        /* \"#utility.yul\":5836:5953   */\n    tag_228:\n        /* \"#utility.yul\":5977:6040   */\n      tag_230\n        /* \"#utility.yul\":6032:6039   */\n      dup6\n        /* \"#utility.yul\":6023:6029   */\n      dup3\n        /* \"#utility.yul\":6012:6021   */\n      dup7\n        /* \"#utility.yul\":6008:6030   */\n      add\n        /* \"#utility.yul\":5977:6040   */\n      tag_134\n      jump\t// in\n    tag_230:\n        /* \"#utility.yul\":5967:6040   */\n      swap3\n      pop\n        /* \"#utility.yul\":5763:6050   */\n      pop\n        /* \"#utility.yul\":6089:6091   */\n      0x20\n        /* \"#utility.yul\":6115:6168   */\n      tag_231\n        /* \"#utility.yul\":6160:6167   */\n      dup6\n        /* \"#utility.yul\":6151:6157   */\n      dup3\n        /* \"#utility.yul\":6140:6149   */\n      dup7\n        /* \"#utility.yul\":6136:6158   */\n      add\n        /* \"#utility.yul\":6115:6168   */\n      tag_116\n      jump\t// in\n    tag_231:\n        /* \"#utility.yul\":6105:6168   */\n      swap2\n      pop\n        /* \"#utility.yul\":6060:6178   */\n      pop\n        /* \"#utility.yul\":5531:6185   */\n      swap3\n      pop\n      swap3\n      swap1\n      pop\n      jump\t// out\n        /* \"#utility.yul\":6191:6313   */\n    tag_135:\n        /* \"#utility.yul\":6264:6288   */\n      tag_233\n        /* \"#utility.yul\":6282:6287   */\n      dup2\n        /* \"#utility.yul\":6264:6288   */\n      tag_118\n      jump\t// in\n    tag_233:\n        /* \"#utility.yul\":6257:6262   */\n      dup2\n        /* \"#utility.yul\":6254:6289   */\n      eq\n        /* \"#utility.yul\":6244:6307   */\n      tag_234\n      jumpi\n        /* \"#utility.yul\":6303:6304   */\n      0x00\n        /* \"#utility.yul\":6300:6301   */\n      dup1\n        /* \"#utility.yul\":6293:6305   */\n      revert\n        /* \"#utility.yul\":6244:6307   */\n    tag_234:\n        /* \"#utility.yul\":6191:6313   */\n      pop\n      jump\t// out\n        /* \"#utility.yul\":6319:6458   */\n    tag_136:\n        /* \"#utility.yul\":6365:6370   */\n      0x00\n        /* \"#utility.yul\":6403:6409   */\n      dup2\n        /* \"#utility.yul\":6390:6410   */\n      calldataload\n        /* \"#utility.yul\":6381:6410   */\n      swap1\n      pop\n        /* \"#utility.yul\":6419:6452   */\n      tag_236\n        /* \"#utility.yul\":6446:6451   */\n      dup2\n        /* \"#utility.yul\":6419:6452   */\n      tag_135\n      jump\t// in\n    tag_236:\n        /* \"#utility.yul\":6319:6458   */\n      swap3\n      swap2\n      pop\n      pop\n      jump\t// out\n        /* \"#utility.yul\":6464:6793   */\n    tag_47:\n        /* \"#utility.yul\":6523:6529   */\n      0x00\n        /* \"#utility.yul\":6572:6574   */\n      0x20\n        /* \"#utility.yul\":6560:6569   */\n      dup3\n        /* \"#utility.yul\":6551:6558   */\n      dup5\n        /* \"#utility.yul\":6547:6570   */\n      sub\n        /* \"#utility.yul\":6543:6575   */\n      slt\n        /* \"#utility.yul\":6540:6659   */\n      iszero\n      tag_238\n      jumpi\n        /* \"#utility.yul\":6578:6657   */\n      tag_239\n      tag_112\n      jump\t// in\n    tag_239:\n        /* \"#utility.yul\":6540:6659   */\n    tag_238:\n        /* \"#utility.yul\":6698:6699   */\n      0x00\n        /* \"#utility.yul\":6723:6776   */\n      tag_240\n        /* \"#utility.yul\":6768:6775   */\n      dup5\n        /* \"#utility.yul\":6759:6765   */\n      dup3\n        /* \"#utility.yul\":6748:6757   */\n      dup6\n        /* \"#utility.yul\":6744:6766   */\n      add\n        /* \"#utility.yul\":6723:6776   */\n      tag_136\n      jump\t// in\n    tag_240:\n        /* \"#utility.yul\":6713:6776   */\n      swap2\n      pop\n        /* \"#utility.yul\":6669:6786   */\n      pop\n        /* \"#utility.yul\":6464:6793   */\n      swap3\n      swap2\n      pop\n      pop\n      jump\t// out\n        /* \"#utility.yul\":6799:6979   */\n    tag_137:\n        /* \"#utility.yul\":6847:6924   */\n      0x4e487b7100000000000000000000000000000000000000000000000000000000\n        /* \"#utility.yul\":6844:6845   */\n      0x00\n        /* \"#utility.yul\":6837:6925   */\n      mstore\n        /* \"#utility.yul\":6944:6948   */\n      0x22\n        /* \"#utility.yul\":6941:6942   */\n      0x04\n        /* \"#utility.yul\":6934:6949   */\n      mstore\n        /* \"#utility.yul\":6968:6972   */\n      0x24\n        /* \"#utility.yul\":6965:6966   */\n      0x00\n        /* \"#utility.yul\":6958:6973   */\n      revert\n        /* \"#utility.yul\":6985:7305   */\n    tag_52:\n        /* \"#utility.yul\":7029:7035   */\n      0x00\n        /* \"#utility.yul\":7066:7067   */\n      0x02\n        /* \"#utility.yul\":7060:7064   */\n      dup3\n        /* \"#utility.yul\":7056:7068   */\n      div\n        /* \"#utility.yul\":7046:7068   */\n      swap1\n      pop\n        /* \"#utility.yul\":7113:7114   */\n      0x01\n        /* \"#utility.yul\":7107:7111   */\n      dup3\n        /* \"#utility.yul\":7103:7115   */\n      and\n        /* \"#utility.yul\":7134:7152   */\n      dup1\n        /* \"#utility.yul\":7124:7205   */\n      tag_243\n      jumpi\n        /* \"#utility.yul\":7190:7194   */\n      0x7f\n        /* \"#utility.yul\":7182:7188   */\n      dup3\n        /* \"#utility.yul\":7178:7195   */\n      and\n        /* \"#utility.yul\":7168:7195   */\n      swap2\n      pop\n        /* \"#utility.yul\":7124:7205   */\n    tag_243:\n        /* \"#utility.yul\":7252:7254   */\n      0x20\n        /* \"#utility.yul\":7244:7250   */\n      dup3\n        /* \"#utility.yul\":7241:7255   */\n      lt\n        /* \"#utility.yul\":7221:7239   */\n      dup2\n        /* \"#utility.yul\":7218:7256   */\n      sub\n        /* \"#utility.yul\":7215:7299   */\n      tag_244\n      jumpi\n        /* \"#utility.yul\":7271:7289   */\n      tag_245\n      tag_137\n      jump\t// in\n    tag_245:\n        /* \"#utility.yul\":7215:7299   */\n    tag_244:\n        /* \"#utility.yul\":7036:7305   */\n      pop\n        /* \"#utility.yul\":6985:7305   */\n      swap2\n      swap1\n      pop\n      jump\t// out\n        /* \"#utility.yul\":7311:7488   */\n    tag_138:\n        /* \"#utility.yul\":7451:7480   */\n      0x4d65737361676520696e646578206f7574206f6620626f756e64730000000000\n        /* \"#utility.yul\":7447:7448   */\n      0x00\n        /* \"#utility.yul\":7439:7445   */\n      dup3\n        /* \"#utility.yul\":7435:7449   */\n      add\n        /* \"#utility.yul\":7428:7481   */\n      mstore\n        /* \"#utility.yul\":7311:7488   */\n      pop\n      jump\t// out\n        /* \"#utility.yul\":7494:7860   */\n    tag_139:\n        /* \"#utility.yul\":7636:7639   */\n      0x00\n        /* \"#utility.yul\":7657:7724   */\n      tag_248\n        /* \"#utility.yul\":7721:7723   */\n      0x1b\n        /* \"#utility.yul\":7716:7719   */\n      dup4\n        /* \"#utility.yul\":7657:7724   */\n      tag_121\n      jump\t// in\n    tag_248:\n        /* \"#utility.yul\":7650:7724   */\n      swap2\n      pop\n        /* \"#utility.yul\":7733:7826   */\n      tag_249\n        /* \"#utility.yul\":7822:7825   */\n      dup3\n        /* \"#utility.yul\":7733:7826   */\n      tag_138\n      jump\t// in\n    tag_249:\n        /* \"#utility.yul\":7851:7853   */\n      0x20\n        /* \"#utility.yul\":7846:7849   */\n      dup3\n        /* \"#utility.yul\":7842:7854   */\n      add\n        /* \"#utility.yul\":7835:7854   */\n      swap1\n      pop\n        /* \"#utility.yul\":7494:7860   */\n      swap2\n      swap1\n      pop\n      jump\t// out\n        /* \"#utility.yul\":7866:8285   */\n    tag_68:\n        /* \"#utility.yul\":8032:8036   */\n      0x00\n        /* \"#utility.yul\":8070:8072   */\n      0x20\n        /* \"#utility.yul\":8059:8068   */\n      dup3\n        /* \"#utility.yul\":8055:8073   */\n      add\n        /* \"#utility.yul\":8047:8073   */\n      swap1\n      pop\n        /* \"#utility.yul\":8119:8128   */\n      dup2\n        /* \"#utility.yul\":8113:8117   */\n      dup2\n        /* \"#utility.yul\":8109:8129   */\n      sub\n        /* \"#utility.yul\":8105:8106   */\n      0x00\n        /* \"#utility.yul\":8094:8103   */\n      dup4\n        /* \"#utility.yul\":8090:8107   */\n      add\n        /* \"#utility.yul\":8083:8130   */\n      mstore\n        /* \"#utility.yul\":8147:8278   */\n      tag_251\n        /* \"#utility.yul\":8273:8277   */\n      dup2\n        /* \"#utility.yul\":8147:8278   */\n      tag_139\n      jump\t// in\n    tag_251:\n        /* \"#utility.yul\":8139:8278   */\n      swap1\n      pop\n        /* \"#utility.yul\":7866:8285   */\n      swap2\n      swap1\n      pop\n      jump\t// out\n        /* \"#utility.yul\":8291:8471   */\n    tag_71:\n        /* \"#utility.yul\":8339:8416   */\n      0x4e487b7100000000000000000000000000000000000000000000000000000000\n        /* \"#utility.yul\":8336:8337   */\n      0x00\n        /* \"#utility.yul\":8329:8417   */\n      mstore\n        /* \"#utility.yul\":8436:8440   */\n      0x32\n        /* \"#utility.yul\":8433:8434   */\n      0x04\n        /* \"#utility.yul\":8426:8441   */\n      mstore\n        /* \"#utility.yul\":8460:8464   */\n      0x24\n        /* \"#utility.yul\":8457:8458   */\n      0x00\n        /* \"#utility.yul\":8450:8465   */\n      revert\n        /* \"#utility.yul\":8477:8652   */\n    tag_140:\n        /* \"#utility.yul\":8617:8644   */\n      0x4d657373616765206d7573742068617665206120707269636500000000000000\n        /* \"#utility.yul\":8613:8614   */\n      0x00\n        /* \"#utility.yul\":8605:8611   */\n      dup3\n        /* \"#utility.yul\":8601:8615   */\n      add\n        /* \"#utility.yul\":8594:8645   */\n      mstore\n        /* \"#utility.yul\":8477:8652   */\n      pop\n      jump\t// out\n        /* \"#utility.yul\":8658:9024   */\n    tag_141:\n        /* \"#utility.yul\":8800:8803   */\n      0x00\n        /* \"#utility.yul\":8821:8888   */\n      tag_255\n        /* \"#utility.yul\":8885:8887   */\n      0x19\n        /* \"#utility.yul\":8880:8883   */\n      dup4\n        /* \"#utility.yul\":8821:8888   */\n      tag_121\n      jump\t// in\n    tag_255:\n        /* \"#utility.yul\":8814:8888   */\n      swap2\n      pop\n        /* \"#utility.yul\":8897:8990   */\n      tag_256\n        /* \"#utility.yul\":8986:8989   */\n      dup3\n        /* \"#utility.yul\":8897:8990   */\n      tag_140\n      jump\t// in\n    tag_256:\n        /* \"#utility.yul\":9015:9017   */\n      0x20\n        /* \"#utility.yul\":9010:9013   */\n      dup3\n        /* \"#utility.yul\":9006:9018   */\n      add\n        /* \"#utility.yul\":8999:9018   */\n      swap1\n      pop\n        /* \"#utility.yul\":8658:9024   */\n      swap2\n      swap1\n      pop\n      jump\t// out\n        /* \"#utility.yul\":9030:9449   */\n    tag_81:\n        /* \"#utility.yul\":9196:9200   */\n      0x00\n        /* \"#utility.yul\":9234:9236   */\n      0x20\n        /* \"#utility.yul\":9223:9232   */\n      dup3\n        /* \"#utility.yul\":9219:9237   */\n      add\n        /* \"#utility.yul\":9211:9237   */\n      swap1\n      pop\n        /* \"#utility.yul\":9283:9292   */\n      dup2\n        /* \"#utility.yul\":9277:9281   */\n      dup2\n        /* \"#utility.yul\":9273:9293   */\n      sub\n        /* \"#utility.yul\":9269:9270   */\n      0x00\n        /* \"#utility.yul\":9258:9267   */\n      dup4\n        /* \"#utility.yul\":9254:9271   */\n      add\n        /* \"#utility.yul\":9247:9294   */\n      mstore\n        /* \"#utility.yul\":9311:9442   */\n      tag_258\n        /* \"#utility.yul\":9437:9441   */\n      dup2\n        /* \"#utility.yul\":9311:9442   */\n      tag_141\n      jump\t// in\n    tag_258:\n        /* \"#utility.yul\":9303:9442   */\n      swap1\n      pop\n        /* \"#utility.yul\":9030:9449   */\n      swap2\n      swap1\n      pop\n      jump\t// out\n        /* \"#utility.yul\":9455:9553   */\n    tag_142:\n        /* \"#utility.yul\":9506:9512   */\n      0x00\n        /* \"#utility.yul\":9540:9545   */\n      dup2\n        /* \"#utility.yul\":9534:9546   */\n      mload\n        /* \"#utility.yul\":9524:9546   */\n      swap1\n      pop\n        /* \"#utility.yul\":9455:9553   */\n      swap2\n      swap1\n      pop\n      jump\t// out\n        /* \"#utility.yul\":9559:9706   */\n    tag_143:\n        /* \"#utility.yul\":9660:9671   */\n      0x00\n        /* \"#utility.yul\":9697:9700   */\n      dup2\n        /* \"#utility.yul\":9682:9700   */\n      swap1\n      pop\n        /* \"#utility.yul\":9559:9706   */\n      swap3\n      swap2\n      pop\n      pop\n      jump\t// out\n        /* \"#utility.yul\":9712:10098   */\n    tag_144:\n        /* \"#utility.yul\":9816:9819   */\n      0x00\n        /* \"#utility.yul\":9844:9882   */\n      tag_262\n        /* \"#utility.yul\":9876:9881   */\n      dup3\n        /* \"#utility.yul\":9844:9882   */\n      tag_142\n      jump\t// in\n    tag_262:\n        /* \"#utility.yul\":9898:9986   */\n      tag_263\n        /* \"#utility.yul\":9979:9985   */\n      dup2\n        /* \"#utility.yul\":9974:9977   */\n      dup6\n        /* \"#utility.yul\":9898:9986   */\n      tag_143\n      jump\t// in\n    tag_263:\n        /* \"#utility.yul\":9891:9986   */\n      swap4\n      pop\n        /* \"#utility.yul\":9995:10060   */\n      tag_264\n        /* \"#utility.yul\":10053:10059   */\n      dup2\n        /* \"#utility.yul\":10048:10051   */\n      dup6\n        /* \"#utility.yul\":10041:10045   */\n      0x20\n        /* \"#utility.yul\":10034:10039   */\n      dup7\n        /* \"#utility.yul\":10030:10046   */\n      add\n        /* \"#utility.yul\":9995:10060   */\n      tag_122\n      jump\t// in\n    tag_264:\n        /* \"#utility.yul\":10085:10091   */\n      dup1\n        /* \"#utility.yul\":10080:10083   */\n      dup5\n        /* \"#utility.yul\":10076:10092   */\n      add\n        /* \"#utility.yul\":10069:10092   */\n      swap2\n      pop\n        /* \"#utility.yul\":9820:10098   */\n      pop\n        /* \"#utility.yul\":9712:10098   */\n      swap3\n      swap2\n      pop\n      pop\n      jump\t// out\n        /* \"#utility.yul\":10104:10375   */\n    tag_84:\n        /* \"#utility.yul\":10234:10237   */\n      0x00\n        /* \"#utility.yul\":10256:10349   */\n      tag_266\n        /* \"#utility.yul\":10345:10348   */\n      dup3\n        /* \"#utility.yul\":10336:10342   */\n      dup5\n        /* \"#utility.yul\":10256:10349   */\n      tag_144\n      jump\t// in\n    tag_266:\n        /* \"#utility.yul\":10249:10349   */\n      swap2\n      pop\n        /* \"#utility.yul\":10366:10369   */\n      dup2\n        /* \"#utility.yul\":10359:10369   */\n      swap1\n      pop\n        /* \"#utility.yul\":10104:10375   */\n      swap3\n      swap2\n      pop\n      pop\n      jump\t// out\n        /* \"#utility.yul\":10381:10545   */\n    tag_145:\n        /* \"#utility.yul\":10521:10537   */\n      0x5061796d656e74206661696c6564000000000000000000000000000000000000\n        /* \"#utility.yul\":10517:10518   */\n      0x00\n        /* \"#utility.yul\":10509:10515   */\n      dup3\n        /* \"#utility.yul\":10505:10519   */\n      add\n        /* \"#utility.yul\":10498:10538   */\n      mstore\n        /* \"#utility.yul\":10381:10545   */\n      pop\n      jump\t// out\n        /* \"#utility.yul\":10551:10917   */\n    tag_146:\n        /* \"#utility.yul\":10693:10696   */\n      0x00\n        /* \"#utility.yul\":10714:10781   */\n      tag_269\n        /* \"#utility.yul\":10778:10780   */\n      0x0e\n        /* \"#utility.yul\":10773:10776   */\n      dup4\n        /* \"#utility.yul\":10714:10781   */\n      tag_121\n      jump\t// in\n    tag_269:\n        /* \"#utility.yul\":10707:10781   */\n      swap2\n      pop\n        /* \"#utility.yul\":10790:10883   */\n      tag_270\n        /* \"#utility.yul\":10879:10882   */\n      dup3\n        /* \"#utility.yul\":10790:10883   */\n      tag_145\n      jump\t// in\n    tag_270:\n        /* \"#utility.yul\":10908:10910   */\n      0x20\n        /* \"#utility.yul\":10903:10906   */\n      dup3\n        /* \"#utility.yul\":10899:10911   */\n      add\n        /* \"#utility.yul\":10892:10911   */\n      swap1\n      pop\n        /* \"#utility.yul\":10551:10917   */\n      swap2\n      swap1\n      pop\n      jump\t// out\n        /* \"#utility.yul\":10923:11342   */\n    tag_90:\n        /* \"#utility.yul\":11089:11093   */\n      0x00\n        /* \"#utility.yul\":11127:11129   */\n      0x20\n        /* \"#utility.yul\":11116:11125   */\n      dup3\n        /* \"#utility.yul\":11112:11130   */\n      add\n        /* \"#utility.yul\":11104:11130   */\n      swap1\n      pop\n        /* \"#utility.yul\":11176:11185   */\n      dup2\n        /* \"#utility.yul\":11170:11174   */\n      dup2\n        /* \"#utility.yul\":11166:11186   */\n      sub\n        /* \"#utility.yul\":11162:11163   */\n      0x00\n        /* \"#utility.yul\":11151:11160   */\n      dup4\n        /* \"#utility.yul\":11147:11164   */\n      add\n        /* \"#utility.yul\":11140:11187   */\n      mstore\n        /* \"#utility.yul\":11204:11335   */\n      tag_272\n        /* \"#utility.yul\":11330:11334   */\n      dup2\n        /* \"#utility.yul\":11204:11335   */\n      tag_146\n      jump\t// in\n    tag_272:\n        /* \"#utility.yul\":11196:11335   */\n      swap1\n      pop\n        /* \"#utility.yul\":10923:11342   */\n      swap2\n      swap1\n      pop\n      jump\t// out\n        /* \"#utility.yul\":11348:11489   */\n    tag_147:\n        /* \"#utility.yul\":11397:11401   */\n      0x00\n        /* \"#utility.yul\":11420:11423   */\n      dup2\n        /* \"#utility.yul\":11412:11423   */\n      swap1\n      pop\n        /* \"#utility.yul\":11443:11446   */\n      dup2\n        /* \"#utility.yul\":11440:11441   */\n      0x00\n        /* \"#utility.yul\":11433:11447   */\n      mstore\n        /* \"#utility.yul\":11477:11481   */\n      0x20\n        /* \"#utility.yul\":11474:11475   */\n      0x00\n        /* \"#utility.yul\":11464:11482   */\n      keccak256\n        /* \"#utility.yul\":11456:11482   */\n      swap1\n      pop\n        /* \"#utility.yul\":11348:11489   */\n      swap2\n      swap1\n      pop\n      jump\t// out\n        /* \"#utility.yul\":11495:11588   */\n    tag_148:\n        /* \"#utility.yul\":11532:11538   */\n      0x00\n        /* \"#utility.yul\":11579:11581   */\n      0x20\n        /* \"#utility.yul\":11574:11576   */\n      0x1f\n        /* \"#utility.yul\":11567:11572   */\n      dup4\n        /* \"#utility.yul\":11563:11577   */\n      add\n        /* \"#utility.yul\":11559:11582   */\n      div\n        /* \"#utility.yul\":11549:11582   */\n      swap1\n      pop\n        /* \"#utility.yul\":11495:11588   */\n      swap2\n      swap1\n      pop\n      jump\t// out\n        /* \"#utility.yul\":11594:11701   */\n    tag_149:\n        /* \"#utility.yul\":11638:11646   */\n      0x00\n        /* \"#utility.yul\":11688:11693   */\n      dup3\n        /* \"#utility.yul\":11682:11686   */\n      dup3\n        /* \"#utility.yul\":11678:11694   */\n      shl\n        /* \"#utility.yul\":11657:11694   */\n      swap1\n      pop\n        /* \"#utility.yul\":11594:11701   */\n      swap3\n      swap2\n      pop\n      pop\n      jump\t// out\n        /* \"#utility.yul\":11707:12100   */\n    tag_150:\n        /* \"#utility.yul\":11776:11782   */\n      0x00\n        /* \"#utility.yul\":11826:11827   */\n      0x08\n        /* \"#utility.yul\":11814:11824   */\n      dup4\n        /* \"#utility.yul\":11810:11828   */\n      mul\n        /* \"#utility.yul\":11849:11946   */\n      tag_277\n        /* \"#utility.yul\":11879:11945   */\n      0xffffffffffffffffffffffffffffffffffffffffffffffffffffffffffffffff\n        /* \"#utility.yul\":11868:11877   */\n      dup3\n        /* \"#utility.yul\":11849:11946   */\n      tag_149\n      jump\t// in\n    tag_277:\n        /* \"#utility.yul\":11967:12006   */\n      tag_278\n        /* \"#utility.yul\":11997:12005   */\n      dup7\n        /* \"#utility.yul\":11986:11995   */\n      dup4\n        /* \"#utility.yul\":11967:12006   */\n      tag_149\n      jump\t// in\n    tag_278:\n        /* \"#utility.yul\":11955:12006   */\n      swap6\n      pop\n        /* \"#utility.yul\":12039:12043   */\n      dup1\n        /* \"#utility.yul\":12035:12044   */\n      not\n        /* \"#utility.yul\":12028:12033   */\n      dup5\n        /* \"#utility.yul\":12024:12045   */\n      and\n        /* \"#utility.yul\":12015:12045   */\n      swap4\n      pop\n        /* \"#utility.yul\":12088:12092   */\n      dup1\n        /* \"#utility.yul\":12078:12086   */\n      dup7\n        /* \"#utility.yul\":12074:12093   */\n      and\n        /* \"#utility.yul\":12067:12072   */\n      dup5\n        /* \"#utility.yul\":12064:12094   */\n      or\n        /* \"#utility.yul\":12054:12094   */\n      swap3\n      pop\n        /* \"#utility.yul\":11783:12100   */\n      pop\n      pop\n        /* \"#utility.yul\":11707:12100   */\n      swap4\n      swap3\n      pop\n      pop\n      pop\n      jump\t// out\n        /* \"#utility.yul\":12106:12166   */\n    tag_151:\n        /* \"#utility.yul\":12134:12137   */\n      0x00\n        /* \"#utility.yul\":12155:12160   */\n      dup2\n        /* \"#utility.yul\":12148:12160   */\n      swap1\n      pop\n        /* \"#utility.yul\":12106:12166   */\n      swap2\n      swap1\n      pop\n      jump\t// out\n        /* \"#utility.yul\":12172:12314   */\n    tag_152:\n        /* \"#utility.yul\":12222:12231   */\n      0x00\n        /* \"#utility.yul\":12255:12308   */\n      tag_281\n        /* \"#utility.yul\":12273:12307   */\n      tag_282\n        /* \"#utility.yul\":12282:12306   */\n      tag_283\n        /* \"#utility.yul\":12300:12305   */\n      dup5\n        /* \"#utility.yul\":12282:12306   */\n      tag_114\n      jump\t// in\n    tag_283:\n        /* \"#utility.yul\":12273:12307   */\n      tag_151\n      jump\t// in\n    tag_282:\n        /* \"#utility.yul\":12255:12308   */\n      tag_114\n      jump\t// in\n    tag_281:\n        /* \"#utility.yul\":12242:12308   */\n      swap1\n      pop\n        /* \"#utility.yul\":12172:12314   */\n      swap2\n      swap1\n      pop\n      jump\t// out\n        /* \"#utility.yul\":12320:12395   */\n    tag_153:\n        /* \"#utility.yul\":12363:12366   */\n      0x00\n        /* \"#utility.yul\":12384:12389   */\n      dup2\n        /* \"#utility.yul\":12377:12389   */\n      swap1\n      pop\n        /* \"#utility.yul\":12320:12395   */\n      swap2\n      swap1\n      pop\n      jump\t// out\n        /* \"#utility.yul\":12401:12670   */\n    tag_154:\n        /* \"#utility.yul\":12511:12550   */\n      tag_286\n        /* \"#utility.yul\":12542:12549   */\n      dup4\n        /* \"#utility.yul\":12511:12550   */\n      tag_152\n      jump\t// in\n    tag_286:\n        /* \"#utility.yul\":12572:12663   */\n      tag_287\n        /* \"#utility.yul\":12621:12662   */\n      tag_288\n        /* \"#utility.yul\":12645:12661   */\n      dup3\n        /* \"#utility.yul\":12621:12662   */\n      tag_153\n      jump\t// in\n    tag_288:\n        /* \"#utility.yul\":12613:12619   */\n      dup5\n        /* \"#utility.yul\":12606:12610   */\n      dup5\n        /* \"#utility.yul\":12600:12611   */\n      sload\n        /* \"#utility.yul\":12572:12663   */\n      tag_150\n      jump\t// in\n    tag_287:\n        /* \"#utility.yul\":12566:12570   */\n      dup3\n        /* \"#utility.yul\":12559:12664   */\n      sstore\n        /* \"#utility.yul\":12477:12670   */\n      pop\n        /* \"#utility.yul\":12401:12670   */\n      pop\n      pop\n      pop\n      jump\t// out\n        /* \"#utility.yul\":12676:12749   */\n    tag_155:\n        /* \"#utility.yul\":12721:12724   */\n      0x00\n        /* \"#utility.yul\":12676:12749   */\n      swap1\n      jump\t// out\n        /* \"#utility.yul\":12755:12944   */\n    tag_156:\n        /* \"#utility.yul\":12832:12864   */\n      tag_291\n      tag_155\n      jump\t// in\n    tag_291:\n        /* \"#utility.yul\":12873:12938   */\n      tag_292\n        /* \"#utility.yul\":12931:12937   */\n      dup2\n        /* \"#utility.yul\":12923:12929   */\n      dup5\n        /* \"#utility.yul\":12917:12921   */\n      dup5\n        /* \"#utility.yul\":12873:12938   */\n      tag_154\n      jump\t// in\n    tag_292:\n        /* \"#utility.yul\":12808:12944   */\n      pop\n        /* \"#utility.yul\":12755:12944   */\n      pop\n      pop\n      jump\t// out\n        /* \"#utility.yul\":12950:13136   */\n    tag_157:\n        /* \"#utility.yul\":13010:13130   */\n    tag_294:\n        /* \"#utility.yul\":13027:13030   */\n      dup2\n        /* \"#utility.yul\":13020:13025   */\n      dup2\n        /* \"#utility.yul\":13017:13031   */\n      lt\n        /* \"#utility.yul\":13010:13130   */\n      iszero\n      tag_296\n      jumpi\n        /* \"#utility.yul\":13081:13120   */\n      tag_297\n        /* \"#utility.yul\":13118:13119   */\n      0x00\n        /* \"#utility.yul\":13111:13116   */\n      dup3\n        /* \"#utility.yul\":13081:13120   */\n      tag_156\n      jump\t// in\n    tag_297:\n        /* \"#utility.yul\":13054:13055   */\n      0x01\n        /* \"#utility.yul\":13047:13052   */\n      dup2\n        /* \"#utility.yul\":13043:13056   */\n      add\n        /* \"#utility.yul\":13034:13056   */\n      swap1\n      pop\n        /* \"#utility.yul\":13010:13130   */\n      jump(tag_294)\n    tag_296:\n        /* \"#utility.yul\":12950:13136   */\n      pop\n      pop\n      jump\t// out\n        /* \"#utility.yul\":13142:13685   */\n    tag_158:\n        /* \"#utility.yul\":13243:13245   */\n      0x1f\n        /* \"#utility.yul\":13238:13241   */\n      dup3\n        /* \"#utility.yul\":13235:13246   */\n      gt\n        /* \"#utility.yul\":13232:13678   */\n      iszero\n      tag_299\n      jumpi\n        /* \"#utility.yul\":13277:13315   */\n      tag_300\n        /* \"#utility.yul\":13309:13314   */\n      dup2\n        /* \"#utility.yul\":13277:13315   */\n      tag_147\n      jump\t// in\n    tag_300:\n        /* \"#utility.yul\":13361:13390   */\n      tag_301\n        /* \"#utility.yul\":13379:13389   */\n      dup5\n        /* \"#utility.yul\":13361:13390   */\n      tag_148\n      jump\t// in\n    tag_301:\n        /* \"#utility.yul\":13351:13359   */\n      dup2\n        /* \"#utility.yul\":13347:13391   */\n      add\n        /* \"#utility.yul\":13544:13546   */\n      0x20\n        /* \"#utility.yul\":13532:13542   */\n      dup6\n        /* \"#utility.yul\":13529:13547   */\n      lt\n        /* \"#utility.yul\":13526:13575   */\n      iszero\n      tag_302\n      jumpi\n        /* \"#utility.yul\":13565:13573   */\n      dup2\n        /* \"#utility.yul\":13550:13573   */\n      swap1\n      pop\n        /* \"#utility.yul\":13526:13575   */\n    tag_302:\n        /* \"#utility.yul\":13588:13668   */\n      tag_303\n        /* \"#utility.yul\":13644:13666   */\n      tag_304\n        /* \"#utility.yul\":13662:13665   */\n      dup6\n        /* \"#utility.yul\":13644:13666   */\n      tag_148\n      jump\t// in\n    tag_304:\n        /* \"#utility.yul\":13634:13642   */\n      dup4\n        /* \"#utility.yul\":13630:13667   */\n      add\n        /* \"#utility.yul\":13617:13628   */\n      dup3\n        /* \"#utility.yul\":13588:13668   */\n      tag_157\n      jump\t// in\n    tag_303:\n        /* \"#utility.yul\":13247:13678   */\n      pop\n      pop\n        /* \"#utility.yul\":13232:13678   */\n    tag_299:\n        /* \"#utility.yul\":13142:13685   */\n      pop\n      pop\n      pop\n      jump\t// out\n        /* \"#utility.yul\":13691:13808   */\n    tag_159:\n        /* \"#utility.yul\":13745:13753   */\n      0x00\n        /* \"#utility.yul\":13795:13800   */\n      dup3\n        /* \"#utility.yul\":13789:13793   */\n      dup3\n        /* \"#utility.yul\":13785:13801   */\n      shr\n        /* \"#utility.yul\":13764:13801   */\n      swap1\n      pop\n        /* \"#utility.yul\":13691:13808   */\n      swap3\n      swap2\n      pop\n      pop\n      jump\t// out\n        /* \"#utility.yul\":13814:13983   */\n    tag_160:\n        /* \"#utility.yul\":13858:13864   */\n      0x00\n        /* \"#utility.yul\":13891:13942   */\n      tag_307\n        /* \"#utility.yul\":13939:13940   */\n      0x00\n        /* \"#utility.yul\":13935:13941   */\n      not\n        /* \"#utility.yul\":13927:13932   */\n      dup5\n        /* \"#utility.yul\":13924:13925   */\n      0x08\n        /* \"#utility.yul\":13920:13933   */\n      mul\n        /* \"#utility.yul\":13891:13942   */\n      tag_159\n      jump\t// in\n    tag_307:\n        /* \"#utility.yul\":13887:13943   */\n      not\n        /* \"#utility.yul\":13972:13976   */\n      dup1\n        /* \"#utility.yul\":13966:13970   */\n      dup4\n        /* \"#utility.yul\":13962:13977   */\n      and\n        /* \"#utility.yul\":13952:13977   */\n      swap2\n      pop\n        /* \"#utility.yul\":13865:13983   */\n      pop\n        /* \"#utility.yul\":13814:13983   */\n      swap3\n      swap2\n      pop\n      pop\n      jump\t// out\n        /* \"#utility.yul\":13988:14283   */\n    tag_161:\n        /* \"#utility.yul\":14064:14068   */\n      0x00\n        /* \"#utility.yul\":14210:14239   */\n      tag_309\n        /* \"#utility.yul\":14235:14238   */\n      dup4\n        /* \"#utility.yul\":14229:14233   */\n      dup4\n        /* \"#utility.yul\":14210:14239   */\n      tag_160\n      jump\t// in\n    tag_309:\n        /* \"#utility.yul\":14202:14239   */\n      swap2\n      pop\n        /* \"#utility.yul\":14272:14275   */\n      dup3\n        /* \"#utility.yul\":14269:14270   */\n      0x02\n        /* \"#utility.yul\":14265:14276   */\n      mul\n        /* \"#utility.yul\":14259:14263   */\n      dup3\n        /* \"#utility.yul\":14256:14277   */\n      or\n        /* \"#utility.yul\":14248:14277   */\n      swap1\n      pop\n        /* \"#utility.yul\":13988:14283   */\n      swap3\n      swap2\n      pop\n      pop\n      jump\t// out\n        /* \"#utility.yul\":14288:15683   */\n    tag_93:\n        /* \"#utility.yul\":14405:14442   */\n      tag_311\n        /* \"#utility.yul\":14438:14441   */\n      dup3\n        /* \"#utility.yul\":14405:14442   */\n      tag_120\n      jump\t// in\n    tag_311:\n        /* \"#utility.yul\":14507:14525   */\n      0xffffffffffffffff\n        /* \"#utility.yul\":14499:14505   */\n      dup2\n        /* \"#utility.yul\":14496:14526   */\n      gt\n        /* \"#utility.yul\":14493:14549   */\n      iszero\n      tag_312\n      jumpi\n        /* \"#utility.yul\":14529:14547   */\n      tag_313\n      tag_128\n      jump\t// in\n    tag_313:\n        /* \"#utility.yul\":14493:14549   */\n    tag_312:\n        /* \"#utility.yul\":14573:14611   */\n      tag_314\n        /* \"#utility.yul\":14605:14609   */\n      dup3\n        /* \"#utility.yul\":14599:14610   */\n      sload\n        /* \"#utility.yul\":14573:14611   */\n      tag_52\n      jump\t// in\n    tag_314:\n        /* \"#utility.yul\":14658:14725   */\n      tag_315\n        /* \"#utility.yul\":14718:14724   */\n      dup3\n        /* \"#utility.yul\":14710:14716   */\n      dup3\n        /* \"#utility.yul\":14704:14708   */\n      dup6\n        /* \"#utility.yul\":14658:14725   */\n      tag_158\n      jump\t// in\n    tag_315:\n        /* \"#utility.yul\":14752:14753   */\n      0x00\n        /* \"#utility.yul\":14776:14780   */\n      0x20\n        /* \"#utility.yul\":14763:14780   */\n      swap1\n      pop\n        /* \"#utility.yul\":14808:14810   */\n      0x1f\n        /* \"#utility.yul\":14800:14806   */\n      dup4\n        /* \"#utility.yul\":14797:14811   */\n      gt\n        /* \"#utility.yul\":14825:14826   */\n      0x01\n        /* \"#utility.yul\":14820:15438   */\n      dup2\n      eq\n      tag_317\n      jumpi\n        /* \"#utility.yul\":15482:15483   */\n      0x00\n        /* \"#utility.yul\":15499:15505   */\n      dup5\n        /* \"#utility.yul\":15496:15573   */\n      iszero\n      tag_318\n      jumpi\n        /* \"#utility.yul\":15548:15557   */\n      dup3\n        /* \"#utility.yul\":15543:15546   */\n      dup8\n        /* \"#utility.yul\":15539:15558   */\n      add\n        /* \"#utility.yul\":15533:15559   */\n      mload\n        /* \"#utility.yul\":15524:15559   */\n      swap1\n      pop\n        /* \"#utility.yul\":15496:15573   */\n    tag_318:\n        /* \"#utility.yul\":15599:15666   */\n      tag_319\n        /* \"#utility.yul\":15659:15665   */\n      dup6\n        /* \"#utility.yul\":15652:15657   */\n      dup3\n        /* \"#utility.yul\":15599:15666   */\n      tag_161\n      jump\t// in\n    tag_319:\n        /* \"#utility.yul\":15593:15597   */\n      dup7\n        /* \"#utility.yul\":15586:15667   */\n      sstore\n        /* \"#utility.yul\":15455:15677   */\n      pop\n        /* \"#utility.yul\":14790:15677   */\n      jump(tag_316)\n        /* \"#utility.yul\":14820:15438   */\n    tag_317:\n        /* \"#utility.yul\":14872:14876   */\n      0x1f\n        /* \"#utility.yul\":14868:14877   */\n      not\n        /* \"#utility.yul\":14860:14866   */\n      dup5\n        /* \"#utility.yul\":14856:14878   */\n      and\n        /* \"#utility.yul\":14906:14943   */\n      tag_320\n        /* \"#utility.yul\":14938:14942   */\n      dup7\n        /* \"#utility.yul\":14906:14943   */\n      tag_147\n      jump\t// in\n    tag_320:\n        /* \"#utility.yul\":14965:14966   */\n      0x00\n        /* \"#utility.yul\":14979:15187   */\n    tag_321:\n        /* \"#utility.yul\":14993:15000   */\n      dup3\n        /* \"#utility.yul\":14990:14991   */\n      dup2\n        /* \"#utility.yul\":14987:15001   */\n      lt\n        /* \"#utility.yul\":14979:15187   */\n      iszero\n      tag_323\n      jumpi\n        /* \"#utility.yul\":15072:15081   */\n      dup5\n        /* \"#utility.yul\":15067:15070   */\n      dup10\n        /* \"#utility.yul\":15063:15082   */\n      add\n        /* \"#utility.yul\":15057:15083   */\n      mload\n        /* \"#utility.yul\":15049:15055   */\n      dup3\n        /* \"#utility.yul\":15042:15084   */\n      sstore\n        /* \"#utility.yul\":15123:15124   */\n      0x01\n        /* \"#utility.yul\":15115:15121   */\n      dup3\n        /* \"#utility.yul\":15111:15125   */\n      add\n        /* \"#utility.yul\":15101:15125   */\n      swap2\n      pop\n        /* \"#utility.yul\":15170:15172   */\n      0x20\n        /* \"#utility.yul\":15159:15168   */\n      dup6\n        /* \"#utility.yul\":15155:15173   */\n      add\n        /* \"#utility.yul\":15142:15173   */\n      swap5\n      pop\n        /* \"#utility.yul\":15016:15020   */\n      0x20\n        /* \"#utility.yul\":15013:15014   */\n      dup2\n        /* \"#utility.yul\":15009:15021   */\n      add\n        /* \"#utility.yul\":15004:15021   */\n      swap1\n      pop\n        /* \"#utility.yul\":14979:15187   */\n      jump(tag_321)\n    tag_323:\n        /* \"#utility.yul\":15215:15221   */\n      dup7\n        /* \"#utility.yul\":15206:15213   */\n      dup4\n        /* \"#utility.yul\":15203:15222   */\n      lt\n        /* \"#utility.yul\":15200:15379   */\n      iszero\n      tag_324\n      jumpi\n        /* \"#utility.yul\":15273:15282   */\n      dup5\n        /* \"#utility.yul\":15268:15271   */\n      dup10\n        /* \"#utility.yul\":15264:15283   */\n      add\n        /* \"#utility.yul\":15258:15284   */\n      mload\n        /* \"#utility.yul\":15316:15364   */\n      tag_325\n        /* \"#utility.yul\":15358:15362   */\n      0x1f\n        /* \"#utility.yul\":15350:15356   */\n      dup10\n        /* \"#utility.yul\":15346:15363   */\n      and\n        /* \"#utility.yul\":15335:15344   */\n      dup3\n        /* \"#utility.yul\":15316:15364   */\n      tag_160\n      jump\t// in\n    tag_325:\n        /* \"#utility.yul\":15308:15314   */\n      dup4\n        /* \"#utility.yul\":15301:15365   */\n      sstore\n        /* \"#utility.yul\":15223:15379   */\n      pop\n        /* \"#utility.yul\":15200:15379   */\n    tag_324:\n        /* \"#utility.yul\":15425:15426   */\n      0x01\n        /* \"#utility.yul\":15421:15422   */\n      0x02\n        /* \"#utility.yul\":15413:15419   */\n      dup9\n        /* \"#utility.yul\":15409:15423   */\n      mul\n        /* \"#utility.yul\":15405:15427   */\n      add\n        /* \"#utility.yul\":15399:15403   */\n      dup9\n        /* \"#utility.yul\":15392:15428   */\n      sstore\n        /* \"#utility.yul\":14827:15438   */\n      pop\n      pop\n      pop\n        /* \"#utility.yul\":14790:15677   */\n    tag_316:\n      pop\n        /* \"#utility.yul\":14380:15683   */\n      pop\n      pop\n      pop\n        /* \"#utility.yul\":14288:15683   */\n      pop\n      pop\n      jump\t// out\n        /* \"#utility.yul\":15689:16112   */\n    tag_95:\n        /* \"#utility.yul\":15830:15834   */\n      0x00\n        /* \"#utility.yul\":15868:15870   */\n      0x40\n        /* \"#utility.yul\":15857:15866   */\n      dup3\n        /* \"#utility.yul\":15853:15871   */\n      add\n        /* \"#utility.yul\":15845:15871   */\n      swap1\n      pop\n        /* \"#utility.yul\":15917:15926   */\n      dup2\n        /* \"#utility.yul\":15911:15915   */\n      dup2\n        /* \"#utility.yul\":15907:15927   */\n      sub\n        /* \"#utility.yul\":15903:15904   */\n      0x00\n        /* \"#utility.yul\":15892:15901   */\n      dup4\n        /* \"#utility.yul\":15888:15905   */\n      add\n        /* \"#utility.yul\":15881:15928   */\n      mstore\n        /* \"#utility.yul\":15945:16023   */\n      tag_327\n        /* \"#utility.yul\":16018:16022   */\n      dup2\n        /* \"#utility.yul\":16009:16015   */\n      dup6\n        /* \"#utility.yul\":15945:16023   */\n      tag_124\n      jump\t// in\n    tag_327:\n        /* \"#utility.yul\":15937:16023   */\n      swap1\n      pop\n        /* \"#utility.yul\":16033:16105   */\n      tag_328\n        /* \"#utility.yul\":16101:16103   */\n      0x20\n        /* \"#utility.yul\":16090:16099   */\n      dup4\n        /* \"#utility.yul\":16086:16104   */\n      add\n        /* \"#utility.yul\":16077:16083   */\n      dup5\n        /* \"#utility.yul\":16033:16105   */\n      tag_125\n      jump\t// in\n    tag_328:\n        /* \"#utility.yul\":15689:16112   */\n      swap4\n      swap3\n      pop\n      pop\n      pop\n      jump\t// out\n\n    auxdata: 0xa2646970667358221220e4934b833bc438936409983141d88410313453527f52c93c15f2bf9d53b5fbdd64736f6c63430008190033\n}\n",
				"bytecode": {
					"linkReferences": {},
					"object": "608060405234801561000f575f80fd5b506040516114af3803806114af83398181016040528101906100319190610285565b805f73ffffffffffffffffffffffffffffffffffffffff168173ffffffffffffffffffffffffffffffffffffffff16036100a2575f6040517f1e4fbdf700000000000000000000000000000000000000000000000000000000815260040161009991906102bf565b60405180910390fd5b6100b18161016660201b60201c565b505f73ffffffffffffffffffffffffffffffffffffffff168173ffffffffffffffffffffffffffffffffffffffff1603610120576040517f08c379a000000000000000000000000000000000000000000000000000000000815260040161011790610358565b60405180910390fd5b8060015f6101000a81548173ffffffffffffffffffffffffffffffffffffffff021916908373ffffffffffffffffffffffffffffffffffffffff16021790555050610376565b5f805f9054906101000a900473ffffffffffffffffffffffffffffffffffffffff169050815f806101000a81548173ffffffffffffffffffffffffffffffffffffffff021916908373ffffffffffffffffffffffffffffffffffffffff1602179055508173ffffffffffffffffffffffffffffffffffffffff168173ffffffffffffffffffffffffffffffffffffffff167f8be0079c531659141344cd1fd0a4f28419497f9722a3daafe3b4186f6b6457e060405160405180910390a35050565b5f80fd5b5f73ffffffffffffffffffffffffffffffffffffffff82169050919050565b5f6102548261022b565b9050919050565b6102648161024a565b811461026e575f80fd5b50565b5f8151905061027f8161025b565b92915050565b5f6020828403121561029a57610299610227565b5b5f6102a784828501610271565b91505092915050565b6102b98161024a565b82525050565b5f6020820190506102d25f8301846102b0565b92915050565b5f82825260208201905092915050565b7f43686174526f6f6d46696e616e636520616464726573732063616e6e6f7420625f8201527f65207a65726f2e00000000000000000000000000000000000000000000000000602082015250565b5f6103426027836102d8565b915061034d826102e8565b604082019050919050565b5f6020820190508181035f83015261036f81610336565b9050919050565b61112c806103835f395ff3fe60806040526004361061007a575f3560e01c8063a7d270561161004d578063a7d2705614610126578063ab7ee59014610164578063d013bef01461018e578063f2fde38b146101aa5761007a565b80630d80fefd1461007e57806331933916146100bc578063715018a6146100e65780638da5cb5b146100fc575b5f80fd5b348015610089575f80fd5b506100a4600480360381019061009f919061090e565b6101d2565b6040516100b3939291906109f7565b60405180910390f35b3480156100c7575f80fd5b506100d06102ac565b6040516100dd9190610a33565b60405180910390f35b3480156100f1575f80fd5b506100fa6102b8565b005b348015610107575f80fd5b506101106102cb565b60405161011d9190610a4c565b60405180910390f35b348015610131575f80fd5b5061014c6004803603810190610147919061090e565b6102f2565b60405161015b939291906109f7565b60405180910390f35b34801561016f575f80fd5b50610178610424565b6040516101859190610a4c565b60405180910390f35b6101a860048036038101906101a39190610b91565b610449565b005b3480156101b5575f80fd5b506101d060048036038101906101cb9190610c15565b6106f7565b005b600281815481106101e1575f80fd5b905f5260205f2090600302015f91509050805f015f9054906101000a900473ffffffffffffffffffffffffffffffffffffffff169080600101805461022590610c6d565b80601f016020809104026020016040519081016040528092919081815260200182805461025190610c6d565b801561029c5780601f106102735761010080835404028352916020019161029c565b820191905f5260205f20905b81548152906001019060200180831161027f57829003601f168201915b5050505050908060020154905083565b5f600280549050905090565b6102c061077b565b6102c95f610802565b565b5f805f9054906101000a900473ffffffffffffffffffffffffffffffffffffffff16905090565b5f60605f600280549050841061033d576040517f08c379a000000000000000000000000000000000000000000000000000000000815260040161033490610ce7565b60405180910390fd5b5f6002858154811061035257610351610d05565b5b905f5260205f2090600302019050805f015f9054906101000a900473ffffffffffffffffffffffffffffffffffffffff1681600101826002015481805461039890610c6d565b80601f01602080910402602001604051908101604052809291908181526020018280546103c490610c6d565b801561040f5780601f106103e65761010080835404028352916020019161040f565b820191905f5260205f20905b8154815290600101906020018083116103f257829003601f168201915b50505050509150935093509350509193909250565b60015f9054906101000a900473ffffffffffffffffffffffffffffffffffffffff1681565b5f341161048b576040517f08c379a000000000000000000000000000000000000000000000000000000000815260040161048290610d7c565b60405180910390fd5b5f60015f9054906101000a900473ffffffffffffffffffffffffffffffffffffffff1673ffffffffffffffffffffffffffffffffffffffff1634836040516024016104d69190610a33565b6040516020818303038152906040527f3a2f8485000000000000000000000000000000000000000000000000000000007bffffffffffffffffffffffffffffffffffffffffffffffffffffffff19166020820180517bffffffffffffffffffffffffffffffffffffffffffffffffffffffff83818316178352505050506040516105609190610dde565b5f6040518083038185875af1925050503d805f811461059a576040519150601f19603f3d011682016040523d82523d5f602084013e61059f565b606091505b50509050806105e3576040517f08c379a00000000000000000000000000000000000000000000000000000000081526004016105da90610e3e565b60405180910390fd5b600260405180606001604052803373ffffffffffffffffffffffffffffffffffffffff16815260200185815260200142815250908060018154018082558091505060019003905f5260205f2090600302015f909190919091505f820151815f015f6101000a81548173ffffffffffffffffffffffffffffffffffffffff021916908373ffffffffffffffffffffffffffffffffffffffff16021790555060208201518160010190816106959190610ff9565b506040820151816002015550503373ffffffffffffffffffffffffffffffffffffffff167f4816bdd3b9d39acdd4da0ae7412d5523081e916c6a56e481063e475b86ef7c5b84426040516106ea9291906110c8565b60405180910390a2505050565b6106ff61077b565b5f73ffffffffffffffffffffffffffffffffffffffff168173ffffffffffffffffffffffffffffffffffffffff160361076f575f6040517f1e4fbdf70000000000000000000000000000000000000000000000000000000081526004016107669190610a4c565b60405180910390fd5b61077881610802565b50565b6107836108c3565b73ffffffffffffffffffffffffffffffffffffffff166107a16102cb565b73ffffffffffffffffffffffffffffffffffffffff1614610800576107c46108c3565b6040517f118cdaa70000000000000000000000000000000000000000000000000000000081526004016107f79190610a4c565b60405180910390fd5b565b5f805f9054906101000a900473ffffffffffffffffffffffffffffffffffffffff169050815f806101000a81548173ffffffffffffffffffffffffffffffffffffffff021916908373ffffffffffffffffffffffffffffffffffffffff1602179055508173ffffffffffffffffffffffffffffffffffffffff168173ffffffffffffffffffffffffffffffffffffffff167f8be0079c531659141344cd1fd0a4f28419497f9722a3daafe3b4186f6b6457e060405160405180910390a35050565b5f33905090565b5f604051905090565b5f80fd5b5f80fd5b5f819050919050565b6108ed816108db565b81146108f7575f80fd5b50565b5f81359050610908816108e4565b92915050565b5f60208284031215610923576109226108d3565b5b5f610930848285016108fa565b91505092915050565b5f73ffffffffffffffffffffffffffffffffffffffff82169050919050565b5f61096282610939565b9050919050565b61097281610958565b82525050565b5f81519050919050565b5f82825260208201905092915050565b8281835e5f83830152505050565b5f601f19601f8301169050919050565b5f6109ba82610978565b6109c48185610982565b93506109d4818560208601610992565b6109dd816109a0565b840191505092915050565b6109f1816108db565b82525050565b5f606082019050610a0a5f830186610969565b8181036020830152610a1c81856109b0565b9050610a2b60408301846109e8565b949350505050565b5f602082019050610a465f8301846109e8565b92915050565b5f602082019050610a5f5f830184610969565b92915050565b5f80fd5b5f80fd5b7f4e487b71000000000000000000000000000000000000000000000000000000005f52604160045260245ffd5b610aa3826109a0565b810181811067ffffffffffffffff82111715610ac257610ac1610a6d565b5b80604052505050565b5f610ad46108ca565b9050610ae08282610a9a565b919050565b5f67ffffffffffffffff821115610aff57610afe610a6d565b5b610b08826109a0565b9050602081019050919050565b828183375f83830152505050565b5f610b35610b3084610ae5565b610acb565b905082815260208101848484011115610b5157610b50610a69565b5b610b5c848285610b15565b509392505050565b5f82601f830112610b7857610b77610a65565b5b8135610b88848260208601610b23565b91505092915050565b5f8060408385031215610ba757610ba66108d3565b5b5f83013567ffffffffffffffff811115610bc457610bc36108d7565b5b610bd085828601610b64565b9250506020610be1858286016108fa565b9150509250929050565b610bf481610958565b8114610bfe575f80fd5b50565b5f81359050610c0f81610beb565b92915050565b5f60208284031215610c2a57610c296108d3565b5b5f610c3784828501610c01565b91505092915050565b7f4e487b71000000000000000000000000000000000000000000000000000000005f52602260045260245ffd5b5f6002820490506001821680610c8457607f821691505b602082108103610c9757610c96610c40565b5b50919050565b7f4d65737361676520696e646578206f7574206f6620626f756e647300000000005f82015250565b5f610cd1601b83610982565b9150610cdc82610c9d565b602082019050919050565b5f6020820190508181035f830152610cfe81610cc5565b9050919050565b7f4e487b71000000000000000000000000000000000000000000000000000000005f52603260045260245ffd5b7f4d657373616765206d75737420686176652061207072696365000000000000005f82015250565b5f610d66601983610982565b9150610d7182610d32565b602082019050919050565b5f6020820190508181035f830152610d9381610d5a565b9050919050565b5f81519050919050565b5f81905092915050565b5f610db882610d9a565b610dc28185610da4565b9350610dd2818560208601610992565b80840191505092915050565b5f610de98284610dae565b915081905092915050565b7f5061796d656e74206661696c65640000000000000000000000000000000000005f82015250565b5f610e28600e83610982565b9150610e3382610df4565b602082019050919050565b5f6020820190508181035f830152610e5581610e1c565b9050919050565b5f819050815f5260205f209050919050565b5f6020601f8301049050919050565b5f82821b905092915050565b5f60088302610eb87fffffffffffffffffffffffffffffffffffffffffffffffffffffffffffffffff82610e7d565b610ec28683610e7d565b95508019841693508086168417925050509392505050565b5f819050919050565b5f610efd610ef8610ef3846108db565b610eda565b6108db565b9050919050565b5f819050919050565b610f1683610ee3565b610f2a610f2282610f04565b848454610e89565b825550505050565b5f90565b610f3e610f32565b610f49818484610f0d565b505050565b5b81811015610f6c57610f615f82610f36565b600181019050610f4f565b5050565b601f821115610fb157610f8281610e5c565b610f8b84610e6e565b81016020851015610f9a578190505b610fae610fa685610e6e565b830182610f4e565b50505b505050565b5f82821c905092915050565b5f610fd15f1984600802610fb6565b1980831691505092915050565b5f610fe98383610fc2565b9150826002028217905092915050565b61100282610978565b67ffffffffffffffff81111561101b5761101a610a6d565b5b6110258254610c6d565b611030828285610f70565b5f60209050601f831160018114611061575f841561104f578287015190505b6110598582610fde565b8655506110c0565b601f19841661106f86610e5c565b5f5b8281101561109657848901518255600182019150602085019450602081019050611071565b868310156110b357848901516110af601f891682610fc2565b8355505b6001600288020188555050505b505050505050565b5f6040820190508181035f8301526110e081856109b0565b90506110ef60208301846109e8565b939250505056fea2646970667358221220e4934b833bc438936409983141d88410313453527f52c93c15f2bf9d53b5fbdd64736f6c63430008190033",
					"opcodes": "PUSH1 0x80 PUSH1 0x40 MSTORE CALLVALUE DUP1 ISZERO PUSH2 0xF JUMPI PUSH0 DUP1 REVERT JUMPDEST POP PUSH1 0x40 MLOAD PUSH2 0x14AF CODESIZE SUB DUP1 PUSH2 0x14AF DUP4 CODECOPY DUP2 DUP2 ADD PUSH1 0x40 MSTORE DUP2 ADD SWAP1 PUSH2 0x31 SWAP2 SWAP1 PUSH2 0x285 JUMP JUMPDEST DUP1 PUSH0 PUSH20 0xFFFFFFFFFFFFFFFFFFFFFFFFFFFFFFFFFFFFFFFF AND DUP2 PUSH20 0xFFFFFFFFFFFFFFFFFFFFFFFFFFFFFFFFFFFFFFFF AND SUB PUSH2 0xA2 JUMPI PUSH0 PUSH1 0x40 MLOAD PUSH32 0x1E4FBDF700000000000000000000000000000000000000000000000000000000 DUP2 MSTORE PUSH1 0x4 ADD PUSH2 0x99 SWAP2 SWAP1 PUSH2 0x2BF JUMP JUMPDEST PUSH1 0x40 MLOAD DUP1 SWAP2 SUB SWAP1 REVERT JUMPDEST PUSH2 0xB1 DUP2 PUSH2 0x166 PUSH1 0x20 SHL PUSH1 0x20 SHR JUMP JUMPDEST POP PUSH0 PUSH20 0xFFFFFFFFFFFFFFFFFFFFFFFFFFFFFFFFFFFFFFFF AND DUP2 PUSH20 0xFFFFFFFFFFFFFFFFFFFFFFFFFFFFFFFFFFFFFFFF AND SUB PUSH2 0x120 JUMPI PUSH1 0x40 MLOAD PUSH32 0x8C379A000000000000000000000000000000000000000000000000000000000 DUP2 MSTORE PUSH1 0x4 ADD PUSH2 0x117 SWAP1 PUSH2 0x358 JUMP JUMPDEST PUSH1 0x40 MLOAD DUP1 SWAP2 SUB SWAP1 REVERT JUMPDEST DUP1 PUSH1 0x1 PUSH0 PUSH2 0x100 EXP DUP2 SLOAD DUP2 PUSH20 0xFFFFFFFFFFFFFFFFFFFFFFFFFFFFFFFFFFFFFFFF MUL NOT AND SWAP1 DUP4 PUSH20 0xFFFFFFFFFFFFFFFFFFFFFFFFFFFFFFFFFFFFFFFF AND MUL OR SWAP1 SSTORE POP POP PUSH2 0x376 JUMP JUMPDEST PUSH0 DUP1 PUSH0 SWAP1 SLOAD SWAP1 PUSH2 0x100 EXP SWAP1 DIV PUSH20 0xFFFFFFFFFFFFFFFFFFFFFFFFFFFFFFFFFFFFFFFF AND SWAP1 POP DUP2 PUSH0 DUP1 PUSH2 0x100 EXP DUP2 SLOAD DUP2 PUSH20 0xFFFFFFFFFFFFFFFFFFFFFFFFFFFFFFFFFFFFFFFF MUL NOT AND SWAP1 DUP4 PUSH20 0xFFFFFFFFFFFFFFFFFFFFFFFFFFFFFFFFFFFFFFFF AND MUL OR SWAP1 SSTORE POP DUP2 PUSH20 0xFFFFFFFFFFFFFFFFFFFFFFFFFFFFFFFFFFFFFFFF AND DUP2 PUSH20 0xFFFFFFFFFFFFFFFFFFFFFFFFFFFFFFFFFFFFFFFF AND PUSH32 0x8BE0079C531659141344CD1FD0A4F28419497F9722A3DAAFE3B4186F6B6457E0 PUSH1 0x40 MLOAD PUSH1 0x40 MLOAD DUP1 SWAP2 SUB SWAP1 LOG3 POP POP JUMP JUMPDEST PUSH0 DUP1 REVERT JUMPDEST PUSH0 PUSH20 0xFFFFFFFFFFFFFFFFFFFFFFFFFFFFFFFFFFFFFFFF DUP3 AND SWAP1 POP SWAP2 SWAP1 POP JUMP JUMPDEST PUSH0 PUSH2 0x254 DUP3 PUSH2 0x22B JUMP JUMPDEST SWAP1 POP SWAP2 SWAP1 POP JUMP JUMPDEST PUSH2 0x264 DUP2 PUSH2 0x24A JUMP JUMPDEST DUP2 EQ PUSH2 0x26E JUMPI PUSH0 DUP1 REVERT JUMPDEST POP JUMP JUMPDEST PUSH0 DUP2 MLOAD SWAP1 POP PUSH2 0x27F DUP2 PUSH2 0x25B JUMP JUMPDEST SWAP3 SWAP2 POP POP JUMP JUMPDEST PUSH0 PUSH1 0x20 DUP3 DUP5 SUB SLT ISZERO PUSH2 0x29A JUMPI PUSH2 0x299 PUSH2 0x227 JUMP JUMPDEST JUMPDEST PUSH0 PUSH2 0x2A7 DUP5 DUP3 DUP6 ADD PUSH2 0x271 JUMP JUMPDEST SWAP2 POP POP SWAP3 SWAP2 POP POP JUMP JUMPDEST PUSH2 0x2B9 DUP2 PUSH2 0x24A JUMP JUMPDEST DUP3 MSTORE POP POP JUMP JUMPDEST PUSH0 PUSH1 0x20 DUP3 ADD SWAP1 POP PUSH2 0x2D2 PUSH0 DUP4 ADD DUP5 PUSH2 0x2B0 JUMP JUMPDEST SWAP3 SWAP2 POP POP JUMP JUMPDEST PUSH0 DUP3 DUP3 MSTORE PUSH1 0x20 DUP3 ADD SWAP1 POP SWAP3 SWAP2 POP POP JUMP JUMPDEST PUSH32 0x43686174526F6F6D46696E616E636520616464726573732063616E6E6F742062 PUSH0 DUP3 ADD MSTORE PUSH32 0x65207A65726F2E00000000000000000000000000000000000000000000000000 PUSH1 0x20 DUP3 ADD MSTORE POP JUMP JUMPDEST PUSH0 PUSH2 0x342 PUSH1 0x27 DUP4 PUSH2 0x2D8 JUMP JUMPDEST SWAP2 POP PUSH2 0x34D DUP3 PUSH2 0x2E8 JUMP JUMPDEST PUSH1 0x40 DUP3 ADD SWAP1 POP SWAP2 SWAP1 POP JUMP JUMPDEST PUSH0 PUSH1 0x20 DUP3 ADD SWAP1 POP DUP2 DUP2 SUB PUSH0 DUP4 ADD MSTORE PUSH2 0x36F DUP2 PUSH2 0x336 JUMP JUMPDEST SWAP1 POP SWAP2 SWAP1 POP JUMP JUMPDEST PUSH2 0x112C DUP1 PUSH2 0x383 PUSH0 CODECOPY PUSH0 RETURN INVALID PUSH1 0x80 PUSH1 0x40 MSTORE PUSH1 0x4 CALLDATASIZE LT PUSH2 0x7A JUMPI PUSH0 CALLDATALOAD PUSH1 0xE0 SHR DUP1 PUSH4 0xA7D27056 GT PUSH2 0x4D JUMPI DUP1 PUSH4 0xA7D27056 EQ PUSH2 0x126 JUMPI DUP1 PUSH4 0xAB7EE590 EQ PUSH2 0x164 JUMPI DUP1 PUSH4 0xD013BEF0 EQ PUSH2 0x18E JUMPI DUP1 PUSH4 0xF2FDE38B EQ PUSH2 0x1AA JUMPI PUSH2 0x7A JUMP JUMPDEST DUP1 PUSH4 0xD80FEFD EQ PUSH2 0x7E JUMPI DUP1 PUSH4 0x31933916 EQ PUSH2 0xBC JUMPI DUP1 PUSH4 0x715018A6 EQ PUSH2 0xE6 JUMPI DUP1 PUSH4 0x8DA5CB5B EQ PUSH2 0xFC JUMPI JUMPDEST PUSH0 DUP1 REVERT JUMPDEST CALLVALUE DUP1 ISZERO PUSH2 0x89 JUMPI PUSH0 DUP1 REVERT JUMPDEST POP PUSH2 0xA4 PUSH1 0x4 DUP1 CALLDATASIZE SUB DUP2 ADD SWAP1 PUSH2 0x9F SWAP2 SWAP1 PUSH2 0x90E JUMP JUMPDEST PUSH2 0x1D2 JUMP JUMPDEST PUSH1 0x40 MLOAD PUSH2 0xB3 SWAP4 SWAP3 SWAP2 SWAP1 PUSH2 0x9F7 JUMP JUMPDEST PUSH1 0x40 MLOAD DUP1 SWAP2 SUB SWAP1 RETURN JUMPDEST CALLVALUE DUP1 ISZERO PUSH2 0xC7 JUMPI PUSH0 DUP1 REVERT JUMPDEST POP PUSH2 0xD0 PUSH2 0x2AC JUMP JUMPDEST PUSH1 0x40 MLOAD PUSH2 0xDD SWAP2 SWAP1 PUSH2 0xA33 JUMP JUMPDEST PUSH1 0x40 MLOAD DUP1 SWAP2 SUB SWAP1 RETURN JUMPDEST CALLVALUE DUP1 ISZERO PUSH2 0xF1 JUMPI PUSH0 DUP1 REVERT JUMPDEST POP PUSH2 0xFA PUSH2 0x2B8 JUMP JUMPDEST STOP JUMPDEST CALLVALUE DUP1 ISZERO PUSH2 0x107 JUMPI PUSH0 DUP1 REVERT JUMPDEST POP PUSH2 0x110 PUSH2 0x2CB JUMP JUMPDEST PUSH1 0x40 MLOAD PUSH2 0x11D SWAP2 SWAP1 PUSH2 0xA4C JUMP JUMPDEST PUSH1 0x40 MLOAD DUP1 SWAP2 SUB SWAP1 RETURN JUMPDEST CALLVALUE DUP1 ISZERO PUSH2 0x131 JUMPI PUSH0 DUP1 REVERT JUMPDEST POP PUSH2 0x14C PUSH1 0x4 DUP1 CALLDATASIZE SUB DUP2 ADD SWAP1 PUSH2 0x147 SWAP2 SWAP1 PUSH2 0x90E JUMP JUMPDEST PUSH2 0x2F2 JUMP JUMPDEST PUSH1 0x40 MLOAD PUSH2 0x15B SWAP4 SWAP3 SWAP2 SWAP1 PUSH2 0x9F7 JUMP JUMPDEST PUSH1 0x40 MLOAD DUP1 SWAP2 SUB SWAP1 RETURN JUMPDEST CALLVALUE DUP1 ISZERO PUSH2 0x16F JUMPI PUSH0 DUP1 REVERT JUMPDEST POP PUSH2 0x178 PUSH2 0x424 JUMP JUMPDEST PUSH1 0x40 MLOAD PUSH2 0x185 SWAP2 SWAP1 PUSH2 0xA4C JUMP JUMPDEST PUSH1 0x40 MLOAD DUP1 SWAP2 SUB SWAP1 RETURN JUMPDEST PUSH2 0x1A8 PUSH1 0x4 DUP1 CALLDATASIZE SUB DUP2 ADD SWAP1 PUSH2 0x1A3 SWAP2 SWAP1 PUSH2 0xB91 JUMP JUMPDEST PUSH2 0x449 JUMP JUMPDEST STOP JUMPDEST CALLVALUE DUP1 ISZERO PUSH2 0x1B5 JUMPI PUSH0 DUP1 REVERT JUMPDEST POP PUSH2 0x1D0 PUSH1 0x4 DUP1 CALLDATASIZE SUB DUP2 ADD SWAP1 PUSH2 0x1CB SWAP2 SWAP1 PUSH2 0xC15 JUMP JUMPDEST PUSH2 0x6F7 JUMP JUMPDEST STOP JUMPDEST PUSH1 0x2 DUP2 DUP2 SLOAD DUP2 LT PUSH2 0x1E1 JUMPI PUSH0 DUP1 REVERT JUMPDEST SWAP1 PUSH0 MSTORE PUSH1 0x20 PUSH0 KECCAK256 SWAP1 PUSH1 0x3 MUL ADD PUSH0 SWAP2 POP SWAP1 POP DUP1 PUSH0 ADD PUSH0 SWAP1 SLOAD SWAP1 PUSH2 0x100 EXP SWAP1 DIV PUSH20 0xFFFFFFFFFFFFFFFFFFFFFFFFFFFFFFFFFFFFFFFF AND SWAP1 DUP1 PUSH1 0x1 ADD DUP1 SLOAD PUSH2 0x225 SWAP1 PUSH2 0xC6D JUMP JUMPDEST DUP1 PUSH1 0x1F ADD PUSH1 0x20 DUP1 SWAP2 DIV MUL PUSH1 0x20 ADD PUSH1 0x40 MLOAD SWAP1 DUP2 ADD PUSH1 0x40 MSTORE DUP1 SWAP3 SWAP2 SWAP1 DUP2 DUP2 MSTORE PUSH1 0x20 ADD DUP3 DUP1 SLOAD PUSH2 0x251 SWAP1 PUSH2 0xC6D JUMP JUMPDEST DUP1 ISZERO PUSH2 0x29C JUMPI DUP1 PUSH1 0x1F LT PUSH2 0x273 JUMPI PUSH2 0x100 DUP1 DUP4 SLOAD DIV MUL DUP4 MSTORE SWAP2 PUSH1 0x20 ADD SWAP2 PUSH2 0x29C JUMP JUMPDEST DUP3 ADD SWAP2 SWAP1 PUSH0 MSTORE PUSH1 0x20 PUSH0 KECCAK256 SWAP1 JUMPDEST DUP2 SLOAD DUP2 MSTORE SWAP1 PUSH1 0x1 ADD SWAP1 PUSH1 0x20 ADD DUP1 DUP4 GT PUSH2 0x27F JUMPI DUP3 SWAP1 SUB PUSH1 0x1F AND DUP3 ADD SWAP2 JUMPDEST POP POP POP POP POP SWAP1 DUP1 PUSH1 0x2 ADD SLOAD SWAP1 POP DUP4 JUMP JUMPDEST PUSH0 PUSH1 0x2 DUP1 SLOAD SWAP1 POP SWAP1 POP SWAP1 JUMP JUMPDEST PUSH2 0x2C0 PUSH2 0x77B JUMP JUMPDEST PUSH2 0x2C9 PUSH0 PUSH2 0x802 JUMP JUMPDEST JUMP JUMPDEST PUSH0 DUP1 PUSH0 SWAP1 SLOAD SWAP1 PUSH2 0x100 EXP SWAP1 DIV PUSH20 0xFFFFFFFFFFFFFFFFFFFFFFFFFFFFFFFFFFFFFFFF AND SWAP1 POP SWAP1 JUMP JUMPDEST PUSH0 PUSH1 0x60 PUSH0 PUSH1 0x2 DUP1 SLOAD SWAP1 POP DUP5 LT PUSH2 0x33D JUMPI PUSH1 0x40 MLOAD PUSH32 0x8C379A000000000000000000000000000000000000000000000000000000000 DUP2 MSTORE PUSH1 0x4 ADD PUSH2 0x334 SWAP1 PUSH2 0xCE7 JUMP JUMPDEST PUSH1 0x40 MLOAD DUP1 SWAP2 SUB SWAP1 REVERT JUMPDEST PUSH0 PUSH1 0x2 DUP6 DUP2 SLOAD DUP2 LT PUSH2 0x352 JUMPI PUSH2 0x351 PUSH2 0xD05 JUMP JUMPDEST JUMPDEST SWAP1 PUSH0 MSTORE PUSH1 0x20 PUSH0 KECCAK256 SWAP1 PUSH1 0x3 MUL ADD SWAP1 POP DUP1 PUSH0 ADD PUSH0 SWAP1 SLOAD SWAP1 PUSH2 0x100 EXP SWAP1 DIV PUSH20 0xFFFFFFFFFFFFFFFFFFFFFFFFFFFFFFFFFFFFFFFF AND DUP2 PUSH1 0x1 ADD DUP3 PUSH1 0x2 ADD SLOAD DUP2 DUP1 SLOAD PUSH2 0x398 SWAP1 PUSH2 0xC6D JUMP JUMPDEST DUP1 PUSH1 0x1F ADD PUSH1 0x20 DUP1 SWAP2 DIV MUL PUSH1 0x20 ADD PUSH1 0x40 MLOAD SWAP1 DUP2 ADD PUSH1 0x40 MSTORE DUP1 SWAP3 SWAP2 SWAP1 DUP2 DUP2 MSTORE PUSH1 0x20 ADD DUP3 DUP1 SLOAD PUSH2 0x3C4 SWAP1 PUSH2 0xC6D JUMP JUMPDEST DUP1 ISZERO PUSH2 0x40F JUMPI DUP1 PUSH1 0x1F LT PUSH2 0x3E6 JUMPI PUSH2 0x100 DUP1 DUP4 SLOAD DIV MUL DUP4 MSTORE SWAP2 PUSH1 0x20 ADD SWAP2 PUSH2 0x40F JUMP JUMPDEST DUP3 ADD SWAP2 SWAP1 PUSH0 MSTORE PUSH1 0x20 PUSH0 KECCAK256 SWAP1 JUMPDEST DUP2 SLOAD DUP2 MSTORE SWAP1 PUSH1 0x1 ADD SWAP1 PUSH1 0x20 ADD DUP1 DUP4 GT PUSH2 0x3F2 JUMPI DUP3 SWAP1 SUB PUSH1 0x1F AND DUP3 ADD SWAP2 JUMPDEST POP POP POP POP POP SWAP2 POP SWAP4 POP SWAP4 POP SWAP4 POP POP SWAP2 SWAP4 SWAP1 SWAP3 POP JUMP JUMPDEST PUSH1 0x1 PUSH0 SWAP1 SLOAD SWAP1 PUSH2 0x100 EXP SWAP1 DIV PUSH20 0xFFFFFFFFFFFFFFFFFFFFFFFFFFFFFFFFFFFFFFFF AND DUP2 JUMP JUMPDEST PUSH0 CALLVALUE GT PUSH2 0x48B JUMPI PUSH1 0x40 MLOAD PUSH32 0x8C379A000000000000000000000000000000000000000000000000000000000 DUP2 MSTORE PUSH1 0x4 ADD PUSH2 0x482 SWAP1 PUSH2 0xD7C JUMP JUMPDEST PUSH1 0x40 MLOAD DUP1 SWAP2 SUB SWAP1 REVERT JUMPDEST PUSH0 PUSH1 0x1 PUSH0 SWAP1 SLOAD SWAP1 PUSH2 0x100 EXP SWAP1 DIV PUSH20 0xFFFFFFFFFFFFFFFFFFFFFFFFFFFFFFFFFFFFFFFF AND PUSH20 0xFFFFFFFFFFFFFFFFFFFFFFFFFFFFFFFFFFFFFFFF AND CALLVALUE DUP4 PUSH1 0x40 MLOAD PUSH1 0x24 ADD PUSH2 0x4D6 SWAP2 SWAP1 PUSH2 0xA33 JUMP JUMPDEST PUSH1 0x40 MLOAD PUSH1 0x20 DUP2 DUP4 SUB SUB DUP2 MSTORE SWAP1 PUSH1 0x40 MSTORE PUSH32 0x3A2F848500000000000000000000000000000000000000000000000000000000 PUSH28 0xFFFFFFFFFFFFFFFFFFFFFFFFFFFFFFFFFFFFFFFFFFFFFFFFFFFFFFFF NOT AND PUSH1 0x20 DUP3 ADD DUP1 MLOAD PUSH28 0xFFFFFFFFFFFFFFFFFFFFFFFFFFFFFFFFFFFFFFFFFFFFFFFFFFFFFFFF DUP4 DUP2 DUP4 AND OR DUP4 MSTORE POP POP POP POP PUSH1 0x40 MLOAD PUSH2 0x560 SWAP2 SWAP1 PUSH2 0xDDE JUMP JUMPDEST PUSH0 PUSH1 0x40 MLOAD DUP1 DUP4 SUB DUP2 DUP6 DUP8 GAS CALL SWAP3 POP POP POP RETURNDATASIZE DUP1 PUSH0 DUP2 EQ PUSH2 0x59A JUMPI PUSH1 0x40 MLOAD SWAP2 POP PUSH1 0x1F NOT PUSH1 0x3F RETURNDATASIZE ADD AND DUP3 ADD PUSH1 0x40 MSTORE RETURNDATASIZE DUP3 MSTORE RETURNDATASIZE PUSH0 PUSH1 0x20 DUP5 ADD RETURNDATACOPY PUSH2 0x59F JUMP JUMPDEST PUSH1 0x60 SWAP2 POP JUMPDEST POP POP SWAP1 POP DUP1 PUSH2 0x5E3 JUMPI PUSH1 0x40 MLOAD PUSH32 0x8C379A000000000000000000000000000000000000000000000000000000000 DUP2 MSTORE PUSH1 0x4 ADD PUSH2 0x5DA SWAP1 PUSH2 0xE3E JUMP JUMPDEST PUSH1 0x40 MLOAD DUP1 SWAP2 SUB SWAP1 REVERT JUMPDEST PUSH1 0x2 PUSH1 0x40 MLOAD DUP1 PUSH1 0x60 ADD PUSH1 0x40 MSTORE DUP1 CALLER PUSH20 0xFFFFFFFFFFFFFFFFFFFFFFFFFFFFFFFFFFFFFFFF AND DUP2 MSTORE PUSH1 0x20 ADD DUP6 DUP2 MSTORE PUSH1 0x20 ADD TIMESTAMP DUP2 MSTORE POP SWAP1 DUP1 PUSH1 0x1 DUP2 SLOAD ADD DUP1 DUP3 SSTORE DUP1 SWAP2 POP POP PUSH1 0x1 SWAP1 SUB SWAP1 PUSH0 MSTORE PUSH1 0x20 PUSH0 KECCAK256 SWAP1 PUSH1 0x3 MUL ADD PUSH0 SWAP1 SWAP2 SWAP1 SWAP2 SWAP1 SWAP2 POP PUSH0 DUP3 ADD MLOAD DUP2 PUSH0 ADD PUSH0 PUSH2 0x100 EXP DUP2 SLOAD DUP2 PUSH20 0xFFFFFFFFFFFFFFFFFFFFFFFFFFFFFFFFFFFFFFFF MUL NOT AND SWAP1 DUP4 PUSH20 0xFFFFFFFFFFFFFFFFFFFFFFFFFFFFFFFFFFFFFFFF AND MUL OR SWAP1 SSTORE POP PUSH1 0x20 DUP3 ADD MLOAD DUP2 PUSH1 0x1 ADD SWAP1 DUP2 PUSH2 0x695 SWAP2 SWAP1 PUSH2 0xFF9 JUMP JUMPDEST POP PUSH1 0x40 DUP3 ADD MLOAD DUP2 PUSH1 0x2 ADD SSTORE POP POP CALLER PUSH20 0xFFFFFFFFFFFFFFFFFFFFFFFFFFFFFFFFFFFFFFFF AND PUSH32 0x4816BDD3B9D39ACDD4DA0AE7412D5523081E916C6A56E481063E475B86EF7C5B DUP5 TIMESTAMP PUSH1 0x40 MLOAD PUSH2 0x6EA SWAP3 SWAP2 SWAP1 PUSH2 0x10C8 JUMP JUMPDEST PUSH1 0x40 MLOAD DUP1 SWAP2 SUB SWAP1 LOG2 POP POP POP JUMP JUMPDEST PUSH2 0x6FF PUSH2 0x77B JUMP JUMPDEST PUSH0 PUSH20 0xFFFFFFFFFFFFFFFFFFFFFFFFFFFFFFFFFFFFFFFF AND DUP2 PUSH20 0xFFFFFFFFFFFFFFFFFFFFFFFFFFFFFFFFFFFFFFFF AND SUB PUSH2 0x76F JUMPI PUSH0 PUSH1 0x40 MLOAD PUSH32 0x1E4FBDF700000000000000000000000000000000000000000000000000000000 DUP2 MSTORE PUSH1 0x4 ADD PUSH2 0x766 SWAP2 SWAP1 PUSH2 0xA4C JUMP JUMPDEST PUSH1 0x40 MLOAD DUP1 SWAP2 SUB SWAP1 REVERT JUMPDEST PUSH2 0x778 DUP2 PUSH2 0x802 JUMP JUMPDEST POP JUMP JUMPDEST PUSH2 0x783 PUSH2 0x8C3 JUMP JUMPDEST PUSH20 0xFFFFFFFFFFFFFFFFFFFFFFFFFFFFFFFFFFFFFFFF AND PUSH2 0x7A1 PUSH2 0x2CB JUMP JUMPDEST PUSH20 0xFFFFFFFFFFFFFFFFFFFFFFFFFFFFFFFFFFFFFFFF AND EQ PUSH2 0x800 JUMPI PUSH2 0x7C4 PUSH2 0x8C3 JUMP JUMPDEST PUSH1 0x40 MLOAD PUSH32 0x118CDAA700000000000000000000000000000000000000000000000000000000 DUP2 MSTORE PUSH1 0x4 ADD PUSH2 0x7F7 SWAP2 SWAP1 PUSH2 0xA4C JUMP JUMPDEST PUSH1 0x40 MLOAD DUP1 SWAP2 SUB SWAP1 REVERT JUMPDEST JUMP JUMPDEST PUSH0 DUP1 PUSH0 SWAP1 SLOAD SWAP1 PUSH2 0x100 EXP SWAP1 DIV PUSH20 0xFFFFFFFFFFFFFFFFFFFFFFFFFFFFFFFFFFFFFFFF AND SWAP1 POP DUP2 PUSH0 DUP1 PUSH2 0x100 EXP DUP2 SLOAD DUP2 PUSH20 0xFFFFFFFFFFFFFFFFFFFFFFFFFFFFFFFFFFFFFFFF MUL NOT AND SWAP1 DUP4 PUSH20 0xFFFFFFFFFFFFFFFFFFFFFFFFFFFFFFFFFFFFFFFF AND MUL OR SWAP1 SSTORE POP DUP2 PUSH20 0xFFFFFFFFFFFFFFFFFFFFFFFFFFFFFFFFFFFFFFFF AND DUP2 PUSH20 0xFFFFFFFFFFFFFFFFFFFFFFFFFFFFFFFFFFFFFFFF AND PUSH32 0x8BE0079C531659141344CD1FD0A4F28419497F9722A3DAAFE3B4186F6B6457E0 PUSH1 0x40 MLOAD PUSH1 0x40 MLOAD DUP1 SWAP2 SUB SWAP1 LOG3 POP POP JUMP JUMPDEST PUSH0 CALLER SWAP1 POP SWAP1 JUMP JUMPDEST PUSH0 PUSH1 0x40 MLOAD SWAP1 POP SWAP1 JUMP JUMPDEST PUSH0 DUP1 REVERT JUMPDEST PUSH0 DUP1 REVERT JUMPDEST PUSH0 DUP2 SWAP1 POP SWAP2 SWAP1 POP JUMP JUMPDEST PUSH2 0x8ED DUP2 PUSH2 0x8DB JUMP JUMPDEST DUP2 EQ PUSH2 0x8F7 JUMPI PUSH0 DUP1 REVERT JUMPDEST POP JUMP JUMPDEST PUSH0 DUP2 CALLDATALOAD SWAP1 POP PUSH2 0x908 DUP2 PUSH2 0x8E4 JUMP JUMPDEST SWAP3 SWAP2 POP POP JUMP JUMPDEST PUSH0 PUSH1 0x20 DUP3 DUP5 SUB SLT ISZERO PUSH2 0x923 JUMPI PUSH2 0x922 PUSH2 0x8D3 JUMP JUMPDEST JUMPDEST PUSH0 PUSH2 0x930 DUP5 DUP3 DUP6 ADD PUSH2 0x8FA JUMP JUMPDEST SWAP2 POP POP SWAP3 SWAP2 POP POP JUMP JUMPDEST PUSH0 PUSH20 0xFFFFFFFFFFFFFFFFFFFFFFFFFFFFFFFFFFFFFFFF DUP3 AND SWAP1 POP SWAP2 SWAP1 POP JUMP JUMPDEST PUSH0 PUSH2 0x962 DUP3 PUSH2 0x939 JUMP JUMPDEST SWAP1 POP SWAP2 SWAP1 POP JUMP JUMPDEST PUSH2 0x972 DUP2 PUSH2 0x958 JUMP JUMPDEST DUP3 MSTORE POP POP JUMP JUMPDEST PUSH0 DUP2 MLOAD SWAP1 POP SWAP2 SWAP1 POP JUMP JUMPDEST PUSH0 DUP3 DUP3 MSTORE PUSH1 0x20 DUP3 ADD SWAP1 POP SWAP3 SWAP2 POP POP JUMP JUMPDEST DUP3 DUP2 DUP4 MCOPY PUSH0 DUP4 DUP4 ADD MSTORE POP POP POP JUMP JUMPDEST PUSH0 PUSH1 0x1F NOT PUSH1 0x1F DUP4 ADD AND SWAP1 POP SWAP2 SWAP1 POP JUMP JUMPDEST PUSH0 PUSH2 0x9BA DUP3 PUSH2 0x978 JUMP JUMPDEST PUSH2 0x9C4 DUP2 DUP6 PUSH2 0x982 JUMP JUMPDEST SWAP4 POP PUSH2 0x9D4 DUP2 DUP6 PUSH1 0x20 DUP7 ADD PUSH2 0x992 JUMP JUMPDEST PUSH2 0x9DD DUP2 PUSH2 0x9A0 JUMP JUMPDEST DUP5 ADD SWAP2 POP POP SWAP3 SWAP2 POP POP JUMP JUMPDEST PUSH2 0x9F1 DUP2 PUSH2 0x8DB JUMP JUMPDEST DUP3 MSTORE POP POP JUMP JUMPDEST PUSH0 PUSH1 0x60 DUP3 ADD SWAP1 POP PUSH2 0xA0A PUSH0 DUP4 ADD DUP7 PUSH2 0x969 JUMP JUMPDEST DUP2 DUP2 SUB PUSH1 0x20 DUP4 ADD MSTORE PUSH2 0xA1C DUP2 DUP6 PUSH2 0x9B0 JUMP JUMPDEST SWAP1 POP PUSH2 0xA2B PUSH1 0x40 DUP4 ADD DUP5 PUSH2 0x9E8 JUMP JUMPDEST SWAP5 SWAP4 POP POP POP POP JUMP JUMPDEST PUSH0 PUSH1 0x20 DUP3 ADD SWAP1 POP PUSH2 0xA46 PUSH0 DUP4 ADD DUP5 PUSH2 0x9E8 JUMP JUMPDEST SWAP3 SWAP2 POP POP JUMP JUMPDEST PUSH0 PUSH1 0x20 DUP3 ADD SWAP1 POP PUSH2 0xA5F PUSH0 DUP4 ADD DUP5 PUSH2 0x969 JUMP JUMPDEST SWAP3 SWAP2 POP POP JUMP JUMPDEST PUSH0 DUP1 REVERT JUMPDEST PUSH0 DUP1 REVERT JUMPDEST PUSH32 0x4E487B7100000000000000000000000000000000000000000000000000000000 PUSH0 MSTORE PUSH1 0x41 PUSH1 0x4 MSTORE PUSH1 0x24 PUSH0 REVERT JUMPDEST PUSH2 0xAA3 DUP3 PUSH2 0x9A0 JUMP JUMPDEST DUP2 ADD DUP2 DUP2 LT PUSH8 0xFFFFFFFFFFFFFFFF DUP3 GT OR ISZERO PUSH2 0xAC2 JUMPI PUSH2 0xAC1 PUSH2 0xA6D JUMP JUMPDEST JUMPDEST DUP1 PUSH1 0x40 MSTORE POP POP POP JUMP JUMPDEST PUSH0 PUSH2 0xAD4 PUSH2 0x8CA JUMP JUMPDEST SWAP1 POP PUSH2 0xAE0 DUP3 DUP3 PUSH2 0xA9A JUMP JUMPDEST SWAP2 SWAP1 POP JUMP JUMPDEST PUSH0 PUSH8 0xFFFFFFFFFFFFFFFF DUP3 GT ISZERO PUSH2 0xAFF JUMPI PUSH2 0xAFE PUSH2 0xA6D JUMP JUMPDEST JUMPDEST PUSH2 0xB08 DUP3 PUSH2 0x9A0 JUMP JUMPDEST SWAP1 POP PUSH1 0x20 DUP2 ADD SWAP1 POP SWAP2 SWAP1 POP JUMP JUMPDEST DUP3 DUP2 DUP4 CALLDATACOPY PUSH0 DUP4 DUP4 ADD MSTORE POP POP POP JUMP JUMPDEST PUSH0 PUSH2 0xB35 PUSH2 0xB30 DUP5 PUSH2 0xAE5 JUMP JUMPDEST PUSH2 0xACB JUMP JUMPDEST SWAP1 POP DUP3 DUP2 MSTORE PUSH1 0x20 DUP2 ADD DUP5 DUP5 DUP5 ADD GT ISZERO PUSH2 0xB51 JUMPI PUSH2 0xB50 PUSH2 0xA69 JUMP JUMPDEST JUMPDEST PUSH2 0xB5C DUP5 DUP3 DUP6 PUSH2 0xB15 JUMP JUMPDEST POP SWAP4 SWAP3 POP POP POP JUMP JUMPDEST PUSH0 DUP3 PUSH1 0x1F DUP4 ADD SLT PUSH2 0xB78 JUMPI PUSH2 0xB77 PUSH2 0xA65 JUMP JUMPDEST JUMPDEST DUP2 CALLDATALOAD PUSH2 0xB88 DUP5 DUP3 PUSH1 0x20 DUP7 ADD PUSH2 0xB23 JUMP JUMPDEST SWAP2 POP POP SWAP3 SWAP2 POP POP JUMP JUMPDEST PUSH0 DUP1 PUSH1 0x40 DUP4 DUP6 SUB SLT ISZERO PUSH2 0xBA7 JUMPI PUSH2 0xBA6 PUSH2 0x8D3 JUMP JUMPDEST JUMPDEST PUSH0 DUP4 ADD CALLDATALOAD PUSH8 0xFFFFFFFFFFFFFFFF DUP2 GT ISZERO PUSH2 0xBC4 JUMPI PUSH2 0xBC3 PUSH2 0x8D7 JUMP JUMPDEST JUMPDEST PUSH2 0xBD0 DUP6 DUP3 DUP7 ADD PUSH2 0xB64 JUMP JUMPDEST SWAP3 POP POP PUSH1 0x20 PUSH2 0xBE1 DUP6 DUP3 DUP7 ADD PUSH2 0x8FA JUMP JUMPDEST SWAP2 POP POP SWAP3 POP SWAP3 SWAP1 POP JUMP JUMPDEST PUSH2 0xBF4 DUP2 PUSH2 0x958 JUMP JUMPDEST DUP2 EQ PUSH2 0xBFE JUMPI PUSH0 DUP1 REVERT JUMPDEST POP JUMP JUMPDEST PUSH0 DUP2 CALLDATALOAD SWAP1 POP PUSH2 0xC0F DUP2 PUSH2 0xBEB JUMP JUMPDEST SWAP3 SWAP2 POP POP JUMP JUMPDEST PUSH0 PUSH1 0x20 DUP3 DUP5 SUB SLT ISZERO PUSH2 0xC2A JUMPI PUSH2 0xC29 PUSH2 0x8D3 JUMP JUMPDEST JUMPDEST PUSH0 PUSH2 0xC37 DUP5 DUP3 DUP6 ADD PUSH2 0xC01 JUMP JUMPDEST SWAP2 POP POP SWAP3 SWAP2 POP POP JUMP JUMPDEST PUSH32 0x4E487B7100000000000000000000000000000000000000000000000000000000 PUSH0 MSTORE PUSH1 0x22 PUSH1 0x4 MSTORE PUSH1 0x24 PUSH0 REVERT JUMPDEST PUSH0 PUSH1 0x2 DUP3 DIV SWAP1 POP PUSH1 0x1 DUP3 AND DUP1 PUSH2 0xC84 JUMPI PUSH1 0x7F DUP3 AND SWAP2 POP JUMPDEST PUSH1 0x20 DUP3 LT DUP2 SUB PUSH2 0xC97 JUMPI PUSH2 0xC96 PUSH2 0xC40 JUMP JUMPDEST JUMPDEST POP SWAP2 SWAP1 POP JUMP JUMPDEST PUSH32 0x4D65737361676520696E646578206F7574206F6620626F756E64730000000000 PUSH0 DUP3 ADD MSTORE POP JUMP JUMPDEST PUSH0 PUSH2 0xCD1 PUSH1 0x1B DUP4 PUSH2 0x982 JUMP JUMPDEST SWAP2 POP PUSH2 0xCDC DUP3 PUSH2 0xC9D JUMP JUMPDEST PUSH1 0x20 DUP3 ADD SWAP1 POP SWAP2 SWAP1 POP JUMP JUMPDEST PUSH0 PUSH1 0x20 DUP3 ADD SWAP1 POP DUP2 DUP2 SUB PUSH0 DUP4 ADD MSTORE PUSH2 0xCFE DUP2 PUSH2 0xCC5 JUMP JUMPDEST SWAP1 POP SWAP2 SWAP1 POP JUMP JUMPDEST PUSH32 0x4E487B7100000000000000000000000000000000000000000000000000000000 PUSH0 MSTORE PUSH1 0x32 PUSH1 0x4 MSTORE PUSH1 0x24 PUSH0 REVERT JUMPDEST PUSH32 0x4D657373616765206D7573742068617665206120707269636500000000000000 PUSH0 DUP3 ADD MSTORE POP JUMP JUMPDEST PUSH0 PUSH2 0xD66 PUSH1 0x19 DUP4 PUSH2 0x982 JUMP JUMPDEST SWAP2 POP PUSH2 0xD71 DUP3 PUSH2 0xD32 JUMP JUMPDEST PUSH1 0x20 DUP3 ADD SWAP1 POP SWAP2 SWAP1 POP JUMP JUMPDEST PUSH0 PUSH1 0x20 DUP3 ADD SWAP1 POP DUP2 DUP2 SUB PUSH0 DUP4 ADD MSTORE PUSH2 0xD93 DUP2 PUSH2 0xD5A JUMP JUMPDEST SWAP1 POP SWAP2 SWAP1 POP JUMP JUMPDEST PUSH0 DUP2 MLOAD SWAP1 POP SWAP2 SWAP1 POP JUMP JUMPDEST PUSH0 DUP2 SWAP1 POP SWAP3 SWAP2 POP POP JUMP JUMPDEST PUSH0 PUSH2 0xDB8 DUP3 PUSH2 0xD9A JUMP JUMPDEST PUSH2 0xDC2 DUP2 DUP6 PUSH2 0xDA4 JUMP JUMPDEST SWAP4 POP PUSH2 0xDD2 DUP2 DUP6 PUSH1 0x20 DUP7 ADD PUSH2 0x992 JUMP JUMPDEST DUP1 DUP5 ADD SWAP2 POP POP SWAP3 SWAP2 POP POP JUMP JUMPDEST PUSH0 PUSH2 0xDE9 DUP3 DUP5 PUSH2 0xDAE JUMP JUMPDEST SWAP2 POP DUP2 SWAP1 POP SWAP3 SWAP2 POP POP JUMP JUMPDEST PUSH32 0x5061796D656E74206661696C6564000000000000000000000000000000000000 PUSH0 DUP3 ADD MSTORE POP JUMP JUMPDEST PUSH0 PUSH2 0xE28 PUSH1 0xE DUP4 PUSH2 0x982 JUMP JUMPDEST SWAP2 POP PUSH2 0xE33 DUP3 PUSH2 0xDF4 JUMP JUMPDEST PUSH1 0x20 DUP3 ADD SWAP1 POP SWAP2 SWAP1 POP JUMP JUMPDEST PUSH0 PUSH1 0x20 DUP3 ADD SWAP1 POP DUP2 DUP2 SUB PUSH0 DUP4 ADD MSTORE PUSH2 0xE55 DUP2 PUSH2 0xE1C JUMP JUMPDEST SWAP1 POP SWAP2 SWAP1 POP JUMP JUMPDEST PUSH0 DUP2 SWAP1 POP DUP2 PUSH0 MSTORE PUSH1 0x20 PUSH0 KECCAK256 SWAP1 POP SWAP2 SWAP1 POP JUMP JUMPDEST PUSH0 PUSH1 0x20 PUSH1 0x1F DUP4 ADD DIV SWAP1 POP SWAP2 SWAP1 POP JUMP JUMPDEST PUSH0 DUP3 DUP3 SHL SWAP1 POP SWAP3 SWAP2 POP POP JUMP JUMPDEST PUSH0 PUSH1 0x8 DUP4 MUL PUSH2 0xEB8 PUSH32 0xFFFFFFFFFFFFFFFFFFFFFFFFFFFFFFFFFFFFFFFFFFFFFFFFFFFFFFFFFFFFFFFF DUP3 PUSH2 0xE7D JUMP JUMPDEST PUSH2 0xEC2 DUP7 DUP4 PUSH2 0xE7D JUMP JUMPDEST SWAP6 POP DUP1 NOT DUP5 AND SWAP4 POP DUP1 DUP7 AND DUP5 OR SWAP3 POP POP POP SWAP4 SWAP3 POP POP POP JUMP JUMPDEST PUSH0 DUP2 SWAP1 POP SWAP2 SWAP1 POP JUMP JUMPDEST PUSH0 PUSH2 0xEFD PUSH2 0xEF8 PUSH2 0xEF3 DUP5 PUSH2 0x8DB JUMP JUMPDEST PUSH2 0xEDA JUMP JUMPDEST PUSH2 0x8DB JUMP JUMPDEST SWAP1 POP SWAP2 SWAP1 POP JUMP JUMPDEST PUSH0 DUP2 SWAP1 POP SWAP2 SWAP1 POP JUMP JUMPDEST PUSH2 0xF16 DUP4 PUSH2 0xEE3 JUMP JUMPDEST PUSH2 0xF2A PUSH2 0xF22 DUP3 PUSH2 0xF04 JUMP JUMPDEST DUP5 DUP5 SLOAD PUSH2 0xE89 JUMP JUMPDEST DUP3 SSTORE POP POP POP POP JUMP JUMPDEST PUSH0 SWAP1 JUMP JUMPDEST PUSH2 0xF3E PUSH2 0xF32 JUMP JUMPDEST PUSH2 0xF49 DUP2 DUP5 DUP5 PUSH2 0xF0D JUMP JUMPDEST POP POP POP JUMP JUMPDEST JUMPDEST DUP2 DUP2 LT ISZERO PUSH2 0xF6C JUMPI PUSH2 0xF61 PUSH0 DUP3 PUSH2 0xF36 JUMP JUMPDEST PUSH1 0x1 DUP2 ADD SWAP1 POP PUSH2 0xF4F JUMP JUMPDEST POP POP JUMP JUMPDEST PUSH1 0x1F DUP3 GT ISZERO PUSH2 0xFB1 JUMPI PUSH2 0xF82 DUP2 PUSH2 0xE5C JUMP JUMPDEST PUSH2 0xF8B DUP5 PUSH2 0xE6E JUMP JUMPDEST DUP2 ADD PUSH1 0x20 DUP6 LT ISZERO PUSH2 0xF9A JUMPI DUP2 SWAP1 POP JUMPDEST PUSH2 0xFAE PUSH2 0xFA6 DUP6 PUSH2 0xE6E JUMP JUMPDEST DUP4 ADD DUP3 PUSH2 0xF4E JUMP JUMPDEST POP POP JUMPDEST POP POP POP JUMP JUMPDEST PUSH0 DUP3 DUP3 SHR SWAP1 POP SWAP3 SWAP2 POP POP JUMP JUMPDEST PUSH0 PUSH2 0xFD1 PUSH0 NOT DUP5 PUSH1 0x8 MUL PUSH2 0xFB6 JUMP JUMPDEST NOT DUP1 DUP4 AND SWAP2 POP POP SWAP3 SWAP2 POP POP JUMP JUMPDEST PUSH0 PUSH2 0xFE9 DUP4 DUP4 PUSH2 0xFC2 JUMP JUMPDEST SWAP2 POP DUP3 PUSH1 0x2 MUL DUP3 OR SWAP1 POP SWAP3 SWAP2 POP POP JUMP JUMPDEST PUSH2 0x1002 DUP3 PUSH2 0x978 JUMP JUMPDEST PUSH8 0xFFFFFFFFFFFFFFFF DUP2 GT ISZERO PUSH2 0x101B JUMPI PUSH2 0x101A PUSH2 0xA6D JUMP JUMPDEST JUMPDEST PUSH2 0x1025 DUP3 SLOAD PUSH2 0xC6D JUMP JUMPDEST PUSH2 0x1030 DUP3 DUP3 DUP6 PUSH2 0xF70 JUMP JUMPDEST PUSH0 PUSH1 0x20 SWAP1 POP PUSH1 0x1F DUP4 GT PUSH1 0x1 DUP2 EQ PUSH2 0x1061 JUMPI PUSH0 DUP5 ISZERO PUSH2 0x104F JUMPI DUP3 DUP8 ADD MLOAD SWAP1 POP JUMPDEST PUSH2 0x1059 DUP6 DUP3 PUSH2 0xFDE JUMP JUMPDEST DUP7 SSTORE POP PUSH2 0x10C0 JUMP JUMPDEST PUSH1 0x1F NOT DUP5 AND PUSH2 0x106F DUP7 PUSH2 0xE5C JUMP JUMPDEST PUSH0 JUMPDEST DUP3 DUP2 LT ISZERO PUSH2 0x1096 JUMPI DUP5 DUP10 ADD MLOAD DUP3 SSTORE PUSH1 0x1 DUP3 ADD SWAP2 POP PUSH1 0x20 DUP6 ADD SWAP5 POP PUSH1 0x20 DUP2 ADD SWAP1 POP PUSH2 0x1071 JUMP JUMPDEST DUP7 DUP4 LT ISZERO PUSH2 0x10B3 JUMPI DUP5 DUP10 ADD MLOAD PUSH2 0x10AF PUSH1 0x1F DUP10 AND DUP3 PUSH2 0xFC2 JUMP JUMPDEST DUP4 SSTORE POP JUMPDEST PUSH1 0x1 PUSH1 0x2 DUP9 MUL ADD DUP9 SSTORE POP POP POP JUMPDEST POP POP POP POP POP POP JUMP JUMPDEST PUSH0 PUSH1 0x40 DUP3 ADD SWAP1 POP DUP2 DUP2 SUB PUSH0 DUP4 ADD MSTORE PUSH2 0x10E0 DUP2 DUP6 PUSH2 0x9B0 JUMP JUMPDEST SWAP1 POP PUSH2 0x10EF PUSH1 0x20 DUP4 ADD DUP5 PUSH2 0x9E8 JUMP JUMPDEST SWAP4 SWAP3 POP POP POP JUMP INVALID LOG2 PUSH5 0x6970667358 0x22 SLT KECCAK256 0xE4 SWAP4 0x4B DUP4 EXTCODESIZE 0xC4 CODESIZE SWAP4 PUSH5 0x9983141D8 DUP5 LT BALANCE CALLVALUE MSTORE8 MSTORE PUSH32 0x52C93C15F2BF9D53B5FBDD64736F6C6343000819003300000000000000000000 "
				},
				"gasEstimates": {
					"creation": {
						"codeDepositCost": "879200",
						"executionCost": "infinite",
						"totalCost": "infinite"
					},
					"external": {
						"chatRoomFinance()": "2530",
						"getMessageCount()": "2463",
						"messages(uint256)": "infinite",
						"owner()": "2582",
						"readMessage(uint256)": "infinite",
						"renounceOwnership()": "infinite",
						"sendMessage(string,uint256)": "infinite",
						"transferOwnership(address)": "infinite"
					}
				},
				"methodIdentifiers": {
					"chatRoomFinance()": "ab7ee590",
					"getMessageCount()": "31933916",
					"messages(uint256)": "0d80fefd",
					"owner()": "8da5cb5b",
					"readMessage(uint256)": "a7d27056",
					"renounceOwnership()": "715018a6",
					"sendMessage(string,uint256)": "d013bef0",
					"transferOwnership(address)": "f2fde38b"
				}
			},
			"storageLayout": {
				"storage": [
					{
						"astId": 8,
						"contract": "contracts/ChatRoom.sol:ChatRoom",
						"label": "_owner",
						"offset": 0,
						"slot": "0",
						"type": "t_address"
					},
					{
						"astId": 184,
						"contract": "contracts/ChatRoom.sol:ChatRoom",
						"label": "chatRoomFinance",
						"offset": 0,
						"slot": "1",
						"type": "t_address"
					},
					{
						"astId": 195,
						"contract": "contracts/ChatRoom.sol:ChatRoom",
						"label": "messages",
						"offset": 0,
						"slot": "2",
						"type": "t_array(t_struct(Message)191_storage)dyn_storage"
					}
				],
				"types": {
					"t_address": {
						"encoding": "inplace",
						"label": "address",
						"numberOfBytes": "20"
					},
					"t_array(t_struct(Message)191_storage)dyn_storage": {
						"base": "t_struct(Message)191_storage",
						"encoding": "dynamic_array",
						"label": "struct ChatRoom.Message[]",
						"numberOfBytes": "32"
					},
					"t_string_storage": {
						"encoding": "bytes",
						"label": "string",
						"numberOfBytes": "32"
					},
					"t_struct(Message)191_storage": {
						"encoding": "inplace",
						"label": "struct ChatRoom.Message",
						"members": [
							{
								"astId": 186,
								"contract": "contracts/ChatRoom.sol:ChatRoom",
								"label": "sender",
								"offset": 0,
								"slot": "0",
								"type": "t_address"
							},
							{
								"astId": 188,
								"contract": "contracts/ChatRoom.sol:ChatRoom",
								"label": "content",
								"offset": 0,
								"slot": "1",
								"type": "t_string_storage"
							},
							{
								"astId": 190,
								"contract": "contracts/ChatRoom.sol:ChatRoom",
								"label": "timestamp",
								"offset": 0,
								"slot": "2",
								"type": "t_uint256"
							}
						],
						"numberOfBytes": "96"
					},
					"t_uint256": {
						"encoding": "inplace",
						"label": "uint256",
						"numberOfBytes": "32"
					}
				}
			},
			"userdoc": {
				"kind": "user",
				"methods": {},
				"version": 1
			}
		}
	}
}