{
	"contracts/ChatRoom.sol": {
		"ChatRoom": {
			"abi": [
				{
					"inputs": [
						{
							"internalType": "address",
							"name": "_chatRoomFinance",
							"type": "address"
						}
					],
					"stateMutability": "nonpayable",
					"type": "constructor"
				},
				{
					"inputs": [],
					"name": "EnforcedPause",
					"type": "error"
				},
				{
					"inputs": [],
					"name": "ExpectedPause",
					"type": "error"
				},
				{
					"inputs": [
						{
							"internalType": "address",
							"name": "owner",
							"type": "address"
						}
					],
					"name": "OwnableInvalidOwner",
					"type": "error"
				},
				{
					"inputs": [
						{
							"internalType": "address",
							"name": "account",
							"type": "address"
						}
					],
					"name": "OwnableUnauthorizedAccount",
					"type": "error"
				},
				{
					"anonymous": false,
					"inputs": [
						{
							"indexed": true,
							"internalType": "address",
							"name": "sender",
							"type": "address"
						},
						{
							"indexed": false,
							"internalType": "string",
							"name": "content",
							"type": "string"
						},
						{
							"indexed": false,
							"internalType": "uint256",
							"name": "timestamp",
							"type": "uint256"
						}
					],
					"name": "MessageSent",
					"type": "event"
				},
				{
					"anonymous": false,
					"inputs": [
						{
							"indexed": true,
							"internalType": "address",
							"name": "previousOwner",
							"type": "address"
						},
						{
							"indexed": true,
							"internalType": "address",
							"name": "newOwner",
							"type": "address"
						}
					],
					"name": "OwnershipTransferred",
					"type": "event"
				},
				{
					"anonymous": false,
					"inputs": [
						{
							"indexed": false,
							"internalType": "address",
							"name": "account",
							"type": "address"
						}
					],
					"name": "Paused",
					"type": "event"
				},
				{
					"anonymous": false,
					"inputs": [
						{
							"indexed": false,
							"internalType": "address",
							"name": "account",
							"type": "address"
						}
					],
					"name": "Unpaused",
					"type": "event"
				},
				{
					"inputs": [],
					"name": "chatRoomFinance",
					"outputs": [
						{
							"internalType": "address",
							"name": "",
							"type": "address"
						}
					],
					"stateMutability": "view",
					"type": "function"
				},
				{
					"inputs": [
						{
							"internalType": "uint256",
							"name": "n",
							"type": "uint256"
						}
					],
					"name": "getLastNMessages",
					"outputs": [
						{
							"components": [
								{
									"internalType": "address",
									"name": "sender",
									"type": "address"
								},
								{
									"internalType": "string",
									"name": "content",
									"type": "string"
								},
								{
									"internalType": "uint256",
									"name": "timestamp",
									"type": "uint256"
								}
							],
							"internalType": "struct ChatRoom.Message[]",
							"name": "",
							"type": "tuple[]"
						},
						{
							"internalType": "uint256",
							"name": "",
							"type": "uint256"
						}
					],
					"stateMutability": "view",
					"type": "function"
				},
				{
					"inputs": [
						{
							"internalType": "uint256",
							"name": "index",
							"type": "uint256"
						}
					],
					"name": "getMessageByIndex",
					"outputs": [
						{
							"internalType": "address",
							"name": "",
							"type": "address"
						},
						{
							"internalType": "string",
							"name": "",
							"type": "string"
						},
						{
							"internalType": "uint256",
							"name": "",
							"type": "uint256"
						}
					],
					"stateMutability": "view",
					"type": "function"
				},
				{
					"inputs": [],
					"name": "getMessageCount",
					"outputs": [
						{
							"internalType": "uint256",
							"name": "",
							"type": "uint256"
						}
					],
					"stateMutability": "view",
					"type": "function"
				},
				{
					"inputs": [
						{
							"internalType": "uint256",
							"name": "start",
							"type": "uint256"
						},
						{
							"internalType": "uint256",
							"name": "n",
							"type": "uint256"
						}
					],
					"name": "getMessagesFromIndex",
					"outputs": [
						{
							"components": [
								{
									"internalType": "address",
									"name": "sender",
									"type": "address"
								},
								{
									"internalType": "string",
									"name": "content",
									"type": "string"
								},
								{
									"internalType": "uint256",
									"name": "timestamp",
									"type": "uint256"
								}
							],
							"internalType": "struct ChatRoom.Message[]",
							"name": "",
							"type": "tuple[]"
						},
						{
							"internalType": "uint256",
							"name": "",
							"type": "uint256"
						}
					],
					"stateMutability": "view",
					"type": "function"
				},
				{
					"inputs": [
						{
							"internalType": "address",
							"name": "user",
							"type": "address"
						},
						{
							"internalType": "uint256",
							"name": "messageIndex",
							"type": "uint256"
						}
					],
					"name": "getUserMessageByIndex",
					"outputs": [
						{
							"components": [
								{
									"internalType": "address",
									"name": "sender",
									"type": "address"
								},
								{
									"internalType": "string",
									"name": "content",
									"type": "string"
								},
								{
									"internalType": "uint256",
									"name": "timestamp",
									"type": "uint256"
								}
							],
							"internalType": "struct ChatRoom.Message",
							"name": "",
							"type": "tuple"
						}
					],
					"stateMutability": "view",
					"type": "function"
				},
				{
					"inputs": [
						{
							"internalType": "address",
							"name": "user",
							"type": "address"
						}
					],
					"name": "getUserMessageIndexes",
					"outputs": [
						{
							"internalType": "uint256[]",
							"name": "",
							"type": "uint256[]"
						}
					],
					"stateMutability": "view",
					"type": "function"
				},
				{
					"inputs": [
						{
							"internalType": "address",
							"name": "user",
							"type": "address"
						}
					],
					"name": "getUserMessages",
					"outputs": [
						{
							"components": [
								{
									"internalType": "address",
									"name": "sender",
									"type": "address"
								},
								{
									"internalType": "string",
									"name": "content",
									"type": "string"
								},
								{
									"internalType": "uint256",
									"name": "timestamp",
									"type": "uint256"
								}
							],
							"internalType": "struct ChatRoom.Message[]",
							"name": "",
							"type": "tuple[]"
						}
					],
					"stateMutability": "view",
					"type": "function"
				},
				{
					"inputs": [
						{
							"internalType": "uint256",
							"name": "",
							"type": "uint256"
						}
					],
					"name": "messages",
					"outputs": [
						{
							"internalType": "address",
							"name": "sender",
							"type": "address"
						},
						{
							"internalType": "string",
							"name": "content",
							"type": "string"
						},
						{
							"internalType": "uint256",
							"name": "timestamp",
							"type": "uint256"
						}
					],
					"stateMutability": "view",
					"type": "function"
				},
				{
					"inputs": [],
					"name": "owner",
					"outputs": [
						{
							"internalType": "address",
							"name": "",
							"type": "address"
						}
					],
					"stateMutability": "view",
					"type": "function"
				},
				{
					"inputs": [],
					"name": "paused",
					"outputs": [
						{
							"internalType": "bool",
							"name": "",
							"type": "bool"
						}
					],
					"stateMutability": "view",
					"type": "function"
				},
				{
					"inputs": [],
					"name": "renounceOwnership",
					"outputs": [],
					"stateMutability": "nonpayable",
					"type": "function"
				},
				{
					"inputs": [
						{
							"internalType": "string",
							"name": "content",
							"type": "string"
						},
						{
							"internalType": "uint256",
							"name": "ownerCommissionPercent",
							"type": "uint256"
						}
					],
					"name": "sendMessage",
					"outputs": [],
					"stateMutability": "payable",
					"type": "function"
				},
				{
					"inputs": [
						{
							"internalType": "address",
							"name": "newOwner",
							"type": "address"
						}
					],
					"name": "transferOwnership",
					"outputs": [],
					"stateMutability": "nonpayable",
					"type": "function"
				},
				{
					"inputs": [
						{
							"internalType": "address",
							"name": "",
							"type": "address"
						},
						{
							"internalType": "uint256",
							"name": "",
							"type": "uint256"
						}
					],
					"name": "userMessages",
					"outputs": [
						{
							"internalType": "uint256",
							"name": "",
							"type": "uint256"
						}
					],
					"stateMutability": "view",
					"type": "function"
				}
			],
			"devdoc": {
				"errors": {
					"EnforcedPause()": [
						{
							"details": "The operation failed because the contract is paused."
						}
					],
					"ExpectedPause()": [
						{
							"details": "The operation failed because the contract is not paused."
						}
					],
					"OwnableInvalidOwner(address)": [
						{
							"details": "The owner is not a valid owner account. (eg. `address(0)`)"
						}
					],
					"OwnableUnauthorizedAccount(address)": [
						{
							"details": "The caller account is not authorized to perform an operation."
						}
					]
				},
				"events": {
					"Paused(address)": {
						"details": "Emitted when the pause is triggered by `account`."
					},
					"Unpaused(address)": {
						"details": "Emitted when the pause is lifted by `account`."
					}
				},
				"kind": "dev",
				"methods": {
					"owner()": {
						"details": "Returns the address of the current owner."
					},
					"paused()": {
						"details": "Returns true if the contract is paused, and false otherwise."
					},
					"renounceOwnership()": {
						"details": "Leaves the contract without owner. It will not be possible to call `onlyOwner` functions. Can only be called by the current owner. NOTE: Renouncing ownership will leave the contract without an owner, thereby disabling any functionality that is only available to the owner."
					},
					"transferOwnership(address)": {
						"details": "Transfers ownership of the contract to a new account (`newOwner`). Can only be called by the current owner."
					}
				},
				"version": 1
			},
			"evm": {
				"assembly": "    /* \"contracts/ChatRoom.sol\":985:7023  contract ChatRoom is Ownable, Pausable {... */\n  mstore(0x40, 0x80)\n    /* \"contracts/ChatRoom.sol\":1911:2152  constructor(address _chatRoomFinance) Ownable(_chatRoomFinance) {... */\n  callvalue\n  dup1\n  iszero\n  tag_1\n  jumpi\n  0x00\n  dup1\n  revert\ntag_1:\n  pop\n  mload(0x40)\n  sub(codesize, bytecodeSize)\n  dup1\n  bytecodeSize\n  dup4\n  codecopy\n  dup2\n  dup2\n  add\n  0x40\n  mstore\n  dup2\n  add\n  swap1\n  tag_2\n  swap2\n  swap1\n  tag_3\n  jump\t// in\ntag_2:\n    /* \"contracts/ChatRoom.sol\":1957:1973  _chatRoomFinance */\n  dup1\n    /* \"@openzeppelin/contracts/access/Ownable.sol\":1297:1298  0 */\n  0x00\n    /* \"@openzeppelin/contracts/access/Ownable.sol\":1273:1299  initialOwner == address(0) */\n  0xffffffffffffffffffffffffffffffffffffffff\n  and\n    /* \"@openzeppelin/contracts/access/Ownable.sol\":1273:1285  initialOwner */\n  dup2\n    /* \"@openzeppelin/contracts/access/Ownable.sol\":1273:1299  initialOwner == address(0) */\n  0xffffffffffffffffffffffffffffffffffffffff\n  and\n  sub\n    /* \"@openzeppelin/contracts/access/Ownable.sol\":1269:1364  if (initialOwner == address(0)) {... */\n  tag_8\n  jumpi\n    /* \"@openzeppelin/contracts/access/Ownable.sol\":1350:1351  0 */\n  0x00\n    /* \"@openzeppelin/contracts/access/Ownable.sol\":1322:1353  OwnableInvalidOwner(address(0)) */\n  mload(0x40)\n  0x1e4fbdf700000000000000000000000000000000000000000000000000000000\n  dup2\n  mstore\n  0x04\n  add\n  tag_9\n  swap2\n  swap1\n  tag_10\n  jump\t// in\ntag_9:\n  mload(0x40)\n  dup1\n  swap2\n  sub\n  swap1\n  revert\n    /* \"@openzeppelin/contracts/access/Ownable.sol\":1269:1364  if (initialOwner == address(0)) {... */\ntag_8:\n    /* \"@openzeppelin/contracts/access/Ownable.sol\":1373:1405  _transferOwnership(initialOwner) */\n  tag_11\n    /* \"@openzeppelin/contracts/access/Ownable.sol\":1392:1404  initialOwner */\n  dup2\n    /* \"@openzeppelin/contracts/access/Ownable.sol\":1373:1391  _transferOwnership */\n  shl(0x20, tag_12)\n    /* \"@openzeppelin/contracts/access/Ownable.sol\":1373:1405  _transferOwnership(initialOwner) */\n  0x20\n  shr\n  jump\t// in\ntag_11:\n    /* \"@openzeppelin/contracts/access/Ownable.sol\":1225:1412  constructor(address initialOwner) {... */\n  pop\n    /* \"@openzeppelin/contracts/utils/Pausable.sol\":1241:1246  false */\n  0x00\n    /* \"@openzeppelin/contracts/utils/Pausable.sol\":1231:1238  _paused */\n  dup1\n  0x14\n    /* \"@openzeppelin/contracts/utils/Pausable.sol\":1231:1246  _paused = false */\n  0x0100\n  exp\n  dup2\n  sload\n  dup2\n  0xff\n  mul\n  not\n  and\n  swap1\n  dup4\n  iszero\n  iszero\n  mul\n  or\n  swap1\n  sstore\n  pop\n    /* \"contracts/ChatRoom.sol\":2034:2035  0 */\n  0x00\n    /* \"contracts/ChatRoom.sol\":2006:2036  _chatRoomFinance != address(0) */\n  0xffffffffffffffffffffffffffffffffffffffff\n  and\n    /* \"contracts/ChatRoom.sol\":2006:2022  _chatRoomFinance */\n  dup2\n    /* \"contracts/ChatRoom.sol\":2006:2036  _chatRoomFinance != address(0) */\n  0xffffffffffffffffffffffffffffffffffffffff\n  and\n  sub\n    /* \"contracts/ChatRoom.sol\":1985:2101  require(... */\n  tag_15\n  jumpi\n  mload(0x40)\n  0x08c379a000000000000000000000000000000000000000000000000000000000\n  dup2\n  mstore\n  0x04\n  add\n  tag_16\n  swap1\n  tag_17\n  jump\t// in\ntag_16:\n  mload(0x40)\n  dup1\n  swap2\n  sub\n  swap1\n  revert\ntag_15:\n    /* \"contracts/ChatRoom.sol\":2129:2145  _chatRoomFinance */\n  dup1\n    /* \"contracts/ChatRoom.sol\":2111:2126  chatRoomFinance */\n  0x01\n  0x00\n    /* \"contracts/ChatRoom.sol\":2111:2145  chatRoomFinance = _chatRoomFinance */\n  0x0100\n  exp\n  dup2\n  sload\n  dup2\n  0xffffffffffffffffffffffffffffffffffffffff\n  mul\n  not\n  and\n  swap1\n  dup4\n  0xffffffffffffffffffffffffffffffffffffffff\n  and\n  mul\n  or\n  swap1\n  sstore\n  pop\n    /* \"contracts/ChatRoom.sol\":1911:2152  constructor(address _chatRoomFinance) Ownable(_chatRoomFinance) {... */\n  pop\n    /* \"contracts/ChatRoom.sol\":985:7023  contract ChatRoom is Ownable, Pausable {... */\n  jump(tag_18)\n    /* \"@openzeppelin/contracts/access/Ownable.sol\":2912:3099  function _transferOwnership(address newOwner) internal virtual {... */\ntag_12:\n    /* \"@openzeppelin/contracts/access/Ownable.sol\":2985:3001  address oldOwner */\n  0x00\n    /* \"@openzeppelin/contracts/access/Ownable.sol\":3004:3010  _owner */\n  dup1\n  0x00\n  swap1\n  sload\n  swap1\n  0x0100\n  exp\n  swap1\n  div\n  0xffffffffffffffffffffffffffffffffffffffff\n  and\n    /* \"@openzeppelin/contracts/access/Ownable.sol\":2985:3010  address oldOwner = _owner */\n  swap1\n  pop\n    /* \"@openzeppelin/contracts/access/Ownable.sol\":3029:3037  newOwner */\n  dup2\n    /* \"@openzeppelin/contracts/access/Ownable.sol\":3020:3026  _owner */\n  0x00\n  dup1\n    /* \"@openzeppelin/contracts/access/Ownable.sol\":3020:3037  _owner = newOwner */\n  0x0100\n  exp\n  dup2\n  sload\n  dup2\n  0xffffffffffffffffffffffffffffffffffffffff\n  mul\n  not\n  and\n  swap1\n  dup4\n  0xffffffffffffffffffffffffffffffffffffffff\n  and\n  mul\n  or\n  swap1\n  sstore\n  pop\n    /* \"@openzeppelin/contracts/access/Ownable.sol\":3083:3091  newOwner */\n  dup2\n    /* \"@openzeppelin/contracts/access/Ownable.sol\":3052:3092  OwnershipTransferred(oldOwner, newOwner) */\n  0xffffffffffffffffffffffffffffffffffffffff\n  and\n    /* \"@openzeppelin/contracts/access/Ownable.sol\":3073:3081  oldOwner */\n  dup2\n    /* \"@openzeppelin/contracts/access/Ownable.sol\":3052:3092  OwnershipTransferred(oldOwner, newOwner) */\n  0xffffffffffffffffffffffffffffffffffffffff\n  and\n  0x8be0079c531659141344cd1fd0a4f28419497f9722a3daafe3b4186f6b6457e0\n  mload(0x40)\n  mload(0x40)\n  dup1\n  swap2\n  sub\n  swap1\n  log3\n    /* \"@openzeppelin/contracts/access/Ownable.sol\":2975:3099  {... */\n  pop\n    /* \"@openzeppelin/contracts/access/Ownable.sol\":2912:3099  function _transferOwnership(address newOwner) internal virtual {... */\n  pop\n  jump\t// out\n    /* \"#utility.yul\":88:205   */\ntag_21:\n    /* \"#utility.yul\":197:198   */\n  0x00\n    /* \"#utility.yul\":194:195   */\n  dup1\n    /* \"#utility.yul\":187:199   */\n  revert\n    /* \"#utility.yul\":334:460   */\ntag_23:\n    /* \"#utility.yul\":371:378   */\n  0x00\n    /* \"#utility.yul\":411:453   */\n  0xffffffffffffffffffffffffffffffffffffffff\n    /* \"#utility.yul\":404:409   */\n  dup3\n    /* \"#utility.yul\":400:454   */\n  and\n    /* \"#utility.yul\":389:454   */\n  swap1\n  pop\n    /* \"#utility.yul\":334:460   */\n  swap2\n  swap1\n  pop\n  jump\t// out\n    /* \"#utility.yul\":466:562   */\ntag_24:\n    /* \"#utility.yul\":503:510   */\n  0x00\n    /* \"#utility.yul\":532:556   */\n  tag_37\n    /* \"#utility.yul\":550:555   */\n  dup3\n    /* \"#utility.yul\":532:556   */\n  tag_23\n  jump\t// in\ntag_37:\n    /* \"#utility.yul\":521:556   */\n  swap1\n  pop\n    /* \"#utility.yul\":466:562   */\n  swap2\n  swap1\n  pop\n  jump\t// out\n    /* \"#utility.yul\":568:690   */\ntag_25:\n    /* \"#utility.yul\":641:665   */\n  tag_39\n    /* \"#utility.yul\":659:664   */\n  dup2\n    /* \"#utility.yul\":641:665   */\n  tag_24\n  jump\t// in\ntag_39:\n    /* \"#utility.yul\":634:639   */\n  dup2\n    /* \"#utility.yul\":631:666   */\n  eq\n    /* \"#utility.yul\":621:684   */\n  tag_40\n  jumpi\n    /* \"#utility.yul\":680:681   */\n  0x00\n    /* \"#utility.yul\":677:678   */\n  dup1\n    /* \"#utility.yul\":670:682   */\n  revert\n    /* \"#utility.yul\":621:684   */\ntag_40:\n    /* \"#utility.yul\":568:690   */\n  pop\n  jump\t// out\n    /* \"#utility.yul\":696:839   */\ntag_26:\n    /* \"#utility.yul\":753:758   */\n  0x00\n    /* \"#utility.yul\":784:790   */\n  dup2\n    /* \"#utility.yul\":778:791   */\n  mload\n    /* \"#utility.yul\":769:791   */\n  swap1\n  pop\n    /* \"#utility.yul\":800:833   */\n  tag_42\n    /* \"#utility.yul\":827:832   */\n  dup2\n    /* \"#utility.yul\":800:833   */\n  tag_25\n  jump\t// in\ntag_42:\n    /* \"#utility.yul\":696:839   */\n  swap3\n  swap2\n  pop\n  pop\n  jump\t// out\n    /* \"#utility.yul\":845:1196   */\ntag_3:\n    /* \"#utility.yul\":915:921   */\n  0x00\n    /* \"#utility.yul\":964:966   */\n  0x20\n    /* \"#utility.yul\":952:961   */\n  dup3\n    /* \"#utility.yul\":943:950   */\n  dup5\n    /* \"#utility.yul\":939:962   */\n  sub\n    /* \"#utility.yul\":935:967   */\n  slt\n    /* \"#utility.yul\":932:1051   */\n  iszero\n  tag_44\n  jumpi\n    /* \"#utility.yul\":970:1049   */\n  tag_45\n  tag_21\n  jump\t// in\ntag_45:\n    /* \"#utility.yul\":932:1051   */\ntag_44:\n    /* \"#utility.yul\":1090:1091   */\n  0x00\n    /* \"#utility.yul\":1115:1179   */\n  tag_46\n    /* \"#utility.yul\":1171:1178   */\n  dup5\n    /* \"#utility.yul\":1162:1168   */\n  dup3\n    /* \"#utility.yul\":1151:1160   */\n  dup6\n    /* \"#utility.yul\":1147:1169   */\n  add\n    /* \"#utility.yul\":1115:1179   */\n  tag_26\n  jump\t// in\ntag_46:\n    /* \"#utility.yul\":1105:1179   */\n  swap2\n  pop\n    /* \"#utility.yul\":1061:1189   */\n  pop\n    /* \"#utility.yul\":845:1196   */\n  swap3\n  swap2\n  pop\n  pop\n  jump\t// out\n    /* \"#utility.yul\":1202:1320   */\ntag_27:\n    /* \"#utility.yul\":1289:1313   */\n  tag_48\n    /* \"#utility.yul\":1307:1312   */\n  dup2\n    /* \"#utility.yul\":1289:1313   */\n  tag_24\n  jump\t// in\ntag_48:\n    /* \"#utility.yul\":1284:1287   */\n  dup3\n    /* \"#utility.yul\":1277:1314   */\n  mstore\n    /* \"#utility.yul\":1202:1320   */\n  pop\n  pop\n  jump\t// out\n    /* \"#utility.yul\":1326:1548   */\ntag_10:\n    /* \"#utility.yul\":1419:1423   */\n  0x00\n    /* \"#utility.yul\":1457:1459   */\n  0x20\n    /* \"#utility.yul\":1446:1455   */\n  dup3\n    /* \"#utility.yul\":1442:1460   */\n  add\n    /* \"#utility.yul\":1434:1460   */\n  swap1\n  pop\n    /* \"#utility.yul\":1470:1541   */\n  tag_50\n    /* \"#utility.yul\":1538:1539   */\n  0x00\n    /* \"#utility.yul\":1527:1536   */\n  dup4\n    /* \"#utility.yul\":1523:1540   */\n  add\n    /* \"#utility.yul\":1514:1520   */\n  dup5\n    /* \"#utility.yul\":1470:1541   */\n  tag_27\n  jump\t// in\ntag_50:\n    /* \"#utility.yul\":1326:1548   */\n  swap3\n  swap2\n  pop\n  pop\n  jump\t// out\n    /* \"#utility.yul\":1554:1723   */\ntag_28:\n    /* \"#utility.yul\":1638:1649   */\n  0x00\n    /* \"#utility.yul\":1672:1678   */\n  dup3\n    /* \"#utility.yul\":1667:1670   */\n  dup3\n    /* \"#utility.yul\":1660:1679   */\n  mstore\n    /* \"#utility.yul\":1712:1716   */\n  0x20\n    /* \"#utility.yul\":1707:1710   */\n  dup3\n    /* \"#utility.yul\":1703:1717   */\n  add\n    /* \"#utility.yul\":1688:1717   */\n  swap1\n  pop\n    /* \"#utility.yul\":1554:1723   */\n  swap3\n  swap2\n  pop\n  pop\n  jump\t// out\n    /* \"#utility.yul\":1729:1955   */\ntag_29:\n    /* \"#utility.yul\":1869:1903   */\n  0x43686174526f6f6d46696e616e636520616464726573732063616e6e6f742062\n    /* \"#utility.yul\":1865:1866   */\n  0x00\n    /* \"#utility.yul\":1857:1863   */\n  dup3\n    /* \"#utility.yul\":1853:1867   */\n  add\n    /* \"#utility.yul\":1846:1904   */\n  mstore\n    /* \"#utility.yul\":1938:1947   */\n  0x65207a65726f2e00000000000000000000000000000000000000000000000000\n    /* \"#utility.yul\":1933:1935   */\n  0x20\n    /* \"#utility.yul\":1925:1931   */\n  dup3\n    /* \"#utility.yul\":1921:1936   */\n  add\n    /* \"#utility.yul\":1914:1948   */\n  mstore\n    /* \"#utility.yul\":1729:1955   */\n  pop\n  jump\t// out\n    /* \"#utility.yul\":1961:2327   */\ntag_30:\n    /* \"#utility.yul\":2103:2106   */\n  0x00\n    /* \"#utility.yul\":2124:2191   */\n  tag_54\n    /* \"#utility.yul\":2188:2190   */\n  0x27\n    /* \"#utility.yul\":2183:2186   */\n  dup4\n    /* \"#utility.yul\":2124:2191   */\n  tag_28\n  jump\t// in\ntag_54:\n    /* \"#utility.yul\":2117:2191   */\n  swap2\n  pop\n    /* \"#utility.yul\":2200:2293   */\n  tag_55\n    /* \"#utility.yul\":2289:2292   */\n  dup3\n    /* \"#utility.yul\":2200:2293   */\n  tag_29\n  jump\t// in\ntag_55:\n    /* \"#utility.yul\":2318:2320   */\n  0x40\n    /* \"#utility.yul\":2313:2316   */\n  dup3\n    /* \"#utility.yul\":2309:2321   */\n  add\n    /* \"#utility.yul\":2302:2321   */\n  swap1\n  pop\n    /* \"#utility.yul\":1961:2327   */\n  swap2\n  swap1\n  pop\n  jump\t// out\n    /* \"#utility.yul\":2333:2752   */\ntag_17:\n    /* \"#utility.yul\":2499:2503   */\n  0x00\n    /* \"#utility.yul\":2537:2539   */\n  0x20\n    /* \"#utility.yul\":2526:2535   */\n  dup3\n    /* \"#utility.yul\":2522:2540   */\n  add\n    /* \"#utility.yul\":2514:2540   */\n  swap1\n  pop\n    /* \"#utility.yul\":2586:2595   */\n  dup2\n    /* \"#utility.yul\":2580:2584   */\n  dup2\n    /* \"#utility.yul\":2576:2596   */\n  sub\n    /* \"#utility.yul\":2572:2573   */\n  0x00\n    /* \"#utility.yul\":2561:2570   */\n  dup4\n    /* \"#utility.yul\":2557:2574   */\n  add\n    /* \"#utility.yul\":2550:2597   */\n  mstore\n    /* \"#utility.yul\":2614:2745   */\n  tag_57\n    /* \"#utility.yul\":2740:2744   */\n  dup2\n    /* \"#utility.yul\":2614:2745   */\n  tag_30\n  jump\t// in\ntag_57:\n    /* \"#utility.yul\":2606:2745   */\n  swap1\n  pop\n    /* \"#utility.yul\":2333:2752   */\n  swap2\n  swap1\n  pop\n  jump\t// out\n    /* \"contracts/ChatRoom.sol\":985:7023  contract ChatRoom is Ownable, Pausable {... */\ntag_18:\n  dataSize(sub_0)\n  dup1\n  dataOffset(sub_0)\n  0x00\n  codecopy\n  0x00\n  return\nstop\n\nsub_0: assembly {\n        /* \"contracts/ChatRoom.sol\":985:7023  contract ChatRoom is Ownable, Pausable {... */\n      mstore(0x40, 0x80)\n      jumpi(tag_1, lt(calldatasize, 0x04))\n      shr(0xe0, calldataload(0x00))\n      dup1\n      0x715018a6\n      gt\n      tag_17\n      jumpi\n      dup1\n      0xab7ee590\n      gt\n      tag_18\n      jumpi\n      dup1\n      0xab7ee590\n      eq\n      tag_13\n      jumpi\n      dup1\n      0xad039fad\n      eq\n      tag_14\n      jumpi\n      dup1\n      0xd013bef0\n      eq\n      tag_15\n      jumpi\n      dup1\n      0xf2fde38b\n      eq\n      tag_16\n      jumpi\n      jump(tag_1)\n    tag_18:\n      dup1\n      0x715018a6\n      eq\n      tag_9\n      jumpi\n      dup1\n      0x8da5cb5b\n      eq\n      tag_10\n      jumpi\n      dup1\n      0x9428cda3\n      eq\n      tag_11\n      jumpi\n      dup1\n      0x98d63d3d\n      eq\n      tag_12\n      jumpi\n      jump(tag_1)\n    tag_17:\n      dup1\n      0x31933916\n      gt\n      tag_19\n      jumpi\n      dup1\n      0x31933916\n      eq\n      tag_5\n      jumpi\n      dup1\n      0x36913a40\n      eq\n      tag_6\n      jumpi\n      dup1\n      0x58cad1cf\n      eq\n      tag_7\n      jumpi\n      dup1\n      0x5c975abb\n      eq\n      tag_8\n      jumpi\n      jump(tag_1)\n    tag_19:\n      dup1\n      0x0d80fefd\n      eq\n      tag_2\n      jumpi\n      dup1\n      0x1e85e7be\n      eq\n      tag_3\n      jumpi\n      dup1\n      0x2024c1b7\n      eq\n      tag_4\n      jumpi\n    tag_1:\n      0x00\n      dup1\n      revert\n        /* \"contracts/ChatRoom.sol\":1413:1438  Message[] public messages */\n    tag_2:\n      callvalue\n      dup1\n      iszero\n      tag_20\n      jumpi\n      0x00\n      dup1\n      revert\n    tag_20:\n      pop\n      tag_21\n      0x04\n      dup1\n      calldatasize\n      sub\n      dup2\n      add\n      swap1\n      tag_22\n      swap2\n      swap1\n      tag_23\n      jump\t// in\n    tag_22:\n      tag_24\n      jump\t// in\n    tag_21:\n      mload(0x40)\n      tag_25\n      swap4\n      swap3\n      swap2\n      swap1\n      tag_26\n      jump\t// in\n    tag_25:\n      mload(0x40)\n      dup1\n      swap2\n      sub\n      swap1\n      return\n        /* \"contracts/ChatRoom.sol\":5414:6150  function getLastNMessages(uint256 n)... */\n    tag_3:\n      callvalue\n      dup1\n      iszero\n      tag_27\n      jumpi\n      0x00\n      dup1\n      revert\n    tag_27:\n      pop\n      tag_28\n      0x04\n      dup1\n      calldatasize\n      sub\n      dup2\n      add\n      swap1\n      tag_29\n      swap2\n      swap1\n      tag_23\n      jump\t// in\n    tag_29:\n      tag_30\n      jump\t// in\n    tag_28:\n      mload(0x40)\n      tag_31\n      swap3\n      swap2\n      swap1\n      tag_32\n      jump\t// in\n    tag_31:\n      mload(0x40)\n      dup1\n      swap2\n      sub\n      swap1\n      return\n        /* \"contracts/ChatRoom.sol\":3558:3928  function getMessageByIndex(uint256 index)... */\n    tag_4:\n      callvalue\n      dup1\n      iszero\n      tag_33\n      jumpi\n      0x00\n      dup1\n      revert\n    tag_33:\n      pop\n      tag_34\n      0x04\n      dup1\n      calldatasize\n      sub\n      dup2\n      add\n      swap1\n      tag_35\n      swap2\n      swap1\n      tag_23\n      jump\t// in\n    tag_35:\n      tag_36\n      jump\t// in\n    tag_34:\n      mload(0x40)\n      tag_37\n      swap4\n      swap3\n      swap2\n      swap1\n      tag_26\n      jump\t// in\n    tag_37:\n      mload(0x40)\n      dup1\n      swap2\n      sub\n      swap1\n      return\n        /* \"contracts/ChatRoom.sol\":3352:3448  function getMessageCount() public view returns (uint256) {... */\n    tag_5:\n      callvalue\n      dup1\n      iszero\n      tag_38\n      jumpi\n      0x00\n      dup1\n      revert\n    tag_38:\n      pop\n      tag_39\n      tag_40\n      jump\t// in\n    tag_39:\n      mload(0x40)\n      tag_41\n      swap2\n      swap1\n      tag_42\n      jump\t// in\n    tag_41:\n      mload(0x40)\n      dup1\n      swap2\n      sub\n      swap1\n      return\n        /* \"contracts/ChatRoom.sol\":4760:5252  function getUserMessageByIndex(address user, uint256 messageIndex)... */\n    tag_6:\n      callvalue\n      dup1\n      iszero\n      tag_43\n      jumpi\n      0x00\n      dup1\n      revert\n    tag_43:\n      pop\n      tag_44\n      0x04\n      dup1\n      calldatasize\n      sub\n      dup2\n      add\n      swap1\n      tag_45\n      swap2\n      swap1\n      tag_46\n      jump\t// in\n    tag_45:\n      tag_47\n      jump\t// in\n    tag_44:\n      mload(0x40)\n      tag_48\n      swap2\n      swap1\n      tag_49\n      jump\t// in\n    tag_48:\n      mload(0x40)\n      dup1\n      swap2\n      sub\n      swap1\n      return\n        /* \"contracts/ChatRoom.sol\":6307:7021  function getMessagesFromIndex(uint256 start, uint256 n)... */\n    tag_7:\n      callvalue\n      dup1\n      iszero\n      tag_50\n      jumpi\n      0x00\n      dup1\n      revert\n    tag_50:\n      pop\n      tag_51\n      0x04\n      dup1\n      calldatasize\n      sub\n      dup2\n      add\n      swap1\n      tag_52\n      swap2\n      swap1\n      tag_53\n      jump\t// in\n    tag_52:\n      tag_54\n      jump\t// in\n    tag_51:\n      mload(0x40)\n      tag_55\n      swap3\n      swap2\n      swap1\n      tag_32\n      jump\t// in\n    tag_55:\n      mload(0x40)\n      dup1\n      swap2\n      sub\n      swap1\n      return\n        /* \"@openzeppelin/contracts/utils/Pausable.sol\":1850:1934  function paused() public view virtual returns (bool) {... */\n    tag_8:\n      callvalue\n      dup1\n      iszero\n      tag_56\n      jumpi\n      0x00\n      dup1\n      revert\n    tag_56:\n      pop\n      tag_57\n      tag_58\n      jump\t// in\n    tag_57:\n      mload(0x40)\n      tag_59\n      swap2\n      swap1\n      tag_60\n      jump\t// in\n    tag_59:\n      mload(0x40)\n      dup1\n      swap2\n      sub\n      swap1\n      return\n        /* \"@openzeppelin/contracts/access/Ownable.sol\":2293:2394  function renounceOwnership() public virtual onlyOwner {... */\n    tag_9:\n      callvalue\n      dup1\n      iszero\n      tag_61\n      jumpi\n      0x00\n      dup1\n      revert\n    tag_61:\n      pop\n      tag_62\n      tag_63\n      jump\t// in\n    tag_62:\n      stop\n        /* \"@openzeppelin/contracts/access/Ownable.sol\":1638:1723  function owner() public view virtual returns (address) {... */\n    tag_10:\n      callvalue\n      dup1\n      iszero\n      tag_64\n      jumpi\n      0x00\n      dup1\n      revert\n    tag_64:\n      pop\n      tag_65\n      tag_66\n      jump\t// in\n    tag_65:\n      mload(0x40)\n      tag_67\n      swap2\n      swap1\n      tag_68\n      jump\t// in\n    tag_67:\n      mload(0x40)\n      dup1\n      swap2\n      sub\n      swap1\n      return\n        /* \"contracts/ChatRoom.sol\":1531:1580  mapping(address => uint256[]) public userMessages */\n    tag_11:\n      callvalue\n      dup1\n      iszero\n      tag_69\n      jumpi\n      0x00\n      dup1\n      revert\n    tag_69:\n      pop\n      tag_70\n      0x04\n      dup1\n      calldatasize\n      sub\n      dup2\n      add\n      swap1\n      tag_71\n      swap2\n      swap1\n      tag_46\n      jump\t// in\n    tag_71:\n      tag_72\n      jump\t// in\n    tag_70:\n      mload(0x40)\n      tag_73\n      swap2\n      swap1\n      tag_42\n      jump\t// in\n    tag_73:\n      mload(0x40)\n      dup1\n      swap2\n      sub\n      swap1\n      return\n        /* \"contracts/ChatRoom.sol\":4247:4622  function getUserMessages(address user)... */\n    tag_12:\n      callvalue\n      dup1\n      iszero\n      tag_74\n      jumpi\n      0x00\n      dup1\n      revert\n    tag_74:\n      pop\n      tag_75\n      0x04\n      dup1\n      calldatasize\n      sub\n      dup2\n      add\n      swap1\n      tag_76\n      swap2\n      swap1\n      tag_77\n      jump\t// in\n    tag_76:\n      tag_78\n      jump\t// in\n    tag_75:\n      mload(0x40)\n      tag_79\n      swap2\n      swap1\n      tag_80\n      jump\t// in\n    tag_79:\n      mload(0x40)\n      dup1\n      swap2\n      sub\n      swap1\n      return\n        /* \"contracts/ChatRoom.sol\":1120:1150  address public chatRoomFinance */\n    tag_13:\n      callvalue\n      dup1\n      iszero\n      tag_81\n      jumpi\n      0x00\n      dup1\n      revert\n    tag_81:\n      pop\n      tag_82\n      tag_83\n      jump\t// in\n    tag_82:\n      mload(0x40)\n      tag_84\n      swap2\n      swap1\n      tag_68\n      jump\t// in\n    tag_84:\n      mload(0x40)\n      dup1\n      swap2\n      sub\n      swap1\n      return\n        /* \"contracts/ChatRoom.sol\":3986:4140  function getUserMessageIndexes(address user)... */\n    tag_14:\n      callvalue\n      dup1\n      iszero\n      tag_85\n      jumpi\n      0x00\n      dup1\n      revert\n    tag_85:\n      pop\n      tag_86\n      0x04\n      dup1\n      calldatasize\n      sub\n      dup2\n      add\n      swap1\n      tag_87\n      swap2\n      swap1\n      tag_77\n      jump\t// in\n    tag_87:\n      tag_88\n      jump\t// in\n    tag_86:\n      mload(0x40)\n      tag_89\n      swap2\n      swap1\n      tag_90\n      jump\t// in\n    tag_89:\n      mload(0x40)\n      dup1\n      swap2\n      sub\n      swap1\n      return\n        /* \"contracts/ChatRoom.sol\":2233:3246  function sendMessage(string memory content, uint256 ownerCommissionPercent)... */\n    tag_15:\n      tag_91\n      0x04\n      dup1\n      calldatasize\n      sub\n      dup2\n      add\n      swap1\n      tag_92\n      swap2\n      swap1\n      tag_93\n      jump\t// in\n    tag_92:\n      tag_94\n      jump\t// in\n    tag_91:\n      stop\n        /* \"@openzeppelin/contracts/access/Ownable.sol\":2543:2758  function transferOwnership(address newOwner) public virtual onlyOwner {... */\n    tag_16:\n      callvalue\n      dup1\n      iszero\n      tag_95\n      jumpi\n      0x00\n      dup1\n      revert\n    tag_95:\n      pop\n      tag_96\n      0x04\n      dup1\n      calldatasize\n      sub\n      dup2\n      add\n      swap1\n      tag_97\n      swap2\n      swap1\n      tag_77\n      jump\t// in\n    tag_97:\n      tag_98\n      jump\t// in\n    tag_96:\n      stop\n        /* \"contracts/ChatRoom.sol\":1413:1438  Message[] public messages */\n    tag_24:\n      0x02\n      dup2\n      dup2\n      sload\n      dup2\n      lt\n      tag_99\n      jumpi\n      0x00\n      dup1\n      revert\n    tag_99:\n      swap1\n      0x00\n      mstore\n      keccak256(0x00, 0x20)\n      swap1\n      0x03\n      mul\n      add\n      0x00\n      swap2\n      pop\n      swap1\n      pop\n      dup1\n      0x00\n      add\n      0x00\n      swap1\n      sload\n      swap1\n      0x0100\n      exp\n      swap1\n      div\n      0xffffffffffffffffffffffffffffffffffffffff\n      and\n      swap1\n      dup1\n      0x01\n      add\n      dup1\n      sload\n      tag_101\n      swap1\n      tag_102\n      jump\t// in\n    tag_101:\n      dup1\n      0x1f\n      add\n      0x20\n      dup1\n      swap2\n      div\n      mul\n      0x20\n      add\n      mload(0x40)\n      swap1\n      dup2\n      add\n      0x40\n      mstore\n      dup1\n      swap3\n      swap2\n      swap1\n      dup2\n      dup2\n      mstore\n      0x20\n      add\n      dup3\n      dup1\n      sload\n      tag_103\n      swap1\n      tag_102\n      jump\t// in\n    tag_103:\n      dup1\n      iszero\n      tag_104\n      jumpi\n      dup1\n      0x1f\n      lt\n      tag_105\n      jumpi\n      0x0100\n      dup1\n      dup4\n      sload\n      div\n      mul\n      dup4\n      mstore\n      swap2\n      0x20\n      add\n      swap2\n      jump(tag_104)\n    tag_105:\n      dup3\n      add\n      swap2\n      swap1\n      0x00\n      mstore\n      keccak256(0x00, 0x20)\n      swap1\n    tag_106:\n      dup2\n      sload\n      dup2\n      mstore\n      swap1\n      0x01\n      add\n      swap1\n      0x20\n      add\n      dup1\n      dup4\n      gt\n      tag_106\n      jumpi\n      dup3\n      swap1\n      sub\n      0x1f\n      and\n      dup3\n      add\n      swap2\n    tag_104:\n      pop\n      pop\n      pop\n      pop\n      pop\n      swap1\n      dup1\n      0x02\n      add\n      sload\n      swap1\n      pop\n      dup4\n      jump\t// out\n        /* \"contracts/ChatRoom.sol\":5414:6150  function getLastNMessages(uint256 n)... */\n    tag_30:\n        /* \"contracts/ChatRoom.sol\":5496:5512  Message[] memory */\n      0x60\n        /* \"contracts/ChatRoom.sol\":5514:5521  uint256 */\n      0x00\n        /* \"contracts/ChatRoom.sol\":5537:5558  uint256 totalMessages */\n      dup1\n        /* \"contracts/ChatRoom.sol\":5561:5569  messages */\n      0x02\n        /* \"contracts/ChatRoom.sol\":5561:5576  messages.length */\n      dup1\n      sload\n      swap1\n      pop\n        /* \"contracts/ChatRoom.sol\":5537:5576  uint256 totalMessages = messages.length */\n      swap1\n      pop\n        /* \"contracts/ChatRoom.sol\":5586:5603  uint256 nextIndex */\n      0x00\n        /* \"contracts/ChatRoom.sol\":5707:5720  totalMessages */\n      dup2\n        /* \"contracts/ChatRoom.sol\":5703:5704  n */\n      dup6\n        /* \"contracts/ChatRoom.sol\":5703:5720  n > totalMessages */\n      gt\n        /* \"contracts/ChatRoom.sol\":5699:5924  if (n > totalMessages) {... */\n      iszero\n      tag_108\n      jumpi\n        /* \"contracts/ChatRoom.sol\":5740:5753  totalMessages */\n      dup2\n        /* \"contracts/ChatRoom.sol\":5736:5753  n = totalMessages */\n      swap5\n      pop\n        /* \"contracts/ChatRoom.sol\":5699:5924  if (n > totalMessages) {... */\n      jump(tag_109)\n    tag_108:\n        /* \"contracts/ChatRoom.sol\":5812:5813  n */\n      dup5\n        /* \"contracts/ChatRoom.sol\":5796:5809  totalMessages */\n      dup3\n        /* \"contracts/ChatRoom.sol\":5796:5813  totalMessages - n */\n      tag_110\n      swap2\n      swap1\n      tag_111\n      jump\t// in\n    tag_110:\n        /* \"contracts/ChatRoom.sol\":5784:5813  nextIndex = totalMessages - n */\n      swap1\n      pop\n        /* \"contracts/ChatRoom.sol\":5699:5924  if (n > totalMessages) {... */\n    tag_109:\n        /* \"contracts/ChatRoom.sol\":5934:5964  Message[] memory lastNMessages */\n      0x00\n        /* \"contracts/ChatRoom.sol\":5981:5982  n */\n      dup6\n        /* \"contracts/ChatRoom.sol\":5967:5983  new Message[](n) */\n      0xffffffffffffffff\n      dup2\n      gt\n      iszero\n      tag_112\n      jumpi\n      tag_113\n      tag_114\n      jump\t// in\n    tag_113:\n    tag_112:\n      mload(0x40)\n      swap1\n      dup1\n      dup3\n      mstore\n      dup1\n      0x20\n      mul\n      0x20\n      add\n      dup3\n      add\n      0x40\n      mstore\n      dup1\n      iszero\n      tag_115\n      jumpi\n      dup2\n      0x20\n      add\n    tag_116:\n      tag_117\n      tag_118\n      jump\t// in\n    tag_117:\n      dup2\n      mstore\n      0x20\n      add\n      swap1\n      0x01\n      swap1\n      sub\n      swap1\n      dup2\n      tag_116\n      jumpi\n      swap1\n      pop\n    tag_115:\n      pop\n        /* \"contracts/ChatRoom.sol\":5934:5983  Message[] memory lastNMessages = new Message[](n) */\n      swap1\n      pop\n        /* \"contracts/ChatRoom.sol\":5998:6007  uint256 i */\n      0x00\n        /* \"contracts/ChatRoom.sol\":5993:6100  for (uint256 i = 0; i < n; i++) {... */\n    tag_119:\n        /* \"contracts/ChatRoom.sol\":6017:6018  n */\n      dup7\n        /* \"contracts/ChatRoom.sol\":6013:6014  i */\n      dup2\n        /* \"contracts/ChatRoom.sol\":6013:6018  i < n */\n      lt\n        /* \"contracts/ChatRoom.sol\":5993:6100  for (uint256 i = 0; i < n; i++) {... */\n      iszero\n      tag_120\n      jumpi\n        /* \"contracts/ChatRoom.sol\":6058:6066  messages */\n      0x02\n        /* \"contracts/ChatRoom.sol\":6087:6088  i */\n      dup2\n        /* \"contracts/ChatRoom.sol\":6083:6084  n */\n      dup9\n        /* \"contracts/ChatRoom.sol\":6067:6080  totalMessages */\n      dup7\n        /* \"contracts/ChatRoom.sol\":6067:6084  totalMessages - n */\n      tag_122\n      swap2\n      swap1\n      tag_111\n      jump\t// in\n    tag_122:\n        /* \"contracts/ChatRoom.sol\":6067:6088  totalMessages - n + i */\n      tag_123\n      swap2\n      swap1\n      tag_124\n      jump\t// in\n    tag_123:\n        /* \"contracts/ChatRoom.sol\":6058:6089  messages[totalMessages - n + i] */\n      dup2\n      sload\n      dup2\n      lt\n      tag_125\n      jumpi\n      tag_126\n      tag_127\n      jump\t// in\n    tag_126:\n    tag_125:\n      swap1\n      0x00\n      mstore\n      keccak256(0x00, 0x20)\n      swap1\n      0x03\n      mul\n      add\n        /* \"contracts/ChatRoom.sol\":6039:6089  lastNMessages[i] = messages[totalMessages - n + i] */\n      mload(0x40)\n      dup1\n      0x60\n      add\n      0x40\n      mstore\n      swap1\n      dup2\n      0x00\n      dup3\n      add\n      0x00\n      swap1\n      sload\n      swap1\n      0x0100\n      exp\n      swap1\n      div\n      0xffffffffffffffffffffffffffffffffffffffff\n      and\n      0xffffffffffffffffffffffffffffffffffffffff\n      and\n      0xffffffffffffffffffffffffffffffffffffffff\n      and\n      dup2\n      mstore\n      0x20\n      add\n      0x01\n      dup3\n      add\n      dup1\n      sload\n      tag_129\n      swap1\n      tag_102\n      jump\t// in\n    tag_129:\n      dup1\n      0x1f\n      add\n      0x20\n      dup1\n      swap2\n      div\n      mul\n      0x20\n      add\n      mload(0x40)\n      swap1\n      dup2\n      add\n      0x40\n      mstore\n      dup1\n      swap3\n      swap2\n      swap1\n      dup2\n      dup2\n      mstore\n      0x20\n      add\n      dup3\n      dup1\n      sload\n      tag_130\n      swap1\n      tag_102\n      jump\t// in\n    tag_130:\n      dup1\n      iszero\n      tag_131\n      jumpi\n      dup1\n      0x1f\n      lt\n      tag_132\n      jumpi\n      0x0100\n      dup1\n      dup4\n      sload\n      div\n      mul\n      dup4\n      mstore\n      swap2\n      0x20\n      add\n      swap2\n      jump(tag_131)\n    tag_132:\n      dup3\n      add\n      swap2\n      swap1\n      0x00\n      mstore\n      keccak256(0x00, 0x20)\n      swap1\n    tag_133:\n      dup2\n      sload\n      dup2\n      mstore\n      swap1\n      0x01\n      add\n      swap1\n      0x20\n      add\n      dup1\n      dup4\n      gt\n      tag_133\n      jumpi\n      dup3\n      swap1\n      sub\n      0x1f\n      and\n      dup3\n      add\n      swap2\n    tag_131:\n      pop\n      pop\n      pop\n      pop\n      pop\n      dup2\n      mstore\n      0x20\n      add\n      0x02\n      dup3\n      add\n      sload\n      dup2\n      mstore\n      pop\n      pop\n        /* \"contracts/ChatRoom.sol\":6039:6052  lastNMessages */\n      dup3\n        /* \"contracts/ChatRoom.sol\":6053:6054  i */\n      dup3\n        /* \"contracts/ChatRoom.sol\":6039:6055  lastNMessages[i] */\n      dup2\n      mload\n      dup2\n      lt\n      tag_134\n      jumpi\n      tag_135\n      tag_127\n      jump\t// in\n    tag_135:\n    tag_134:\n      0x20\n      mul\n      0x20\n      add\n      add\n        /* \"contracts/ChatRoom.sol\":6039:6089  lastNMessages[i] = messages[totalMessages - n + i] */\n      dup2\n      swap1\n      mstore\n      pop\n        /* \"contracts/ChatRoom.sol\":6020:6023  i++ */\n      dup1\n      dup1\n      0x01\n      add\n      swap2\n      pop\n      pop\n        /* \"contracts/ChatRoom.sol\":5993:6100  for (uint256 i = 0; i < n; i++) {... */\n      jump(tag_119)\n    tag_120:\n      pop\n        /* \"contracts/ChatRoom.sol\":6118:6131  lastNMessages */\n      dup1\n        /* \"contracts/ChatRoom.sol\":6133:6142  nextIndex */\n      dup3\n        /* \"contracts/ChatRoom.sol\":6110:6143  return (lastNMessages, nextIndex) */\n      swap5\n      pop\n      swap5\n      pop\n      pop\n      pop\n      pop\n        /* \"contracts/ChatRoom.sol\":5414:6150  function getLastNMessages(uint256 n)... */\n      swap2\n      pop\n      swap2\n      jump\t// out\n        /* \"contracts/ChatRoom.sol\":3558:3928  function getMessageByIndex(uint256 index)... */\n    tag_36:\n        /* \"contracts/ChatRoom.sol\":3658:3665  address */\n      0x00\n        /* \"contracts/ChatRoom.sol\":3679:3692  string memory */\n      0x60\n        /* \"contracts/ChatRoom.sol\":3706:3713  uint256 */\n      0x00\n        /* \"contracts/ChatRoom.sol\":3754:3762  messages */\n      0x02\n        /* \"contracts/ChatRoom.sol\":3754:3769  messages.length */\n      dup1\n      sload\n      swap1\n      pop\n        /* \"contracts/ChatRoom.sol\":3746:3751  index */\n      dup5\n        /* \"contracts/ChatRoom.sol\":3746:3769  index < messages.length */\n      lt\n        /* \"contracts/ChatRoom.sol\":3738:3801  require(index < messages.length, \"Message index out of bounds\") */\n      tag_137\n      jumpi\n      mload(0x40)\n      0x08c379a000000000000000000000000000000000000000000000000000000000\n      dup2\n      mstore\n      0x04\n      add\n      tag_138\n      swap1\n      tag_139\n      jump\t// in\n    tag_138:\n      mload(0x40)\n      dup1\n      swap2\n      sub\n      swap1\n      revert\n    tag_137:\n        /* \"contracts/ChatRoom.sol\":3811:3834  Message storage message */\n      0x00\n        /* \"contracts/ChatRoom.sol\":3837:3845  messages */\n      0x02\n        /* \"contracts/ChatRoom.sol\":3846:3851  index */\n      dup6\n        /* \"contracts/ChatRoom.sol\":3837:3852  messages[index] */\n      dup2\n      sload\n      dup2\n      lt\n      tag_140\n      jumpi\n      tag_141\n      tag_127\n      jump\t// in\n    tag_141:\n    tag_140:\n      swap1\n      0x00\n      mstore\n      keccak256(0x00, 0x20)\n      swap1\n      0x03\n      mul\n      add\n        /* \"contracts/ChatRoom.sol\":3811:3852  Message storage message = messages[index] */\n      swap1\n      pop\n        /* \"contracts/ChatRoom.sol\":3870:3877  message */\n      dup1\n        /* \"contracts/ChatRoom.sol\":3870:3884  message.sender */\n      0x00\n      add\n      0x00\n      swap1\n      sload\n      swap1\n      0x0100\n      exp\n      swap1\n      div\n      0xffffffffffffffffffffffffffffffffffffffff\n      and\n        /* \"contracts/ChatRoom.sol\":3886:3893  message */\n      dup2\n        /* \"contracts/ChatRoom.sol\":3886:3901  message.content */\n      0x01\n      add\n        /* \"contracts/ChatRoom.sol\":3903:3910  message */\n      dup3\n        /* \"contracts/ChatRoom.sol\":3903:3920  message.timestamp */\n      0x02\n      add\n      sload\n        /* \"contracts/ChatRoom.sol\":3862:3921  return (message.sender, message.content, message.timestamp) */\n      dup2\n      dup1\n      sload\n      tag_143\n      swap1\n      tag_102\n      jump\t// in\n    tag_143:\n      dup1\n      0x1f\n      add\n      0x20\n      dup1\n      swap2\n      div\n      mul\n      0x20\n      add\n      mload(0x40)\n      swap1\n      dup2\n      add\n      0x40\n      mstore\n      dup1\n      swap3\n      swap2\n      swap1\n      dup2\n      dup2\n      mstore\n      0x20\n      add\n      dup3\n      dup1\n      sload\n      tag_144\n      swap1\n      tag_102\n      jump\t// in\n    tag_144:\n      dup1\n      iszero\n      tag_145\n      jumpi\n      dup1\n      0x1f\n      lt\n      tag_146\n      jumpi\n      0x0100\n      dup1\n      dup4\n      sload\n      div\n      mul\n      dup4\n      mstore\n      swap2\n      0x20\n      add\n      swap2\n      jump(tag_145)\n    tag_146:\n      dup3\n      add\n      swap2\n      swap1\n      0x00\n      mstore\n      keccak256(0x00, 0x20)\n      swap1\n    tag_147:\n      dup2\n      sload\n      dup2\n      mstore\n      swap1\n      0x01\n      add\n      swap1\n      0x20\n      add\n      dup1\n      dup4\n      gt\n      tag_147\n      jumpi\n      dup3\n      swap1\n      sub\n      0x1f\n      and\n      dup3\n      add\n      swap2\n    tag_145:\n      pop\n      pop\n      pop\n      pop\n      pop\n      swap2\n      pop\n      swap4\n      pop\n      swap4\n      pop\n      swap4\n      pop\n      pop\n        /* \"contracts/ChatRoom.sol\":3558:3928  function getMessageByIndex(uint256 index)... */\n      swap2\n      swap4\n      swap1\n      swap3\n      pop\n      jump\t// out\n        /* \"contracts/ChatRoom.sol\":3352:3448  function getMessageCount() public view returns (uint256) {... */\n    tag_40:\n        /* \"contracts/ChatRoom.sol\":3400:3407  uint256 */\n      0x00\n        /* \"contracts/ChatRoom.sol\":3426:3434  messages */\n      0x02\n        /* \"contracts/ChatRoom.sol\":3426:3441  messages.length */\n      dup1\n      sload\n      swap1\n      pop\n        /* \"contracts/ChatRoom.sol\":3419:3441  return messages.length */\n      swap1\n      pop\n        /* \"contracts/ChatRoom.sol\":3352:3448  function getMessageCount() public view returns (uint256) {... */\n      swap1\n      jump\t// out\n        /* \"contracts/ChatRoom.sol\":4760:5252  function getUserMessageByIndex(address user, uint256 messageIndex)... */\n    tag_47:\n        /* \"contracts/ChatRoom.sol\":4872:4886  Message memory */\n      tag_149\n      tag_118\n      jump\t// in\n    tag_149:\n        /* \"contracts/ChatRoom.sol\":4938:4950  userMessages */\n      0x03\n        /* \"contracts/ChatRoom.sol\":4938:4956  userMessages[user] */\n      0x00\n        /* \"contracts/ChatRoom.sol\":4951:4955  user */\n      dup5\n        /* \"contracts/ChatRoom.sol\":4938:4956  userMessages[user] */\n      0xffffffffffffffffffffffffffffffffffffffff\n      and\n      0xffffffffffffffffffffffffffffffffffffffff\n      and\n      dup2\n      mstore\n      0x20\n      add\n      swap1\n      dup2\n      mstore\n      0x20\n      add\n      0x00\n      keccak256\n        /* \"contracts/ChatRoom.sol\":4938:4963  userMessages[user].length */\n      dup1\n      sload\n      swap1\n      pop\n        /* \"contracts/ChatRoom.sol\":4923:4935  messageIndex */\n      dup3\n        /* \"contracts/ChatRoom.sol\":4923:4963  messageIndex < userMessages[user].length */\n      lt\n        /* \"contracts/ChatRoom.sol\":4902:5021  require(... */\n      tag_151\n      jumpi\n      mload(0x40)\n      0x08c379a000000000000000000000000000000000000000000000000000000000\n      dup2\n      mstore\n      0x04\n      add\n      tag_152\n      swap1\n      tag_153\n      jump\t// in\n    tag_152:\n      mload(0x40)\n      dup1\n      swap2\n      sub\n      swap1\n      revert\n    tag_151:\n        /* \"contracts/ChatRoom.sol\":5032:5051  uint256 globalIndex */\n      0x00\n        /* \"contracts/ChatRoom.sol\":5054:5066  userMessages */\n      0x03\n        /* \"contracts/ChatRoom.sol\":5054:5072  userMessages[user] */\n      0x00\n        /* \"contracts/ChatRoom.sol\":5067:5071  user */\n      dup6\n        /* \"contracts/ChatRoom.sol\":5054:5072  userMessages[user] */\n      0xffffffffffffffffffffffffffffffffffffffff\n      and\n      0xffffffffffffffffffffffffffffffffffffffff\n      and\n      dup2\n      mstore\n      0x20\n      add\n      swap1\n      dup2\n      mstore\n      0x20\n      add\n      0x00\n      keccak256\n        /* \"contracts/ChatRoom.sol\":5073:5085  messageIndex */\n      dup4\n        /* \"contracts/ChatRoom.sol\":5054:5086  userMessages[user][messageIndex] */\n      dup2\n      sload\n      dup2\n      lt\n      tag_154\n      jumpi\n      tag_155\n      tag_127\n      jump\t// in\n    tag_155:\n    tag_154:\n      swap1\n      0x00\n      mstore\n      keccak256(0x00, 0x20)\n      add\n      sload\n        /* \"contracts/ChatRoom.sol\":5032:5086  uint256 globalIndex = userMessages[user][messageIndex] */\n      swap1\n      pop\n        /* \"contracts/ChatRoom.sol\":5131:5139  messages */\n      0x02\n        /* \"contracts/ChatRoom.sol\":5131:5146  messages.length */\n      dup1\n      sload\n      swap1\n      pop\n        /* \"contracts/ChatRoom.sol\":5117:5128  globalIndex */\n      dup2\n        /* \"contracts/ChatRoom.sol\":5117:5146  globalIndex < messages.length */\n      lt\n        /* \"contracts/ChatRoom.sol\":5096:5206  require(... */\n      tag_157\n      jumpi\n      mload(0x40)\n      0x08c379a000000000000000000000000000000000000000000000000000000000\n      dup2\n      mstore\n      0x04\n      add\n      tag_158\n      swap1\n      tag_159\n      jump\t// in\n    tag_158:\n      mload(0x40)\n      dup1\n      swap2\n      sub\n      swap1\n      revert\n    tag_157:\n        /* \"contracts/ChatRoom.sol\":5224:5232  messages */\n      0x02\n        /* \"contracts/ChatRoom.sol\":5233:5244  globalIndex */\n      dup2\n        /* \"contracts/ChatRoom.sol\":5224:5245  messages[globalIndex] */\n      dup2\n      sload\n      dup2\n      lt\n      tag_160\n      jumpi\n      tag_161\n      tag_127\n      jump\t// in\n    tag_161:\n    tag_160:\n      swap1\n      0x00\n      mstore\n      keccak256(0x00, 0x20)\n      swap1\n      0x03\n      mul\n      add\n        /* \"contracts/ChatRoom.sol\":5217:5245  return messages[globalIndex] */\n      mload(0x40)\n      dup1\n      0x60\n      add\n      0x40\n      mstore\n      swap1\n      dup2\n      0x00\n      dup3\n      add\n      0x00\n      swap1\n      sload\n      swap1\n      0x0100\n      exp\n      swap1\n      div\n      0xffffffffffffffffffffffffffffffffffffffff\n      and\n      0xffffffffffffffffffffffffffffffffffffffff\n      and\n      0xffffffffffffffffffffffffffffffffffffffff\n      and\n      dup2\n      mstore\n      0x20\n      add\n      0x01\n      dup3\n      add\n      dup1\n      sload\n      tag_163\n      swap1\n      tag_102\n      jump\t// in\n    tag_163:\n      dup1\n      0x1f\n      add\n      0x20\n      dup1\n      swap2\n      div\n      mul\n      0x20\n      add\n      mload(0x40)\n      swap1\n      dup2\n      add\n      0x40\n      mstore\n      dup1\n      swap3\n      swap2\n      swap1\n      dup2\n      dup2\n      mstore\n      0x20\n      add\n      dup3\n      dup1\n      sload\n      tag_164\n      swap1\n      tag_102\n      jump\t// in\n    tag_164:\n      dup1\n      iszero\n      tag_165\n      jumpi\n      dup1\n      0x1f\n      lt\n      tag_166\n      jumpi\n      0x0100\n      dup1\n      dup4\n      sload\n      div\n      mul\n      dup4\n      mstore\n      swap2\n      0x20\n      add\n      swap2\n      jump(tag_165)\n    tag_166:\n      dup3\n      add\n      swap2\n      swap1\n      0x00\n      mstore\n      keccak256(0x00, 0x20)\n      swap1\n    tag_167:\n      dup2\n      sload\n      dup2\n      mstore\n      swap1\n      0x01\n      add\n      swap1\n      0x20\n      add\n      dup1\n      dup4\n      gt\n      tag_167\n      jumpi\n      dup3\n      swap1\n      sub\n      0x1f\n      and\n      dup3\n      add\n      swap2\n    tag_165:\n      pop\n      pop\n      pop\n      pop\n      pop\n      dup2\n      mstore\n      0x20\n      add\n      0x02\n      dup3\n      add\n      sload\n      dup2\n      mstore\n      pop\n      pop\n      swap2\n      pop\n      pop\n        /* \"contracts/ChatRoom.sol\":4760:5252  function getUserMessageByIndex(address user, uint256 messageIndex)... */\n      swap3\n      swap2\n      pop\n      pop\n      jump\t// out\n        /* \"contracts/ChatRoom.sol\":6307:7021  function getMessagesFromIndex(uint256 start, uint256 n)... */\n    tag_54:\n        /* \"contracts/ChatRoom.sol\":6408:6424  Message[] memory */\n      0x60\n        /* \"contracts/ChatRoom.sol\":6426:6433  uint256 */\n      0x00\n        /* \"contracts/ChatRoom.sol\":6449:6470  uint256 totalMessages */\n      dup1\n        /* \"contracts/ChatRoom.sol\":6473:6481  messages */\n      0x02\n        /* \"contracts/ChatRoom.sol\":6473:6488  messages.length */\n      dup1\n      sload\n      swap1\n      pop\n        /* \"contracts/ChatRoom.sol\":6449:6488  uint256 totalMessages = messages.length */\n      swap1\n      pop\n        /* \"contracts/ChatRoom.sol\":6514:6527  totalMessages */\n      dup1\n        /* \"contracts/ChatRoom.sol\":6506:6511  start */\n      dup6\n        /* \"contracts/ChatRoom.sol\":6506:6527  start < totalMessages */\n      lt\n        /* \"contracts/ChatRoom.sol\":6498:6558  require(start < totalMessages, \"Start index out of bounds.\") */\n      tag_169\n      jumpi\n      mload(0x40)\n      0x08c379a000000000000000000000000000000000000000000000000000000000\n      dup2\n      mstore\n      0x04\n      add\n      tag_170\n      swap1\n      tag_171\n      jump\t// in\n    tag_170:\n      mload(0x40)\n      dup1\n      swap2\n      sub\n      swap1\n      revert\n    tag_169:\n        /* \"contracts/ChatRoom.sol\":6585:6598  totalMessages */\n      dup1\n        /* \"contracts/ChatRoom.sol\":6581:6582  n */\n      dup5\n        /* \"contracts/ChatRoom.sol\":6573:6578  start */\n      dup7\n        /* \"contracts/ChatRoom.sol\":6573:6582  start + n */\n      tag_172\n      swap2\n      swap1\n      tag_124\n      jump\t// in\n    tag_172:\n        /* \"contracts/ChatRoom.sol\":6573:6598  start + n > totalMessages */\n      gt\n        /* \"contracts/ChatRoom.sol\":6569:6650  if (start + n > totalMessages) {... */\n      iszero\n      tag_173\n      jumpi\n        /* \"contracts/ChatRoom.sol\":6634:6639  start */\n      dup5\n        /* \"contracts/ChatRoom.sol\":6618:6631  totalMessages */\n      dup2\n        /* \"contracts/ChatRoom.sol\":6618:6639  totalMessages - start */\n      tag_174\n      swap2\n      swap1\n      tag_111\n      jump\t// in\n    tag_174:\n        /* \"contracts/ChatRoom.sol\":6614:6639  n = totalMessages - start */\n      swap4\n      pop\n        /* \"contracts/ChatRoom.sol\":6569:6650  if (start + n > totalMessages) {... */\n    tag_173:\n        /* \"contracts/ChatRoom.sol\":6659:6676  uint256 nextIndex */\n      0x00\n        /* \"contracts/ChatRoom.sol\":6691:6704  totalMessages */\n      dup2\n        /* \"contracts/ChatRoom.sol\":6687:6688  n */\n      dup6\n        /* \"contracts/ChatRoom.sol\":6679:6684  start */\n      dup8\n        /* \"contracts/ChatRoom.sol\":6679:6688  start + n */\n      tag_175\n      swap2\n      swap1\n      tag_124\n      jump\t// in\n    tag_175:\n        /* \"contracts/ChatRoom.sol\":6679:6704  start + n < totalMessages */\n      lt\n        /* \"contracts/ChatRoom.sol\":6679:6720  start + n < totalMessages ? start + n : 0 */\n      tag_176\n      jumpi\n        /* \"contracts/ChatRoom.sol\":6719:6720  0 */\n      0x00\n        /* \"contracts/ChatRoom.sol\":6679:6720  start + n < totalMessages ? start + n : 0 */\n      jump(tag_177)\n    tag_176:\n        /* \"contracts/ChatRoom.sol\":6715:6716  n */\n      dup5\n        /* \"contracts/ChatRoom.sol\":6707:6712  start */\n      dup7\n        /* \"contracts/ChatRoom.sol\":6707:6716  start + n */\n      tag_178\n      swap2\n      swap1\n      tag_124\n      jump\t// in\n    tag_178:\n        /* \"contracts/ChatRoom.sol\":6679:6720  start + n < totalMessages ? start + n : 0 */\n    tag_177:\n        /* \"contracts/ChatRoom.sol\":6659:6720  uint256 nextIndex = start + n < totalMessages ? start + n : 0 */\n      swap1\n      pop\n        /* \"contracts/ChatRoom.sol\":6817:6847  Message[] memory messagesBatch */\n      0x00\n        /* \"contracts/ChatRoom.sol\":6864:6865  n */\n      dup6\n        /* \"contracts/ChatRoom.sol\":6850:6866  new Message[](n) */\n      0xffffffffffffffff\n      dup2\n      gt\n      iszero\n      tag_179\n      jumpi\n      tag_180\n      tag_114\n      jump\t// in\n    tag_180:\n    tag_179:\n      mload(0x40)\n      swap1\n      dup1\n      dup3\n      mstore\n      dup1\n      0x20\n      mul\n      0x20\n      add\n      dup3\n      add\n      0x40\n      mstore\n      dup1\n      iszero\n      tag_181\n      jumpi\n      dup2\n      0x20\n      add\n    tag_182:\n      tag_183\n      tag_118\n      jump\t// in\n    tag_183:\n      dup2\n      mstore\n      0x20\n      add\n      swap1\n      0x01\n      swap1\n      sub\n      swap1\n      dup2\n      tag_182\n      jumpi\n      swap1\n      pop\n    tag_181:\n      pop\n        /* \"contracts/ChatRoom.sol\":6817:6866  Message[] memory messagesBatch = new Message[](n) */\n      swap1\n      pop\n        /* \"contracts/ChatRoom.sol\":6881:6890  uint256 i */\n      0x00\n        /* \"contracts/ChatRoom.sol\":6876:6971  for (uint256 i = 0; i < n; i++) {... */\n    tag_184:\n        /* \"contracts/ChatRoom.sol\":6900:6901  n */\n      dup7\n        /* \"contracts/ChatRoom.sol\":6896:6897  i */\n      dup2\n        /* \"contracts/ChatRoom.sol\":6896:6901  i < n */\n      lt\n        /* \"contracts/ChatRoom.sol\":6876:6971  for (uint256 i = 0; i < n; i++) {... */\n      iszero\n      tag_185\n      jumpi\n        /* \"contracts/ChatRoom.sol\":6941:6949  messages */\n      0x02\n        /* \"contracts/ChatRoom.sol\":6958:6959  i */\n      dup2\n        /* \"contracts/ChatRoom.sol\":6950:6955  start */\n      dup10\n        /* \"contracts/ChatRoom.sol\":6950:6959  start + i */\n      tag_187\n      swap2\n      swap1\n      tag_124\n      jump\t// in\n    tag_187:\n        /* \"contracts/ChatRoom.sol\":6941:6960  messages[start + i] */\n      dup2\n      sload\n      dup2\n      lt\n      tag_188\n      jumpi\n      tag_189\n      tag_127\n      jump\t// in\n    tag_189:\n    tag_188:\n      swap1\n      0x00\n      mstore\n      keccak256(0x00, 0x20)\n      swap1\n      0x03\n      mul\n      add\n        /* \"contracts/ChatRoom.sol\":6922:6960  messagesBatch[i] = messages[start + i] */\n      mload(0x40)\n      dup1\n      0x60\n      add\n      0x40\n      mstore\n      swap1\n      dup2\n      0x00\n      dup3\n      add\n      0x00\n      swap1\n      sload\n      swap1\n      0x0100\n      exp\n      swap1\n      div\n      0xffffffffffffffffffffffffffffffffffffffff\n      and\n      0xffffffffffffffffffffffffffffffffffffffff\n      and\n      0xffffffffffffffffffffffffffffffffffffffff\n      and\n      dup2\n      mstore\n      0x20\n      add\n      0x01\n      dup3\n      add\n      dup1\n      sload\n      tag_191\n      swap1\n      tag_102\n      jump\t// in\n    tag_191:\n      dup1\n      0x1f\n      add\n      0x20\n      dup1\n      swap2\n      div\n      mul\n      0x20\n      add\n      mload(0x40)\n      swap1\n      dup2\n      add\n      0x40\n      mstore\n      dup1\n      swap3\n      swap2\n      swap1\n      dup2\n      dup2\n      mstore\n      0x20\n      add\n      dup3\n      dup1\n      sload\n      tag_192\n      swap1\n      tag_102\n      jump\t// in\n    tag_192:\n      dup1\n      iszero\n      tag_193\n      jumpi\n      dup1\n      0x1f\n      lt\n      tag_194\n      jumpi\n      0x0100\n      dup1\n      dup4\n      sload\n      div\n      mul\n      dup4\n      mstore\n      swap2\n      0x20\n      add\n      swap2\n      jump(tag_193)\n    tag_194:\n      dup3\n      add\n      swap2\n      swap1\n      0x00\n      mstore\n      keccak256(0x00, 0x20)\n      swap1\n    tag_195:\n      dup2\n      sload\n      dup2\n      mstore\n      swap1\n      0x01\n      add\n      swap1\n      0x20\n      add\n      dup1\n      dup4\n      gt\n      tag_195\n      jumpi\n      dup3\n      swap1\n      sub\n      0x1f\n      and\n      dup3\n      add\n      swap2\n    tag_193:\n      pop\n      pop\n      pop\n      pop\n      pop\n      dup2\n      mstore\n      0x20\n      add\n      0x02\n      dup3\n      add\n      sload\n      dup2\n      mstore\n      pop\n      pop\n        /* \"contracts/ChatRoom.sol\":6922:6935  messagesBatch */\n      dup3\n        /* \"contracts/ChatRoom.sol\":6936:6937  i */\n      dup3\n        /* \"contracts/ChatRoom.sol\":6922:6938  messagesBatch[i] */\n      dup2\n      mload\n      dup2\n      lt\n      tag_196\n      jumpi\n      tag_197\n      tag_127\n      jump\t// in\n    tag_197:\n    tag_196:\n      0x20\n      mul\n      0x20\n      add\n      add\n        /* \"contracts/ChatRoom.sol\":6922:6960  messagesBatch[i] = messages[start + i] */\n      dup2\n      swap1\n      mstore\n      pop\n        /* \"contracts/ChatRoom.sol\":6903:6906  i++ */\n      dup1\n      dup1\n      0x01\n      add\n      swap2\n      pop\n      pop\n        /* \"contracts/ChatRoom.sol\":6876:6971  for (uint256 i = 0; i < n; i++) {... */\n      jump(tag_184)\n    tag_185:\n      pop\n        /* \"contracts/ChatRoom.sol\":6989:7002  messagesBatch */\n      dup1\n        /* \"contracts/ChatRoom.sol\":7004:7013  nextIndex */\n      dup3\n        /* \"contracts/ChatRoom.sol\":6981:7014  return (messagesBatch, nextIndex) */\n      swap5\n      pop\n      swap5\n      pop\n      pop\n      pop\n      pop\n        /* \"contracts/ChatRoom.sol\":6307:7021  function getMessagesFromIndex(uint256 start, uint256 n)... */\n      swap3\n      pop\n      swap3\n      swap1\n      pop\n      jump\t// out\n        /* \"@openzeppelin/contracts/utils/Pausable.sol\":1850:1934  function paused() public view virtual returns (bool) {... */\n    tag_58:\n        /* \"@openzeppelin/contracts/utils/Pausable.sol\":1897:1901  bool */\n      0x00\n        /* \"@openzeppelin/contracts/utils/Pausable.sol\":1920:1927  _paused */\n      dup1\n      0x14\n      swap1\n      sload\n      swap1\n      0x0100\n      exp\n      swap1\n      div\n      0xff\n      and\n        /* \"@openzeppelin/contracts/utils/Pausable.sol\":1913:1927  return _paused */\n      swap1\n      pop\n        /* \"@openzeppelin/contracts/utils/Pausable.sol\":1850:1934  function paused() public view virtual returns (bool) {... */\n      swap1\n      jump\t// out\n        /* \"@openzeppelin/contracts/access/Ownable.sol\":2293:2394  function renounceOwnership() public virtual onlyOwner {... */\n    tag_63:\n        /* \"@openzeppelin/contracts/access/Ownable.sol\":1531:1544  _checkOwner() */\n      tag_200\n        /* \"@openzeppelin/contracts/access/Ownable.sol\":1531:1542  _checkOwner */\n      tag_201\n        /* \"@openzeppelin/contracts/access/Ownable.sol\":1531:1544  _checkOwner() */\n      jump\t// in\n    tag_200:\n        /* \"@openzeppelin/contracts/access/Ownable.sol\":2357:2387  _transferOwnership(address(0)) */\n      tag_203\n        /* \"@openzeppelin/contracts/access/Ownable.sol\":2384:2385  0 */\n      0x00\n        /* \"@openzeppelin/contracts/access/Ownable.sol\":2357:2375  _transferOwnership */\n      tag_204\n        /* \"@openzeppelin/contracts/access/Ownable.sol\":2357:2387  _transferOwnership(address(0)) */\n      jump\t// in\n    tag_203:\n        /* \"@openzeppelin/contracts/access/Ownable.sol\":2293:2394  function renounceOwnership() public virtual onlyOwner {... */\n      jump\t// out\n        /* \"@openzeppelin/contracts/access/Ownable.sol\":1638:1723  function owner() public view virtual returns (address) {... */\n    tag_66:\n        /* \"@openzeppelin/contracts/access/Ownable.sol\":1684:1691  address */\n      0x00\n        /* \"@openzeppelin/contracts/access/Ownable.sol\":1710:1716  _owner */\n      dup1\n      0x00\n      swap1\n      sload\n      swap1\n      0x0100\n      exp\n      swap1\n      div\n      0xffffffffffffffffffffffffffffffffffffffff\n      and\n        /* \"@openzeppelin/contracts/access/Ownable.sol\":1703:1716  return _owner */\n      swap1\n      pop\n        /* \"@openzeppelin/contracts/access/Ownable.sol\":1638:1723  function owner() public view virtual returns (address) {... */\n      swap1\n      jump\t// out\n        /* \"contracts/ChatRoom.sol\":1531:1580  mapping(address => uint256[]) public userMessages */\n    tag_72:\n      mstore(0x20, 0x03)\n      dup2\n      0x00\n      mstore\n      keccak256(0x00, 0x40)\n      dup2\n      dup2\n      sload\n      dup2\n      lt\n      tag_206\n      jumpi\n      0x00\n      dup1\n      revert\n    tag_206:\n      swap1\n      0x00\n      mstore\n      keccak256(0x00, 0x20)\n      add\n      0x00\n      swap2\n      pop\n      swap2\n      pop\n      pop\n      sload\n      dup2\n      jump\t// out\n        /* \"contracts/ChatRoom.sol\":4247:4622  function getUserMessages(address user)... */\n    tag_78:\n        /* \"contracts/ChatRoom.sol\":4331:4347  Message[] memory */\n      0x60\n        /* \"contracts/ChatRoom.sol\":4363:4387  uint256[] memory indexes */\n      0x00\n        /* \"contracts/ChatRoom.sol\":4390:4402  userMessages */\n      0x03\n        /* \"contracts/ChatRoom.sol\":4390:4408  userMessages[user] */\n      0x00\n        /* \"contracts/ChatRoom.sol\":4403:4407  user */\n      dup5\n        /* \"contracts/ChatRoom.sol\":4390:4408  userMessages[user] */\n      0xffffffffffffffffffffffffffffffffffffffff\n      and\n      0xffffffffffffffffffffffffffffffffffffffff\n      and\n      dup2\n      mstore\n      0x20\n      add\n      swap1\n      dup2\n      mstore\n      0x20\n      add\n      0x00\n      keccak256\n        /* \"contracts/ChatRoom.sol\":4363:4408  uint256[] memory indexes = userMessages[user] */\n      dup1\n      sload\n      dup1\n      0x20\n      mul\n      0x20\n      add\n      mload(0x40)\n      swap1\n      dup2\n      add\n      0x40\n      mstore\n      dup1\n      swap3\n      swap2\n      swap1\n      dup2\n      dup2\n      mstore\n      0x20\n      add\n      dup3\n      dup1\n      sload\n      dup1\n      iszero\n      tag_209\n      jumpi\n      0x20\n      mul\n      dup3\n      add\n      swap2\n      swap1\n      0x00\n      mstore\n      keccak256(0x00, 0x20)\n      swap1\n    tag_210:\n      dup2\n      sload\n      dup2\n      mstore\n      0x20\n      add\n      swap1\n      0x01\n      add\n      swap1\n      dup1\n      dup4\n      gt\n      tag_210\n      jumpi\n    tag_209:\n      pop\n      pop\n      pop\n      pop\n      pop\n      swap1\n      pop\n        /* \"contracts/ChatRoom.sol\":4418:4443  Message[] memory userMsgs */\n      0x00\n        /* \"contracts/ChatRoom.sol\":4460:4467  indexes */\n      dup2\n        /* \"contracts/ChatRoom.sol\":4460:4474  indexes.length */\n      mload\n        /* \"contracts/ChatRoom.sol\":4446:4475  new Message[](indexes.length) */\n      0xffffffffffffffff\n      dup2\n      gt\n      iszero\n      tag_211\n      jumpi\n      tag_212\n      tag_114\n      jump\t// in\n    tag_212:\n    tag_211:\n      mload(0x40)\n      swap1\n      dup1\n      dup3\n      mstore\n      dup1\n      0x20\n      mul\n      0x20\n      add\n      dup3\n      add\n      0x40\n      mstore\n      dup1\n      iszero\n      tag_213\n      jumpi\n      dup2\n      0x20\n      add\n    tag_214:\n      tag_215\n      tag_118\n      jump\t// in\n    tag_215:\n      dup2\n      mstore\n      0x20\n      add\n      swap1\n      0x01\n      swap1\n      sub\n      swap1\n      dup2\n      tag_214\n      jumpi\n      swap1\n      pop\n    tag_213:\n      pop\n        /* \"contracts/ChatRoom.sol\":4418:4475  Message[] memory userMsgs = new Message[](indexes.length) */\n      swap1\n      pop\n        /* \"contracts/ChatRoom.sol\":4491:4500  uint256 i */\n      0x00\n        /* \"contracts/ChatRoom.sol\":4486:4590  for (uint256 i = 0; i < indexes.length; i++) {... */\n    tag_216:\n        /* \"contracts/ChatRoom.sol\":4510:4517  indexes */\n      dup3\n        /* \"contracts/ChatRoom.sol\":4510:4524  indexes.length */\n      mload\n        /* \"contracts/ChatRoom.sol\":4506:4507  i */\n      dup2\n        /* \"contracts/ChatRoom.sol\":4506:4524  i < indexes.length */\n      lt\n        /* \"contracts/ChatRoom.sol\":4486:4590  for (uint256 i = 0; i < indexes.length; i++) {... */\n      iszero\n      tag_217\n      jumpi\n        /* \"contracts/ChatRoom.sol\":4559:4567  messages */\n      0x02\n        /* \"contracts/ChatRoom.sol\":4568:4575  indexes */\n      dup4\n        /* \"contracts/ChatRoom.sol\":4576:4577  i */\n      dup3\n        /* \"contracts/ChatRoom.sol\":4568:4578  indexes[i] */\n      dup2\n      mload\n      dup2\n      lt\n      tag_219\n      jumpi\n      tag_220\n      tag_127\n      jump\t// in\n    tag_220:\n    tag_219:\n      0x20\n      mul\n      0x20\n      add\n      add\n      mload\n        /* \"contracts/ChatRoom.sol\":4559:4579  messages[indexes[i]] */\n      dup2\n      sload\n      dup2\n      lt\n      tag_221\n      jumpi\n      tag_222\n      tag_127\n      jump\t// in\n    tag_222:\n    tag_221:\n      swap1\n      0x00\n      mstore\n      keccak256(0x00, 0x20)\n      swap1\n      0x03\n      mul\n      add\n        /* \"contracts/ChatRoom.sol\":4545:4579  userMsgs[i] = messages[indexes[i]] */\n      mload(0x40)\n      dup1\n      0x60\n      add\n      0x40\n      mstore\n      swap1\n      dup2\n      0x00\n      dup3\n      add\n      0x00\n      swap1\n      sload\n      swap1\n      0x0100\n      exp\n      swap1\n      div\n      0xffffffffffffffffffffffffffffffffffffffff\n      and\n      0xffffffffffffffffffffffffffffffffffffffff\n      and\n      0xffffffffffffffffffffffffffffffffffffffff\n      and\n      dup2\n      mstore\n      0x20\n      add\n      0x01\n      dup3\n      add\n      dup1\n      sload\n      tag_224\n      swap1\n      tag_102\n      jump\t// in\n    tag_224:\n      dup1\n      0x1f\n      add\n      0x20\n      dup1\n      swap2\n      div\n      mul\n      0x20\n      add\n      mload(0x40)\n      swap1\n      dup2\n      add\n      0x40\n      mstore\n      dup1\n      swap3\n      swap2\n      swap1\n      dup2\n      dup2\n      mstore\n      0x20\n      add\n      dup3\n      dup1\n      sload\n      tag_225\n      swap1\n      tag_102\n      jump\t// in\n    tag_225:\n      dup1\n      iszero\n      tag_226\n      jumpi\n      dup1\n      0x1f\n      lt\n      tag_227\n      jumpi\n      0x0100\n      dup1\n      dup4\n      sload\n      div\n      mul\n      dup4\n      mstore\n      swap2\n      0x20\n      add\n      swap2\n      jump(tag_226)\n    tag_227:\n      dup3\n      add\n      swap2\n      swap1\n      0x00\n      mstore\n      keccak256(0x00, 0x20)\n      swap1\n    tag_228:\n      dup2\n      sload\n      dup2\n      mstore\n      swap1\n      0x01\n      add\n      swap1\n      0x20\n      add\n      dup1\n      dup4\n      gt\n      tag_228\n      jumpi\n      dup3\n      swap1\n      sub\n      0x1f\n      and\n      dup3\n      add\n      swap2\n    tag_226:\n      pop\n      pop\n      pop\n      pop\n      pop\n      dup2\n      mstore\n      0x20\n      add\n      0x02\n      dup3\n      add\n      sload\n      dup2\n      mstore\n      pop\n      pop\n        /* \"contracts/ChatRoom.sol\":4545:4553  userMsgs */\n      dup3\n        /* \"contracts/ChatRoom.sol\":4554:4555  i */\n      dup3\n        /* \"contracts/ChatRoom.sol\":4545:4556  userMsgs[i] */\n      dup2\n      mload\n      dup2\n      lt\n      tag_229\n      jumpi\n      tag_230\n      tag_127\n      jump\t// in\n    tag_230:\n    tag_229:\n      0x20\n      mul\n      0x20\n      add\n      add\n        /* \"contracts/ChatRoom.sol\":4545:4579  userMsgs[i] = messages[indexes[i]] */\n      dup2\n      swap1\n      mstore\n      pop\n        /* \"contracts/ChatRoom.sol\":4526:4529  i++ */\n      dup1\n      dup1\n      0x01\n      add\n      swap2\n      pop\n      pop\n        /* \"contracts/ChatRoom.sol\":4486:4590  for (uint256 i = 0; i < indexes.length; i++) {... */\n      jump(tag_216)\n    tag_217:\n      pop\n        /* \"contracts/ChatRoom.sol\":4607:4615  userMsgs */\n      dup1\n        /* \"contracts/ChatRoom.sol\":4600:4615  return userMsgs */\n      swap3\n      pop\n      pop\n      pop\n        /* \"contracts/ChatRoom.sol\":4247:4622  function getUserMessages(address user)... */\n      swap2\n      swap1\n      pop\n      jump\t// out\n        /* \"contracts/ChatRoom.sol\":1120:1150  address public chatRoomFinance */\n    tag_83:\n      0x01\n      0x00\n      swap1\n      sload\n      swap1\n      0x0100\n      exp\n      swap1\n      div\n      0xffffffffffffffffffffffffffffffffffffffff\n      and\n      dup2\n      jump\t// out\n        /* \"contracts/ChatRoom.sol\":3986:4140  function getUserMessageIndexes(address user)... */\n    tag_88:\n        /* \"contracts/ChatRoom.sol\":4076:4092  uint256[] memory */\n      0x60\n        /* \"contracts/ChatRoom.sol\":4115:4127  userMessages */\n      0x03\n        /* \"contracts/ChatRoom.sol\":4115:4133  userMessages[user] */\n      0x00\n        /* \"contracts/ChatRoom.sol\":4128:4132  user */\n      dup4\n        /* \"contracts/ChatRoom.sol\":4115:4133  userMessages[user] */\n      0xffffffffffffffffffffffffffffffffffffffff\n      and\n      0xffffffffffffffffffffffffffffffffffffffff\n      and\n      dup2\n      mstore\n      0x20\n      add\n      swap1\n      dup2\n      mstore\n      0x20\n      add\n      0x00\n      keccak256\n        /* \"contracts/ChatRoom.sol\":4108:4133  return userMessages[user] */\n      dup1\n      sload\n      dup1\n      0x20\n      mul\n      0x20\n      add\n      mload(0x40)\n      swap1\n      dup2\n      add\n      0x40\n      mstore\n      dup1\n      swap3\n      swap2\n      swap1\n      dup2\n      dup2\n      mstore\n      0x20\n      add\n      dup3\n      dup1\n      sload\n      dup1\n      iszero\n      tag_232\n      jumpi\n      0x20\n      mul\n      dup3\n      add\n      swap2\n      swap1\n      0x00\n      mstore\n      keccak256(0x00, 0x20)\n      swap1\n    tag_233:\n      dup2\n      sload\n      dup2\n      mstore\n      0x20\n      add\n      swap1\n      0x01\n      add\n      swap1\n      dup1\n      dup4\n      gt\n      tag_233\n      jumpi\n    tag_232:\n      pop\n      pop\n      pop\n      pop\n      pop\n      swap1\n      pop\n        /* \"contracts/ChatRoom.sol\":3986:4140  function getUserMessageIndexes(address user)... */\n      swap2\n      swap1\n      pop\n      jump\t// out\n        /* \"contracts/ChatRoom.sol\":2233:3246  function sendMessage(string memory content, uint256 ownerCommissionPercent)... */\n    tag_94:\n        /* \"@openzeppelin/contracts/utils/Pausable.sol\":1474:1493  _requireNotPaused() */\n      tag_235\n        /* \"@openzeppelin/contracts/utils/Pausable.sol\":1474:1491  _requireNotPaused */\n      tag_236\n        /* \"@openzeppelin/contracts/utils/Pausable.sol\":1474:1493  _requireNotPaused() */\n      jump\t// in\n    tag_235:\n        /* \"contracts/ChatRoom.sol\":2546:2561  chatRoomFinance */\n      0x01\n      0x00\n      swap1\n      sload\n      swap1\n      0x0100\n      exp\n      swap1\n      div\n      0xffffffffffffffffffffffffffffffffffffffff\n      and\n        /* \"contracts/ChatRoom.sol\":2521:2577  ChatRoomFinanceInterface(chatRoomFinance).processPayment */\n      0xffffffffffffffffffffffffffffffffffffffff\n      and\n      0x3a2f8485\n        /* \"contracts/ChatRoom.sol\":2598:2607  msg.value */\n      callvalue\n        /* \"contracts/ChatRoom.sol\":2618:2640  ownerCommissionPercent */\n      dup4\n        /* \"contracts/ChatRoom.sol\":2521:2641  ChatRoomFinanceInterface(chatRoomFinance).processPayment{... */\n      mload(0x40)\n      dup4\n      0xffffffff\n      and\n      0xe0\n      shl\n      dup2\n      mstore\n      0x04\n      add\n      tag_238\n      swap2\n      swap1\n      tag_42\n      jump\t// in\n    tag_238:\n      0x00\n      mload(0x40)\n      dup1\n      dup4\n      sub\n      dup2\n      dup6\n      dup9\n      dup1\n      extcodesize\n      iszero\n      dup1\n      iszero\n      tag_239\n      jumpi\n      0x00\n      dup1\n      revert\n    tag_239:\n      pop\n      gas\n      call\n      iszero\n      dup1\n      iszero\n      tag_241\n      jumpi\n      returndatasize\n      0x00\n      dup1\n      returndatacopy\n      revert(0x00, returndatasize)\n    tag_241:\n      pop\n      pop\n      pop\n      pop\n      pop\n        /* \"contracts/ChatRoom.sol\":2763:2771  messages */\n      0x02\n        /* \"contracts/ChatRoom.sol\":2790:2927  Message({... */\n      mload(0x40)\n      dup1\n      0x60\n      add\n      0x40\n      mstore\n      dup1\n        /* \"contracts/ChatRoom.sol\":2824:2834  msg.sender */\n      caller\n        /* \"contracts/ChatRoom.sol\":2790:2927  Message({... */\n      0xffffffffffffffffffffffffffffffffffffffff\n      and\n      dup2\n      mstore\n      0x20\n      add\n        /* \"contracts/ChatRoom.sol\":2861:2868  content */\n      dup5\n        /* \"contracts/ChatRoom.sol\":2790:2927  Message({... */\n      dup2\n      mstore\n      0x20\n      add\n        /* \"contracts/ChatRoom.sol\":2897:2912  block.timestamp */\n      timestamp\n        /* \"contracts/ChatRoom.sol\":2790:2927  Message({... */\n      dup2\n      mstore\n      pop\n        /* \"contracts/ChatRoom.sol\":2763:2937  messages.push(... */\n      swap1\n      dup1\n      0x01\n      dup2\n      sload\n      add\n      dup1\n      dup3\n      sstore\n      dup1\n      swap2\n      pop\n      pop\n      0x01\n      swap1\n      sub\n      swap1\n      0x00\n      mstore\n      keccak256(0x00, 0x20)\n      swap1\n      0x03\n      mul\n      add\n      0x00\n      swap1\n      swap2\n      swap1\n      swap2\n      swap1\n      swap2\n      pop\n      0x00\n      dup3\n      add\n      mload\n      dup2\n      0x00\n      add\n      exp(0x0100, 0x00)\n      dup2\n      sload\n      dup2\n      0xffffffffffffffffffffffffffffffffffffffff\n      mul\n      not\n      and\n      swap1\n      dup4\n      0xffffffffffffffffffffffffffffffffffffffff\n      and\n      mul\n      or\n      swap1\n      sstore\n      pop\n      0x20\n      dup3\n      add\n      mload\n      dup2\n      0x01\n      add\n      swap1\n      dup2\n      tag_243\n      swap2\n      swap1\n      tag_244\n      jump\t// in\n    tag_243:\n      pop\n      0x40\n      dup3\n      add\n      mload\n      dup2\n      0x02\n      add\n      sstore\n      pop\n      pop\n        /* \"contracts/ChatRoom.sol\":2947:2967  uint256 messageIndex */\n      0x00\n        /* \"contracts/ChatRoom.sol\":2988:2989  1 */\n      0x01\n        /* \"contracts/ChatRoom.sol\":2970:2978  messages */\n      0x02\n        /* \"contracts/ChatRoom.sol\":2970:2985  messages.length */\n      dup1\n      sload\n      swap1\n      pop\n        /* \"contracts/ChatRoom.sol\":2970:2989  messages.length - 1 */\n      tag_245\n      swap2\n      swap1\n      tag_111\n      jump\t// in\n    tag_245:\n        /* \"contracts/ChatRoom.sol\":2947:2989  uint256 messageIndex = messages.length - 1 */\n      swap1\n      pop\n        /* \"contracts/ChatRoom.sol\":3131:3143  userMessages */\n      0x03\n        /* \"contracts/ChatRoom.sol\":3131:3155  userMessages[msg.sender] */\n      0x00\n        /* \"contracts/ChatRoom.sol\":3144:3154  msg.sender */\n      caller\n        /* \"contracts/ChatRoom.sol\":3131:3155  userMessages[msg.sender] */\n      0xffffffffffffffffffffffffffffffffffffffff\n      and\n      0xffffffffffffffffffffffffffffffffffffffff\n      and\n      dup2\n      mstore\n      0x20\n      add\n      swap1\n      dup2\n      mstore\n      0x20\n      add\n      0x00\n      keccak256\n        /* \"contracts/ChatRoom.sol\":3161:3173  messageIndex */\n      dup2\n        /* \"contracts/ChatRoom.sol\":3131:3174  userMessages[msg.sender].push(messageIndex) */\n      swap1\n      dup1\n      0x01\n      dup2\n      sload\n      add\n      dup1\n      dup3\n      sstore\n      dup1\n      swap2\n      pop\n      pop\n      0x01\n      swap1\n      sub\n      swap1\n      0x00\n      mstore\n      keccak256(0x00, 0x20)\n      add\n      0x00\n      swap1\n      swap2\n      swap1\n      swap2\n      swap1\n      swap2\n      pop\n      sstore\n        /* \"contracts/ChatRoom.sol\":3202:3212  msg.sender */\n      caller\n        /* \"contracts/ChatRoom.sol\":3190:3239  MessageSent(msg.sender, content, block.timestamp) */\n      0xffffffffffffffffffffffffffffffffffffffff\n      and\n      0x4816bdd3b9d39acdd4da0ae7412d5523081e916c6a56e481063e475b86ef7c5b\n        /* \"contracts/ChatRoom.sol\":3214:3221  content */\n      dup5\n        /* \"contracts/ChatRoom.sol\":3223:3238  block.timestamp */\n      timestamp\n        /* \"contracts/ChatRoom.sol\":3190:3239  MessageSent(msg.sender, content, block.timestamp) */\n      mload(0x40)\n      tag_247\n      swap3\n      swap2\n      swap1\n      tag_248\n      jump\t// in\n    tag_247:\n      mload(0x40)\n      dup1\n      swap2\n      sub\n      swap1\n      log2\n        /* \"contracts/ChatRoom.sol\":2366:3246  {... */\n      pop\n        /* \"contracts/ChatRoom.sol\":2233:3246  function sendMessage(string memory content, uint256 ownerCommissionPercent)... */\n      pop\n      pop\n      jump\t// out\n        /* \"@openzeppelin/contracts/access/Ownable.sol\":2543:2758  function transferOwnership(address newOwner) public virtual onlyOwner {... */\n    tag_98:\n        /* \"@openzeppelin/contracts/access/Ownable.sol\":1531:1544  _checkOwner() */\n      tag_250\n        /* \"@openzeppelin/contracts/access/Ownable.sol\":1531:1542  _checkOwner */\n      tag_201\n        /* \"@openzeppelin/contracts/access/Ownable.sol\":1531:1544  _checkOwner() */\n      jump\t// in\n    tag_250:\n        /* \"@openzeppelin/contracts/access/Ownable.sol\":2647:2648  0 */\n      0x00\n        /* \"@openzeppelin/contracts/access/Ownable.sol\":2627:2649  newOwner == address(0) */\n      0xffffffffffffffffffffffffffffffffffffffff\n      and\n        /* \"@openzeppelin/contracts/access/Ownable.sol\":2627:2635  newOwner */\n      dup2\n        /* \"@openzeppelin/contracts/access/Ownable.sol\":2627:2649  newOwner == address(0) */\n      0xffffffffffffffffffffffffffffffffffffffff\n      and\n      sub\n        /* \"@openzeppelin/contracts/access/Ownable.sol\":2623:2714  if (newOwner == address(0)) {... */\n      tag_252\n      jumpi\n        /* \"@openzeppelin/contracts/access/Ownable.sol\":2700:2701  0 */\n      0x00\n        /* \"@openzeppelin/contracts/access/Ownable.sol\":2672:2703  OwnableInvalidOwner(address(0)) */\n      mload(0x40)\n      0x1e4fbdf700000000000000000000000000000000000000000000000000000000\n      dup2\n      mstore\n      0x04\n      add\n      tag_253\n      swap2\n      swap1\n      tag_68\n      jump\t// in\n    tag_253:\n      mload(0x40)\n      dup1\n      swap2\n      sub\n      swap1\n      revert\n        /* \"@openzeppelin/contracts/access/Ownable.sol\":2623:2714  if (newOwner == address(0)) {... */\n    tag_252:\n        /* \"@openzeppelin/contracts/access/Ownable.sol\":2723:2751  _transferOwnership(newOwner) */\n      tag_254\n        /* \"@openzeppelin/contracts/access/Ownable.sol\":2742:2750  newOwner */\n      dup2\n        /* \"@openzeppelin/contracts/access/Ownable.sol\":2723:2741  _transferOwnership */\n      tag_204\n        /* \"@openzeppelin/contracts/access/Ownable.sol\":2723:2751  _transferOwnership(newOwner) */\n      jump\t// in\n    tag_254:\n        /* \"@openzeppelin/contracts/access/Ownable.sol\":2543:2758  function transferOwnership(address newOwner) public virtual onlyOwner {... */\n      pop\n      jump\t// out\n        /* \"@openzeppelin/contracts/access/Ownable.sol\":1796:1958  function _checkOwner() internal view virtual {... */\n    tag_201:\n        /* \"@openzeppelin/contracts/access/Ownable.sol\":1866:1878  _msgSender() */\n      tag_256\n        /* \"@openzeppelin/contracts/access/Ownable.sol\":1866:1876  _msgSender */\n      tag_257\n        /* \"@openzeppelin/contracts/access/Ownable.sol\":1866:1878  _msgSender() */\n      jump\t// in\n    tag_256:\n        /* \"@openzeppelin/contracts/access/Ownable.sol\":1855:1878  owner() != _msgSender() */\n      0xffffffffffffffffffffffffffffffffffffffff\n      and\n        /* \"@openzeppelin/contracts/access/Ownable.sol\":1855:1862  owner() */\n      tag_258\n        /* \"@openzeppelin/contracts/access/Ownable.sol\":1855:1860  owner */\n      tag_66\n        /* \"@openzeppelin/contracts/access/Ownable.sol\":1855:1862  owner() */\n      jump\t// in\n    tag_258:\n        /* \"@openzeppelin/contracts/access/Ownable.sol\":1855:1878  owner() != _msgSender() */\n      0xffffffffffffffffffffffffffffffffffffffff\n      and\n      eq\n        /* \"@openzeppelin/contracts/access/Ownable.sol\":1851:1952  if (owner() != _msgSender()) {... */\n      tag_259\n      jumpi\n        /* \"@openzeppelin/contracts/access/Ownable.sol\":1928:1940  _msgSender() */\n      tag_260\n        /* \"@openzeppelin/contracts/access/Ownable.sol\":1928:1938  _msgSender */\n      tag_257\n        /* \"@openzeppelin/contracts/access/Ownable.sol\":1928:1940  _msgSender() */\n      jump\t// in\n    tag_260:\n        /* \"@openzeppelin/contracts/access/Ownable.sol\":1901:1941  OwnableUnauthorizedAccount(_msgSender()) */\n      mload(0x40)\n      0x118cdaa700000000000000000000000000000000000000000000000000000000\n      dup2\n      mstore\n      0x04\n      add\n      tag_261\n      swap2\n      swap1\n      tag_68\n      jump\t// in\n    tag_261:\n      mload(0x40)\n      dup1\n      swap2\n      sub\n      swap1\n      revert\n        /* \"@openzeppelin/contracts/access/Ownable.sol\":1851:1952  if (owner() != _msgSender()) {... */\n    tag_259:\n        /* \"@openzeppelin/contracts/access/Ownable.sol\":1796:1958  function _checkOwner() internal view virtual {... */\n      jump\t// out\n        /* \"@openzeppelin/contracts/access/Ownable.sol\":2912:3099  function _transferOwnership(address newOwner) internal virtual {... */\n    tag_204:\n        /* \"@openzeppelin/contracts/access/Ownable.sol\":2985:3001  address oldOwner */\n      0x00\n        /* \"@openzeppelin/contracts/access/Ownable.sol\":3004:3010  _owner */\n      dup1\n      0x00\n      swap1\n      sload\n      swap1\n      0x0100\n      exp\n      swap1\n      div\n      0xffffffffffffffffffffffffffffffffffffffff\n      and\n        /* \"@openzeppelin/contracts/access/Ownable.sol\":2985:3010  address oldOwner = _owner */\n      swap1\n      pop\n        /* \"@openzeppelin/contracts/access/Ownable.sol\":3029:3037  newOwner */\n      dup2\n        /* \"@openzeppelin/contracts/access/Ownable.sol\":3020:3026  _owner */\n      0x00\n      dup1\n        /* \"@openzeppelin/contracts/access/Ownable.sol\":3020:3037  _owner = newOwner */\n      0x0100\n      exp\n      dup2\n      sload\n      dup2\n      0xffffffffffffffffffffffffffffffffffffffff\n      mul\n      not\n      and\n      swap1\n      dup4\n      0xffffffffffffffffffffffffffffffffffffffff\n      and\n      mul\n      or\n      swap1\n      sstore\n      pop\n        /* \"@openzeppelin/contracts/access/Ownable.sol\":3083:3091  newOwner */\n      dup2\n        /* \"@openzeppelin/contracts/access/Ownable.sol\":3052:3092  OwnershipTransferred(oldOwner, newOwner) */\n      0xffffffffffffffffffffffffffffffffffffffff\n      and\n        /* \"@openzeppelin/contracts/access/Ownable.sol\":3073:3081  oldOwner */\n      dup2\n        /* \"@openzeppelin/contracts/access/Ownable.sol\":3052:3092  OwnershipTransferred(oldOwner, newOwner) */\n      0xffffffffffffffffffffffffffffffffffffffff\n      and\n      0x8be0079c531659141344cd1fd0a4f28419497f9722a3daafe3b4186f6b6457e0\n      mload(0x40)\n      mload(0x40)\n      dup1\n      swap2\n      sub\n      swap1\n      log3\n        /* \"@openzeppelin/contracts/access/Ownable.sol\":2975:3099  {... */\n      pop\n        /* \"@openzeppelin/contracts/access/Ownable.sol\":2912:3099  function _transferOwnership(address newOwner) internal virtual {... */\n      pop\n      jump\t// out\n        /* \"@openzeppelin/contracts/utils/Pausable.sol\":2002:2130  function _requireNotPaused() internal view virtual {... */\n    tag_236:\n        /* \"@openzeppelin/contracts/utils/Pausable.sol\":2067:2075  paused() */\n      tag_264\n        /* \"@openzeppelin/contracts/utils/Pausable.sol\":2067:2073  paused */\n      tag_58\n        /* \"@openzeppelin/contracts/utils/Pausable.sol\":2067:2075  paused() */\n      jump\t// in\n    tag_264:\n        /* \"@openzeppelin/contracts/utils/Pausable.sol\":2063:2124  if (paused()) {... */\n      iszero\n      tag_265\n      jumpi\n        /* \"@openzeppelin/contracts/utils/Pausable.sol\":2098:2113  EnforcedPause() */\n      mload(0x40)\n      0xd93c066500000000000000000000000000000000000000000000000000000000\n      dup2\n      mstore\n      0x04\n      add\n      mload(0x40)\n      dup1\n      swap2\n      sub\n      swap1\n      revert\n        /* \"@openzeppelin/contracts/utils/Pausable.sol\":2063:2124  if (paused()) {... */\n    tag_265:\n        /* \"@openzeppelin/contracts/utils/Pausable.sol\":2002:2130  function _requireNotPaused() internal view virtual {... */\n      jump\t// out\n        /* \"@openzeppelin/contracts/utils/Context.sol\":656:752  function _msgSender() internal view virtual returns (address) {... */\n    tag_257:\n        /* \"@openzeppelin/contracts/utils/Context.sol\":709:716  address */\n      0x00\n        /* \"@openzeppelin/contracts/utils/Context.sol\":735:745  msg.sender */\n      caller\n        /* \"@openzeppelin/contracts/utils/Context.sol\":728:745  return msg.sender */\n      swap1\n      pop\n        /* \"@openzeppelin/contracts/utils/Context.sol\":656:752  function _msgSender() internal view virtual returns (address) {... */\n      swap1\n      jump\t// out\n    tag_118:\n      mload(0x40)\n      dup1\n      0x60\n      add\n      0x40\n      mstore\n      dup1\n      and(0xffffffffffffffffffffffffffffffffffffffff, 0x00)\n      dup2\n      mstore\n      0x20\n      add\n      0x60\n      dup2\n      mstore\n      0x20\n      add\n      0x00\n      dup2\n      mstore\n      pop\n      swap1\n      jump\t// out\n        /* \"#utility.yul\":7:82   */\n    tag_267:\n        /* \"#utility.yul\":40:46   */\n      0x00\n        /* \"#utility.yul\":73:75   */\n      0x40\n        /* \"#utility.yul\":67:76   */\n      mload\n        /* \"#utility.yul\":57:76   */\n      swap1\n      pop\n        /* \"#utility.yul\":7:82   */\n      swap1\n      jump\t// out\n        /* \"#utility.yul\":88:205   */\n    tag_268:\n        /* \"#utility.yul\":197:198   */\n      0x00\n        /* \"#utility.yul\":194:195   */\n      dup1\n        /* \"#utility.yul\":187:199   */\n      revert\n        /* \"#utility.yul\":211:328   */\n    tag_269:\n        /* \"#utility.yul\":320:321   */\n      0x00\n        /* \"#utility.yul\":317:318   */\n      dup1\n        /* \"#utility.yul\":310:322   */\n      revert\n        /* \"#utility.yul\":334:411   */\n    tag_270:\n        /* \"#utility.yul\":371:378   */\n      0x00\n        /* \"#utility.yul\":400:405   */\n      dup2\n        /* \"#utility.yul\":389:405   */\n      swap1\n      pop\n        /* \"#utility.yul\":334:411   */\n      swap2\n      swap1\n      pop\n      jump\t// out\n        /* \"#utility.yul\":417:539   */\n    tag_271:\n        /* \"#utility.yul\":490:514   */\n      tag_343\n        /* \"#utility.yul\":508:513   */\n      dup2\n        /* \"#utility.yul\":490:514   */\n      tag_270\n      jump\t// in\n    tag_343:\n        /* \"#utility.yul\":483:488   */\n      dup2\n        /* \"#utility.yul\":480:515   */\n      eq\n        /* \"#utility.yul\":470:533   */\n      tag_344\n      jumpi\n        /* \"#utility.yul\":529:530   */\n      0x00\n        /* \"#utility.yul\":526:527   */\n      dup1\n        /* \"#utility.yul\":519:531   */\n      revert\n        /* \"#utility.yul\":470:533   */\n    tag_344:\n        /* \"#utility.yul\":417:539   */\n      pop\n      jump\t// out\n        /* \"#utility.yul\":545:684   */\n    tag_272:\n        /* \"#utility.yul\":591:596   */\n      0x00\n        /* \"#utility.yul\":629:635   */\n      dup2\n        /* \"#utility.yul\":616:636   */\n      calldataload\n        /* \"#utility.yul\":607:636   */\n      swap1\n      pop\n        /* \"#utility.yul\":645:678   */\n      tag_346\n        /* \"#utility.yul\":672:677   */\n      dup2\n        /* \"#utility.yul\":645:678   */\n      tag_271\n      jump\t// in\n    tag_346:\n        /* \"#utility.yul\":545:684   */\n      swap3\n      swap2\n      pop\n      pop\n      jump\t// out\n        /* \"#utility.yul\":690:1019   */\n    tag_23:\n        /* \"#utility.yul\":749:755   */\n      0x00\n        /* \"#utility.yul\":798:800   */\n      0x20\n        /* \"#utility.yul\":786:795   */\n      dup3\n        /* \"#utility.yul\":777:784   */\n      dup5\n        /* \"#utility.yul\":773:796   */\n      sub\n        /* \"#utility.yul\":769:801   */\n      slt\n        /* \"#utility.yul\":766:885   */\n      iszero\n      tag_348\n      jumpi\n        /* \"#utility.yul\":804:883   */\n      tag_349\n      tag_268\n      jump\t// in\n    tag_349:\n        /* \"#utility.yul\":766:885   */\n    tag_348:\n        /* \"#utility.yul\":924:925   */\n      0x00\n        /* \"#utility.yul\":949:1002   */\n      tag_350\n        /* \"#utility.yul\":994:1001   */\n      dup5\n        /* \"#utility.yul\":985:991   */\n      dup3\n        /* \"#utility.yul\":974:983   */\n      dup6\n        /* \"#utility.yul\":970:992   */\n      add\n        /* \"#utility.yul\":949:1002   */\n      tag_272\n      jump\t// in\n    tag_350:\n        /* \"#utility.yul\":939:1002   */\n      swap2\n      pop\n        /* \"#utility.yul\":895:1012   */\n      pop\n        /* \"#utility.yul\":690:1019   */\n      swap3\n      swap2\n      pop\n      pop\n      jump\t// out\n        /* \"#utility.yul\":1025:1151   */\n    tag_273:\n        /* \"#utility.yul\":1062:1069   */\n      0x00\n        /* \"#utility.yul\":1102:1144   */\n      0xffffffffffffffffffffffffffffffffffffffff\n        /* \"#utility.yul\":1095:1100   */\n      dup3\n        /* \"#utility.yul\":1091:1145   */\n      and\n        /* \"#utility.yul\":1080:1145   */\n      swap1\n      pop\n        /* \"#utility.yul\":1025:1151   */\n      swap2\n      swap1\n      pop\n      jump\t// out\n        /* \"#utility.yul\":1157:1253   */\n    tag_274:\n        /* \"#utility.yul\":1194:1201   */\n      0x00\n        /* \"#utility.yul\":1223:1247   */\n      tag_353\n        /* \"#utility.yul\":1241:1246   */\n      dup3\n        /* \"#utility.yul\":1223:1247   */\n      tag_273\n      jump\t// in\n    tag_353:\n        /* \"#utility.yul\":1212:1247   */\n      swap1\n      pop\n        /* \"#utility.yul\":1157:1253   */\n      swap2\n      swap1\n      pop\n      jump\t// out\n        /* \"#utility.yul\":1259:1377   */\n    tag_275:\n        /* \"#utility.yul\":1346:1370   */\n      tag_355\n        /* \"#utility.yul\":1364:1369   */\n      dup2\n        /* \"#utility.yul\":1346:1370   */\n      tag_274\n      jump\t// in\n    tag_355:\n        /* \"#utility.yul\":1341:1344   */\n      dup3\n        /* \"#utility.yul\":1334:1371   */\n      mstore\n        /* \"#utility.yul\":1259:1377   */\n      pop\n      pop\n      jump\t// out\n        /* \"#utility.yul\":1383:1482   */\n    tag_276:\n        /* \"#utility.yul\":1435:1441   */\n      0x00\n        /* \"#utility.yul\":1469:1474   */\n      dup2\n        /* \"#utility.yul\":1463:1475   */\n      mload\n        /* \"#utility.yul\":1453:1475   */\n      swap1\n      pop\n        /* \"#utility.yul\":1383:1482   */\n      swap2\n      swap1\n      pop\n      jump\t// out\n        /* \"#utility.yul\":1488:1657   */\n    tag_277:\n        /* \"#utility.yul\":1572:1583   */\n      0x00\n        /* \"#utility.yul\":1606:1612   */\n      dup3\n        /* \"#utility.yul\":1601:1604   */\n      dup3\n        /* \"#utility.yul\":1594:1613   */\n      mstore\n        /* \"#utility.yul\":1646:1650   */\n      0x20\n        /* \"#utility.yul\":1641:1644   */\n      dup3\n        /* \"#utility.yul\":1637:1651   */\n      add\n        /* \"#utility.yul\":1622:1651   */\n      swap1\n      pop\n        /* \"#utility.yul\":1488:1657   */\n      swap3\n      swap2\n      pop\n      pop\n      jump\t// out\n        /* \"#utility.yul\":1663:1802   */\n    tag_278:\n        /* \"#utility.yul\":1752:1758   */\n      dup3\n        /* \"#utility.yul\":1747:1750   */\n      dup2\n        /* \"#utility.yul\":1742:1745   */\n      dup4\n        /* \"#utility.yul\":1736:1759   */\n      mcopy\n        /* \"#utility.yul\":1793:1794   */\n      0x00\n        /* \"#utility.yul\":1784:1790   */\n      dup4\n        /* \"#utility.yul\":1779:1782   */\n      dup4\n        /* \"#utility.yul\":1775:1791   */\n      add\n        /* \"#utility.yul\":1768:1795   */\n      mstore\n        /* \"#utility.yul\":1663:1802   */\n      pop\n      pop\n      pop\n      jump\t// out\n        /* \"#utility.yul\":1808:1910   */\n    tag_279:\n        /* \"#utility.yul\":1849:1855   */\n      0x00\n        /* \"#utility.yul\":1900:1902   */\n      0x1f\n        /* \"#utility.yul\":1896:1903   */\n      not\n        /* \"#utility.yul\":1891:1893   */\n      0x1f\n        /* \"#utility.yul\":1884:1889   */\n      dup4\n        /* \"#utility.yul\":1880:1894   */\n      add\n        /* \"#utility.yul\":1876:1904   */\n      and\n        /* \"#utility.yul\":1866:1904   */\n      swap1\n      pop\n        /* \"#utility.yul\":1808:1910   */\n      swap2\n      swap1\n      pop\n      jump\t// out\n        /* \"#utility.yul\":1916:2293   */\n    tag_280:\n        /* \"#utility.yul\":2004:2007   */\n      0x00\n        /* \"#utility.yul\":2032:2071   */\n      tag_361\n        /* \"#utility.yul\":2065:2070   */\n      dup3\n        /* \"#utility.yul\":2032:2071   */\n      tag_276\n      jump\t// in\n    tag_361:\n        /* \"#utility.yul\":2087:2158   */\n      tag_362\n        /* \"#utility.yul\":2151:2157   */\n      dup2\n        /* \"#utility.yul\":2146:2149   */\n      dup6\n        /* \"#utility.yul\":2087:2158   */\n      tag_277\n      jump\t// in\n    tag_362:\n        /* \"#utility.yul\":2080:2158   */\n      swap4\n      pop\n        /* \"#utility.yul\":2167:2232   */\n      tag_363\n        /* \"#utility.yul\":2225:2231   */\n      dup2\n        /* \"#utility.yul\":2220:2223   */\n      dup6\n        /* \"#utility.yul\":2213:2217   */\n      0x20\n        /* \"#utility.yul\":2206:2211   */\n      dup7\n        /* \"#utility.yul\":2202:2218   */\n      add\n        /* \"#utility.yul\":2167:2232   */\n      tag_278\n      jump\t// in\n    tag_363:\n        /* \"#utility.yul\":2257:2286   */\n      tag_364\n        /* \"#utility.yul\":2279:2285   */\n      dup2\n        /* \"#utility.yul\":2257:2286   */\n      tag_279\n      jump\t// in\n    tag_364:\n        /* \"#utility.yul\":2252:2255   */\n      dup5\n        /* \"#utility.yul\":2248:2287   */\n      add\n        /* \"#utility.yul\":2241:2287   */\n      swap2\n      pop\n        /* \"#utility.yul\":2008:2293   */\n      pop\n        /* \"#utility.yul\":1916:2293   */\n      swap3\n      swap2\n      pop\n      pop\n      jump\t// out\n        /* \"#utility.yul\":2299:2417   */\n    tag_281:\n        /* \"#utility.yul\":2386:2410   */\n      tag_366\n        /* \"#utility.yul\":2404:2409   */\n      dup2\n        /* \"#utility.yul\":2386:2410   */\n      tag_270\n      jump\t// in\n    tag_366:\n        /* \"#utility.yul\":2381:2384   */\n      dup3\n        /* \"#utility.yul\":2374:2411   */\n      mstore\n        /* \"#utility.yul\":2299:2417   */\n      pop\n      pop\n      jump\t// out\n        /* \"#utility.yul\":2423:2956   */\n    tag_26:\n        /* \"#utility.yul\":2592:2596   */\n      0x00\n        /* \"#utility.yul\":2630:2632   */\n      0x60\n        /* \"#utility.yul\":2619:2628   */\n      dup3\n        /* \"#utility.yul\":2615:2633   */\n      add\n        /* \"#utility.yul\":2607:2633   */\n      swap1\n      pop\n        /* \"#utility.yul\":2643:2714   */\n      tag_368\n        /* \"#utility.yul\":2711:2712   */\n      0x00\n        /* \"#utility.yul\":2700:2709   */\n      dup4\n        /* \"#utility.yul\":2696:2713   */\n      add\n        /* \"#utility.yul\":2687:2693   */\n      dup7\n        /* \"#utility.yul\":2643:2714   */\n      tag_275\n      jump\t// in\n    tag_368:\n        /* \"#utility.yul\":2761:2770   */\n      dup2\n        /* \"#utility.yul\":2755:2759   */\n      dup2\n        /* \"#utility.yul\":2751:2771   */\n      sub\n        /* \"#utility.yul\":2746:2748   */\n      0x20\n        /* \"#utility.yul\":2735:2744   */\n      dup4\n        /* \"#utility.yul\":2731:2749   */\n      add\n        /* \"#utility.yul\":2724:2772   */\n      mstore\n        /* \"#utility.yul\":2789:2867   */\n      tag_369\n        /* \"#utility.yul\":2862:2866   */\n      dup2\n        /* \"#utility.yul\":2853:2859   */\n      dup6\n        /* \"#utility.yul\":2789:2867   */\n      tag_280\n      jump\t// in\n    tag_369:\n        /* \"#utility.yul\":2781:2867   */\n      swap1\n      pop\n        /* \"#utility.yul\":2877:2949   */\n      tag_370\n        /* \"#utility.yul\":2945:2947   */\n      0x40\n        /* \"#utility.yul\":2934:2943   */\n      dup4\n        /* \"#utility.yul\":2930:2948   */\n      add\n        /* \"#utility.yul\":2921:2927   */\n      dup5\n        /* \"#utility.yul\":2877:2949   */\n      tag_281\n      jump\t// in\n    tag_370:\n        /* \"#utility.yul\":2423:2956   */\n      swap5\n      swap4\n      pop\n      pop\n      pop\n      pop\n      jump\t// out\n        /* \"#utility.yul\":2962:3100   */\n    tag_282:\n        /* \"#utility.yul\":3053:3059   */\n      0x00\n        /* \"#utility.yul\":3087:3092   */\n      dup2\n        /* \"#utility.yul\":3081:3093   */\n      mload\n        /* \"#utility.yul\":3071:3093   */\n      swap1\n      pop\n        /* \"#utility.yul\":2962:3100   */\n      swap2\n      swap1\n      pop\n      jump\t// out\n        /* \"#utility.yul\":3106:3314   */\n    tag_283:\n        /* \"#utility.yul\":3229:3240   */\n      0x00\n        /* \"#utility.yul\":3263:3269   */\n      dup3\n        /* \"#utility.yul\":3258:3261   */\n      dup3\n        /* \"#utility.yul\":3251:3270   */\n      mstore\n        /* \"#utility.yul\":3303:3307   */\n      0x20\n        /* \"#utility.yul\":3298:3301   */\n      dup3\n        /* \"#utility.yul\":3294:3308   */\n      add\n        /* \"#utility.yul\":3279:3308   */\n      swap1\n      pop\n        /* \"#utility.yul\":3106:3314   */\n      swap3\n      swap2\n      pop\n      pop\n      jump\t// out\n        /* \"#utility.yul\":3320:3476   */\n    tag_284:\n        /* \"#utility.yul\":3411:3415   */\n      0x00\n        /* \"#utility.yul\":3434:3437   */\n      dup2\n        /* \"#utility.yul\":3426:3437   */\n      swap1\n      pop\n        /* \"#utility.yul\":3464:3468   */\n      0x20\n        /* \"#utility.yul\":3459:3462   */\n      dup3\n        /* \"#utility.yul\":3455:3469   */\n      add\n        /* \"#utility.yul\":3447:3469   */\n      swap1\n      pop\n        /* \"#utility.yul\":3320:3476   */\n      swap2\n      swap1\n      pop\n      jump\t// out\n        /* \"#utility.yul\":3482:3590   */\n    tag_285:\n        /* \"#utility.yul\":3559:3583   */\n      tag_375\n        /* \"#utility.yul\":3577:3582   */\n      dup2\n        /* \"#utility.yul\":3559:3583   */\n      tag_274\n      jump\t// in\n    tag_375:\n        /* \"#utility.yul\":3554:3557   */\n      dup3\n        /* \"#utility.yul\":3547:3584   */\n      mstore\n        /* \"#utility.yul\":3482:3590   */\n      pop\n      pop\n      jump\t// out\n        /* \"#utility.yul\":3596:3755   */\n    tag_286:\n        /* \"#utility.yul\":3670:3681   */\n      0x00\n        /* \"#utility.yul\":3704:3710   */\n      dup3\n        /* \"#utility.yul\":3699:3702   */\n      dup3\n        /* \"#utility.yul\":3692:3711   */\n      mstore\n        /* \"#utility.yul\":3744:3748   */\n      0x20\n        /* \"#utility.yul\":3739:3742   */\n      dup3\n        /* \"#utility.yul\":3735:3749   */\n      add\n        /* \"#utility.yul\":3720:3749   */\n      swap1\n      pop\n        /* \"#utility.yul\":3596:3755   */\n      swap3\n      swap2\n      pop\n      pop\n      jump\t// out\n        /* \"#utility.yul\":3761:4118   */\n    tag_287:\n        /* \"#utility.yul\":3839:3842   */\n      0x00\n        /* \"#utility.yul\":3867:3906   */\n      tag_378\n        /* \"#utility.yul\":3900:3905   */\n      dup3\n        /* \"#utility.yul\":3867:3906   */\n      tag_276\n      jump\t// in\n    tag_378:\n        /* \"#utility.yul\":3922:3983   */\n      tag_379\n        /* \"#utility.yul\":3976:3982   */\n      dup2\n        /* \"#utility.yul\":3971:3974   */\n      dup6\n        /* \"#utility.yul\":3922:3983   */\n      tag_286\n      jump\t// in\n    tag_379:\n        /* \"#utility.yul\":3915:3983   */\n      swap4\n      pop\n        /* \"#utility.yul\":3992:4057   */\n      tag_380\n        /* \"#utility.yul\":4050:4056   */\n      dup2\n        /* \"#utility.yul\":4045:4048   */\n      dup6\n        /* \"#utility.yul\":4038:4042   */\n      0x20\n        /* \"#utility.yul\":4031:4036   */\n      dup7\n        /* \"#utility.yul\":4027:4043   */\n      add\n        /* \"#utility.yul\":3992:4057   */\n      tag_278\n      jump\t// in\n    tag_380:\n        /* \"#utility.yul\":4082:4111   */\n      tag_381\n        /* \"#utility.yul\":4104:4110   */\n      dup2\n        /* \"#utility.yul\":4082:4111   */\n      tag_279\n      jump\t// in\n    tag_381:\n        /* \"#utility.yul\":4077:4080   */\n      dup5\n        /* \"#utility.yul\":4073:4112   */\n      add\n        /* \"#utility.yul\":4066:4112   */\n      swap2\n      pop\n        /* \"#utility.yul\":3843:4118   */\n      pop\n        /* \"#utility.yul\":3761:4118   */\n      swap3\n      swap2\n      pop\n      pop\n      jump\t// out\n        /* \"#utility.yul\":4124:4232   */\n    tag_288:\n        /* \"#utility.yul\":4201:4225   */\n      tag_383\n        /* \"#utility.yul\":4219:4224   */\n      dup2\n        /* \"#utility.yul\":4201:4225   */\n      tag_270\n      jump\t// in\n    tag_383:\n        /* \"#utility.yul\":4196:4199   */\n      dup3\n        /* \"#utility.yul\":4189:4226   */\n      mstore\n        /* \"#utility.yul\":4124:4232   */\n      pop\n      pop\n      jump\t// out\n        /* \"#utility.yul\":4296:5074   */\n    tag_289:\n        /* \"#utility.yul\":4403:4406   */\n      0x00\n        /* \"#utility.yul\":4439:4443   */\n      0x60\n        /* \"#utility.yul\":4434:4437   */\n      dup4\n        /* \"#utility.yul\":4430:4444   */\n      add\n        /* \"#utility.yul\":4528:4532   */\n      0x00\n        /* \"#utility.yul\":4521:4526   */\n      dup4\n        /* \"#utility.yul\":4517:4533   */\n      add\n        /* \"#utility.yul\":4511:4534   */\n      mload\n        /* \"#utility.yul\":4547:4610   */\n      tag_385\n        /* \"#utility.yul\":4604:4608   */\n      0x00\n        /* \"#utility.yul\":4599:4602   */\n      dup7\n        /* \"#utility.yul\":4595:4609   */\n      add\n        /* \"#utility.yul\":4581:4593   */\n      dup3\n        /* \"#utility.yul\":4547:4610   */\n      tag_285\n      jump\t// in\n    tag_385:\n        /* \"#utility.yul\":4454:4620   */\n      pop\n        /* \"#utility.yul\":4705:4709   */\n      0x20\n        /* \"#utility.yul\":4698:4703   */\n      dup4\n        /* \"#utility.yul\":4694:4710   */\n      add\n        /* \"#utility.yul\":4688:4711   */\n      mload\n        /* \"#utility.yul\":4758:4761   */\n      dup5\n        /* \"#utility.yul\":4752:4756   */\n      dup3\n        /* \"#utility.yul\":4748:4762   */\n      sub\n        /* \"#utility.yul\":4741:4745   */\n      0x20\n        /* \"#utility.yul\":4736:4739   */\n      dup7\n        /* \"#utility.yul\":4732:4746   */\n      add\n        /* \"#utility.yul\":4725:4763   */\n      mstore\n        /* \"#utility.yul\":4784:4857   */\n      tag_386\n        /* \"#utility.yul\":4852:4856   */\n      dup3\n        /* \"#utility.yul\":4838:4850   */\n      dup3\n        /* \"#utility.yul\":4784:4857   */\n      tag_287\n      jump\t// in\n    tag_386:\n        /* \"#utility.yul\":4776:4857   */\n      swap2\n      pop\n        /* \"#utility.yul\":4630:4868   */\n      pop\n        /* \"#utility.yul\":4955:4959   */\n      0x40\n        /* \"#utility.yul\":4948:4953   */\n      dup4\n        /* \"#utility.yul\":4944:4960   */\n      add\n        /* \"#utility.yul\":4938:4961   */\n      mload\n        /* \"#utility.yul\":4974:5037   */\n      tag_387\n        /* \"#utility.yul\":5031:5035   */\n      0x40\n        /* \"#utility.yul\":5026:5029   */\n      dup7\n        /* \"#utility.yul\":5022:5036   */\n      add\n        /* \"#utility.yul\":5008:5020   */\n      dup3\n        /* \"#utility.yul\":4974:5037   */\n      tag_288\n      jump\t// in\n    tag_387:\n        /* \"#utility.yul\":4878:5047   */\n      pop\n        /* \"#utility.yul\":5064:5068   */\n      dup1\n        /* \"#utility.yul\":5057:5068   */\n      swap2\n      pop\n        /* \"#utility.yul\":4408:5074   */\n      pop\n        /* \"#utility.yul\":4296:5074   */\n      swap3\n      swap2\n      pop\n      pop\n      jump\t// out\n        /* \"#utility.yul\":5080:5332   */\n    tag_290:\n        /* \"#utility.yul\":5197:5207   */\n      0x00\n        /* \"#utility.yul\":5232:5326   */\n      tag_389\n        /* \"#utility.yul\":5322:5325   */\n      dup4\n        /* \"#utility.yul\":5314:5320   */\n      dup4\n        /* \"#utility.yul\":5232:5326   */\n      tag_289\n      jump\t// in\n    tag_389:\n        /* \"#utility.yul\":5218:5326   */\n      swap1\n      pop\n        /* \"#utility.yul\":5080:5332   */\n      swap3\n      swap2\n      pop\n      pop\n      jump\t// out\n        /* \"#utility.yul\":5338:5475   */\n    tag_291:\n        /* \"#utility.yul\":5432:5436   */\n      0x00\n        /* \"#utility.yul\":5464:5468   */\n      0x20\n        /* \"#utility.yul\":5459:5462   */\n      dup3\n        /* \"#utility.yul\":5455:5469   */\n      add\n        /* \"#utility.yul\":5447:5469   */\n      swap1\n      pop\n        /* \"#utility.yul\":5338:5475   */\n      swap2\n      swap1\n      pop\n      jump\t// out\n        /* \"#utility.yul\":5543:6646   */\n    tag_292:\n        /* \"#utility.yul\":5710:5713   */\n      0x00\n        /* \"#utility.yul\":5739:5817   */\n      tag_392\n        /* \"#utility.yul\":5811:5816   */\n      dup3\n        /* \"#utility.yul\":5739:5817   */\n      tag_282\n      jump\t// in\n    tag_392:\n        /* \"#utility.yul\":5833:5943   */\n      tag_393\n        /* \"#utility.yul\":5936:5942   */\n      dup2\n        /* \"#utility.yul\":5931:5934   */\n      dup6\n        /* \"#utility.yul\":5833:5943   */\n      tag_283\n      jump\t// in\n    tag_393:\n        /* \"#utility.yul\":5826:5943   */\n      swap4\n      pop\n        /* \"#utility.yul\":5969:5972   */\n      dup4\n        /* \"#utility.yul\":6014:6018   */\n      0x20\n        /* \"#utility.yul\":6006:6012   */\n      dup3\n        /* \"#utility.yul\":6002:6019   */\n      mul\n        /* \"#utility.yul\":5997:6000   */\n      dup6\n        /* \"#utility.yul\":5993:6020   */\n      add\n        /* \"#utility.yul\":6044:6124   */\n      tag_394\n        /* \"#utility.yul\":6118:6123   */\n      dup6\n        /* \"#utility.yul\":6044:6124   */\n      tag_284\n      jump\t// in\n    tag_394:\n        /* \"#utility.yul\":6147:6154   */\n      dup1\n        /* \"#utility.yul\":6178:6179   */\n      0x00\n        /* \"#utility.yul\":6163:6601   */\n    tag_395:\n        /* \"#utility.yul\":6188:6194   */\n      dup6\n        /* \"#utility.yul\":6185:6186   */\n      dup2\n        /* \"#utility.yul\":6182:6195   */\n      lt\n        /* \"#utility.yul\":6163:6601   */\n      iszero\n      tag_397\n      jumpi\n        /* \"#utility.yul\":6259:6268   */\n      dup5\n        /* \"#utility.yul\":6253:6257   */\n      dup5\n        /* \"#utility.yul\":6249:6269   */\n      sub\n        /* \"#utility.yul\":6244:6247   */\n      dup10\n        /* \"#utility.yul\":6237:6270   */\n      mstore\n        /* \"#utility.yul\":6310:6316   */\n      dup2\n        /* \"#utility.yul\":6304:6317   */\n      mload\n        /* \"#utility.yul\":6338:6450   */\n      tag_398\n        /* \"#utility.yul\":6445:6449   */\n      dup6\n        /* \"#utility.yul\":6430:6443   */\n      dup3\n        /* \"#utility.yul\":6338:6450   */\n      tag_290\n      jump\t// in\n    tag_398:\n        /* \"#utility.yul\":6330:6450   */\n      swap5\n      pop\n        /* \"#utility.yul\":6473:6557   */\n      tag_399\n        /* \"#utility.yul\":6550:6556   */\n      dup4\n        /* \"#utility.yul\":6473:6557   */\n      tag_291\n      jump\t// in\n    tag_399:\n        /* \"#utility.yul\":6463:6557   */\n      swap3\n      pop\n        /* \"#utility.yul\":6586:6590   */\n      0x20\n        /* \"#utility.yul\":6581:6584   */\n      dup11\n        /* \"#utility.yul\":6577:6591   */\n      add\n        /* \"#utility.yul\":6570:6591   */\n      swap10\n      pop\n        /* \"#utility.yul\":6223:6601   */\n      pop\n        /* \"#utility.yul\":6210:6211   */\n      0x01\n        /* \"#utility.yul\":6207:6208   */\n      dup2\n        /* \"#utility.yul\":6203:6212   */\n      add\n        /* \"#utility.yul\":6198:6212   */\n      swap1\n      pop\n        /* \"#utility.yul\":6163:6601   */\n      jump(tag_395)\n    tag_397:\n        /* \"#utility.yul\":6167:6181   */\n      pop\n        /* \"#utility.yul\":6617:6621   */\n      dup3\n        /* \"#utility.yul\":6610:6621   */\n      swap8\n      pop\n        /* \"#utility.yul\":6637:6640   */\n      dup8\n        /* \"#utility.yul\":6630:6640   */\n      swap6\n      pop\n        /* \"#utility.yul\":5715:6646   */\n      pop\n      pop\n      pop\n      pop\n      pop\n        /* \"#utility.yul\":5543:6646   */\n      swap3\n      swap2\n      pop\n      pop\n      jump\t// out\n        /* \"#utility.yul\":6652:7231   */\n    tag_32:\n        /* \"#utility.yul\":6871:6875   */\n      0x00\n        /* \"#utility.yul\":6909:6911   */\n      0x40\n        /* \"#utility.yul\":6898:6907   */\n      dup3\n        /* \"#utility.yul\":6894:6912   */\n      add\n        /* \"#utility.yul\":6886:6912   */\n      swap1\n      pop\n        /* \"#utility.yul\":6958:6967   */\n      dup2\n        /* \"#utility.yul\":6952:6956   */\n      dup2\n        /* \"#utility.yul\":6948:6968   */\n      sub\n        /* \"#utility.yul\":6944:6945   */\n      0x00\n        /* \"#utility.yul\":6933:6942   */\n      dup4\n        /* \"#utility.yul\":6929:6946   */\n      add\n        /* \"#utility.yul\":6922:6969   */\n      mstore\n        /* \"#utility.yul\":6986:7142   */\n      tag_401\n        /* \"#utility.yul\":7137:7141   */\n      dup2\n        /* \"#utility.yul\":7128:7134   */\n      dup6\n        /* \"#utility.yul\":6986:7142   */\n      tag_292\n      jump\t// in\n    tag_401:\n        /* \"#utility.yul\":6978:7142   */\n      swap1\n      pop\n        /* \"#utility.yul\":7152:7224   */\n      tag_402\n        /* \"#utility.yul\":7220:7222   */\n      0x20\n        /* \"#utility.yul\":7209:7218   */\n      dup4\n        /* \"#utility.yul\":7205:7223   */\n      add\n        /* \"#utility.yul\":7196:7202   */\n      dup5\n        /* \"#utility.yul\":7152:7224   */\n      tag_281\n      jump\t// in\n    tag_402:\n        /* \"#utility.yul\":6652:7231   */\n      swap4\n      swap3\n      pop\n      pop\n      pop\n      jump\t// out\n        /* \"#utility.yul\":7237:7459   */\n    tag_42:\n        /* \"#utility.yul\":7330:7334   */\n      0x00\n        /* \"#utility.yul\":7368:7370   */\n      0x20\n        /* \"#utility.yul\":7357:7366   */\n      dup3\n        /* \"#utility.yul\":7353:7371   */\n      add\n        /* \"#utility.yul\":7345:7371   */\n      swap1\n      pop\n        /* \"#utility.yul\":7381:7452   */\n      tag_404\n        /* \"#utility.yul\":7449:7450   */\n      0x00\n        /* \"#utility.yul\":7438:7447   */\n      dup4\n        /* \"#utility.yul\":7434:7451   */\n      add\n        /* \"#utility.yul\":7425:7431   */\n      dup5\n        /* \"#utility.yul\":7381:7452   */\n      tag_281\n      jump\t// in\n    tag_404:\n        /* \"#utility.yul\":7237:7459   */\n      swap3\n      swap2\n      pop\n      pop\n      jump\t// out\n        /* \"#utility.yul\":7465:7587   */\n    tag_293:\n        /* \"#utility.yul\":7538:7562   */\n      tag_406\n        /* \"#utility.yul\":7556:7561   */\n      dup2\n        /* \"#utility.yul\":7538:7562   */\n      tag_274\n      jump\t// in\n    tag_406:\n        /* \"#utility.yul\":7531:7536   */\n      dup2\n        /* \"#utility.yul\":7528:7563   */\n      eq\n        /* \"#utility.yul\":7518:7581   */\n      tag_407\n      jumpi\n        /* \"#utility.yul\":7577:7578   */\n      0x00\n        /* \"#utility.yul\":7574:7575   */\n      dup1\n        /* \"#utility.yul\":7567:7579   */\n      revert\n        /* \"#utility.yul\":7518:7581   */\n    tag_407:\n        /* \"#utility.yul\":7465:7587   */\n      pop\n      jump\t// out\n        /* \"#utility.yul\":7593:7732   */\n    tag_294:\n        /* \"#utility.yul\":7639:7644   */\n      0x00\n        /* \"#utility.yul\":7677:7683   */\n      dup2\n        /* \"#utility.yul\":7664:7684   */\n      calldataload\n        /* \"#utility.yul\":7655:7684   */\n      swap1\n      pop\n        /* \"#utility.yul\":7693:7726   */\n      tag_409\n        /* \"#utility.yul\":7720:7725   */\n      dup2\n        /* \"#utility.yul\":7693:7726   */\n      tag_293\n      jump\t// in\n    tag_409:\n        /* \"#utility.yul\":7593:7732   */\n      swap3\n      swap2\n      pop\n      pop\n      jump\t// out\n        /* \"#utility.yul\":7738:8212   */\n    tag_46:\n        /* \"#utility.yul\":7806:7812   */\n      0x00\n        /* \"#utility.yul\":7814:7820   */\n      dup1\n        /* \"#utility.yul\":7863:7865   */\n      0x40\n        /* \"#utility.yul\":7851:7860   */\n      dup4\n        /* \"#utility.yul\":7842:7849   */\n      dup6\n        /* \"#utility.yul\":7838:7861   */\n      sub\n        /* \"#utility.yul\":7834:7866   */\n      slt\n        /* \"#utility.yul\":7831:7950   */\n      iszero\n      tag_411\n      jumpi\n        /* \"#utility.yul\":7869:7948   */\n      tag_412\n      tag_268\n      jump\t// in\n    tag_412:\n        /* \"#utility.yul\":7831:7950   */\n    tag_411:\n        /* \"#utility.yul\":7989:7990   */\n      0x00\n        /* \"#utility.yul\":8014:8067   */\n      tag_413\n        /* \"#utility.yul\":8059:8066   */\n      dup6\n        /* \"#utility.yul\":8050:8056   */\n      dup3\n        /* \"#utility.yul\":8039:8048   */\n      dup7\n        /* \"#utility.yul\":8035:8057   */\n      add\n        /* \"#utility.yul\":8014:8067   */\n      tag_294\n      jump\t// in\n    tag_413:\n        /* \"#utility.yul\":8004:8067   */\n      swap3\n      pop\n        /* \"#utility.yul\":7960:8077   */\n      pop\n        /* \"#utility.yul\":8116:8118   */\n      0x20\n        /* \"#utility.yul\":8142:8195   */\n      tag_414\n        /* \"#utility.yul\":8187:8194   */\n      dup6\n        /* \"#utility.yul\":8178:8184   */\n      dup3\n        /* \"#utility.yul\":8167:8176   */\n      dup7\n        /* \"#utility.yul\":8163:8185   */\n      add\n        /* \"#utility.yul\":8142:8195   */\n      tag_272\n      jump\t// in\n    tag_414:\n        /* \"#utility.yul\":8132:8195   */\n      swap2\n      pop\n        /* \"#utility.yul\":8087:8205   */\n      pop\n        /* \"#utility.yul\":7738:8212   */\n      swap3\n      pop\n      swap3\n      swap1\n      pop\n      jump\t// out\n        /* \"#utility.yul\":8276:9064   */\n    tag_295:\n        /* \"#utility.yul\":8393:8396   */\n      0x00\n        /* \"#utility.yul\":8429:8433   */\n      0x60\n        /* \"#utility.yul\":8424:8427   */\n      dup4\n        /* \"#utility.yul\":8420:8434   */\n      add\n        /* \"#utility.yul\":8518:8522   */\n      0x00\n        /* \"#utility.yul\":8511:8516   */\n      dup4\n        /* \"#utility.yul\":8507:8523   */\n      add\n        /* \"#utility.yul\":8501:8524   */\n      mload\n        /* \"#utility.yul\":8537:8600   */\n      tag_416\n        /* \"#utility.yul\":8594:8598   */\n      0x00\n        /* \"#utility.yul\":8589:8592   */\n      dup7\n        /* \"#utility.yul\":8585:8599   */\n      add\n        /* \"#utility.yul\":8571:8583   */\n      dup3\n        /* \"#utility.yul\":8537:8600   */\n      tag_285\n      jump\t// in\n    tag_416:\n        /* \"#utility.yul\":8444:8610   */\n      pop\n        /* \"#utility.yul\":8695:8699   */\n      0x20\n        /* \"#utility.yul\":8688:8693   */\n      dup4\n        /* \"#utility.yul\":8684:8700   */\n      add\n        /* \"#utility.yul\":8678:8701   */\n      mload\n        /* \"#utility.yul\":8748:8751   */\n      dup5\n        /* \"#utility.yul\":8742:8746   */\n      dup3\n        /* \"#utility.yul\":8738:8752   */\n      sub\n        /* \"#utility.yul\":8731:8735   */\n      0x20\n        /* \"#utility.yul\":8726:8729   */\n      dup7\n        /* \"#utility.yul\":8722:8736   */\n      add\n        /* \"#utility.yul\":8715:8753   */\n      mstore\n        /* \"#utility.yul\":8774:8847   */\n      tag_417\n        /* \"#utility.yul\":8842:8846   */\n      dup3\n        /* \"#utility.yul\":8828:8840   */\n      dup3\n        /* \"#utility.yul\":8774:8847   */\n      tag_287\n      jump\t// in\n    tag_417:\n        /* \"#utility.yul\":8766:8847   */\n      swap2\n      pop\n        /* \"#utility.yul\":8620:8858   */\n      pop\n        /* \"#utility.yul\":8945:8949   */\n      0x40\n        /* \"#utility.yul\":8938:8943   */\n      dup4\n        /* \"#utility.yul\":8934:8950   */\n      add\n        /* \"#utility.yul\":8928:8951   */\n      mload\n        /* \"#utility.yul\":8964:9027   */\n      tag_418\n        /* \"#utility.yul\":9021:9025   */\n      0x40\n        /* \"#utility.yul\":9016:9019   */\n      dup7\n        /* \"#utility.yul\":9012:9026   */\n      add\n        /* \"#utility.yul\":8998:9010   */\n      dup3\n        /* \"#utility.yul\":8964:9027   */\n      tag_288\n      jump\t// in\n    tag_418:\n        /* \"#utility.yul\":8868:9037   */\n      pop\n        /* \"#utility.yul\":9054:9058   */\n      dup1\n        /* \"#utility.yul\":9047:9058   */\n      swap2\n      pop\n        /* \"#utility.yul\":8398:9064   */\n      pop\n        /* \"#utility.yul\":8276:9064   */\n      swap3\n      swap2\n      pop\n      pop\n      jump\t// out\n        /* \"#utility.yul\":9070:9439   */\n    tag_49:\n        /* \"#utility.yul\":9211:9215   */\n      0x00\n        /* \"#utility.yul\":9249:9251   */\n      0x20\n        /* \"#utility.yul\":9238:9247   */\n      dup3\n        /* \"#utility.yul\":9234:9252   */\n      add\n        /* \"#utility.yul\":9226:9252   */\n      swap1\n      pop\n        /* \"#utility.yul\":9298:9307   */\n      dup2\n        /* \"#utility.yul\":9292:9296   */\n      dup2\n        /* \"#utility.yul\":9288:9308   */\n      sub\n        /* \"#utility.yul\":9284:9285   */\n      0x00\n        /* \"#utility.yul\":9273:9282   */\n      dup4\n        /* \"#utility.yul\":9269:9286   */\n      add\n        /* \"#utility.yul\":9262:9309   */\n      mstore\n        /* \"#utility.yul\":9326:9432   */\n      tag_420\n        /* \"#utility.yul\":9427:9431   */\n      dup2\n        /* \"#utility.yul\":9418:9424   */\n      dup5\n        /* \"#utility.yul\":9326:9432   */\n      tag_295\n      jump\t// in\n    tag_420:\n        /* \"#utility.yul\":9318:9432   */\n      swap1\n      pop\n        /* \"#utility.yul\":9070:9439   */\n      swap3\n      swap2\n      pop\n      pop\n      jump\t// out\n        /* \"#utility.yul\":9445:9919   */\n    tag_53:\n        /* \"#utility.yul\":9513:9519   */\n      0x00\n        /* \"#utility.yul\":9521:9527   */\n      dup1\n        /* \"#utility.yul\":9570:9572   */\n      0x40\n        /* \"#utility.yul\":9558:9567   */\n      dup4\n        /* \"#utility.yul\":9549:9556   */\n      dup6\n        /* \"#utility.yul\":9545:9568   */\n      sub\n        /* \"#utility.yul\":9541:9573   */\n      slt\n        /* \"#utility.yul\":9538:9657   */\n      iszero\n      tag_422\n      jumpi\n        /* \"#utility.yul\":9576:9655   */\n      tag_423\n      tag_268\n      jump\t// in\n    tag_423:\n        /* \"#utility.yul\":9538:9657   */\n    tag_422:\n        /* \"#utility.yul\":9696:9697   */\n      0x00\n        /* \"#utility.yul\":9721:9774   */\n      tag_424\n        /* \"#utility.yul\":9766:9773   */\n      dup6\n        /* \"#utility.yul\":9757:9763   */\n      dup3\n        /* \"#utility.yul\":9746:9755   */\n      dup7\n        /* \"#utility.yul\":9742:9764   */\n      add\n        /* \"#utility.yul\":9721:9774   */\n      tag_272\n      jump\t// in\n    tag_424:\n        /* \"#utility.yul\":9711:9774   */\n      swap3\n      pop\n        /* \"#utility.yul\":9667:9784   */\n      pop\n        /* \"#utility.yul\":9823:9825   */\n      0x20\n        /* \"#utility.yul\":9849:9902   */\n      tag_425\n        /* \"#utility.yul\":9894:9901   */\n      dup6\n        /* \"#utility.yul\":9885:9891   */\n      dup3\n        /* \"#utility.yul\":9874:9883   */\n      dup7\n        /* \"#utility.yul\":9870:9892   */\n      add\n        /* \"#utility.yul\":9849:9902   */\n      tag_272\n      jump\t// in\n    tag_425:\n        /* \"#utility.yul\":9839:9902   */\n      swap2\n      pop\n        /* \"#utility.yul\":9794:9912   */\n      pop\n        /* \"#utility.yul\":9445:9919   */\n      swap3\n      pop\n      swap3\n      swap1\n      pop\n      jump\t// out\n        /* \"#utility.yul\":9925:10015   */\n    tag_296:\n        /* \"#utility.yul\":9959:9966   */\n      0x00\n        /* \"#utility.yul\":10002:10007   */\n      dup2\n        /* \"#utility.yul\":9995:10008   */\n      iszero\n        /* \"#utility.yul\":9988:10009   */\n      iszero\n        /* \"#utility.yul\":9977:10009   */\n      swap1\n      pop\n        /* \"#utility.yul\":9925:10015   */\n      swap2\n      swap1\n      pop\n      jump\t// out\n        /* \"#utility.yul\":10021:10130   */\n    tag_297:\n        /* \"#utility.yul\":10102:10123   */\n      tag_428\n        /* \"#utility.yul\":10117:10122   */\n      dup2\n        /* \"#utility.yul\":10102:10123   */\n      tag_296\n      jump\t// in\n    tag_428:\n        /* \"#utility.yul\":10097:10100   */\n      dup3\n        /* \"#utility.yul\":10090:10124   */\n      mstore\n        /* \"#utility.yul\":10021:10130   */\n      pop\n      pop\n      jump\t// out\n        /* \"#utility.yul\":10136:10346   */\n    tag_60:\n        /* \"#utility.yul\":10223:10227   */\n      0x00\n        /* \"#utility.yul\":10261:10263   */\n      0x20\n        /* \"#utility.yul\":10250:10259   */\n      dup3\n        /* \"#utility.yul\":10246:10264   */\n      add\n        /* \"#utility.yul\":10238:10264   */\n      swap1\n      pop\n        /* \"#utility.yul\":10274:10339   */\n      tag_430\n        /* \"#utility.yul\":10336:10337   */\n      0x00\n        /* \"#utility.yul\":10325:10334   */\n      dup4\n        /* \"#utility.yul\":10321:10338   */\n      add\n        /* \"#utility.yul\":10312:10318   */\n      dup5\n        /* \"#utility.yul\":10274:10339   */\n      tag_297\n      jump\t// in\n    tag_430:\n        /* \"#utility.yul\":10136:10346   */\n      swap3\n      swap2\n      pop\n      pop\n      jump\t// out\n        /* \"#utility.yul\":10352:10574   */\n    tag_68:\n        /* \"#utility.yul\":10445:10449   */\n      0x00\n        /* \"#utility.yul\":10483:10485   */\n      0x20\n        /* \"#utility.yul\":10472:10481   */\n      dup3\n        /* \"#utility.yul\":10468:10486   */\n      add\n        /* \"#utility.yul\":10460:10486   */\n      swap1\n      pop\n        /* \"#utility.yul\":10496:10567   */\n      tag_432\n        /* \"#utility.yul\":10564:10565   */\n      0x00\n        /* \"#utility.yul\":10553:10562   */\n      dup4\n        /* \"#utility.yul\":10549:10566   */\n      add\n        /* \"#utility.yul\":10540:10546   */\n      dup5\n        /* \"#utility.yul\":10496:10567   */\n      tag_275\n      jump\t// in\n    tag_432:\n        /* \"#utility.yul\":10352:10574   */\n      swap3\n      swap2\n      pop\n      pop\n      jump\t// out\n        /* \"#utility.yul\":10580:10909   */\n    tag_77:\n        /* \"#utility.yul\":10639:10645   */\n      0x00\n        /* \"#utility.yul\":10688:10690   */\n      0x20\n        /* \"#utility.yul\":10676:10685   */\n      dup3\n        /* \"#utility.yul\":10667:10674   */\n      dup5\n        /* \"#utility.yul\":10663:10686   */\n      sub\n        /* \"#utility.yul\":10659:10691   */\n      slt\n        /* \"#utility.yul\":10656:10775   */\n      iszero\n      tag_434\n      jumpi\n        /* \"#utility.yul\":10694:10773   */\n      tag_435\n      tag_268\n      jump\t// in\n    tag_435:\n        /* \"#utility.yul\":10656:10775   */\n    tag_434:\n        /* \"#utility.yul\":10814:10815   */\n      0x00\n        /* \"#utility.yul\":10839:10892   */\n      tag_436\n        /* \"#utility.yul\":10884:10891   */\n      dup5\n        /* \"#utility.yul\":10875:10881   */\n      dup3\n        /* \"#utility.yul\":10864:10873   */\n      dup6\n        /* \"#utility.yul\":10860:10882   */\n      add\n        /* \"#utility.yul\":10839:10892   */\n      tag_294\n      jump\t// in\n    tag_436:\n        /* \"#utility.yul\":10829:10892   */\n      swap2\n      pop\n        /* \"#utility.yul\":10785:10902   */\n      pop\n        /* \"#utility.yul\":10580:10909   */\n      swap3\n      swap2\n      pop\n      pop\n      jump\t// out\n        /* \"#utility.yul\":10915:11384   */\n    tag_80:\n        /* \"#utility.yul\":11106:11110   */\n      0x00\n        /* \"#utility.yul\":11144:11146   */\n      0x20\n        /* \"#utility.yul\":11133:11142   */\n      dup3\n        /* \"#utility.yul\":11129:11147   */\n      add\n        /* \"#utility.yul\":11121:11147   */\n      swap1\n      pop\n        /* \"#utility.yul\":11193:11202   */\n      dup2\n        /* \"#utility.yul\":11187:11191   */\n      dup2\n        /* \"#utility.yul\":11183:11203   */\n      sub\n        /* \"#utility.yul\":11179:11180   */\n      0x00\n        /* \"#utility.yul\":11168:11177   */\n      dup4\n        /* \"#utility.yul\":11164:11181   */\n      add\n        /* \"#utility.yul\":11157:11204   */\n      mstore\n        /* \"#utility.yul\":11221:11377   */\n      tag_438\n        /* \"#utility.yul\":11372:11376   */\n      dup2\n        /* \"#utility.yul\":11363:11369   */\n      dup5\n        /* \"#utility.yul\":11221:11377   */\n      tag_292\n      jump\t// in\n    tag_438:\n        /* \"#utility.yul\":11213:11377   */\n      swap1\n      pop\n        /* \"#utility.yul\":10915:11384   */\n      swap3\n      swap2\n      pop\n      pop\n      jump\t// out\n        /* \"#utility.yul\":11390:11504   */\n    tag_298:\n        /* \"#utility.yul\":11457:11463   */\n      0x00\n        /* \"#utility.yul\":11491:11496   */\n      dup2\n        /* \"#utility.yul\":11485:11497   */\n      mload\n        /* \"#utility.yul\":11475:11497   */\n      swap1\n      pop\n        /* \"#utility.yul\":11390:11504   */\n      swap2\n      swap1\n      pop\n      jump\t// out\n        /* \"#utility.yul\":11510:11694   */\n    tag_299:\n        /* \"#utility.yul\":11609:11620   */\n      0x00\n        /* \"#utility.yul\":11643:11649   */\n      dup3\n        /* \"#utility.yul\":11638:11641   */\n      dup3\n        /* \"#utility.yul\":11631:11650   */\n      mstore\n        /* \"#utility.yul\":11683:11687   */\n      0x20\n        /* \"#utility.yul\":11678:11681   */\n      dup3\n        /* \"#utility.yul\":11674:11688   */\n      add\n        /* \"#utility.yul\":11659:11688   */\n      swap1\n      pop\n        /* \"#utility.yul\":11510:11694   */\n      swap3\n      swap2\n      pop\n      pop\n      jump\t// out\n        /* \"#utility.yul\":11700:11832   */\n    tag_300:\n        /* \"#utility.yul\":11767:11771   */\n      0x00\n        /* \"#utility.yul\":11790:11793   */\n      dup2\n        /* \"#utility.yul\":11782:11793   */\n      swap1\n      pop\n        /* \"#utility.yul\":11820:11824   */\n      0x20\n        /* \"#utility.yul\":11815:11818   */\n      dup3\n        /* \"#utility.yul\":11811:11825   */\n      add\n        /* \"#utility.yul\":11803:11825   */\n      swap1\n      pop\n        /* \"#utility.yul\":11700:11832   */\n      swap2\n      swap1\n      pop\n      jump\t// out\n        /* \"#utility.yul\":11838:12017   */\n    tag_301:\n        /* \"#utility.yul\":11907:11917   */\n      0x00\n        /* \"#utility.yul\":11928:11974   */\n      tag_443\n        /* \"#utility.yul\":11970:11973   */\n      dup4\n        /* \"#utility.yul\":11962:11968   */\n      dup4\n        /* \"#utility.yul\":11928:11974   */\n      tag_288\n      jump\t// in\n    tag_443:\n        /* \"#utility.yul\":12006:12010   */\n      0x20\n        /* \"#utility.yul\":12001:12004   */\n      dup4\n        /* \"#utility.yul\":11997:12011   */\n      add\n        /* \"#utility.yul\":11983:12011   */\n      swap1\n      pop\n        /* \"#utility.yul\":11838:12017   */\n      swap3\n      swap2\n      pop\n      pop\n      jump\t// out\n        /* \"#utility.yul\":12023:12136   */\n    tag_302:\n        /* \"#utility.yul\":12093:12097   */\n      0x00\n        /* \"#utility.yul\":12125:12129   */\n      0x20\n        /* \"#utility.yul\":12120:12123   */\n      dup3\n        /* \"#utility.yul\":12116:12130   */\n      add\n        /* \"#utility.yul\":12108:12130   */\n      swap1\n      pop\n        /* \"#utility.yul\":12023:12136   */\n      swap2\n      swap1\n      pop\n      jump\t// out\n        /* \"#utility.yul\":12172:12904   */\n    tag_303:\n        /* \"#utility.yul\":12291:12294   */\n      0x00\n        /* \"#utility.yul\":12320:12374   */\n      tag_446\n        /* \"#utility.yul\":12368:12373   */\n      dup3\n        /* \"#utility.yul\":12320:12374   */\n      tag_298\n      jump\t// in\n    tag_446:\n        /* \"#utility.yul\":12390:12476   */\n      tag_447\n        /* \"#utility.yul\":12469:12475   */\n      dup2\n        /* \"#utility.yul\":12464:12467   */\n      dup6\n        /* \"#utility.yul\":12390:12476   */\n      tag_299\n      jump\t// in\n    tag_447:\n        /* \"#utility.yul\":12383:12476   */\n      swap4\n      pop\n        /* \"#utility.yul\":12500:12556   */\n      tag_448\n        /* \"#utility.yul\":12550:12555   */\n      dup4\n        /* \"#utility.yul\":12500:12556   */\n      tag_300\n      jump\t// in\n    tag_448:\n        /* \"#utility.yul\":12579:12586   */\n      dup1\n        /* \"#utility.yul\":12610:12611   */\n      0x00\n        /* \"#utility.yul\":12595:12879   */\n    tag_449:\n        /* \"#utility.yul\":12620:12626   */\n      dup4\n        /* \"#utility.yul\":12617:12618   */\n      dup2\n        /* \"#utility.yul\":12614:12627   */\n      lt\n        /* \"#utility.yul\":12595:12879   */\n      iszero\n      tag_451\n      jumpi\n        /* \"#utility.yul\":12696:12702   */\n      dup2\n        /* \"#utility.yul\":12690:12703   */\n      mload\n        /* \"#utility.yul\":12723:12786   */\n      tag_452\n        /* \"#utility.yul\":12782:12785   */\n      dup9\n        /* \"#utility.yul\":12767:12780   */\n      dup3\n        /* \"#utility.yul\":12723:12786   */\n      tag_301\n      jump\t// in\n    tag_452:\n        /* \"#utility.yul\":12716:12786   */\n      swap8\n      pop\n        /* \"#utility.yul\":12809:12869   */\n      tag_453\n        /* \"#utility.yul\":12862:12868   */\n      dup4\n        /* \"#utility.yul\":12809:12869   */\n      tag_302\n      jump\t// in\n    tag_453:\n        /* \"#utility.yul\":12799:12869   */\n      swap3\n      pop\n        /* \"#utility.yul\":12655:12879   */\n      pop\n        /* \"#utility.yul\":12642:12643   */\n      0x01\n        /* \"#utility.yul\":12639:12640   */\n      dup2\n        /* \"#utility.yul\":12635:12644   */\n      add\n        /* \"#utility.yul\":12630:12644   */\n      swap1\n      pop\n        /* \"#utility.yul\":12595:12879   */\n      jump(tag_449)\n    tag_451:\n        /* \"#utility.yul\":12599:12613   */\n      pop\n        /* \"#utility.yul\":12895:12898   */\n      dup6\n        /* \"#utility.yul\":12888:12898   */\n      swap4\n      pop\n        /* \"#utility.yul\":12296:12904   */\n      pop\n      pop\n      pop\n        /* \"#utility.yul\":12172:12904   */\n      swap3\n      swap2\n      pop\n      pop\n      jump\t// out\n        /* \"#utility.yul\":12910:13283   */\n    tag_90:\n        /* \"#utility.yul\":13053:13057   */\n      0x00\n        /* \"#utility.yul\":13091:13093   */\n      0x20\n        /* \"#utility.yul\":13080:13089   */\n      dup3\n        /* \"#utility.yul\":13076:13094   */\n      add\n        /* \"#utility.yul\":13068:13094   */\n      swap1\n      pop\n        /* \"#utility.yul\":13140:13149   */\n      dup2\n        /* \"#utility.yul\":13134:13138   */\n      dup2\n        /* \"#utility.yul\":13130:13150   */\n      sub\n        /* \"#utility.yul\":13126:13127   */\n      0x00\n        /* \"#utility.yul\":13115:13124   */\n      dup4\n        /* \"#utility.yul\":13111:13128   */\n      add\n        /* \"#utility.yul\":13104:13151   */\n      mstore\n        /* \"#utility.yul\":13168:13276   */\n      tag_455\n        /* \"#utility.yul\":13271:13275   */\n      dup2\n        /* \"#utility.yul\":13262:13268   */\n      dup5\n        /* \"#utility.yul\":13168:13276   */\n      tag_303\n      jump\t// in\n    tag_455:\n        /* \"#utility.yul\":13160:13276   */\n      swap1\n      pop\n        /* \"#utility.yul\":12910:13283   */\n      swap3\n      swap2\n      pop\n      pop\n      jump\t// out\n        /* \"#utility.yul\":13289:13406   */\n    tag_304:\n        /* \"#utility.yul\":13398:13399   */\n      0x00\n        /* \"#utility.yul\":13395:13396   */\n      dup1\n        /* \"#utility.yul\":13388:13400   */\n      revert\n        /* \"#utility.yul\":13412:13529   */\n    tag_305:\n        /* \"#utility.yul\":13521:13522   */\n      0x00\n        /* \"#utility.yul\":13518:13519   */\n      dup1\n        /* \"#utility.yul\":13511:13523   */\n      revert\n        /* \"#utility.yul\":13535:13715   */\n    tag_114:\n        /* \"#utility.yul\":13583:13660   */\n      0x4e487b7100000000000000000000000000000000000000000000000000000000\n        /* \"#utility.yul\":13580:13581   */\n      0x00\n        /* \"#utility.yul\":13573:13661   */\n      mstore\n        /* \"#utility.yul\":13680:13684   */\n      0x41\n        /* \"#utility.yul\":13677:13678   */\n      0x04\n        /* \"#utility.yul\":13670:13685   */\n      mstore\n        /* \"#utility.yul\":13704:13708   */\n      0x24\n        /* \"#utility.yul\":13701:13702   */\n      0x00\n        /* \"#utility.yul\":13694:13709   */\n      revert\n        /* \"#utility.yul\":13721:14002   */\n    tag_306:\n        /* \"#utility.yul\":13804:13831   */\n      tag_460\n        /* \"#utility.yul\":13826:13830   */\n      dup3\n        /* \"#utility.yul\":13804:13831   */\n      tag_279\n      jump\t// in\n    tag_460:\n        /* \"#utility.yul\":13796:13802   */\n      dup2\n        /* \"#utility.yul\":13792:13832   */\n      add\n        /* \"#utility.yul\":13934:13940   */\n      dup2\n        /* \"#utility.yul\":13922:13932   */\n      dup2\n        /* \"#utility.yul\":13919:13941   */\n      lt\n        /* \"#utility.yul\":13898:13916   */\n      0xffffffffffffffff\n        /* \"#utility.yul\":13886:13896   */\n      dup3\n        /* \"#utility.yul\":13883:13917   */\n      gt\n        /* \"#utility.yul\":13880:13942   */\n      or\n        /* \"#utility.yul\":13877:13965   */\n      iszero\n      tag_461\n      jumpi\n        /* \"#utility.yul\":13945:13963   */\n      tag_462\n      tag_114\n      jump\t// in\n    tag_462:\n        /* \"#utility.yul\":13877:13965   */\n    tag_461:\n        /* \"#utility.yul\":13985:13995   */\n      dup1\n        /* \"#utility.yul\":13981:13983   */\n      0x40\n        /* \"#utility.yul\":13974:13996   */\n      mstore\n        /* \"#utility.yul\":13764:14002   */\n      pop\n        /* \"#utility.yul\":13721:14002   */\n      pop\n      pop\n      jump\t// out\n        /* \"#utility.yul\":14008:14137   */\n    tag_307:\n        /* \"#utility.yul\":14042:14048   */\n      0x00\n        /* \"#utility.yul\":14069:14089   */\n      tag_464\n      tag_267\n      jump\t// in\n    tag_464:\n        /* \"#utility.yul\":14059:14089   */\n      swap1\n      pop\n        /* \"#utility.yul\":14098:14131   */\n      tag_465\n        /* \"#utility.yul\":14126:14130   */\n      dup3\n        /* \"#utility.yul\":14118:14124   */\n      dup3\n        /* \"#utility.yul\":14098:14131   */\n      tag_306\n      jump\t// in\n    tag_465:\n        /* \"#utility.yul\":14008:14137   */\n      swap2\n      swap1\n      pop\n      jump\t// out\n        /* \"#utility.yul\":14143:14451   */\n    tag_308:\n        /* \"#utility.yul\":14205:14209   */\n      0x00\n        /* \"#utility.yul\":14295:14313   */\n      0xffffffffffffffff\n        /* \"#utility.yul\":14287:14293   */\n      dup3\n        /* \"#utility.yul\":14284:14314   */\n      gt\n        /* \"#utility.yul\":14281:14337   */\n      iszero\n      tag_467\n      jumpi\n        /* \"#utility.yul\":14317:14335   */\n      tag_468\n      tag_114\n      jump\t// in\n    tag_468:\n        /* \"#utility.yul\":14281:14337   */\n    tag_467:\n        /* \"#utility.yul\":14355:14384   */\n      tag_469\n        /* \"#utility.yul\":14377:14383   */\n      dup3\n        /* \"#utility.yul\":14355:14384   */\n      tag_279\n      jump\t// in\n    tag_469:\n        /* \"#utility.yul\":14347:14384   */\n      swap1\n      pop\n        /* \"#utility.yul\":14439:14443   */\n      0x20\n        /* \"#utility.yul\":14433:14437   */\n      dup2\n        /* \"#utility.yul\":14429:14444   */\n      add\n        /* \"#utility.yul\":14421:14444   */\n      swap1\n      pop\n        /* \"#utility.yul\":14143:14451   */\n      swap2\n      swap1\n      pop\n      jump\t// out\n        /* \"#utility.yul\":14457:14605   */\n    tag_309:\n        /* \"#utility.yul\":14555:14561   */\n      dup3\n        /* \"#utility.yul\":14550:14553   */\n      dup2\n        /* \"#utility.yul\":14545:14548   */\n      dup4\n        /* \"#utility.yul\":14532:14562   */\n      calldatacopy\n        /* \"#utility.yul\":14596:14597   */\n      0x00\n        /* \"#utility.yul\":14587:14593   */\n      dup4\n        /* \"#utility.yul\":14582:14585   */\n      dup4\n        /* \"#utility.yul\":14578:14594   */\n      add\n        /* \"#utility.yul\":14571:14598   */\n      mstore\n        /* \"#utility.yul\":14457:14605   */\n      pop\n      pop\n      pop\n      jump\t// out\n        /* \"#utility.yul\":14611:15036   */\n    tag_310:\n        /* \"#utility.yul\":14689:14694   */\n      0x00\n        /* \"#utility.yul\":14714:14780   */\n      tag_472\n        /* \"#utility.yul\":14730:14779   */\n      tag_473\n        /* \"#utility.yul\":14772:14778   */\n      dup5\n        /* \"#utility.yul\":14730:14779   */\n      tag_308\n      jump\t// in\n    tag_473:\n        /* \"#utility.yul\":14714:14780   */\n      tag_307\n      jump\t// in\n    tag_472:\n        /* \"#utility.yul\":14705:14780   */\n      swap1\n      pop\n        /* \"#utility.yul\":14803:14809   */\n      dup3\n        /* \"#utility.yul\":14796:14801   */\n      dup2\n        /* \"#utility.yul\":14789:14810   */\n      mstore\n        /* \"#utility.yul\":14841:14845   */\n      0x20\n        /* \"#utility.yul\":14834:14839   */\n      dup2\n        /* \"#utility.yul\":14830:14846   */\n      add\n        /* \"#utility.yul\":14879:14882   */\n      dup5\n        /* \"#utility.yul\":14870:14876   */\n      dup5\n        /* \"#utility.yul\":14865:14868   */\n      dup5\n        /* \"#utility.yul\":14861:14877   */\n      add\n        /* \"#utility.yul\":14858:14883   */\n      gt\n        /* \"#utility.yul\":14855:14967   */\n      iszero\n      tag_474\n      jumpi\n        /* \"#utility.yul\":14886:14965   */\n      tag_475\n      tag_305\n      jump\t// in\n    tag_475:\n        /* \"#utility.yul\":14855:14967   */\n    tag_474:\n        /* \"#utility.yul\":14976:15030   */\n      tag_476\n        /* \"#utility.yul\":15023:15029   */\n      dup5\n        /* \"#utility.yul\":15018:15021   */\n      dup3\n        /* \"#utility.yul\":15013:15016   */\n      dup6\n        /* \"#utility.yul\":14976:15030   */\n      tag_309\n      jump\t// in\n    tag_476:\n        /* \"#utility.yul\":14695:15036   */\n      pop\n        /* \"#utility.yul\":14611:15036   */\n      swap4\n      swap3\n      pop\n      pop\n      pop\n      jump\t// out\n        /* \"#utility.yul\":15056:15396   */\n    tag_311:\n        /* \"#utility.yul\":15112:15117   */\n      0x00\n        /* \"#utility.yul\":15161:15164   */\n      dup3\n        /* \"#utility.yul\":15154:15158   */\n      0x1f\n        /* \"#utility.yul\":15146:15152   */\n      dup4\n        /* \"#utility.yul\":15142:15159   */\n      add\n        /* \"#utility.yul\":15138:15165   */\n      slt\n        /* \"#utility.yul\":15128:15250   */\n      tag_478\n      jumpi\n        /* \"#utility.yul\":15169:15248   */\n      tag_479\n      tag_304\n      jump\t// in\n    tag_479:\n        /* \"#utility.yul\":15128:15250   */\n    tag_478:\n        /* \"#utility.yul\":15286:15292   */\n      dup2\n        /* \"#utility.yul\":15273:15293   */\n      calldataload\n        /* \"#utility.yul\":15311:15390   */\n      tag_480\n        /* \"#utility.yul\":15386:15389   */\n      dup5\n        /* \"#utility.yul\":15378:15384   */\n      dup3\n        /* \"#utility.yul\":15371:15375   */\n      0x20\n        /* \"#utility.yul\":15363:15369   */\n      dup7\n        /* \"#utility.yul\":15359:15376   */\n      add\n        /* \"#utility.yul\":15311:15390   */\n      tag_310\n      jump\t// in\n    tag_480:\n        /* \"#utility.yul\":15302:15390   */\n      swap2\n      pop\n        /* \"#utility.yul\":15118:15396   */\n      pop\n        /* \"#utility.yul\":15056:15396   */\n      swap3\n      swap2\n      pop\n      pop\n      jump\t// out\n        /* \"#utility.yul\":15402:16056   */\n    tag_93:\n        /* \"#utility.yul\":15480:15486   */\n      0x00\n        /* \"#utility.yul\":15488:15494   */\n      dup1\n        /* \"#utility.yul\":15537:15539   */\n      0x40\n        /* \"#utility.yul\":15525:15534   */\n      dup4\n        /* \"#utility.yul\":15516:15523   */\n      dup6\n        /* \"#utility.yul\":15512:15535   */\n      sub\n        /* \"#utility.yul\":15508:15540   */\n      slt\n        /* \"#utility.yul\":15505:15624   */\n      iszero\n      tag_482\n      jumpi\n        /* \"#utility.yul\":15543:15622   */\n      tag_483\n      tag_268\n      jump\t// in\n    tag_483:\n        /* \"#utility.yul\":15505:15624   */\n    tag_482:\n        /* \"#utility.yul\":15691:15692   */\n      0x00\n        /* \"#utility.yul\":15680:15689   */\n      dup4\n        /* \"#utility.yul\":15676:15693   */\n      add\n        /* \"#utility.yul\":15663:15694   */\n      calldataload\n        /* \"#utility.yul\":15721:15739   */\n      0xffffffffffffffff\n        /* \"#utility.yul\":15713:15719   */\n      dup2\n        /* \"#utility.yul\":15710:15740   */\n      gt\n        /* \"#utility.yul\":15707:15824   */\n      iszero\n      tag_484\n      jumpi\n        /* \"#utility.yul\":15743:15822   */\n      tag_485\n      tag_269\n      jump\t// in\n    tag_485:\n        /* \"#utility.yul\":15707:15824   */\n    tag_484:\n        /* \"#utility.yul\":15848:15911   */\n      tag_486\n        /* \"#utility.yul\":15903:15910   */\n      dup6\n        /* \"#utility.yul\":15894:15900   */\n      dup3\n        /* \"#utility.yul\":15883:15892   */\n      dup7\n        /* \"#utility.yul\":15879:15901   */\n      add\n        /* \"#utility.yul\":15848:15911   */\n      tag_311\n      jump\t// in\n    tag_486:\n        /* \"#utility.yul\":15838:15911   */\n      swap3\n      pop\n        /* \"#utility.yul\":15634:15921   */\n      pop\n        /* \"#utility.yul\":15960:15962   */\n      0x20\n        /* \"#utility.yul\":15986:16039   */\n      tag_487\n        /* \"#utility.yul\":16031:16038   */\n      dup6\n        /* \"#utility.yul\":16022:16028   */\n      dup3\n        /* \"#utility.yul\":16011:16020   */\n      dup7\n        /* \"#utility.yul\":16007:16029   */\n      add\n        /* \"#utility.yul\":15986:16039   */\n      tag_272\n      jump\t// in\n    tag_487:\n        /* \"#utility.yul\":15976:16039   */\n      swap2\n      pop\n        /* \"#utility.yul\":15931:16049   */\n      pop\n        /* \"#utility.yul\":15402:16056   */\n      swap3\n      pop\n      swap3\n      swap1\n      pop\n      jump\t// out\n        /* \"#utility.yul\":16062:16242   */\n    tag_312:\n        /* \"#utility.yul\":16110:16187   */\n      0x4e487b7100000000000000000000000000000000000000000000000000000000\n        /* \"#utility.yul\":16107:16108   */\n      0x00\n        /* \"#utility.yul\":16100:16188   */\n      mstore\n        /* \"#utility.yul\":16207:16211   */\n      0x22\n        /* \"#utility.yul\":16204:16205   */\n      0x04\n        /* \"#utility.yul\":16197:16212   */\n      mstore\n        /* \"#utility.yul\":16231:16235   */\n      0x24\n        /* \"#utility.yul\":16228:16229   */\n      0x00\n        /* \"#utility.yul\":16221:16236   */\n      revert\n        /* \"#utility.yul\":16248:16568   */\n    tag_102:\n        /* \"#utility.yul\":16292:16298   */\n      0x00\n        /* \"#utility.yul\":16329:16330   */\n      0x02\n        /* \"#utility.yul\":16323:16327   */\n      dup3\n        /* \"#utility.yul\":16319:16331   */\n      div\n        /* \"#utility.yul\":16309:16331   */\n      swap1\n      pop\n        /* \"#utility.yul\":16376:16377   */\n      0x01\n        /* \"#utility.yul\":16370:16374   */\n      dup3\n        /* \"#utility.yul\":16366:16378   */\n      and\n        /* \"#utility.yul\":16397:16415   */\n      dup1\n        /* \"#utility.yul\":16387:16468   */\n      tag_490\n      jumpi\n        /* \"#utility.yul\":16453:16457   */\n      0x7f\n        /* \"#utility.yul\":16445:16451   */\n      dup3\n        /* \"#utility.yul\":16441:16458   */\n      and\n        /* \"#utility.yul\":16431:16458   */\n      swap2\n      pop\n        /* \"#utility.yul\":16387:16468   */\n    tag_490:\n        /* \"#utility.yul\":16515:16517   */\n      0x20\n        /* \"#utility.yul\":16507:16513   */\n      dup3\n        /* \"#utility.yul\":16504:16518   */\n      lt\n        /* \"#utility.yul\":16484:16502   */\n      dup2\n        /* \"#utility.yul\":16481:16519   */\n      sub\n        /* \"#utility.yul\":16478:16562   */\n      tag_491\n      jumpi\n        /* \"#utility.yul\":16534:16552   */\n      tag_492\n      tag_312\n      jump\t// in\n    tag_492:\n        /* \"#utility.yul\":16478:16562   */\n    tag_491:\n        /* \"#utility.yul\":16299:16568   */\n      pop\n        /* \"#utility.yul\":16248:16568   */\n      swap2\n      swap1\n      pop\n      jump\t// out\n        /* \"#utility.yul\":16574:16754   */\n    tag_313:\n        /* \"#utility.yul\":16622:16699   */\n      0x4e487b7100000000000000000000000000000000000000000000000000000000\n        /* \"#utility.yul\":16619:16620   */\n      0x00\n        /* \"#utility.yul\":16612:16700   */\n      mstore\n        /* \"#utility.yul\":16719:16723   */\n      0x11\n        /* \"#utility.yul\":16716:16717   */\n      0x04\n        /* \"#utility.yul\":16709:16724   */\n      mstore\n        /* \"#utility.yul\":16743:16747   */\n      0x24\n        /* \"#utility.yul\":16740:16741   */\n      0x00\n        /* \"#utility.yul\":16733:16748   */\n      revert\n        /* \"#utility.yul\":16760:16954   */\n    tag_111:\n        /* \"#utility.yul\":16800:16804   */\n      0x00\n        /* \"#utility.yul\":16820:16840   */\n      tag_495\n        /* \"#utility.yul\":16838:16839   */\n      dup3\n        /* \"#utility.yul\":16820:16840   */\n      tag_270\n      jump\t// in\n    tag_495:\n        /* \"#utility.yul\":16815:16840   */\n      swap2\n      pop\n        /* \"#utility.yul\":16854:16874   */\n      tag_496\n        /* \"#utility.yul\":16872:16873   */\n      dup4\n        /* \"#utility.yul\":16854:16874   */\n      tag_270\n      jump\t// in\n    tag_496:\n        /* \"#utility.yul\":16849:16874   */\n      swap3\n      pop\n        /* \"#utility.yul\":16898:16899   */\n      dup3\n        /* \"#utility.yul\":16895:16896   */\n      dup3\n        /* \"#utility.yul\":16891:16900   */\n      sub\n        /* \"#utility.yul\":16883:16900   */\n      swap1\n      pop\n        /* \"#utility.yul\":16922:16923   */\n      dup2\n        /* \"#utility.yul\":16916:16920   */\n      dup2\n        /* \"#utility.yul\":16913:16924   */\n      gt\n        /* \"#utility.yul\":16910:16947   */\n      iszero\n      tag_497\n      jumpi\n        /* \"#utility.yul\":16927:16945   */\n      tag_498\n      tag_313\n      jump\t// in\n    tag_498:\n        /* \"#utility.yul\":16910:16947   */\n    tag_497:\n        /* \"#utility.yul\":16760:16954   */\n      swap3\n      swap2\n      pop\n      pop\n      jump\t// out\n        /* \"#utility.yul\":16960:17151   */\n    tag_124:\n        /* \"#utility.yul\":17000:17003   */\n      0x00\n        /* \"#utility.yul\":17019:17039   */\n      tag_500\n        /* \"#utility.yul\":17037:17038   */\n      dup3\n        /* \"#utility.yul\":17019:17039   */\n      tag_270\n      jump\t// in\n    tag_500:\n        /* \"#utility.yul\":17014:17039   */\n      swap2\n      pop\n        /* \"#utility.yul\":17053:17073   */\n      tag_501\n        /* \"#utility.yul\":17071:17072   */\n      dup4\n        /* \"#utility.yul\":17053:17073   */\n      tag_270\n      jump\t// in\n    tag_501:\n        /* \"#utility.yul\":17048:17073   */\n      swap3\n      pop\n        /* \"#utility.yul\":17096:17097   */\n      dup3\n        /* \"#utility.yul\":17093:17094   */\n      dup3\n        /* \"#utility.yul\":17089:17098   */\n      add\n        /* \"#utility.yul\":17082:17098   */\n      swap1\n      pop\n        /* \"#utility.yul\":17117:17120   */\n      dup1\n        /* \"#utility.yul\":17114:17115   */\n      dup3\n        /* \"#utility.yul\":17111:17121   */\n      gt\n        /* \"#utility.yul\":17108:17144   */\n      iszero\n      tag_502\n      jumpi\n        /* \"#utility.yul\":17124:17142   */\n      tag_503\n      tag_313\n      jump\t// in\n    tag_503:\n        /* \"#utility.yul\":17108:17144   */\n    tag_502:\n        /* \"#utility.yul\":16960:17151   */\n      swap3\n      swap2\n      pop\n      pop\n      jump\t// out\n        /* \"#utility.yul\":17157:17337   */\n    tag_127:\n        /* \"#utility.yul\":17205:17282   */\n      0x4e487b7100000000000000000000000000000000000000000000000000000000\n        /* \"#utility.yul\":17202:17203   */\n      0x00\n        /* \"#utility.yul\":17195:17283   */\n      mstore\n        /* \"#utility.yul\":17302:17306   */\n      0x32\n        /* \"#utility.yul\":17299:17300   */\n      0x04\n        /* \"#utility.yul\":17292:17307   */\n      mstore\n        /* \"#utility.yul\":17326:17330   */\n      0x24\n        /* \"#utility.yul\":17323:17324   */\n      0x00\n        /* \"#utility.yul\":17316:17331   */\n      revert\n        /* \"#utility.yul\":17343:17520   */\n    tag_314:\n        /* \"#utility.yul\":17483:17512   */\n      0x4d65737361676520696e646578206f7574206f6620626f756e64730000000000\n        /* \"#utility.yul\":17479:17480   */\n      0x00\n        /* \"#utility.yul\":17471:17477   */\n      dup3\n        /* \"#utility.yul\":17467:17481   */\n      add\n        /* \"#utility.yul\":17460:17513   */\n      mstore\n        /* \"#utility.yul\":17343:17520   */\n      pop\n      jump\t// out\n        /* \"#utility.yul\":17526:17892   */\n    tag_315:\n        /* \"#utility.yul\":17668:17671   */\n      0x00\n        /* \"#utility.yul\":17689:17756   */\n      tag_507\n        /* \"#utility.yul\":17753:17755   */\n      0x1b\n        /* \"#utility.yul\":17748:17751   */\n      dup4\n        /* \"#utility.yul\":17689:17756   */\n      tag_277\n      jump\t// in\n    tag_507:\n        /* \"#utility.yul\":17682:17756   */\n      swap2\n      pop\n        /* \"#utility.yul\":17765:17858   */\n      tag_508\n        /* \"#utility.yul\":17854:17857   */\n      dup3\n        /* \"#utility.yul\":17765:17858   */\n      tag_314\n      jump\t// in\n    tag_508:\n        /* \"#utility.yul\":17883:17885   */\n      0x20\n        /* \"#utility.yul\":17878:17881   */\n      dup3\n        /* \"#utility.yul\":17874:17886   */\n      add\n        /* \"#utility.yul\":17867:17886   */\n      swap1\n      pop\n        /* \"#utility.yul\":17526:17892   */\n      swap2\n      swap1\n      pop\n      jump\t// out\n        /* \"#utility.yul\":17898:18317   */\n    tag_139:\n        /* \"#utility.yul\":18064:18068   */\n      0x00\n        /* \"#utility.yul\":18102:18104   */\n      0x20\n        /* \"#utility.yul\":18091:18100   */\n      dup3\n        /* \"#utility.yul\":18087:18105   */\n      add\n        /* \"#utility.yul\":18079:18105   */\n      swap1\n      pop\n        /* \"#utility.yul\":18151:18160   */\n      dup2\n        /* \"#utility.yul\":18145:18149   */\n      dup2\n        /* \"#utility.yul\":18141:18161   */\n      sub\n        /* \"#utility.yul\":18137:18138   */\n      0x00\n        /* \"#utility.yul\":18126:18135   */\n      dup4\n        /* \"#utility.yul\":18122:18139   */\n      add\n        /* \"#utility.yul\":18115:18162   */\n      mstore\n        /* \"#utility.yul\":18179:18310   */\n      tag_510\n        /* \"#utility.yul\":18305:18309   */\n      dup2\n        /* \"#utility.yul\":18179:18310   */\n      tag_315\n      jump\t// in\n    tag_510:\n        /* \"#utility.yul\":18171:18310   */\n      swap1\n      pop\n        /* \"#utility.yul\":17898:18317   */\n      swap2\n      swap1\n      pop\n      jump\t// out\n        /* \"#utility.yul\":18323:18505   */\n    tag_316:\n        /* \"#utility.yul\":18463:18497   */\n      0x55736572206d65737361676520696e646578206f7574206f6620626f756e6473\n        /* \"#utility.yul\":18459:18460   */\n      0x00\n        /* \"#utility.yul\":18451:18457   */\n      dup3\n        /* \"#utility.yul\":18447:18461   */\n      add\n        /* \"#utility.yul\":18440:18498   */\n      mstore\n        /* \"#utility.yul\":18323:18505   */\n      pop\n      jump\t// out\n        /* \"#utility.yul\":18511:18877   */\n    tag_317:\n        /* \"#utility.yul\":18653:18656   */\n      0x00\n        /* \"#utility.yul\":18674:18741   */\n      tag_513\n        /* \"#utility.yul\":18738:18740   */\n      0x20\n        /* \"#utility.yul\":18733:18736   */\n      dup4\n        /* \"#utility.yul\":18674:18741   */\n      tag_277\n      jump\t// in\n    tag_513:\n        /* \"#utility.yul\":18667:18741   */\n      swap2\n      pop\n        /* \"#utility.yul\":18750:18843   */\n      tag_514\n        /* \"#utility.yul\":18839:18842   */\n      dup3\n        /* \"#utility.yul\":18750:18843   */\n      tag_316\n      jump\t// in\n    tag_514:\n        /* \"#utility.yul\":18868:18870   */\n      0x20\n        /* \"#utility.yul\":18863:18866   */\n      dup3\n        /* \"#utility.yul\":18859:18871   */\n      add\n        /* \"#utility.yul\":18852:18871   */\n      swap1\n      pop\n        /* \"#utility.yul\":18511:18877   */\n      swap2\n      swap1\n      pop\n      jump\t// out\n        /* \"#utility.yul\":18883:19302   */\n    tag_153:\n        /* \"#utility.yul\":19049:19053   */\n      0x00\n        /* \"#utility.yul\":19087:19089   */\n      0x20\n        /* \"#utility.yul\":19076:19085   */\n      dup3\n        /* \"#utility.yul\":19072:19090   */\n      add\n        /* \"#utility.yul\":19064:19090   */\n      swap1\n      pop\n        /* \"#utility.yul\":19136:19145   */\n      dup2\n        /* \"#utility.yul\":19130:19134   */\n      dup2\n        /* \"#utility.yul\":19126:19146   */\n      sub\n        /* \"#utility.yul\":19122:19123   */\n      0x00\n        /* \"#utility.yul\":19111:19120   */\n      dup4\n        /* \"#utility.yul\":19107:19124   */\n      add\n        /* \"#utility.yul\":19100:19147   */\n      mstore\n        /* \"#utility.yul\":19164:19295   */\n      tag_516\n        /* \"#utility.yul\":19290:19294   */\n      dup2\n        /* \"#utility.yul\":19164:19295   */\n      tag_317\n      jump\t// in\n    tag_516:\n        /* \"#utility.yul\":19156:19295   */\n      swap1\n      pop\n        /* \"#utility.yul\":18883:19302   */\n      swap2\n      swap1\n      pop\n      jump\t// out\n        /* \"#utility.yul\":19308:19529   */\n    tag_318:\n        /* \"#utility.yul\":19448:19482   */\n      0x476c6f62616c206d65737361676520696e646578206f7574206f6620626f756e\n        /* \"#utility.yul\":19444:19445   */\n      0x00\n        /* \"#utility.yul\":19436:19442   */\n      dup3\n        /* \"#utility.yul\":19432:19446   */\n      add\n        /* \"#utility.yul\":19425:19483   */\n      mstore\n        /* \"#utility.yul\":19517:19521   */\n      0x6473000000000000000000000000000000000000000000000000000000000000\n        /* \"#utility.yul\":19512:19514   */\n      0x20\n        /* \"#utility.yul\":19504:19510   */\n      dup3\n        /* \"#utility.yul\":19500:19515   */\n      add\n        /* \"#utility.yul\":19493:19522   */\n      mstore\n        /* \"#utility.yul\":19308:19529   */\n      pop\n      jump\t// out\n        /* \"#utility.yul\":19535:19901   */\n    tag_319:\n        /* \"#utility.yul\":19677:19680   */\n      0x00\n        /* \"#utility.yul\":19698:19765   */\n      tag_519\n        /* \"#utility.yul\":19762:19764   */\n      0x22\n        /* \"#utility.yul\":19757:19760   */\n      dup4\n        /* \"#utility.yul\":19698:19765   */\n      tag_277\n      jump\t// in\n    tag_519:\n        /* \"#utility.yul\":19691:19765   */\n      swap2\n      pop\n        /* \"#utility.yul\":19774:19867   */\n      tag_520\n        /* \"#utility.yul\":19863:19866   */\n      dup3\n        /* \"#utility.yul\":19774:19867   */\n      tag_318\n      jump\t// in\n    tag_520:\n        /* \"#utility.yul\":19892:19894   */\n      0x40\n        /* \"#utility.yul\":19887:19890   */\n      dup3\n        /* \"#utility.yul\":19883:19895   */\n      add\n        /* \"#utility.yul\":19876:19895   */\n      swap1\n      pop\n        /* \"#utility.yul\":19535:19901   */\n      swap2\n      swap1\n      pop\n      jump\t// out\n        /* \"#utility.yul\":19907:20326   */\n    tag_159:\n        /* \"#utility.yul\":20073:20077   */\n      0x00\n        /* \"#utility.yul\":20111:20113   */\n      0x20\n        /* \"#utility.yul\":20100:20109   */\n      dup3\n        /* \"#utility.yul\":20096:20114   */\n      add\n        /* \"#utility.yul\":20088:20114   */\n      swap1\n      pop\n        /* \"#utility.yul\":20160:20169   */\n      dup2\n        /* \"#utility.yul\":20154:20158   */\n      dup2\n        /* \"#utility.yul\":20150:20170   */\n      sub\n        /* \"#utility.yul\":20146:20147   */\n      0x00\n        /* \"#utility.yul\":20135:20144   */\n      dup4\n        /* \"#utility.yul\":20131:20148   */\n      add\n        /* \"#utility.yul\":20124:20171   */\n      mstore\n        /* \"#utility.yul\":20188:20319   */\n      tag_522\n        /* \"#utility.yul\":20314:20318   */\n      dup2\n        /* \"#utility.yul\":20188:20319   */\n      tag_319\n      jump\t// in\n    tag_522:\n        /* \"#utility.yul\":20180:20319   */\n      swap1\n      pop\n        /* \"#utility.yul\":19907:20326   */\n      swap2\n      swap1\n      pop\n      jump\t// out\n        /* \"#utility.yul\":20332:20508   */\n    tag_320:\n        /* \"#utility.yul\":20472:20500   */\n      0x537461727420696e646578206f7574206f6620626f756e64732e000000000000\n        /* \"#utility.yul\":20468:20469   */\n      0x00\n        /* \"#utility.yul\":20460:20466   */\n      dup3\n        /* \"#utility.yul\":20456:20470   */\n      add\n        /* \"#utility.yul\":20449:20501   */\n      mstore\n        /* \"#utility.yul\":20332:20508   */\n      pop\n      jump\t// out\n        /* \"#utility.yul\":20514:20880   */\n    tag_321:\n        /* \"#utility.yul\":20656:20659   */\n      0x00\n        /* \"#utility.yul\":20677:20744   */\n      tag_525\n        /* \"#utility.yul\":20741:20743   */\n      0x1a\n        /* \"#utility.yul\":20736:20739   */\n      dup4\n        /* \"#utility.yul\":20677:20744   */\n      tag_277\n      jump\t// in\n    tag_525:\n        /* \"#utility.yul\":20670:20744   */\n      swap2\n      pop\n        /* \"#utility.yul\":20753:20846   */\n      tag_526\n        /* \"#utility.yul\":20842:20845   */\n      dup3\n        /* \"#utility.yul\":20753:20846   */\n      tag_320\n      jump\t// in\n    tag_526:\n        /* \"#utility.yul\":20871:20873   */\n      0x20\n        /* \"#utility.yul\":20866:20869   */\n      dup3\n        /* \"#utility.yul\":20862:20874   */\n      add\n        /* \"#utility.yul\":20855:20874   */\n      swap1\n      pop\n        /* \"#utility.yul\":20514:20880   */\n      swap2\n      swap1\n      pop\n      jump\t// out\n        /* \"#utility.yul\":20886:21305   */\n    tag_171:\n        /* \"#utility.yul\":21052:21056   */\n      0x00\n        /* \"#utility.yul\":21090:21092   */\n      0x20\n        /* \"#utility.yul\":21079:21088   */\n      dup3\n        /* \"#utility.yul\":21075:21093   */\n      add\n        /* \"#utility.yul\":21067:21093   */\n      swap1\n      pop\n        /* \"#utility.yul\":21139:21148   */\n      dup2\n        /* \"#utility.yul\":21133:21137   */\n      dup2\n        /* \"#utility.yul\":21129:21149   */\n      sub\n        /* \"#utility.yul\":21125:21126   */\n      0x00\n        /* \"#utility.yul\":21114:21123   */\n      dup4\n        /* \"#utility.yul\":21110:21127   */\n      add\n        /* \"#utility.yul\":21103:21150   */\n      mstore\n        /* \"#utility.yul\":21167:21298   */\n      tag_528\n        /* \"#utility.yul\":21293:21297   */\n      dup2\n        /* \"#utility.yul\":21167:21298   */\n      tag_321\n      jump\t// in\n    tag_528:\n        /* \"#utility.yul\":21159:21298   */\n      swap1\n      pop\n        /* \"#utility.yul\":20886:21305   */\n      swap2\n      swap1\n      pop\n      jump\t// out\n        /* \"#utility.yul\":21311:21452   */\n    tag_322:\n        /* \"#utility.yul\":21360:21364   */\n      0x00\n        /* \"#utility.yul\":21383:21386   */\n      dup2\n        /* \"#utility.yul\":21375:21386   */\n      swap1\n      pop\n        /* \"#utility.yul\":21406:21409   */\n      dup2\n        /* \"#utility.yul\":21403:21404   */\n      0x00\n        /* \"#utility.yul\":21396:21410   */\n      mstore\n        /* \"#utility.yul\":21440:21444   */\n      0x20\n        /* \"#utility.yul\":21437:21438   */\n      0x00\n        /* \"#utility.yul\":21427:21445   */\n      keccak256\n        /* \"#utility.yul\":21419:21445   */\n      swap1\n      pop\n        /* \"#utility.yul\":21311:21452   */\n      swap2\n      swap1\n      pop\n      jump\t// out\n        /* \"#utility.yul\":21458:21551   */\n    tag_323:\n        /* \"#utility.yul\":21495:21501   */\n      0x00\n        /* \"#utility.yul\":21542:21544   */\n      0x20\n        /* \"#utility.yul\":21537:21539   */\n      0x1f\n        /* \"#utility.yul\":21530:21535   */\n      dup4\n        /* \"#utility.yul\":21526:21540   */\n      add\n        /* \"#utility.yul\":21522:21545   */\n      div\n        /* \"#utility.yul\":21512:21545   */\n      swap1\n      pop\n        /* \"#utility.yul\":21458:21551   */\n      swap2\n      swap1\n      pop\n      jump\t// out\n        /* \"#utility.yul\":21557:21664   */\n    tag_324:\n        /* \"#utility.yul\":21601:21609   */\n      0x00\n        /* \"#utility.yul\":21651:21656   */\n      dup3\n        /* \"#utility.yul\":21645:21649   */\n      dup3\n        /* \"#utility.yul\":21641:21657   */\n      shl\n        /* \"#utility.yul\":21620:21657   */\n      swap1\n      pop\n        /* \"#utility.yul\":21557:21664   */\n      swap3\n      swap2\n      pop\n      pop\n      jump\t// out\n        /* \"#utility.yul\":21670:22063   */\n    tag_325:\n        /* \"#utility.yul\":21739:21745   */\n      0x00\n        /* \"#utility.yul\":21789:21790   */\n      0x08\n        /* \"#utility.yul\":21777:21787   */\n      dup4\n        /* \"#utility.yul\":21773:21791   */\n      mul\n        /* \"#utility.yul\":21812:21909   */\n      tag_533\n        /* \"#utility.yul\":21842:21908   */\n      0xffffffffffffffffffffffffffffffffffffffffffffffffffffffffffffffff\n        /* \"#utility.yul\":21831:21840   */\n      dup3\n        /* \"#utility.yul\":21812:21909   */\n      tag_324\n      jump\t// in\n    tag_533:\n        /* \"#utility.yul\":21930:21969   */\n      tag_534\n        /* \"#utility.yul\":21960:21968   */\n      dup7\n        /* \"#utility.yul\":21949:21958   */\n      dup4\n        /* \"#utility.yul\":21930:21969   */\n      tag_324\n      jump\t// in\n    tag_534:\n        /* \"#utility.yul\":21918:21969   */\n      swap6\n      pop\n        /* \"#utility.yul\":22002:22006   */\n      dup1\n        /* \"#utility.yul\":21998:22007   */\n      not\n        /* \"#utility.yul\":21991:21996   */\n      dup5\n        /* \"#utility.yul\":21987:22008   */\n      and\n        /* \"#utility.yul\":21978:22008   */\n      swap4\n      pop\n        /* \"#utility.yul\":22051:22055   */\n      dup1\n        /* \"#utility.yul\":22041:22049   */\n      dup7\n        /* \"#utility.yul\":22037:22056   */\n      and\n        /* \"#utility.yul\":22030:22035   */\n      dup5\n        /* \"#utility.yul\":22027:22057   */\n      or\n        /* \"#utility.yul\":22017:22057   */\n      swap3\n      pop\n        /* \"#utility.yul\":21746:22063   */\n      pop\n      pop\n        /* \"#utility.yul\":21670:22063   */\n      swap4\n      swap3\n      pop\n      pop\n      pop\n      jump\t// out\n        /* \"#utility.yul\":22069:22129   */\n    tag_326:\n        /* \"#utility.yul\":22097:22100   */\n      0x00\n        /* \"#utility.yul\":22118:22123   */\n      dup2\n        /* \"#utility.yul\":22111:22123   */\n      swap1\n      pop\n        /* \"#utility.yul\":22069:22129   */\n      swap2\n      swap1\n      pop\n      jump\t// out\n        /* \"#utility.yul\":22135:22277   */\n    tag_327:\n        /* \"#utility.yul\":22185:22194   */\n      0x00\n        /* \"#utility.yul\":22218:22271   */\n      tag_537\n        /* \"#utility.yul\":22236:22270   */\n      tag_538\n        /* \"#utility.yul\":22245:22269   */\n      tag_539\n        /* \"#utility.yul\":22263:22268   */\n      dup5\n        /* \"#utility.yul\":22245:22269   */\n      tag_270\n      jump\t// in\n    tag_539:\n        /* \"#utility.yul\":22236:22270   */\n      tag_326\n      jump\t// in\n    tag_538:\n        /* \"#utility.yul\":22218:22271   */\n      tag_270\n      jump\t// in\n    tag_537:\n        /* \"#utility.yul\":22205:22271   */\n      swap1\n      pop\n        /* \"#utility.yul\":22135:22277   */\n      swap2\n      swap1\n      pop\n      jump\t// out\n        /* \"#utility.yul\":22283:22358   */\n    tag_328:\n        /* \"#utility.yul\":22326:22329   */\n      0x00\n        /* \"#utility.yul\":22347:22352   */\n      dup2\n        /* \"#utility.yul\":22340:22352   */\n      swap1\n      pop\n        /* \"#utility.yul\":22283:22358   */\n      swap2\n      swap1\n      pop\n      jump\t// out\n        /* \"#utility.yul\":22364:22633   */\n    tag_329:\n        /* \"#utility.yul\":22474:22513   */\n      tag_542\n        /* \"#utility.yul\":22505:22512   */\n      dup4\n        /* \"#utility.yul\":22474:22513   */\n      tag_327\n      jump\t// in\n    tag_542:\n        /* \"#utility.yul\":22535:22626   */\n      tag_543\n        /* \"#utility.yul\":22584:22625   */\n      tag_544\n        /* \"#utility.yul\":22608:22624   */\n      dup3\n        /* \"#utility.yul\":22584:22625   */\n      tag_328\n      jump\t// in\n    tag_544:\n        /* \"#utility.yul\":22576:22582   */\n      dup5\n        /* \"#utility.yul\":22569:22573   */\n      dup5\n        /* \"#utility.yul\":22563:22574   */\n      sload\n        /* \"#utility.yul\":22535:22626   */\n      tag_325\n      jump\t// in\n    tag_543:\n        /* \"#utility.yul\":22529:22533   */\n      dup3\n        /* \"#utility.yul\":22522:22627   */\n      sstore\n        /* \"#utility.yul\":22440:22633   */\n      pop\n        /* \"#utility.yul\":22364:22633   */\n      pop\n      pop\n      pop\n      jump\t// out\n        /* \"#utility.yul\":22639:22712   */\n    tag_330:\n        /* \"#utility.yul\":22684:22687   */\n      0x00\n        /* \"#utility.yul\":22639:22712   */\n      swap1\n      jump\t// out\n        /* \"#utility.yul\":22718:22907   */\n    tag_331:\n        /* \"#utility.yul\":22795:22827   */\n      tag_547\n      tag_330\n      jump\t// in\n    tag_547:\n        /* \"#utility.yul\":22836:22901   */\n      tag_548\n        /* \"#utility.yul\":22894:22900   */\n      dup2\n        /* \"#utility.yul\":22886:22892   */\n      dup5\n        /* \"#utility.yul\":22880:22884   */\n      dup5\n        /* \"#utility.yul\":22836:22901   */\n      tag_329\n      jump\t// in\n    tag_548:\n        /* \"#utility.yul\":22771:22907   */\n      pop\n        /* \"#utility.yul\":22718:22907   */\n      pop\n      pop\n      jump\t// out\n        /* \"#utility.yul\":22913:23099   */\n    tag_332:\n        /* \"#utility.yul\":22973:23093   */\n    tag_550:\n        /* \"#utility.yul\":22990:22993   */\n      dup2\n        /* \"#utility.yul\":22983:22988   */\n      dup2\n        /* \"#utility.yul\":22980:22994   */\n      lt\n        /* \"#utility.yul\":22973:23093   */\n      iszero\n      tag_552\n      jumpi\n        /* \"#utility.yul\":23044:23083   */\n      tag_553\n        /* \"#utility.yul\":23081:23082   */\n      0x00\n        /* \"#utility.yul\":23074:23079   */\n      dup3\n        /* \"#utility.yul\":23044:23083   */\n      tag_331\n      jump\t// in\n    tag_553:\n        /* \"#utility.yul\":23017:23018   */\n      0x01\n        /* \"#utility.yul\":23010:23015   */\n      dup2\n        /* \"#utility.yul\":23006:23019   */\n      add\n        /* \"#utility.yul\":22997:23019   */\n      swap1\n      pop\n        /* \"#utility.yul\":22973:23093   */\n      jump(tag_550)\n    tag_552:\n        /* \"#utility.yul\":22913:23099   */\n      pop\n      pop\n      jump\t// out\n        /* \"#utility.yul\":23105:23648   */\n    tag_333:\n        /* \"#utility.yul\":23206:23208   */\n      0x1f\n        /* \"#utility.yul\":23201:23204   */\n      dup3\n        /* \"#utility.yul\":23198:23209   */\n      gt\n        /* \"#utility.yul\":23195:23641   */\n      iszero\n      tag_555\n      jumpi\n        /* \"#utility.yul\":23240:23278   */\n      tag_556\n        /* \"#utility.yul\":23272:23277   */\n      dup2\n        /* \"#utility.yul\":23240:23278   */\n      tag_322\n      jump\t// in\n    tag_556:\n        /* \"#utility.yul\":23324:23353   */\n      tag_557\n        /* \"#utility.yul\":23342:23352   */\n      dup5\n        /* \"#utility.yul\":23324:23353   */\n      tag_323\n      jump\t// in\n    tag_557:\n        /* \"#utility.yul\":23314:23322   */\n      dup2\n        /* \"#utility.yul\":23310:23354   */\n      add\n        /* \"#utility.yul\":23507:23509   */\n      0x20\n        /* \"#utility.yul\":23495:23505   */\n      dup6\n        /* \"#utility.yul\":23492:23510   */\n      lt\n        /* \"#utility.yul\":23489:23538   */\n      iszero\n      tag_558\n      jumpi\n        /* \"#utility.yul\":23528:23536   */\n      dup2\n        /* \"#utility.yul\":23513:23536   */\n      swap1\n      pop\n        /* \"#utility.yul\":23489:23538   */\n    tag_558:\n        /* \"#utility.yul\":23551:23631   */\n      tag_559\n        /* \"#utility.yul\":23607:23629   */\n      tag_560\n        /* \"#utility.yul\":23625:23628   */\n      dup6\n        /* \"#utility.yul\":23607:23629   */\n      tag_323\n      jump\t// in\n    tag_560:\n        /* \"#utility.yul\":23597:23605   */\n      dup4\n        /* \"#utility.yul\":23593:23630   */\n      add\n        /* \"#utility.yul\":23580:23591   */\n      dup3\n        /* \"#utility.yul\":23551:23631   */\n      tag_332\n      jump\t// in\n    tag_559:\n        /* \"#utility.yul\":23210:23641   */\n      pop\n      pop\n        /* \"#utility.yul\":23195:23641   */\n    tag_555:\n        /* \"#utility.yul\":23105:23648   */\n      pop\n      pop\n      pop\n      jump\t// out\n        /* \"#utility.yul\":23654:23771   */\n    tag_334:\n        /* \"#utility.yul\":23708:23716   */\n      0x00\n        /* \"#utility.yul\":23758:23763   */\n      dup3\n        /* \"#utility.yul\":23752:23756   */\n      dup3\n        /* \"#utility.yul\":23748:23764   */\n      shr\n        /* \"#utility.yul\":23727:23764   */\n      swap1\n      pop\n        /* \"#utility.yul\":23654:23771   */\n      swap3\n      swap2\n      pop\n      pop\n      jump\t// out\n        /* \"#utility.yul\":23777:23946   */\n    tag_335:\n        /* \"#utility.yul\":23821:23827   */\n      0x00\n        /* \"#utility.yul\":23854:23905   */\n      tag_563\n        /* \"#utility.yul\":23902:23903   */\n      0x00\n        /* \"#utility.yul\":23898:23904   */\n      not\n        /* \"#utility.yul\":23890:23895   */\n      dup5\n        /* \"#utility.yul\":23887:23888   */\n      0x08\n        /* \"#utility.yul\":23883:23896   */\n      mul\n        /* \"#utility.yul\":23854:23905   */\n      tag_334\n      jump\t// in\n    tag_563:\n        /* \"#utility.yul\":23850:23906   */\n      not\n        /* \"#utility.yul\":23935:23939   */\n      dup1\n        /* \"#utility.yul\":23929:23933   */\n      dup4\n        /* \"#utility.yul\":23925:23940   */\n      and\n        /* \"#utility.yul\":23915:23940   */\n      swap2\n      pop\n        /* \"#utility.yul\":23828:23946   */\n      pop\n        /* \"#utility.yul\":23777:23946   */\n      swap3\n      swap2\n      pop\n      pop\n      jump\t// out\n        /* \"#utility.yul\":23951:24246   */\n    tag_336:\n        /* \"#utility.yul\":24027:24031   */\n      0x00\n        /* \"#utility.yul\":24173:24202   */\n      tag_565\n        /* \"#utility.yul\":24198:24201   */\n      dup4\n        /* \"#utility.yul\":24192:24196   */\n      dup4\n        /* \"#utility.yul\":24173:24202   */\n      tag_335\n      jump\t// in\n    tag_565:\n        /* \"#utility.yul\":24165:24202   */\n      swap2\n      pop\n        /* \"#utility.yul\":24235:24238   */\n      dup3\n        /* \"#utility.yul\":24232:24233   */\n      0x02\n        /* \"#utility.yul\":24228:24239   */\n      mul\n        /* \"#utility.yul\":24222:24226   */\n      dup3\n        /* \"#utility.yul\":24219:24240   */\n      or\n        /* \"#utility.yul\":24211:24240   */\n      swap1\n      pop\n        /* \"#utility.yul\":23951:24246   */\n      swap3\n      swap2\n      pop\n      pop\n      jump\t// out\n        /* \"#utility.yul\":24251:25646   */\n    tag_244:\n        /* \"#utility.yul\":24368:24405   */\n      tag_567\n        /* \"#utility.yul\":24401:24404   */\n      dup3\n        /* \"#utility.yul\":24368:24405   */\n      tag_276\n      jump\t// in\n    tag_567:\n        /* \"#utility.yul\":24470:24488   */\n      0xffffffffffffffff\n        /* \"#utility.yul\":24462:24468   */\n      dup2\n        /* \"#utility.yul\":24459:24489   */\n      gt\n        /* \"#utility.yul\":24456:24512   */\n      iszero\n      tag_568\n      jumpi\n        /* \"#utility.yul\":24492:24510   */\n      tag_569\n      tag_114\n      jump\t// in\n    tag_569:\n        /* \"#utility.yul\":24456:24512   */\n    tag_568:\n        /* \"#utility.yul\":24536:24574   */\n      tag_570\n        /* \"#utility.yul\":24568:24572   */\n      dup3\n        /* \"#utility.yul\":24562:24573   */\n      sload\n        /* \"#utility.yul\":24536:24574   */\n      tag_102\n      jump\t// in\n    tag_570:\n        /* \"#utility.yul\":24621:24688   */\n      tag_571\n        /* \"#utility.yul\":24681:24687   */\n      dup3\n        /* \"#utility.yul\":24673:24679   */\n      dup3\n        /* \"#utility.yul\":24667:24671   */\n      dup6\n        /* \"#utility.yul\":24621:24688   */\n      tag_333\n      jump\t// in\n    tag_571:\n        /* \"#utility.yul\":24715:24716   */\n      0x00\n        /* \"#utility.yul\":24739:24743   */\n      0x20\n        /* \"#utility.yul\":24726:24743   */\n      swap1\n      pop\n        /* \"#utility.yul\":24771:24773   */\n      0x1f\n        /* \"#utility.yul\":24763:24769   */\n      dup4\n        /* \"#utility.yul\":24760:24774   */\n      gt\n        /* \"#utility.yul\":24788:24789   */\n      0x01\n        /* \"#utility.yul\":24783:25401   */\n      dup2\n      eq\n      tag_573\n      jumpi\n        /* \"#utility.yul\":25445:25446   */\n      0x00\n        /* \"#utility.yul\":25462:25468   */\n      dup5\n        /* \"#utility.yul\":25459:25536   */\n      iszero\n      tag_574\n      jumpi\n        /* \"#utility.yul\":25511:25520   */\n      dup3\n        /* \"#utility.yul\":25506:25509   */\n      dup8\n        /* \"#utility.yul\":25502:25521   */\n      add\n        /* \"#utility.yul\":25496:25522   */\n      mload\n        /* \"#utility.yul\":25487:25522   */\n      swap1\n      pop\n        /* \"#utility.yul\":25459:25536   */\n    tag_574:\n        /* \"#utility.yul\":25562:25629   */\n      tag_575\n        /* \"#utility.yul\":25622:25628   */\n      dup6\n        /* \"#utility.yul\":25615:25620   */\n      dup3\n        /* \"#utility.yul\":25562:25629   */\n      tag_336\n      jump\t// in\n    tag_575:\n        /* \"#utility.yul\":25556:25560   */\n      dup7\n        /* \"#utility.yul\":25549:25630   */\n      sstore\n        /* \"#utility.yul\":25418:25640   */\n      pop\n        /* \"#utility.yul\":24753:25640   */\n      jump(tag_572)\n        /* \"#utility.yul\":24783:25401   */\n    tag_573:\n        /* \"#utility.yul\":24835:24839   */\n      0x1f\n        /* \"#utility.yul\":24831:24840   */\n      not\n        /* \"#utility.yul\":24823:24829   */\n      dup5\n        /* \"#utility.yul\":24819:24841   */\n      and\n        /* \"#utility.yul\":24869:24906   */\n      tag_576\n        /* \"#utility.yul\":24901:24905   */\n      dup7\n        /* \"#utility.yul\":24869:24906   */\n      tag_322\n      jump\t// in\n    tag_576:\n        /* \"#utility.yul\":24928:24929   */\n      0x00\n        /* \"#utility.yul\":24942:25150   */\n    tag_577:\n        /* \"#utility.yul\":24956:24963   */\n      dup3\n        /* \"#utility.yul\":24953:24954   */\n      dup2\n        /* \"#utility.yul\":24950:24964   */\n      lt\n        /* \"#utility.yul\":24942:25150   */\n      iszero\n      tag_579\n      jumpi\n        /* \"#utility.yul\":25035:25044   */\n      dup5\n        /* \"#utility.yul\":25030:25033   */\n      dup10\n        /* \"#utility.yul\":25026:25045   */\n      add\n        /* \"#utility.yul\":25020:25046   */\n      mload\n        /* \"#utility.yul\":25012:25018   */\n      dup3\n        /* \"#utility.yul\":25005:25047   */\n      sstore\n        /* \"#utility.yul\":25086:25087   */\n      0x01\n        /* \"#utility.yul\":25078:25084   */\n      dup3\n        /* \"#utility.yul\":25074:25088   */\n      add\n        /* \"#utility.yul\":25064:25088   */\n      swap2\n      pop\n        /* \"#utility.yul\":25133:25135   */\n      0x20\n        /* \"#utility.yul\":25122:25131   */\n      dup6\n        /* \"#utility.yul\":25118:25136   */\n      add\n        /* \"#utility.yul\":25105:25136   */\n      swap5\n      pop\n        /* \"#utility.yul\":24979:24983   */\n      0x20\n        /* \"#utility.yul\":24976:24977   */\n      dup2\n        /* \"#utility.yul\":24972:24984   */\n      add\n        /* \"#utility.yul\":24967:24984   */\n      swap1\n      pop\n        /* \"#utility.yul\":24942:25150   */\n      jump(tag_577)\n    tag_579:\n        /* \"#utility.yul\":25178:25184   */\n      dup7\n        /* \"#utility.yul\":25169:25176   */\n      dup4\n        /* \"#utility.yul\":25166:25185   */\n      lt\n        /* \"#utility.yul\":25163:25342   */\n      iszero\n      tag_580\n      jumpi\n        /* \"#utility.yul\":25236:25245   */\n      dup5\n        /* \"#utility.yul\":25231:25234   */\n      dup10\n        /* \"#utility.yul\":25227:25246   */\n      add\n        /* \"#utility.yul\":25221:25247   */\n      mload\n        /* \"#utility.yul\":25279:25327   */\n      tag_581\n        /* \"#utility.yul\":25321:25325   */\n      0x1f\n        /* \"#utility.yul\":25313:25319   */\n      dup10\n        /* \"#utility.yul\":25309:25326   */\n      and\n        /* \"#utility.yul\":25298:25307   */\n      dup3\n        /* \"#utility.yul\":25279:25327   */\n      tag_335\n      jump\t// in\n    tag_581:\n        /* \"#utility.yul\":25271:25277   */\n      dup4\n        /* \"#utility.yul\":25264:25328   */\n      sstore\n        /* \"#utility.yul\":25186:25342   */\n      pop\n        /* \"#utility.yul\":25163:25342   */\n    tag_580:\n        /* \"#utility.yul\":25388:25389   */\n      0x01\n        /* \"#utility.yul\":25384:25385   */\n      0x02\n        /* \"#utility.yul\":25376:25382   */\n      dup9\n        /* \"#utility.yul\":25372:25386   */\n      mul\n        /* \"#utility.yul\":25368:25390   */\n      add\n        /* \"#utility.yul\":25362:25366   */\n      dup9\n        /* \"#utility.yul\":25355:25391   */\n      sstore\n        /* \"#utility.yul\":24790:25401   */\n      pop\n      pop\n      pop\n        /* \"#utility.yul\":24753:25640   */\n    tag_572:\n      pop\n        /* \"#utility.yul\":24343:25646   */\n      pop\n      pop\n      pop\n        /* \"#utility.yul\":24251:25646   */\n      pop\n      pop\n      jump\t// out\n        /* \"#utility.yul\":25652:26075   */\n    tag_248:\n        /* \"#utility.yul\":25793:25797   */\n      0x00\n        /* \"#utility.yul\":25831:25833   */\n      0x40\n        /* \"#utility.yul\":25820:25829   */\n      dup3\n        /* \"#utility.yul\":25816:25834   */\n      add\n        /* \"#utility.yul\":25808:25834   */\n      swap1\n      pop\n        /* \"#utility.yul\":25880:25889   */\n      dup2\n        /* \"#utility.yul\":25874:25878   */\n      dup2\n        /* \"#utility.yul\":25870:25890   */\n      sub\n        /* \"#utility.yul\":25866:25867   */\n      0x00\n        /* \"#utility.yul\":25855:25864   */\n      dup4\n        /* \"#utility.yul\":25851:25868   */\n      add\n        /* \"#utility.yul\":25844:25891   */\n      mstore\n        /* \"#utility.yul\":25908:25986   */\n      tag_583\n        /* \"#utility.yul\":25981:25985   */\n      dup2\n        /* \"#utility.yul\":25972:25978   */\n      dup6\n        /* \"#utility.yul\":25908:25986   */\n      tag_280\n      jump\t// in\n    tag_583:\n        /* \"#utility.yul\":25900:25986   */\n      swap1\n      pop\n        /* \"#utility.yul\":25996:26068   */\n      tag_584\n        /* \"#utility.yul\":26064:26066   */\n      0x20\n        /* \"#utility.yul\":26053:26062   */\n      dup4\n        /* \"#utility.yul\":26049:26067   */\n      add\n        /* \"#utility.yul\":26040:26046   */\n      dup5\n        /* \"#utility.yul\":25996:26068   */\n      tag_281\n      jump\t// in\n    tag_584:\n        /* \"#utility.yul\":25652:26075   */\n      swap4\n      swap3\n      pop\n      pop\n      pop\n      jump\t// out\n\n    auxdata: 0xa2646970667358221220b7e9a992f73c94a7cc2535468b26ba46eea9ca46b65560fbaeb2ecd0e3a52e8e64736f6c63430008190033\n}\n",
				"bytecode": {
					"linkReferences": {},
					"object": "608060405234801561000f575f80fd5b506040516124de3803806124de8339818101604052810190610031919061029e565b805f73ffffffffffffffffffffffffffffffffffffffff168173ffffffffffffffffffffffffffffffffffffffff16036100a2575f6040517f1e4fbdf700000000000000000000000000000000000000000000000000000000815260040161009991906102d8565b60405180910390fd5b6100b18161017f60201b60201c565b505f8060146101000a81548160ff0219169083151502179055505f73ffffffffffffffffffffffffffffffffffffffff168173ffffffffffffffffffffffffffffffffffffffff1603610139576040517f08c379a000000000000000000000000000000000000000000000000000000000815260040161013090610371565b60405180910390fd5b8060015f6101000a81548173ffffffffffffffffffffffffffffffffffffffff021916908373ffffffffffffffffffffffffffffffffffffffff1602179055505061038f565b5f805f9054906101000a900473ffffffffffffffffffffffffffffffffffffffff169050815f806101000a81548173ffffffffffffffffffffffffffffffffffffffff021916908373ffffffffffffffffffffffffffffffffffffffff1602179055508173ffffffffffffffffffffffffffffffffffffffff168173ffffffffffffffffffffffffffffffffffffffff167f8be0079c531659141344cd1fd0a4f28419497f9722a3daafe3b4186f6b6457e060405160405180910390a35050565b5f80fd5b5f73ffffffffffffffffffffffffffffffffffffffff82169050919050565b5f61026d82610244565b9050919050565b61027d81610263565b8114610287575f80fd5b50565b5f8151905061029881610274565b92915050565b5f602082840312156102b3576102b2610240565b5b5f6102c08482850161028a565b91505092915050565b6102d281610263565b82525050565b5f6020820190506102eb5f8301846102c9565b92915050565b5f82825260208201905092915050565b7f43686174526f6f6d46696e616e636520616464726573732063616e6e6f7420625f8201527f65207a65726f2e00000000000000000000000000000000000000000000000000602082015250565b5f61035b6027836102f1565b915061036682610301565b604082019050919050565b5f6020820190508181035f8301526103888161034f565b9050919050565b6121428061039c5f395ff3fe6080604052600436106100e7575f3560e01c8063715018a611610089578063ab7ee59011610058578063ab7ee59014610329578063ad039fad14610353578063d013bef01461038f578063f2fde38b146103ab576100e7565b8063715018a6146102715780638da5cb5b146102875780639428cda3146102b157806398d63d3d146102ed576100e7565b806331933916116100c557806331933916146101a457806336913a40146101ce57806358cad1cf1461020a5780635c975abb14610247576100e7565b80630d80fefd146100eb5780631e85e7be146101295780632024c1b714610166575b5f80fd5b3480156100f6575f80fd5b50610111600480360381019061010c91906114bd565b6103d3565b604051610120939291906115a6565b60405180910390f35b348015610134575f80fd5b5061014f600480360381019061014a91906114bd565b6104ad565b60405161015d929190611750565b60405180910390f35b348015610171575f80fd5b5061018c600480360381019061018791906114bd565b6106a3565b60405161019b939291906115a6565b60405180910390f35b3480156101af575f80fd5b506101b86107d5565b6040516101c5919061177e565b60405180910390f35b3480156101d9575f80fd5b506101f460048036038101906101ef91906117c1565b6107e1565b604051610201919061184c565b60405180910390f35b348015610215575f80fd5b50610230600480360381019061022b919061186c565b610a2f565b60405161023e929190611750565b60405180910390f35b348015610252575f80fd5b5061025b610c88565b60405161026891906118c4565b60405180910390f35b34801561027c575f80fd5b50610285610c9d565b005b348015610292575f80fd5b5061029b610cb0565b6040516102a891906118dd565b60405180910390f35b3480156102bc575f80fd5b506102d760048036038101906102d291906117c1565b610cd7565b6040516102e4919061177e565b60405180910390f35b3480156102f8575f80fd5b50610313600480360381019061030e91906118f6565b610d02565b6040516103209190611921565b60405180910390f35b348015610334575f80fd5b5061033d610f5d565b60405161034a91906118dd565b60405180910390f35b34801561035e575f80fd5b50610379600480360381019061037491906118f6565b610f82565b60405161038691906119e9565b60405180910390f35b6103a960048036038101906103a49190611b35565b611015565b005b3480156103b6575f80fd5b506103d160048036038101906103cc91906118f6565b611230565b005b600281815481106103e2575f80fd5b905f5260205f2090600302015f91509050805f015f9054906101000a900473ffffffffffffffffffffffffffffffffffffffff169080600101805461042690611bbc565b80601f016020809104026020016040519081016040528092919081815260200182805461045290611bbc565b801561049d5780601f106104745761010080835404028352916020019161049d565b820191905f5260205f20905b81548152906001019060200180831161048057829003601f168201915b5050505050908060020154905083565b60605f8060028054905090505f818511156104ca578194506104d9565b84826104d69190611c19565b90505b5f8567ffffffffffffffff8111156104f4576104f3611a11565b5b60405190808252806020026020018201604052801561052d57816020015b61051a611444565b8152602001906001900390816105125790505b5090505f5b868110156106945760028188866105499190611c19565b6105539190611c4c565b8154811061056457610563611c7f565b5b905f5260205f2090600302016040518060600160405290815f82015f9054906101000a900473ffffffffffffffffffffffffffffffffffffffff1673ffffffffffffffffffffffffffffffffffffffff1673ffffffffffffffffffffffffffffffffffffffff1681526020016001820180546105df90611bbc565b80601f016020809104026020016040519081016040528092919081815260200182805461060b90611bbc565b80156106565780601f1061062d57610100808354040283529160200191610656565b820191905f5260205f20905b81548152906001019060200180831161063957829003601f168201915b5050505050815260200160028201548152505082828151811061067c5761067b611c7f565b5b60200260200101819052508080600101915050610532565b50808294509450505050915091565b5f60605f60028054905084106106ee576040517f08c379a00000000000000000000000000000000000000000000000000000000081526004016106e590611cf6565b60405180910390fd5b5f6002858154811061070357610702611c7f565b5b905f5260205f2090600302019050805f015f9054906101000a900473ffffffffffffffffffffffffffffffffffffffff1681600101826002015481805461074990611bbc565b80601f016020809104026020016040519081016040528092919081815260200182805461077590611bbc565b80156107c05780601f10610797576101008083540402835291602001916107c0565b820191905f5260205f20905b8154815290600101906020018083116107a357829003601f168201915b50505050509150935093509350509193909250565b5f600280549050905090565b6107e9611444565b60035f8473ffffffffffffffffffffffffffffffffffffffff1673ffffffffffffffffffffffffffffffffffffffff1681526020019081526020015f2080549050821061086b576040517f08c379a000000000000000000000000000000000000000000000000000000000815260040161086290611d5e565b60405180910390fd5b5f60035f8573ffffffffffffffffffffffffffffffffffffffff1673ffffffffffffffffffffffffffffffffffffffff1681526020019081526020015f2083815481106108bb576108ba611c7f565b5b905f5260205f2001549050600280549050811061090d576040517f08c379a000000000000000000000000000000000000000000000000000000000815260040161090490611dec565b60405180910390fd5b6002818154811061092157610920611c7f565b5b905f5260205f2090600302016040518060600160405290815f82015f9054906101000a900473ffffffffffffffffffffffffffffffffffffffff1673ffffffffffffffffffffffffffffffffffffffff1673ffffffffffffffffffffffffffffffffffffffff16815260200160018201805461099c90611bbc565b80601f01602080910402602001604051908101604052809291908181526020018280546109c890611bbc565b8015610a135780601f106109ea57610100808354040283529160200191610a13565b820191905f5260205f20905b8154815290600101906020018083116109f657829003601f168201915b5050505050815260200160028201548152505091505092915050565b60605f806002805490509050808510610a7d576040517f08c379a0000000000000000000000000000000000000000000000000000000008152600401610a7490611e54565b60405180910390fd5b808486610a8a9190611c4c565b1115610a9f578481610a9c9190611c19565b93505b5f818587610aad9190611c4c565b10610ab8575f610ac5565b8486610ac49190611c4c565b5b90505f8567ffffffffffffffff811115610ae257610ae1611a11565b5b604051908082528060200260200182016040528015610b1b57816020015b610b08611444565b815260200190600190039081610b005790505b5090505f5b86811015610c775760028189610b369190611c4c565b81548110610b4757610b46611c7f565b5b905f5260205f2090600302016040518060600160405290815f82015f9054906101000a900473ffffffffffffffffffffffffffffffffffffffff1673ffffffffffffffffffffffffffffffffffffffff1673ffffffffffffffffffffffffffffffffffffffff168152602001600182018054610bc290611bbc565b80601f0160208091040260200160405190810160405280929190818152602001828054610bee90611bbc565b8015610c395780601f10610c1057610100808354040283529160200191610c39565b820191905f5260205f20905b815481529060010190602001808311610c1c57829003601f168201915b50505050508152602001600282015481525050828281518110610c5f57610c5e611c7f565b5b60200260200101819052508080600101915050610b20565b508082945094505050509250929050565b5f8060149054906101000a900460ff16905090565b610ca56112b4565b610cae5f61133b565b565b5f805f9054906101000a900473ffffffffffffffffffffffffffffffffffffffff16905090565b6003602052815f5260405f208181548110610cf0575f80fd5b905f5260205f20015f91509150505481565b60605f60035f8473ffffffffffffffffffffffffffffffffffffffff1673ffffffffffffffffffffffffffffffffffffffff1681526020019081526020015f20805480602002602001604051908101604052809291908181526020018280548015610d8a57602002820191905f5260205f20905b815481526020019060010190808311610d76575b505050505090505f815167ffffffffffffffff811115610dad57610dac611a11565b5b604051908082528060200260200182016040528015610de657816020015b610dd3611444565b815260200190600190039081610dcb5790505b5090505f5b8251811015610f52576002838281518110610e0957610e08611c7f565b5b602002602001015181548110610e2257610e21611c7f565b5b905f5260205f2090600302016040518060600160405290815f82015f9054906101000a900473ffffffffffffffffffffffffffffffffffffffff1673ffffffffffffffffffffffffffffffffffffffff1673ffffffffffffffffffffffffffffffffffffffff168152602001600182018054610e9d90611bbc565b80601f0160208091040260200160405190810160405280929190818152602001828054610ec990611bbc565b8015610f145780601f10610eeb57610100808354040283529160200191610f14565b820191905f5260205f20905b815481529060010190602001808311610ef757829003601f168201915b50505050508152602001600282015481525050828281518110610f3a57610f39611c7f565b5b60200260200101819052508080600101915050610deb565b508092505050919050565b60015f9054906101000a900473ffffffffffffffffffffffffffffffffffffffff1681565b606060035f8373ffffffffffffffffffffffffffffffffffffffff1673ffffffffffffffffffffffffffffffffffffffff1681526020019081526020015f2080548060200260200160405190810160405280929190818152602001828054801561100957602002820191905f5260205f20905b815481526020019060010190808311610ff5575b50505050509050919050565b61101d6113fc565b60015f9054906101000a900473ffffffffffffffffffffffffffffffffffffffff1673ffffffffffffffffffffffffffffffffffffffff16633a2f848534836040518363ffffffff1660e01b8152600401611078919061177e565b5f604051808303818588803b15801561108f575f80fd5b505af11580156110a1573d5f803e3d5ffd5b5050505050600260405180606001604052803373ffffffffffffffffffffffffffffffffffffffff16815260200184815260200142815250908060018154018082558091505060019003905f5260205f2090600302015f909190919091505f820151815f015f6101000a81548173ffffffffffffffffffffffffffffffffffffffff021916908373ffffffffffffffffffffffffffffffffffffffff1602179055506020820151816001019081611158919061200f565b506040820151816002015550505f60016002805490506111789190611c19565b905060035f3373ffffffffffffffffffffffffffffffffffffffff1673ffffffffffffffffffffffffffffffffffffffff1681526020019081526020015f2081908060018154018082558091505060019003905f5260205f20015f90919091909150553373ffffffffffffffffffffffffffffffffffffffff167f4816bdd3b9d39acdd4da0ae7412d5523081e916c6a56e481063e475b86ef7c5b84426040516112239291906120de565b60405180910390a2505050565b6112386112b4565b5f73ffffffffffffffffffffffffffffffffffffffff168173ffffffffffffffffffffffffffffffffffffffff16036112a8575f6040517f1e4fbdf700000000000000000000000000000000000000000000000000000000815260040161129f91906118dd565b60405180910390fd5b6112b18161133b565b50565b6112bc61143d565b73ffffffffffffffffffffffffffffffffffffffff166112da610cb0565b73ffffffffffffffffffffffffffffffffffffffff1614611339576112fd61143d565b6040517f118cdaa700000000000000000000000000000000000000000000000000000000815260040161133091906118dd565b60405180910390fd5b565b5f805f9054906101000a900473ffffffffffffffffffffffffffffffffffffffff169050815f806101000a81548173ffffffffffffffffffffffffffffffffffffffff021916908373ffffffffffffffffffffffffffffffffffffffff1602179055508173ffffffffffffffffffffffffffffffffffffffff168173ffffffffffffffffffffffffffffffffffffffff167f8be0079c531659141344cd1fd0a4f28419497f9722a3daafe3b4186f6b6457e060405160405180910390a35050565b611404610c88565b1561143b576040517fd93c066500000000000000000000000000000000000000000000000000000000815260040160405180910390fd5b565b5f33905090565b60405180606001604052805f73ffffffffffffffffffffffffffffffffffffffff168152602001606081526020015f81525090565b5f604051905090565b5f80fd5b5f80fd5b5f819050919050565b61149c8161148a565b81146114a6575f80fd5b50565b5f813590506114b781611493565b92915050565b5f602082840312156114d2576114d1611482565b5b5f6114df848285016114a9565b91505092915050565b5f73ffffffffffffffffffffffffffffffffffffffff82169050919050565b5f611511826114e8565b9050919050565b61152181611507565b82525050565b5f81519050919050565b5f82825260208201905092915050565b8281835e5f83830152505050565b5f601f19601f8301169050919050565b5f61156982611527565b6115738185611531565b9350611583818560208601611541565b61158c8161154f565b840191505092915050565b6115a08161148a565b82525050565b5f6060820190506115b95f830186611518565b81810360208301526115cb818561155f565b90506115da6040830184611597565b949350505050565b5f81519050919050565b5f82825260208201905092915050565b5f819050602082019050919050565b61161481611507565b82525050565b5f82825260208201905092915050565b5f61163482611527565b61163e818561161a565b935061164e818560208601611541565b6116578161154f565b840191505092915050565b61166b8161148a565b82525050565b5f606083015f8301516116865f86018261160b565b506020830151848203602086015261169e828261162a565b91505060408301516116b36040860182611662565b508091505092915050565b5f6116c98383611671565b905092915050565b5f602082019050919050565b5f6116e7826115e2565b6116f181856115ec565b935083602082028501611703856115fc565b805f5b8581101561173e578484038952815161171f85826116be565b945061172a836116d1565b925060208a01995050600181019050611706565b50829750879550505050505092915050565b5f6040820190508181035f83015261176881856116dd565b90506117776020830184611597565b9392505050565b5f6020820190506117915f830184611597565b92915050565b6117a081611507565b81146117aa575f80fd5b50565b5f813590506117bb81611797565b92915050565b5f80604083850312156117d7576117d6611482565b5b5f6117e4858286016117ad565b92505060206117f5858286016114a9565b9150509250929050565b5f606083015f8301516118145f86018261160b565b506020830151848203602086015261182c828261162a565b91505060408301516118416040860182611662565b508091505092915050565b5f6020820190508181035f83015261186481846117ff565b905092915050565b5f806040838503121561188257611881611482565b5b5f61188f858286016114a9565b92505060206118a0858286016114a9565b9150509250929050565b5f8115159050919050565b6118be816118aa565b82525050565b5f6020820190506118d75f8301846118b5565b92915050565b5f6020820190506118f05f830184611518565b92915050565b5f6020828403121561190b5761190a611482565b5b5f611918848285016117ad565b91505092915050565b5f6020820190508181035f83015261193981846116dd565b905092915050565b5f81519050919050565b5f82825260208201905092915050565b5f819050602082019050919050565b5f6119758383611662565b60208301905092915050565b5f602082019050919050565b5f61199782611941565b6119a1818561194b565b93506119ac8361195b565b805f5b838110156119dc5781516119c3888261196a565b97506119ce83611981565b9250506001810190506119af565b5085935050505092915050565b5f6020820190508181035f830152611a01818461198d565b905092915050565b5f80fd5b5f80fd5b7f4e487b71000000000000000000000000000000000000000000000000000000005f52604160045260245ffd5b611a478261154f565b810181811067ffffffffffffffff82111715611a6657611a65611a11565b5b80604052505050565b5f611a78611479565b9050611a848282611a3e565b919050565b5f67ffffffffffffffff821115611aa357611aa2611a11565b5b611aac8261154f565b9050602081019050919050565b828183375f83830152505050565b5f611ad9611ad484611a89565b611a6f565b905082815260208101848484011115611af557611af4611a0d565b5b611b00848285611ab9565b509392505050565b5f82601f830112611b1c57611b1b611a09565b5b8135611b2c848260208601611ac7565b91505092915050565b5f8060408385031215611b4b57611b4a611482565b5b5f83013567ffffffffffffffff811115611b6857611b67611486565b5b611b7485828601611b08565b9250506020611b85858286016114a9565b9150509250929050565b7f4e487b71000000000000000000000000000000000000000000000000000000005f52602260045260245ffd5b5f6002820490506001821680611bd357607f821691505b602082108103611be657611be5611b8f565b5b50919050565b7f4e487b71000000000000000000000000000000000000000000000000000000005f52601160045260245ffd5b5f611c238261148a565b9150611c2e8361148a565b9250828203905081811115611c4657611c45611bec565b5b92915050565b5f611c568261148a565b9150611c618361148a565b9250828201905080821115611c7957611c78611bec565b5b92915050565b7f4e487b71000000000000000000000000000000000000000000000000000000005f52603260045260245ffd5b7f4d65737361676520696e646578206f7574206f6620626f756e647300000000005f82015250565b5f611ce0601b83611531565b9150611ceb82611cac565b602082019050919050565b5f6020820190508181035f830152611d0d81611cd4565b9050919050565b7f55736572206d65737361676520696e646578206f7574206f6620626f756e64735f82015250565b5f611d48602083611531565b9150611d5382611d14565b602082019050919050565b5f6020820190508181035f830152611d7581611d3c565b9050919050565b7f476c6f62616c206d65737361676520696e646578206f7574206f6620626f756e5f8201527f6473000000000000000000000000000000000000000000000000000000000000602082015250565b5f611dd6602283611531565b9150611de182611d7c565b604082019050919050565b5f6020820190508181035f830152611e0381611dca565b9050919050565b7f537461727420696e646578206f7574206f6620626f756e64732e0000000000005f82015250565b5f611e3e601a83611531565b9150611e4982611e0a565b602082019050919050565b5f6020820190508181035f830152611e6b81611e32565b9050919050565b5f819050815f5260205f209050919050565b5f6020601f8301049050919050565b5f82821b905092915050565b5f60088302611ece7fffffffffffffffffffffffffffffffffffffffffffffffffffffffffffffffff82611e93565b611ed88683611e93565b95508019841693508086168417925050509392505050565b5f819050919050565b5f611f13611f0e611f098461148a565b611ef0565b61148a565b9050919050565b5f819050919050565b611f2c83611ef9565b611f40611f3882611f1a565b848454611e9f565b825550505050565b5f90565b611f54611f48565b611f5f818484611f23565b505050565b5b81811015611f8257611f775f82611f4c565b600181019050611f65565b5050565b601f821115611fc757611f9881611e72565b611fa184611e84565b81016020851015611fb0578190505b611fc4611fbc85611e84565b830182611f64565b50505b505050565b5f82821c905092915050565b5f611fe75f1984600802611fcc565b1980831691505092915050565b5f611fff8383611fd8565b9150826002028217905092915050565b61201882611527565b67ffffffffffffffff81111561203157612030611a11565b5b61203b8254611bbc565b612046828285611f86565b5f60209050601f831160018114612077575f8415612065578287015190505b61206f8582611ff4565b8655506120d6565b601f19841661208586611e72565b5f5b828110156120ac57848901518255600182019150602085019450602081019050612087565b868310156120c957848901516120c5601f891682611fd8565b8355505b6001600288020188555050505b505050505050565b5f6040820190508181035f8301526120f6818561155f565b90506121056020830184611597565b939250505056fea2646970667358221220b7e9a992f73c94a7cc2535468b26ba46eea9ca46b65560fbaeb2ecd0e3a52e8e64736f6c63430008190033",
					"opcodes": "PUSH1 0x80 PUSH1 0x40 MSTORE CALLVALUE DUP1 ISZERO PUSH2 0xF JUMPI PUSH0 DUP1 REVERT JUMPDEST POP PUSH1 0x40 MLOAD PUSH2 0x24DE CODESIZE SUB DUP1 PUSH2 0x24DE DUP4 CODECOPY DUP2 DUP2 ADD PUSH1 0x40 MSTORE DUP2 ADD SWAP1 PUSH2 0x31 SWAP2 SWAP1 PUSH2 0x29E JUMP JUMPDEST DUP1 PUSH0 PUSH20 0xFFFFFFFFFFFFFFFFFFFFFFFFFFFFFFFFFFFFFFFF AND DUP2 PUSH20 0xFFFFFFFFFFFFFFFFFFFFFFFFFFFFFFFFFFFFFFFF AND SUB PUSH2 0xA2 JUMPI PUSH0 PUSH1 0x40 MLOAD PUSH32 0x1E4FBDF700000000000000000000000000000000000000000000000000000000 DUP2 MSTORE PUSH1 0x4 ADD PUSH2 0x99 SWAP2 SWAP1 PUSH2 0x2D8 JUMP JUMPDEST PUSH1 0x40 MLOAD DUP1 SWAP2 SUB SWAP1 REVERT JUMPDEST PUSH2 0xB1 DUP2 PUSH2 0x17F PUSH1 0x20 SHL PUSH1 0x20 SHR JUMP JUMPDEST POP PUSH0 DUP1 PUSH1 0x14 PUSH2 0x100 EXP DUP2 SLOAD DUP2 PUSH1 0xFF MUL NOT AND SWAP1 DUP4 ISZERO ISZERO MUL OR SWAP1 SSTORE POP PUSH0 PUSH20 0xFFFFFFFFFFFFFFFFFFFFFFFFFFFFFFFFFFFFFFFF AND DUP2 PUSH20 0xFFFFFFFFFFFFFFFFFFFFFFFFFFFFFFFFFFFFFFFF AND SUB PUSH2 0x139 JUMPI PUSH1 0x40 MLOAD PUSH32 0x8C379A000000000000000000000000000000000000000000000000000000000 DUP2 MSTORE PUSH1 0x4 ADD PUSH2 0x130 SWAP1 PUSH2 0x371 JUMP JUMPDEST PUSH1 0x40 MLOAD DUP1 SWAP2 SUB SWAP1 REVERT JUMPDEST DUP1 PUSH1 0x1 PUSH0 PUSH2 0x100 EXP DUP2 SLOAD DUP2 PUSH20 0xFFFFFFFFFFFFFFFFFFFFFFFFFFFFFFFFFFFFFFFF MUL NOT AND SWAP1 DUP4 PUSH20 0xFFFFFFFFFFFFFFFFFFFFFFFFFFFFFFFFFFFFFFFF AND MUL OR SWAP1 SSTORE POP POP PUSH2 0x38F JUMP JUMPDEST PUSH0 DUP1 PUSH0 SWAP1 SLOAD SWAP1 PUSH2 0x100 EXP SWAP1 DIV PUSH20 0xFFFFFFFFFFFFFFFFFFFFFFFFFFFFFFFFFFFFFFFF AND SWAP1 POP DUP2 PUSH0 DUP1 PUSH2 0x100 EXP DUP2 SLOAD DUP2 PUSH20 0xFFFFFFFFFFFFFFFFFFFFFFFFFFFFFFFFFFFFFFFF MUL NOT AND SWAP1 DUP4 PUSH20 0xFFFFFFFFFFFFFFFFFFFFFFFFFFFFFFFFFFFFFFFF AND MUL OR SWAP1 SSTORE POP DUP2 PUSH20 0xFFFFFFFFFFFFFFFFFFFFFFFFFFFFFFFFFFFFFFFF AND DUP2 PUSH20 0xFFFFFFFFFFFFFFFFFFFFFFFFFFFFFFFFFFFFFFFF AND PUSH32 0x8BE0079C531659141344CD1FD0A4F28419497F9722A3DAAFE3B4186F6B6457E0 PUSH1 0x40 MLOAD PUSH1 0x40 MLOAD DUP1 SWAP2 SUB SWAP1 LOG3 POP POP JUMP JUMPDEST PUSH0 DUP1 REVERT JUMPDEST PUSH0 PUSH20 0xFFFFFFFFFFFFFFFFFFFFFFFFFFFFFFFFFFFFFFFF DUP3 AND SWAP1 POP SWAP2 SWAP1 POP JUMP JUMPDEST PUSH0 PUSH2 0x26D DUP3 PUSH2 0x244 JUMP JUMPDEST SWAP1 POP SWAP2 SWAP1 POP JUMP JUMPDEST PUSH2 0x27D DUP2 PUSH2 0x263 JUMP JUMPDEST DUP2 EQ PUSH2 0x287 JUMPI PUSH0 DUP1 REVERT JUMPDEST POP JUMP JUMPDEST PUSH0 DUP2 MLOAD SWAP1 POP PUSH2 0x298 DUP2 PUSH2 0x274 JUMP JUMPDEST SWAP3 SWAP2 POP POP JUMP JUMPDEST PUSH0 PUSH1 0x20 DUP3 DUP5 SUB SLT ISZERO PUSH2 0x2B3 JUMPI PUSH2 0x2B2 PUSH2 0x240 JUMP JUMPDEST JUMPDEST PUSH0 PUSH2 0x2C0 DUP5 DUP3 DUP6 ADD PUSH2 0x28A JUMP JUMPDEST SWAP2 POP POP SWAP3 SWAP2 POP POP JUMP JUMPDEST PUSH2 0x2D2 DUP2 PUSH2 0x263 JUMP JUMPDEST DUP3 MSTORE POP POP JUMP JUMPDEST PUSH0 PUSH1 0x20 DUP3 ADD SWAP1 POP PUSH2 0x2EB PUSH0 DUP4 ADD DUP5 PUSH2 0x2C9 JUMP JUMPDEST SWAP3 SWAP2 POP POP JUMP JUMPDEST PUSH0 DUP3 DUP3 MSTORE PUSH1 0x20 DUP3 ADD SWAP1 POP SWAP3 SWAP2 POP POP JUMP JUMPDEST PUSH32 0x43686174526F6F6D46696E616E636520616464726573732063616E6E6F742062 PUSH0 DUP3 ADD MSTORE PUSH32 0x65207A65726F2E00000000000000000000000000000000000000000000000000 PUSH1 0x20 DUP3 ADD MSTORE POP JUMP JUMPDEST PUSH0 PUSH2 0x35B PUSH1 0x27 DUP4 PUSH2 0x2F1 JUMP JUMPDEST SWAP2 POP PUSH2 0x366 DUP3 PUSH2 0x301 JUMP JUMPDEST PUSH1 0x40 DUP3 ADD SWAP1 POP SWAP2 SWAP1 POP JUMP JUMPDEST PUSH0 PUSH1 0x20 DUP3 ADD SWAP1 POP DUP2 DUP2 SUB PUSH0 DUP4 ADD MSTORE PUSH2 0x388 DUP2 PUSH2 0x34F JUMP JUMPDEST SWAP1 POP SWAP2 SWAP1 POP JUMP JUMPDEST PUSH2 0x2142 DUP1 PUSH2 0x39C PUSH0 CODECOPY PUSH0 RETURN INVALID PUSH1 0x80 PUSH1 0x40 MSTORE PUSH1 0x4 CALLDATASIZE LT PUSH2 0xE7 JUMPI PUSH0 CALLDATALOAD PUSH1 0xE0 SHR DUP1 PUSH4 0x715018A6 GT PUSH2 0x89 JUMPI DUP1 PUSH4 0xAB7EE590 GT PUSH2 0x58 JUMPI DUP1 PUSH4 0xAB7EE590 EQ PUSH2 0x329 JUMPI DUP1 PUSH4 0xAD039FAD EQ PUSH2 0x353 JUMPI DUP1 PUSH4 0xD013BEF0 EQ PUSH2 0x38F JUMPI DUP1 PUSH4 0xF2FDE38B EQ PUSH2 0x3AB JUMPI PUSH2 0xE7 JUMP JUMPDEST DUP1 PUSH4 0x715018A6 EQ PUSH2 0x271 JUMPI DUP1 PUSH4 0x8DA5CB5B EQ PUSH2 0x287 JUMPI DUP1 PUSH4 0x9428CDA3 EQ PUSH2 0x2B1 JUMPI DUP1 PUSH4 0x98D63D3D EQ PUSH2 0x2ED JUMPI PUSH2 0xE7 JUMP JUMPDEST DUP1 PUSH4 0x31933916 GT PUSH2 0xC5 JUMPI DUP1 PUSH4 0x31933916 EQ PUSH2 0x1A4 JUMPI DUP1 PUSH4 0x36913A40 EQ PUSH2 0x1CE JUMPI DUP1 PUSH4 0x58CAD1CF EQ PUSH2 0x20A JUMPI DUP1 PUSH4 0x5C975ABB EQ PUSH2 0x247 JUMPI PUSH2 0xE7 JUMP JUMPDEST DUP1 PUSH4 0xD80FEFD EQ PUSH2 0xEB JUMPI DUP1 PUSH4 0x1E85E7BE EQ PUSH2 0x129 JUMPI DUP1 PUSH4 0x2024C1B7 EQ PUSH2 0x166 JUMPI JUMPDEST PUSH0 DUP1 REVERT JUMPDEST CALLVALUE DUP1 ISZERO PUSH2 0xF6 JUMPI PUSH0 DUP1 REVERT JUMPDEST POP PUSH2 0x111 PUSH1 0x4 DUP1 CALLDATASIZE SUB DUP2 ADD SWAP1 PUSH2 0x10C SWAP2 SWAP1 PUSH2 0x14BD JUMP JUMPDEST PUSH2 0x3D3 JUMP JUMPDEST PUSH1 0x40 MLOAD PUSH2 0x120 SWAP4 SWAP3 SWAP2 SWAP1 PUSH2 0x15A6 JUMP JUMPDEST PUSH1 0x40 MLOAD DUP1 SWAP2 SUB SWAP1 RETURN JUMPDEST CALLVALUE DUP1 ISZERO PUSH2 0x134 JUMPI PUSH0 DUP1 REVERT JUMPDEST POP PUSH2 0x14F PUSH1 0x4 DUP1 CALLDATASIZE SUB DUP2 ADD SWAP1 PUSH2 0x14A SWAP2 SWAP1 PUSH2 0x14BD JUMP JUMPDEST PUSH2 0x4AD JUMP JUMPDEST PUSH1 0x40 MLOAD PUSH2 0x15D SWAP3 SWAP2 SWAP1 PUSH2 0x1750 JUMP JUMPDEST PUSH1 0x40 MLOAD DUP1 SWAP2 SUB SWAP1 RETURN JUMPDEST CALLVALUE DUP1 ISZERO PUSH2 0x171 JUMPI PUSH0 DUP1 REVERT JUMPDEST POP PUSH2 0x18C PUSH1 0x4 DUP1 CALLDATASIZE SUB DUP2 ADD SWAP1 PUSH2 0x187 SWAP2 SWAP1 PUSH2 0x14BD JUMP JUMPDEST PUSH2 0x6A3 JUMP JUMPDEST PUSH1 0x40 MLOAD PUSH2 0x19B SWAP4 SWAP3 SWAP2 SWAP1 PUSH2 0x15A6 JUMP JUMPDEST PUSH1 0x40 MLOAD DUP1 SWAP2 SUB SWAP1 RETURN JUMPDEST CALLVALUE DUP1 ISZERO PUSH2 0x1AF JUMPI PUSH0 DUP1 REVERT JUMPDEST POP PUSH2 0x1B8 PUSH2 0x7D5 JUMP JUMPDEST PUSH1 0x40 MLOAD PUSH2 0x1C5 SWAP2 SWAP1 PUSH2 0x177E JUMP JUMPDEST PUSH1 0x40 MLOAD DUP1 SWAP2 SUB SWAP1 RETURN JUMPDEST CALLVALUE DUP1 ISZERO PUSH2 0x1D9 JUMPI PUSH0 DUP1 REVERT JUMPDEST POP PUSH2 0x1F4 PUSH1 0x4 DUP1 CALLDATASIZE SUB DUP2 ADD SWAP1 PUSH2 0x1EF SWAP2 SWAP1 PUSH2 0x17C1 JUMP JUMPDEST PUSH2 0x7E1 JUMP JUMPDEST PUSH1 0x40 MLOAD PUSH2 0x201 SWAP2 SWAP1 PUSH2 0x184C JUMP JUMPDEST PUSH1 0x40 MLOAD DUP1 SWAP2 SUB SWAP1 RETURN JUMPDEST CALLVALUE DUP1 ISZERO PUSH2 0x215 JUMPI PUSH0 DUP1 REVERT JUMPDEST POP PUSH2 0x230 PUSH1 0x4 DUP1 CALLDATASIZE SUB DUP2 ADD SWAP1 PUSH2 0x22B SWAP2 SWAP1 PUSH2 0x186C JUMP JUMPDEST PUSH2 0xA2F JUMP JUMPDEST PUSH1 0x40 MLOAD PUSH2 0x23E SWAP3 SWAP2 SWAP1 PUSH2 0x1750 JUMP JUMPDEST PUSH1 0x40 MLOAD DUP1 SWAP2 SUB SWAP1 RETURN JUMPDEST CALLVALUE DUP1 ISZERO PUSH2 0x252 JUMPI PUSH0 DUP1 REVERT JUMPDEST POP PUSH2 0x25B PUSH2 0xC88 JUMP JUMPDEST PUSH1 0x40 MLOAD PUSH2 0x268 SWAP2 SWAP1 PUSH2 0x18C4 JUMP JUMPDEST PUSH1 0x40 MLOAD DUP1 SWAP2 SUB SWAP1 RETURN JUMPDEST CALLVALUE DUP1 ISZERO PUSH2 0x27C JUMPI PUSH0 DUP1 REVERT JUMPDEST POP PUSH2 0x285 PUSH2 0xC9D JUMP JUMPDEST STOP JUMPDEST CALLVALUE DUP1 ISZERO PUSH2 0x292 JUMPI PUSH0 DUP1 REVERT JUMPDEST POP PUSH2 0x29B PUSH2 0xCB0 JUMP JUMPDEST PUSH1 0x40 MLOAD PUSH2 0x2A8 SWAP2 SWAP1 PUSH2 0x18DD JUMP JUMPDEST PUSH1 0x40 MLOAD DUP1 SWAP2 SUB SWAP1 RETURN JUMPDEST CALLVALUE DUP1 ISZERO PUSH2 0x2BC JUMPI PUSH0 DUP1 REVERT JUMPDEST POP PUSH2 0x2D7 PUSH1 0x4 DUP1 CALLDATASIZE SUB DUP2 ADD SWAP1 PUSH2 0x2D2 SWAP2 SWAP1 PUSH2 0x17C1 JUMP JUMPDEST PUSH2 0xCD7 JUMP JUMPDEST PUSH1 0x40 MLOAD PUSH2 0x2E4 SWAP2 SWAP1 PUSH2 0x177E JUMP JUMPDEST PUSH1 0x40 MLOAD DUP1 SWAP2 SUB SWAP1 RETURN JUMPDEST CALLVALUE DUP1 ISZERO PUSH2 0x2F8 JUMPI PUSH0 DUP1 REVERT JUMPDEST POP PUSH2 0x313 PUSH1 0x4 DUP1 CALLDATASIZE SUB DUP2 ADD SWAP1 PUSH2 0x30E SWAP2 SWAP1 PUSH2 0x18F6 JUMP JUMPDEST PUSH2 0xD02 JUMP JUMPDEST PUSH1 0x40 MLOAD PUSH2 0x320 SWAP2 SWAP1 PUSH2 0x1921 JUMP JUMPDEST PUSH1 0x40 MLOAD DUP1 SWAP2 SUB SWAP1 RETURN JUMPDEST CALLVALUE DUP1 ISZERO PUSH2 0x334 JUMPI PUSH0 DUP1 REVERT JUMPDEST POP PUSH2 0x33D PUSH2 0xF5D JUMP JUMPDEST PUSH1 0x40 MLOAD PUSH2 0x34A SWAP2 SWAP1 PUSH2 0x18DD JUMP JUMPDEST PUSH1 0x40 MLOAD DUP1 SWAP2 SUB SWAP1 RETURN JUMPDEST CALLVALUE DUP1 ISZERO PUSH2 0x35E JUMPI PUSH0 DUP1 REVERT JUMPDEST POP PUSH2 0x379 PUSH1 0x4 DUP1 CALLDATASIZE SUB DUP2 ADD SWAP1 PUSH2 0x374 SWAP2 SWAP1 PUSH2 0x18F6 JUMP JUMPDEST PUSH2 0xF82 JUMP JUMPDEST PUSH1 0x40 MLOAD PUSH2 0x386 SWAP2 SWAP1 PUSH2 0x19E9 JUMP JUMPDEST PUSH1 0x40 MLOAD DUP1 SWAP2 SUB SWAP1 RETURN JUMPDEST PUSH2 0x3A9 PUSH1 0x4 DUP1 CALLDATASIZE SUB DUP2 ADD SWAP1 PUSH2 0x3A4 SWAP2 SWAP1 PUSH2 0x1B35 JUMP JUMPDEST PUSH2 0x1015 JUMP JUMPDEST STOP JUMPDEST CALLVALUE DUP1 ISZERO PUSH2 0x3B6 JUMPI PUSH0 DUP1 REVERT JUMPDEST POP PUSH2 0x3D1 PUSH1 0x4 DUP1 CALLDATASIZE SUB DUP2 ADD SWAP1 PUSH2 0x3CC SWAP2 SWAP1 PUSH2 0x18F6 JUMP JUMPDEST PUSH2 0x1230 JUMP JUMPDEST STOP JUMPDEST PUSH1 0x2 DUP2 DUP2 SLOAD DUP2 LT PUSH2 0x3E2 JUMPI PUSH0 DUP1 REVERT JUMPDEST SWAP1 PUSH0 MSTORE PUSH1 0x20 PUSH0 KECCAK256 SWAP1 PUSH1 0x3 MUL ADD PUSH0 SWAP2 POP SWAP1 POP DUP1 PUSH0 ADD PUSH0 SWAP1 SLOAD SWAP1 PUSH2 0x100 EXP SWAP1 DIV PUSH20 0xFFFFFFFFFFFFFFFFFFFFFFFFFFFFFFFFFFFFFFFF AND SWAP1 DUP1 PUSH1 0x1 ADD DUP1 SLOAD PUSH2 0x426 SWAP1 PUSH2 0x1BBC JUMP JUMPDEST DUP1 PUSH1 0x1F ADD PUSH1 0x20 DUP1 SWAP2 DIV MUL PUSH1 0x20 ADD PUSH1 0x40 MLOAD SWAP1 DUP2 ADD PUSH1 0x40 MSTORE DUP1 SWAP3 SWAP2 SWAP1 DUP2 DUP2 MSTORE PUSH1 0x20 ADD DUP3 DUP1 SLOAD PUSH2 0x452 SWAP1 PUSH2 0x1BBC JUMP JUMPDEST DUP1 ISZERO PUSH2 0x49D JUMPI DUP1 PUSH1 0x1F LT PUSH2 0x474 JUMPI PUSH2 0x100 DUP1 DUP4 SLOAD DIV MUL DUP4 MSTORE SWAP2 PUSH1 0x20 ADD SWAP2 PUSH2 0x49D JUMP JUMPDEST DUP3 ADD SWAP2 SWAP1 PUSH0 MSTORE PUSH1 0x20 PUSH0 KECCAK256 SWAP1 JUMPDEST DUP2 SLOAD DUP2 MSTORE SWAP1 PUSH1 0x1 ADD SWAP1 PUSH1 0x20 ADD DUP1 DUP4 GT PUSH2 0x480 JUMPI DUP3 SWAP1 SUB PUSH1 0x1F AND DUP3 ADD SWAP2 JUMPDEST POP POP POP POP POP SWAP1 DUP1 PUSH1 0x2 ADD SLOAD SWAP1 POP DUP4 JUMP JUMPDEST PUSH1 0x60 PUSH0 DUP1 PUSH1 0x2 DUP1 SLOAD SWAP1 POP SWAP1 POP PUSH0 DUP2 DUP6 GT ISZERO PUSH2 0x4CA JUMPI DUP2 SWAP5 POP PUSH2 0x4D9 JUMP JUMPDEST DUP5 DUP3 PUSH2 0x4D6 SWAP2 SWAP1 PUSH2 0x1C19 JUMP JUMPDEST SWAP1 POP JUMPDEST PUSH0 DUP6 PUSH8 0xFFFFFFFFFFFFFFFF DUP2 GT ISZERO PUSH2 0x4F4 JUMPI PUSH2 0x4F3 PUSH2 0x1A11 JUMP JUMPDEST JUMPDEST PUSH1 0x40 MLOAD SWAP1 DUP1 DUP3 MSTORE DUP1 PUSH1 0x20 MUL PUSH1 0x20 ADD DUP3 ADD PUSH1 0x40 MSTORE DUP1 ISZERO PUSH2 0x52D JUMPI DUP2 PUSH1 0x20 ADD JUMPDEST PUSH2 0x51A PUSH2 0x1444 JUMP JUMPDEST DUP2 MSTORE PUSH1 0x20 ADD SWAP1 PUSH1 0x1 SWAP1 SUB SWAP1 DUP2 PUSH2 0x512 JUMPI SWAP1 POP JUMPDEST POP SWAP1 POP PUSH0 JUMPDEST DUP7 DUP2 LT ISZERO PUSH2 0x694 JUMPI PUSH1 0x2 DUP2 DUP9 DUP7 PUSH2 0x549 SWAP2 SWAP1 PUSH2 0x1C19 JUMP JUMPDEST PUSH2 0x553 SWAP2 SWAP1 PUSH2 0x1C4C JUMP JUMPDEST DUP2 SLOAD DUP2 LT PUSH2 0x564 JUMPI PUSH2 0x563 PUSH2 0x1C7F JUMP JUMPDEST JUMPDEST SWAP1 PUSH0 MSTORE PUSH1 0x20 PUSH0 KECCAK256 SWAP1 PUSH1 0x3 MUL ADD PUSH1 0x40 MLOAD DUP1 PUSH1 0x60 ADD PUSH1 0x40 MSTORE SWAP1 DUP2 PUSH0 DUP3 ADD PUSH0 SWAP1 SLOAD SWAP1 PUSH2 0x100 EXP SWAP1 DIV PUSH20 0xFFFFFFFFFFFFFFFFFFFFFFFFFFFFFFFFFFFFFFFF AND PUSH20 0xFFFFFFFFFFFFFFFFFFFFFFFFFFFFFFFFFFFFFFFF AND PUSH20 0xFFFFFFFFFFFFFFFFFFFFFFFFFFFFFFFFFFFFFFFF AND DUP2 MSTORE PUSH1 0x20 ADD PUSH1 0x1 DUP3 ADD DUP1 SLOAD PUSH2 0x5DF SWAP1 PUSH2 0x1BBC JUMP JUMPDEST DUP1 PUSH1 0x1F ADD PUSH1 0x20 DUP1 SWAP2 DIV MUL PUSH1 0x20 ADD PUSH1 0x40 MLOAD SWAP1 DUP2 ADD PUSH1 0x40 MSTORE DUP1 SWAP3 SWAP2 SWAP1 DUP2 DUP2 MSTORE PUSH1 0x20 ADD DUP3 DUP1 SLOAD PUSH2 0x60B SWAP1 PUSH2 0x1BBC JUMP JUMPDEST DUP1 ISZERO PUSH2 0x656 JUMPI DUP1 PUSH1 0x1F LT PUSH2 0x62D JUMPI PUSH2 0x100 DUP1 DUP4 SLOAD DIV MUL DUP4 MSTORE SWAP2 PUSH1 0x20 ADD SWAP2 PUSH2 0x656 JUMP JUMPDEST DUP3 ADD SWAP2 SWAP1 PUSH0 MSTORE PUSH1 0x20 PUSH0 KECCAK256 SWAP1 JUMPDEST DUP2 SLOAD DUP2 MSTORE SWAP1 PUSH1 0x1 ADD SWAP1 PUSH1 0x20 ADD DUP1 DUP4 GT PUSH2 0x639 JUMPI DUP3 SWAP1 SUB PUSH1 0x1F AND DUP3 ADD SWAP2 JUMPDEST POP POP POP POP POP DUP2 MSTORE PUSH1 0x20 ADD PUSH1 0x2 DUP3 ADD SLOAD DUP2 MSTORE POP POP DUP3 DUP3 DUP2 MLOAD DUP2 LT PUSH2 0x67C JUMPI PUSH2 0x67B PUSH2 0x1C7F JUMP JUMPDEST JUMPDEST PUSH1 0x20 MUL PUSH1 0x20 ADD ADD DUP2 SWAP1 MSTORE POP DUP1 DUP1 PUSH1 0x1 ADD SWAP2 POP POP PUSH2 0x532 JUMP JUMPDEST POP DUP1 DUP3 SWAP5 POP SWAP5 POP POP POP POP SWAP2 POP SWAP2 JUMP JUMPDEST PUSH0 PUSH1 0x60 PUSH0 PUSH1 0x2 DUP1 SLOAD SWAP1 POP DUP5 LT PUSH2 0x6EE JUMPI PUSH1 0x40 MLOAD PUSH32 0x8C379A000000000000000000000000000000000000000000000000000000000 DUP2 MSTORE PUSH1 0x4 ADD PUSH2 0x6E5 SWAP1 PUSH2 0x1CF6 JUMP JUMPDEST PUSH1 0x40 MLOAD DUP1 SWAP2 SUB SWAP1 REVERT JUMPDEST PUSH0 PUSH1 0x2 DUP6 DUP2 SLOAD DUP2 LT PUSH2 0x703 JUMPI PUSH2 0x702 PUSH2 0x1C7F JUMP JUMPDEST JUMPDEST SWAP1 PUSH0 MSTORE PUSH1 0x20 PUSH0 KECCAK256 SWAP1 PUSH1 0x3 MUL ADD SWAP1 POP DUP1 PUSH0 ADD PUSH0 SWAP1 SLOAD SWAP1 PUSH2 0x100 EXP SWAP1 DIV PUSH20 0xFFFFFFFFFFFFFFFFFFFFFFFFFFFFFFFFFFFFFFFF AND DUP2 PUSH1 0x1 ADD DUP3 PUSH1 0x2 ADD SLOAD DUP2 DUP1 SLOAD PUSH2 0x749 SWAP1 PUSH2 0x1BBC JUMP JUMPDEST DUP1 PUSH1 0x1F ADD PUSH1 0x20 DUP1 SWAP2 DIV MUL PUSH1 0x20 ADD PUSH1 0x40 MLOAD SWAP1 DUP2 ADD PUSH1 0x40 MSTORE DUP1 SWAP3 SWAP2 SWAP1 DUP2 DUP2 MSTORE PUSH1 0x20 ADD DUP3 DUP1 SLOAD PUSH2 0x775 SWAP1 PUSH2 0x1BBC JUMP JUMPDEST DUP1 ISZERO PUSH2 0x7C0 JUMPI DUP1 PUSH1 0x1F LT PUSH2 0x797 JUMPI PUSH2 0x100 DUP1 DUP4 SLOAD DIV MUL DUP4 MSTORE SWAP2 PUSH1 0x20 ADD SWAP2 PUSH2 0x7C0 JUMP JUMPDEST DUP3 ADD SWAP2 SWAP1 PUSH0 MSTORE PUSH1 0x20 PUSH0 KECCAK256 SWAP1 JUMPDEST DUP2 SLOAD DUP2 MSTORE SWAP1 PUSH1 0x1 ADD SWAP1 PUSH1 0x20 ADD DUP1 DUP4 GT PUSH2 0x7A3 JUMPI DUP3 SWAP1 SUB PUSH1 0x1F AND DUP3 ADD SWAP2 JUMPDEST POP POP POP POP POP SWAP2 POP SWAP4 POP SWAP4 POP SWAP4 POP POP SWAP2 SWAP4 SWAP1 SWAP3 POP JUMP JUMPDEST PUSH0 PUSH1 0x2 DUP1 SLOAD SWAP1 POP SWAP1 POP SWAP1 JUMP JUMPDEST PUSH2 0x7E9 PUSH2 0x1444 JUMP JUMPDEST PUSH1 0x3 PUSH0 DUP5 PUSH20 0xFFFFFFFFFFFFFFFFFFFFFFFFFFFFFFFFFFFFFFFF AND PUSH20 0xFFFFFFFFFFFFFFFFFFFFFFFFFFFFFFFFFFFFFFFF AND DUP2 MSTORE PUSH1 0x20 ADD SWAP1 DUP2 MSTORE PUSH1 0x20 ADD PUSH0 KECCAK256 DUP1 SLOAD SWAP1 POP DUP3 LT PUSH2 0x86B JUMPI PUSH1 0x40 MLOAD PUSH32 0x8C379A000000000000000000000000000000000000000000000000000000000 DUP2 MSTORE PUSH1 0x4 ADD PUSH2 0x862 SWAP1 PUSH2 0x1D5E JUMP JUMPDEST PUSH1 0x40 MLOAD DUP1 SWAP2 SUB SWAP1 REVERT JUMPDEST PUSH0 PUSH1 0x3 PUSH0 DUP6 PUSH20 0xFFFFFFFFFFFFFFFFFFFFFFFFFFFFFFFFFFFFFFFF AND PUSH20 0xFFFFFFFFFFFFFFFFFFFFFFFFFFFFFFFFFFFFFFFF AND DUP2 MSTORE PUSH1 0x20 ADD SWAP1 DUP2 MSTORE PUSH1 0x20 ADD PUSH0 KECCAK256 DUP4 DUP2 SLOAD DUP2 LT PUSH2 0x8BB JUMPI PUSH2 0x8BA PUSH2 0x1C7F JUMP JUMPDEST JUMPDEST SWAP1 PUSH0 MSTORE PUSH1 0x20 PUSH0 KECCAK256 ADD SLOAD SWAP1 POP PUSH1 0x2 DUP1 SLOAD SWAP1 POP DUP2 LT PUSH2 0x90D JUMPI PUSH1 0x40 MLOAD PUSH32 0x8C379A000000000000000000000000000000000000000000000000000000000 DUP2 MSTORE PUSH1 0x4 ADD PUSH2 0x904 SWAP1 PUSH2 0x1DEC JUMP JUMPDEST PUSH1 0x40 MLOAD DUP1 SWAP2 SUB SWAP1 REVERT JUMPDEST PUSH1 0x2 DUP2 DUP2 SLOAD DUP2 LT PUSH2 0x921 JUMPI PUSH2 0x920 PUSH2 0x1C7F JUMP JUMPDEST JUMPDEST SWAP1 PUSH0 MSTORE PUSH1 0x20 PUSH0 KECCAK256 SWAP1 PUSH1 0x3 MUL ADD PUSH1 0x40 MLOAD DUP1 PUSH1 0x60 ADD PUSH1 0x40 MSTORE SWAP1 DUP2 PUSH0 DUP3 ADD PUSH0 SWAP1 SLOAD SWAP1 PUSH2 0x100 EXP SWAP1 DIV PUSH20 0xFFFFFFFFFFFFFFFFFFFFFFFFFFFFFFFFFFFFFFFF AND PUSH20 0xFFFFFFFFFFFFFFFFFFFFFFFFFFFFFFFFFFFFFFFF AND PUSH20 0xFFFFFFFFFFFFFFFFFFFFFFFFFFFFFFFFFFFFFFFF AND DUP2 MSTORE PUSH1 0x20 ADD PUSH1 0x1 DUP3 ADD DUP1 SLOAD PUSH2 0x99C SWAP1 PUSH2 0x1BBC JUMP JUMPDEST DUP1 PUSH1 0x1F ADD PUSH1 0x20 DUP1 SWAP2 DIV MUL PUSH1 0x20 ADD PUSH1 0x40 MLOAD SWAP1 DUP2 ADD PUSH1 0x40 MSTORE DUP1 SWAP3 SWAP2 SWAP1 DUP2 DUP2 MSTORE PUSH1 0x20 ADD DUP3 DUP1 SLOAD PUSH2 0x9C8 SWAP1 PUSH2 0x1BBC JUMP JUMPDEST DUP1 ISZERO PUSH2 0xA13 JUMPI DUP1 PUSH1 0x1F LT PUSH2 0x9EA JUMPI PUSH2 0x100 DUP1 DUP4 SLOAD DIV MUL DUP4 MSTORE SWAP2 PUSH1 0x20 ADD SWAP2 PUSH2 0xA13 JUMP JUMPDEST DUP3 ADD SWAP2 SWAP1 PUSH0 MSTORE PUSH1 0x20 PUSH0 KECCAK256 SWAP1 JUMPDEST DUP2 SLOAD DUP2 MSTORE SWAP1 PUSH1 0x1 ADD SWAP1 PUSH1 0x20 ADD DUP1 DUP4 GT PUSH2 0x9F6 JUMPI DUP3 SWAP1 SUB PUSH1 0x1F AND DUP3 ADD SWAP2 JUMPDEST POP POP POP POP POP DUP2 MSTORE PUSH1 0x20 ADD PUSH1 0x2 DUP3 ADD SLOAD DUP2 MSTORE POP POP SWAP2 POP POP SWAP3 SWAP2 POP POP JUMP JUMPDEST PUSH1 0x60 PUSH0 DUP1 PUSH1 0x2 DUP1 SLOAD SWAP1 POP SWAP1 POP DUP1 DUP6 LT PUSH2 0xA7D JUMPI PUSH1 0x40 MLOAD PUSH32 0x8C379A000000000000000000000000000000000000000000000000000000000 DUP2 MSTORE PUSH1 0x4 ADD PUSH2 0xA74 SWAP1 PUSH2 0x1E54 JUMP JUMPDEST PUSH1 0x40 MLOAD DUP1 SWAP2 SUB SWAP1 REVERT JUMPDEST DUP1 DUP5 DUP7 PUSH2 0xA8A SWAP2 SWAP1 PUSH2 0x1C4C JUMP JUMPDEST GT ISZERO PUSH2 0xA9F JUMPI DUP5 DUP2 PUSH2 0xA9C SWAP2 SWAP1 PUSH2 0x1C19 JUMP JUMPDEST SWAP4 POP JUMPDEST PUSH0 DUP2 DUP6 DUP8 PUSH2 0xAAD SWAP2 SWAP1 PUSH2 0x1C4C JUMP JUMPDEST LT PUSH2 0xAB8 JUMPI PUSH0 PUSH2 0xAC5 JUMP JUMPDEST DUP5 DUP7 PUSH2 0xAC4 SWAP2 SWAP1 PUSH2 0x1C4C JUMP JUMPDEST JUMPDEST SWAP1 POP PUSH0 DUP6 PUSH8 0xFFFFFFFFFFFFFFFF DUP2 GT ISZERO PUSH2 0xAE2 JUMPI PUSH2 0xAE1 PUSH2 0x1A11 JUMP JUMPDEST JUMPDEST PUSH1 0x40 MLOAD SWAP1 DUP1 DUP3 MSTORE DUP1 PUSH1 0x20 MUL PUSH1 0x20 ADD DUP3 ADD PUSH1 0x40 MSTORE DUP1 ISZERO PUSH2 0xB1B JUMPI DUP2 PUSH1 0x20 ADD JUMPDEST PUSH2 0xB08 PUSH2 0x1444 JUMP JUMPDEST DUP2 MSTORE PUSH1 0x20 ADD SWAP1 PUSH1 0x1 SWAP1 SUB SWAP1 DUP2 PUSH2 0xB00 JUMPI SWAP1 POP JUMPDEST POP SWAP1 POP PUSH0 JUMPDEST DUP7 DUP2 LT ISZERO PUSH2 0xC77 JUMPI PUSH1 0x2 DUP2 DUP10 PUSH2 0xB36 SWAP2 SWAP1 PUSH2 0x1C4C JUMP JUMPDEST DUP2 SLOAD DUP2 LT PUSH2 0xB47 JUMPI PUSH2 0xB46 PUSH2 0x1C7F JUMP JUMPDEST JUMPDEST SWAP1 PUSH0 MSTORE PUSH1 0x20 PUSH0 KECCAK256 SWAP1 PUSH1 0x3 MUL ADD PUSH1 0x40 MLOAD DUP1 PUSH1 0x60 ADD PUSH1 0x40 MSTORE SWAP1 DUP2 PUSH0 DUP3 ADD PUSH0 SWAP1 SLOAD SWAP1 PUSH2 0x100 EXP SWAP1 DIV PUSH20 0xFFFFFFFFFFFFFFFFFFFFFFFFFFFFFFFFFFFFFFFF AND PUSH20 0xFFFFFFFFFFFFFFFFFFFFFFFFFFFFFFFFFFFFFFFF AND PUSH20 0xFFFFFFFFFFFFFFFFFFFFFFFFFFFFFFFFFFFFFFFF AND DUP2 MSTORE PUSH1 0x20 ADD PUSH1 0x1 DUP3 ADD DUP1 SLOAD PUSH2 0xBC2 SWAP1 PUSH2 0x1BBC JUMP JUMPDEST DUP1 PUSH1 0x1F ADD PUSH1 0x20 DUP1 SWAP2 DIV MUL PUSH1 0x20 ADD PUSH1 0x40 MLOAD SWAP1 DUP2 ADD PUSH1 0x40 MSTORE DUP1 SWAP3 SWAP2 SWAP1 DUP2 DUP2 MSTORE PUSH1 0x20 ADD DUP3 DUP1 SLOAD PUSH2 0xBEE SWAP1 PUSH2 0x1BBC JUMP JUMPDEST DUP1 ISZERO PUSH2 0xC39 JUMPI DUP1 PUSH1 0x1F LT PUSH2 0xC10 JUMPI PUSH2 0x100 DUP1 DUP4 SLOAD DIV MUL DUP4 MSTORE SWAP2 PUSH1 0x20 ADD SWAP2 PUSH2 0xC39 JUMP JUMPDEST DUP3 ADD SWAP2 SWAP1 PUSH0 MSTORE PUSH1 0x20 PUSH0 KECCAK256 SWAP1 JUMPDEST DUP2 SLOAD DUP2 MSTORE SWAP1 PUSH1 0x1 ADD SWAP1 PUSH1 0x20 ADD DUP1 DUP4 GT PUSH2 0xC1C JUMPI DUP3 SWAP1 SUB PUSH1 0x1F AND DUP3 ADD SWAP2 JUMPDEST POP POP POP POP POP DUP2 MSTORE PUSH1 0x20 ADD PUSH1 0x2 DUP3 ADD SLOAD DUP2 MSTORE POP POP DUP3 DUP3 DUP2 MLOAD DUP2 LT PUSH2 0xC5F JUMPI PUSH2 0xC5E PUSH2 0x1C7F JUMP JUMPDEST JUMPDEST PUSH1 0x20 MUL PUSH1 0x20 ADD ADD DUP2 SWAP1 MSTORE POP DUP1 DUP1 PUSH1 0x1 ADD SWAP2 POP POP PUSH2 0xB20 JUMP JUMPDEST POP DUP1 DUP3 SWAP5 POP SWAP5 POP POP POP POP SWAP3 POP SWAP3 SWAP1 POP JUMP JUMPDEST PUSH0 DUP1 PUSH1 0x14 SWAP1 SLOAD SWAP1 PUSH2 0x100 EXP SWAP1 DIV PUSH1 0xFF AND SWAP1 POP SWAP1 JUMP JUMPDEST PUSH2 0xCA5 PUSH2 0x12B4 JUMP JUMPDEST PUSH2 0xCAE PUSH0 PUSH2 0x133B JUMP JUMPDEST JUMP JUMPDEST PUSH0 DUP1 PUSH0 SWAP1 SLOAD SWAP1 PUSH2 0x100 EXP SWAP1 DIV PUSH20 0xFFFFFFFFFFFFFFFFFFFFFFFFFFFFFFFFFFFFFFFF AND SWAP1 POP SWAP1 JUMP JUMPDEST PUSH1 0x3 PUSH1 0x20 MSTORE DUP2 PUSH0 MSTORE PUSH1 0x40 PUSH0 KECCAK256 DUP2 DUP2 SLOAD DUP2 LT PUSH2 0xCF0 JUMPI PUSH0 DUP1 REVERT JUMPDEST SWAP1 PUSH0 MSTORE PUSH1 0x20 PUSH0 KECCAK256 ADD PUSH0 SWAP2 POP SWAP2 POP POP SLOAD DUP2 JUMP JUMPDEST PUSH1 0x60 PUSH0 PUSH1 0x3 PUSH0 DUP5 PUSH20 0xFFFFFFFFFFFFFFFFFFFFFFFFFFFFFFFFFFFFFFFF AND PUSH20 0xFFFFFFFFFFFFFFFFFFFFFFFFFFFFFFFFFFFFFFFF AND DUP2 MSTORE PUSH1 0x20 ADD SWAP1 DUP2 MSTORE PUSH1 0x20 ADD PUSH0 KECCAK256 DUP1 SLOAD DUP1 PUSH1 0x20 MUL PUSH1 0x20 ADD PUSH1 0x40 MLOAD SWAP1 DUP2 ADD PUSH1 0x40 MSTORE DUP1 SWAP3 SWAP2 SWAP1 DUP2 DUP2 MSTORE PUSH1 0x20 ADD DUP3 DUP1 SLOAD DUP1 ISZERO PUSH2 0xD8A JUMPI PUSH1 0x20 MUL DUP3 ADD SWAP2 SWAP1 PUSH0 MSTORE PUSH1 0x20 PUSH0 KECCAK256 SWAP1 JUMPDEST DUP2 SLOAD DUP2 MSTORE PUSH1 0x20 ADD SWAP1 PUSH1 0x1 ADD SWAP1 DUP1 DUP4 GT PUSH2 0xD76 JUMPI JUMPDEST POP POP POP POP POP SWAP1 POP PUSH0 DUP2 MLOAD PUSH8 0xFFFFFFFFFFFFFFFF DUP2 GT ISZERO PUSH2 0xDAD JUMPI PUSH2 0xDAC PUSH2 0x1A11 JUMP JUMPDEST JUMPDEST PUSH1 0x40 MLOAD SWAP1 DUP1 DUP3 MSTORE DUP1 PUSH1 0x20 MUL PUSH1 0x20 ADD DUP3 ADD PUSH1 0x40 MSTORE DUP1 ISZERO PUSH2 0xDE6 JUMPI DUP2 PUSH1 0x20 ADD JUMPDEST PUSH2 0xDD3 PUSH2 0x1444 JUMP JUMPDEST DUP2 MSTORE PUSH1 0x20 ADD SWAP1 PUSH1 0x1 SWAP1 SUB SWAP1 DUP2 PUSH2 0xDCB JUMPI SWAP1 POP JUMPDEST POP SWAP1 POP PUSH0 JUMPDEST DUP3 MLOAD DUP2 LT ISZERO PUSH2 0xF52 JUMPI PUSH1 0x2 DUP4 DUP3 DUP2 MLOAD DUP2 LT PUSH2 0xE09 JUMPI PUSH2 0xE08 PUSH2 0x1C7F JUMP JUMPDEST JUMPDEST PUSH1 0x20 MUL PUSH1 0x20 ADD ADD MLOAD DUP2 SLOAD DUP2 LT PUSH2 0xE22 JUMPI PUSH2 0xE21 PUSH2 0x1C7F JUMP JUMPDEST JUMPDEST SWAP1 PUSH0 MSTORE PUSH1 0x20 PUSH0 KECCAK256 SWAP1 PUSH1 0x3 MUL ADD PUSH1 0x40 MLOAD DUP1 PUSH1 0x60 ADD PUSH1 0x40 MSTORE SWAP1 DUP2 PUSH0 DUP3 ADD PUSH0 SWAP1 SLOAD SWAP1 PUSH2 0x100 EXP SWAP1 DIV PUSH20 0xFFFFFFFFFFFFFFFFFFFFFFFFFFFFFFFFFFFFFFFF AND PUSH20 0xFFFFFFFFFFFFFFFFFFFFFFFFFFFFFFFFFFFFFFFF AND PUSH20 0xFFFFFFFFFFFFFFFFFFFFFFFFFFFFFFFFFFFFFFFF AND DUP2 MSTORE PUSH1 0x20 ADD PUSH1 0x1 DUP3 ADD DUP1 SLOAD PUSH2 0xE9D SWAP1 PUSH2 0x1BBC JUMP JUMPDEST DUP1 PUSH1 0x1F ADD PUSH1 0x20 DUP1 SWAP2 DIV MUL PUSH1 0x20 ADD PUSH1 0x40 MLOAD SWAP1 DUP2 ADD PUSH1 0x40 MSTORE DUP1 SWAP3 SWAP2 SWAP1 DUP2 DUP2 MSTORE PUSH1 0x20 ADD DUP3 DUP1 SLOAD PUSH2 0xEC9 SWAP1 PUSH2 0x1BBC JUMP JUMPDEST DUP1 ISZERO PUSH2 0xF14 JUMPI DUP1 PUSH1 0x1F LT PUSH2 0xEEB JUMPI PUSH2 0x100 DUP1 DUP4 SLOAD DIV MUL DUP4 MSTORE SWAP2 PUSH1 0x20 ADD SWAP2 PUSH2 0xF14 JUMP JUMPDEST DUP3 ADD SWAP2 SWAP1 PUSH0 MSTORE PUSH1 0x20 PUSH0 KECCAK256 SWAP1 JUMPDEST DUP2 SLOAD DUP2 MSTORE SWAP1 PUSH1 0x1 ADD SWAP1 PUSH1 0x20 ADD DUP1 DUP4 GT PUSH2 0xEF7 JUMPI DUP3 SWAP1 SUB PUSH1 0x1F AND DUP3 ADD SWAP2 JUMPDEST POP POP POP POP POP DUP2 MSTORE PUSH1 0x20 ADD PUSH1 0x2 DUP3 ADD SLOAD DUP2 MSTORE POP POP DUP3 DUP3 DUP2 MLOAD DUP2 LT PUSH2 0xF3A JUMPI PUSH2 0xF39 PUSH2 0x1C7F JUMP JUMPDEST JUMPDEST PUSH1 0x20 MUL PUSH1 0x20 ADD ADD DUP2 SWAP1 MSTORE POP DUP1 DUP1 PUSH1 0x1 ADD SWAP2 POP POP PUSH2 0xDEB JUMP JUMPDEST POP DUP1 SWAP3 POP POP POP SWAP2 SWAP1 POP JUMP JUMPDEST PUSH1 0x1 PUSH0 SWAP1 SLOAD SWAP1 PUSH2 0x100 EXP SWAP1 DIV PUSH20 0xFFFFFFFFFFFFFFFFFFFFFFFFFFFFFFFFFFFFFFFF AND DUP2 JUMP JUMPDEST PUSH1 0x60 PUSH1 0x3 PUSH0 DUP4 PUSH20 0xFFFFFFFFFFFFFFFFFFFFFFFFFFFFFFFFFFFFFFFF AND PUSH20 0xFFFFFFFFFFFFFFFFFFFFFFFFFFFFFFFFFFFFFFFF AND DUP2 MSTORE PUSH1 0x20 ADD SWAP1 DUP2 MSTORE PUSH1 0x20 ADD PUSH0 KECCAK256 DUP1 SLOAD DUP1 PUSH1 0x20 MUL PUSH1 0x20 ADD PUSH1 0x40 MLOAD SWAP1 DUP2 ADD PUSH1 0x40 MSTORE DUP1 SWAP3 SWAP2 SWAP1 DUP2 DUP2 MSTORE PUSH1 0x20 ADD DUP3 DUP1 SLOAD DUP1 ISZERO PUSH2 0x1009 JUMPI PUSH1 0x20 MUL DUP3 ADD SWAP2 SWAP1 PUSH0 MSTORE PUSH1 0x20 PUSH0 KECCAK256 SWAP1 JUMPDEST DUP2 SLOAD DUP2 MSTORE PUSH1 0x20 ADD SWAP1 PUSH1 0x1 ADD SWAP1 DUP1 DUP4 GT PUSH2 0xFF5 JUMPI JUMPDEST POP POP POP POP POP SWAP1 POP SWAP2 SWAP1 POP JUMP JUMPDEST PUSH2 0x101D PUSH2 0x13FC JUMP JUMPDEST PUSH1 0x1 PUSH0 SWAP1 SLOAD SWAP1 PUSH2 0x100 EXP SWAP1 DIV PUSH20 0xFFFFFFFFFFFFFFFFFFFFFFFFFFFFFFFFFFFFFFFF AND PUSH20 0xFFFFFFFFFFFFFFFFFFFFFFFFFFFFFFFFFFFFFFFF AND PUSH4 0x3A2F8485 CALLVALUE DUP4 PUSH1 0x40 MLOAD DUP4 PUSH4 0xFFFFFFFF AND PUSH1 0xE0 SHL DUP2 MSTORE PUSH1 0x4 ADD PUSH2 0x1078 SWAP2 SWAP1 PUSH2 0x177E JUMP JUMPDEST PUSH0 PUSH1 0x40 MLOAD DUP1 DUP4 SUB DUP2 DUP6 DUP9 DUP1 EXTCODESIZE ISZERO DUP1 ISZERO PUSH2 0x108F JUMPI PUSH0 DUP1 REVERT JUMPDEST POP GAS CALL ISZERO DUP1 ISZERO PUSH2 0x10A1 JUMPI RETURNDATASIZE PUSH0 DUP1 RETURNDATACOPY RETURNDATASIZE PUSH0 REVERT JUMPDEST POP POP POP POP POP PUSH1 0x2 PUSH1 0x40 MLOAD DUP1 PUSH1 0x60 ADD PUSH1 0x40 MSTORE DUP1 CALLER PUSH20 0xFFFFFFFFFFFFFFFFFFFFFFFFFFFFFFFFFFFFFFFF AND DUP2 MSTORE PUSH1 0x20 ADD DUP5 DUP2 MSTORE PUSH1 0x20 ADD TIMESTAMP DUP2 MSTORE POP SWAP1 DUP1 PUSH1 0x1 DUP2 SLOAD ADD DUP1 DUP3 SSTORE DUP1 SWAP2 POP POP PUSH1 0x1 SWAP1 SUB SWAP1 PUSH0 MSTORE PUSH1 0x20 PUSH0 KECCAK256 SWAP1 PUSH1 0x3 MUL ADD PUSH0 SWAP1 SWAP2 SWAP1 SWAP2 SWAP1 SWAP2 POP PUSH0 DUP3 ADD MLOAD DUP2 PUSH0 ADD PUSH0 PUSH2 0x100 EXP DUP2 SLOAD DUP2 PUSH20 0xFFFFFFFFFFFFFFFFFFFFFFFFFFFFFFFFFFFFFFFF MUL NOT AND SWAP1 DUP4 PUSH20 0xFFFFFFFFFFFFFFFFFFFFFFFFFFFFFFFFFFFFFFFF AND MUL OR SWAP1 SSTORE POP PUSH1 0x20 DUP3 ADD MLOAD DUP2 PUSH1 0x1 ADD SWAP1 DUP2 PUSH2 0x1158 SWAP2 SWAP1 PUSH2 0x200F JUMP JUMPDEST POP PUSH1 0x40 DUP3 ADD MLOAD DUP2 PUSH1 0x2 ADD SSTORE POP POP PUSH0 PUSH1 0x1 PUSH1 0x2 DUP1 SLOAD SWAP1 POP PUSH2 0x1178 SWAP2 SWAP1 PUSH2 0x1C19 JUMP JUMPDEST SWAP1 POP PUSH1 0x3 PUSH0 CALLER PUSH20 0xFFFFFFFFFFFFFFFFFFFFFFFFFFFFFFFFFFFFFFFF AND PUSH20 0xFFFFFFFFFFFFFFFFFFFFFFFFFFFFFFFFFFFFFFFF AND DUP2 MSTORE PUSH1 0x20 ADD SWAP1 DUP2 MSTORE PUSH1 0x20 ADD PUSH0 KECCAK256 DUP2 SWAP1 DUP1 PUSH1 0x1 DUP2 SLOAD ADD DUP1 DUP3 SSTORE DUP1 SWAP2 POP POP PUSH1 0x1 SWAP1 SUB SWAP1 PUSH0 MSTORE PUSH1 0x20 PUSH0 KECCAK256 ADD PUSH0 SWAP1 SWAP2 SWAP1 SWAP2 SWAP1 SWAP2 POP SSTORE CALLER PUSH20 0xFFFFFFFFFFFFFFFFFFFFFFFFFFFFFFFFFFFFFFFF AND PUSH32 0x4816BDD3B9D39ACDD4DA0AE7412D5523081E916C6A56E481063E475B86EF7C5B DUP5 TIMESTAMP PUSH1 0x40 MLOAD PUSH2 0x1223 SWAP3 SWAP2 SWAP1 PUSH2 0x20DE JUMP JUMPDEST PUSH1 0x40 MLOAD DUP1 SWAP2 SUB SWAP1 LOG2 POP POP POP JUMP JUMPDEST PUSH2 0x1238 PUSH2 0x12B4 JUMP JUMPDEST PUSH0 PUSH20 0xFFFFFFFFFFFFFFFFFFFFFFFFFFFFFFFFFFFFFFFF AND DUP2 PUSH20 0xFFFFFFFFFFFFFFFFFFFFFFFFFFFFFFFFFFFFFFFF AND SUB PUSH2 0x12A8 JUMPI PUSH0 PUSH1 0x40 MLOAD PUSH32 0x1E4FBDF700000000000000000000000000000000000000000000000000000000 DUP2 MSTORE PUSH1 0x4 ADD PUSH2 0x129F SWAP2 SWAP1 PUSH2 0x18DD JUMP JUMPDEST PUSH1 0x40 MLOAD DUP1 SWAP2 SUB SWAP1 REVERT JUMPDEST PUSH2 0x12B1 DUP2 PUSH2 0x133B JUMP JUMPDEST POP JUMP JUMPDEST PUSH2 0x12BC PUSH2 0x143D JUMP JUMPDEST PUSH20 0xFFFFFFFFFFFFFFFFFFFFFFFFFFFFFFFFFFFFFFFF AND PUSH2 0x12DA PUSH2 0xCB0 JUMP JUMPDEST PUSH20 0xFFFFFFFFFFFFFFFFFFFFFFFFFFFFFFFFFFFFFFFF AND EQ PUSH2 0x1339 JUMPI PUSH2 0x12FD PUSH2 0x143D JUMP JUMPDEST PUSH1 0x40 MLOAD PUSH32 0x118CDAA700000000000000000000000000000000000000000000000000000000 DUP2 MSTORE PUSH1 0x4 ADD PUSH2 0x1330 SWAP2 SWAP1 PUSH2 0x18DD JUMP JUMPDEST PUSH1 0x40 MLOAD DUP1 SWAP2 SUB SWAP1 REVERT JUMPDEST JUMP JUMPDEST PUSH0 DUP1 PUSH0 SWAP1 SLOAD SWAP1 PUSH2 0x100 EXP SWAP1 DIV PUSH20 0xFFFFFFFFFFFFFFFFFFFFFFFFFFFFFFFFFFFFFFFF AND SWAP1 POP DUP2 PUSH0 DUP1 PUSH2 0x100 EXP DUP2 SLOAD DUP2 PUSH20 0xFFFFFFFFFFFFFFFFFFFFFFFFFFFFFFFFFFFFFFFF MUL NOT AND SWAP1 DUP4 PUSH20 0xFFFFFFFFFFFFFFFFFFFFFFFFFFFFFFFFFFFFFFFF AND MUL OR SWAP1 SSTORE POP DUP2 PUSH20 0xFFFFFFFFFFFFFFFFFFFFFFFFFFFFFFFFFFFFFFFF AND DUP2 PUSH20 0xFFFFFFFFFFFFFFFFFFFFFFFFFFFFFFFFFFFFFFFF AND PUSH32 0x8BE0079C531659141344CD1FD0A4F28419497F9722A3DAAFE3B4186F6B6457E0 PUSH1 0x40 MLOAD PUSH1 0x40 MLOAD DUP1 SWAP2 SUB SWAP1 LOG3 POP POP JUMP JUMPDEST PUSH2 0x1404 PUSH2 0xC88 JUMP JUMPDEST ISZERO PUSH2 0x143B JUMPI PUSH1 0x40 MLOAD PUSH32 0xD93C066500000000000000000000000000000000000000000000000000000000 DUP2 MSTORE PUSH1 0x4 ADD PUSH1 0x40 MLOAD DUP1 SWAP2 SUB SWAP1 REVERT JUMPDEST JUMP JUMPDEST PUSH0 CALLER SWAP1 POP SWAP1 JUMP JUMPDEST PUSH1 0x40 MLOAD DUP1 PUSH1 0x60 ADD PUSH1 0x40 MSTORE DUP1 PUSH0 PUSH20 0xFFFFFFFFFFFFFFFFFFFFFFFFFFFFFFFFFFFFFFFF AND DUP2 MSTORE PUSH1 0x20 ADD PUSH1 0x60 DUP2 MSTORE PUSH1 0x20 ADD PUSH0 DUP2 MSTORE POP SWAP1 JUMP JUMPDEST PUSH0 PUSH1 0x40 MLOAD SWAP1 POP SWAP1 JUMP JUMPDEST PUSH0 DUP1 REVERT JUMPDEST PUSH0 DUP1 REVERT JUMPDEST PUSH0 DUP2 SWAP1 POP SWAP2 SWAP1 POP JUMP JUMPDEST PUSH2 0x149C DUP2 PUSH2 0x148A JUMP JUMPDEST DUP2 EQ PUSH2 0x14A6 JUMPI PUSH0 DUP1 REVERT JUMPDEST POP JUMP JUMPDEST PUSH0 DUP2 CALLDATALOAD SWAP1 POP PUSH2 0x14B7 DUP2 PUSH2 0x1493 JUMP JUMPDEST SWAP3 SWAP2 POP POP JUMP JUMPDEST PUSH0 PUSH1 0x20 DUP3 DUP5 SUB SLT ISZERO PUSH2 0x14D2 JUMPI PUSH2 0x14D1 PUSH2 0x1482 JUMP JUMPDEST JUMPDEST PUSH0 PUSH2 0x14DF DUP5 DUP3 DUP6 ADD PUSH2 0x14A9 JUMP JUMPDEST SWAP2 POP POP SWAP3 SWAP2 POP POP JUMP JUMPDEST PUSH0 PUSH20 0xFFFFFFFFFFFFFFFFFFFFFFFFFFFFFFFFFFFFFFFF DUP3 AND SWAP1 POP SWAP2 SWAP1 POP JUMP JUMPDEST PUSH0 PUSH2 0x1511 DUP3 PUSH2 0x14E8 JUMP JUMPDEST SWAP1 POP SWAP2 SWAP1 POP JUMP JUMPDEST PUSH2 0x1521 DUP2 PUSH2 0x1507 JUMP JUMPDEST DUP3 MSTORE POP POP JUMP JUMPDEST PUSH0 DUP2 MLOAD SWAP1 POP SWAP2 SWAP1 POP JUMP JUMPDEST PUSH0 DUP3 DUP3 MSTORE PUSH1 0x20 DUP3 ADD SWAP1 POP SWAP3 SWAP2 POP POP JUMP JUMPDEST DUP3 DUP2 DUP4 MCOPY PUSH0 DUP4 DUP4 ADD MSTORE POP POP POP JUMP JUMPDEST PUSH0 PUSH1 0x1F NOT PUSH1 0x1F DUP4 ADD AND SWAP1 POP SWAP2 SWAP1 POP JUMP JUMPDEST PUSH0 PUSH2 0x1569 DUP3 PUSH2 0x1527 JUMP JUMPDEST PUSH2 0x1573 DUP2 DUP6 PUSH2 0x1531 JUMP JUMPDEST SWAP4 POP PUSH2 0x1583 DUP2 DUP6 PUSH1 0x20 DUP7 ADD PUSH2 0x1541 JUMP JUMPDEST PUSH2 0x158C DUP2 PUSH2 0x154F JUMP JUMPDEST DUP5 ADD SWAP2 POP POP SWAP3 SWAP2 POP POP JUMP JUMPDEST PUSH2 0x15A0 DUP2 PUSH2 0x148A JUMP JUMPDEST DUP3 MSTORE POP POP JUMP JUMPDEST PUSH0 PUSH1 0x60 DUP3 ADD SWAP1 POP PUSH2 0x15B9 PUSH0 DUP4 ADD DUP7 PUSH2 0x1518 JUMP JUMPDEST DUP2 DUP2 SUB PUSH1 0x20 DUP4 ADD MSTORE PUSH2 0x15CB DUP2 DUP6 PUSH2 0x155F JUMP JUMPDEST SWAP1 POP PUSH2 0x15DA PUSH1 0x40 DUP4 ADD DUP5 PUSH2 0x1597 JUMP JUMPDEST SWAP5 SWAP4 POP POP POP POP JUMP JUMPDEST PUSH0 DUP2 MLOAD SWAP1 POP SWAP2 SWAP1 POP JUMP JUMPDEST PUSH0 DUP3 DUP3 MSTORE PUSH1 0x20 DUP3 ADD SWAP1 POP SWAP3 SWAP2 POP POP JUMP JUMPDEST PUSH0 DUP2 SWAP1 POP PUSH1 0x20 DUP3 ADD SWAP1 POP SWAP2 SWAP1 POP JUMP JUMPDEST PUSH2 0x1614 DUP2 PUSH2 0x1507 JUMP JUMPDEST DUP3 MSTORE POP POP JUMP JUMPDEST PUSH0 DUP3 DUP3 MSTORE PUSH1 0x20 DUP3 ADD SWAP1 POP SWAP3 SWAP2 POP POP JUMP JUMPDEST PUSH0 PUSH2 0x1634 DUP3 PUSH2 0x1527 JUMP JUMPDEST PUSH2 0x163E DUP2 DUP6 PUSH2 0x161A JUMP JUMPDEST SWAP4 POP PUSH2 0x164E DUP2 DUP6 PUSH1 0x20 DUP7 ADD PUSH2 0x1541 JUMP JUMPDEST PUSH2 0x1657 DUP2 PUSH2 0x154F JUMP JUMPDEST DUP5 ADD SWAP2 POP POP SWAP3 SWAP2 POP POP JUMP JUMPDEST PUSH2 0x166B DUP2 PUSH2 0x148A JUMP JUMPDEST DUP3 MSTORE POP POP JUMP JUMPDEST PUSH0 PUSH1 0x60 DUP4 ADD PUSH0 DUP4 ADD MLOAD PUSH2 0x1686 PUSH0 DUP7 ADD DUP3 PUSH2 0x160B JUMP JUMPDEST POP PUSH1 0x20 DUP4 ADD MLOAD DUP5 DUP3 SUB PUSH1 0x20 DUP7 ADD MSTORE PUSH2 0x169E DUP3 DUP3 PUSH2 0x162A JUMP JUMPDEST SWAP2 POP POP PUSH1 0x40 DUP4 ADD MLOAD PUSH2 0x16B3 PUSH1 0x40 DUP7 ADD DUP3 PUSH2 0x1662 JUMP JUMPDEST POP DUP1 SWAP2 POP POP SWAP3 SWAP2 POP POP JUMP JUMPDEST PUSH0 PUSH2 0x16C9 DUP4 DUP4 PUSH2 0x1671 JUMP JUMPDEST SWAP1 POP SWAP3 SWAP2 POP POP JUMP JUMPDEST PUSH0 PUSH1 0x20 DUP3 ADD SWAP1 POP SWAP2 SWAP1 POP JUMP JUMPDEST PUSH0 PUSH2 0x16E7 DUP3 PUSH2 0x15E2 JUMP JUMPDEST PUSH2 0x16F1 DUP2 DUP6 PUSH2 0x15EC JUMP JUMPDEST SWAP4 POP DUP4 PUSH1 0x20 DUP3 MUL DUP6 ADD PUSH2 0x1703 DUP6 PUSH2 0x15FC JUMP JUMPDEST DUP1 PUSH0 JUMPDEST DUP6 DUP2 LT ISZERO PUSH2 0x173E JUMPI DUP5 DUP5 SUB DUP10 MSTORE DUP2 MLOAD PUSH2 0x171F DUP6 DUP3 PUSH2 0x16BE JUMP JUMPDEST SWAP5 POP PUSH2 0x172A DUP4 PUSH2 0x16D1 JUMP JUMPDEST SWAP3 POP PUSH1 0x20 DUP11 ADD SWAP10 POP POP PUSH1 0x1 DUP2 ADD SWAP1 POP PUSH2 0x1706 JUMP JUMPDEST POP DUP3 SWAP8 POP DUP8 SWAP6 POP POP POP POP POP POP SWAP3 SWAP2 POP POP JUMP JUMPDEST PUSH0 PUSH1 0x40 DUP3 ADD SWAP1 POP DUP2 DUP2 SUB PUSH0 DUP4 ADD MSTORE PUSH2 0x1768 DUP2 DUP6 PUSH2 0x16DD JUMP JUMPDEST SWAP1 POP PUSH2 0x1777 PUSH1 0x20 DUP4 ADD DUP5 PUSH2 0x1597 JUMP JUMPDEST SWAP4 SWAP3 POP POP POP JUMP JUMPDEST PUSH0 PUSH1 0x20 DUP3 ADD SWAP1 POP PUSH2 0x1791 PUSH0 DUP4 ADD DUP5 PUSH2 0x1597 JUMP JUMPDEST SWAP3 SWAP2 POP POP JUMP JUMPDEST PUSH2 0x17A0 DUP2 PUSH2 0x1507 JUMP JUMPDEST DUP2 EQ PUSH2 0x17AA JUMPI PUSH0 DUP1 REVERT JUMPDEST POP JUMP JUMPDEST PUSH0 DUP2 CALLDATALOAD SWAP1 POP PUSH2 0x17BB DUP2 PUSH2 0x1797 JUMP JUMPDEST SWAP3 SWAP2 POP POP JUMP JUMPDEST PUSH0 DUP1 PUSH1 0x40 DUP4 DUP6 SUB SLT ISZERO PUSH2 0x17D7 JUMPI PUSH2 0x17D6 PUSH2 0x1482 JUMP JUMPDEST JUMPDEST PUSH0 PUSH2 0x17E4 DUP6 DUP3 DUP7 ADD PUSH2 0x17AD JUMP JUMPDEST SWAP3 POP POP PUSH1 0x20 PUSH2 0x17F5 DUP6 DUP3 DUP7 ADD PUSH2 0x14A9 JUMP JUMPDEST SWAP2 POP POP SWAP3 POP SWAP3 SWAP1 POP JUMP JUMPDEST PUSH0 PUSH1 0x60 DUP4 ADD PUSH0 DUP4 ADD MLOAD PUSH2 0x1814 PUSH0 DUP7 ADD DUP3 PUSH2 0x160B JUMP JUMPDEST POP PUSH1 0x20 DUP4 ADD MLOAD DUP5 DUP3 SUB PUSH1 0x20 DUP7 ADD MSTORE PUSH2 0x182C DUP3 DUP3 PUSH2 0x162A JUMP JUMPDEST SWAP2 POP POP PUSH1 0x40 DUP4 ADD MLOAD PUSH2 0x1841 PUSH1 0x40 DUP7 ADD DUP3 PUSH2 0x1662 JUMP JUMPDEST POP DUP1 SWAP2 POP POP SWAP3 SWAP2 POP POP JUMP JUMPDEST PUSH0 PUSH1 0x20 DUP3 ADD SWAP1 POP DUP2 DUP2 SUB PUSH0 DUP4 ADD MSTORE PUSH2 0x1864 DUP2 DUP5 PUSH2 0x17FF JUMP JUMPDEST SWAP1 POP SWAP3 SWAP2 POP POP JUMP JUMPDEST PUSH0 DUP1 PUSH1 0x40 DUP4 DUP6 SUB SLT ISZERO PUSH2 0x1882 JUMPI PUSH2 0x1881 PUSH2 0x1482 JUMP JUMPDEST JUMPDEST PUSH0 PUSH2 0x188F DUP6 DUP3 DUP7 ADD PUSH2 0x14A9 JUMP JUMPDEST SWAP3 POP POP PUSH1 0x20 PUSH2 0x18A0 DUP6 DUP3 DUP7 ADD PUSH2 0x14A9 JUMP JUMPDEST SWAP2 POP POP SWAP3 POP SWAP3 SWAP1 POP JUMP JUMPDEST PUSH0 DUP2 ISZERO ISZERO SWAP1 POP SWAP2 SWAP1 POP JUMP JUMPDEST PUSH2 0x18BE DUP2 PUSH2 0x18AA JUMP JUMPDEST DUP3 MSTORE POP POP JUMP JUMPDEST PUSH0 PUSH1 0x20 DUP3 ADD SWAP1 POP PUSH2 0x18D7 PUSH0 DUP4 ADD DUP5 PUSH2 0x18B5 JUMP JUMPDEST SWAP3 SWAP2 POP POP JUMP JUMPDEST PUSH0 PUSH1 0x20 DUP3 ADD SWAP1 POP PUSH2 0x18F0 PUSH0 DUP4 ADD DUP5 PUSH2 0x1518 JUMP JUMPDEST SWAP3 SWAP2 POP POP JUMP JUMPDEST PUSH0 PUSH1 0x20 DUP3 DUP5 SUB SLT ISZERO PUSH2 0x190B JUMPI PUSH2 0x190A PUSH2 0x1482 JUMP JUMPDEST JUMPDEST PUSH0 PUSH2 0x1918 DUP5 DUP3 DUP6 ADD PUSH2 0x17AD JUMP JUMPDEST SWAP2 POP POP SWAP3 SWAP2 POP POP JUMP JUMPDEST PUSH0 PUSH1 0x20 DUP3 ADD SWAP1 POP DUP2 DUP2 SUB PUSH0 DUP4 ADD MSTORE PUSH2 0x1939 DUP2 DUP5 PUSH2 0x16DD JUMP JUMPDEST SWAP1 POP SWAP3 SWAP2 POP POP JUMP JUMPDEST PUSH0 DUP2 MLOAD SWAP1 POP SWAP2 SWAP1 POP JUMP JUMPDEST PUSH0 DUP3 DUP3 MSTORE PUSH1 0x20 DUP3 ADD SWAP1 POP SWAP3 SWAP2 POP POP JUMP JUMPDEST PUSH0 DUP2 SWAP1 POP PUSH1 0x20 DUP3 ADD SWAP1 POP SWAP2 SWAP1 POP JUMP JUMPDEST PUSH0 PUSH2 0x1975 DUP4 DUP4 PUSH2 0x1662 JUMP JUMPDEST PUSH1 0x20 DUP4 ADD SWAP1 POP SWAP3 SWAP2 POP POP JUMP JUMPDEST PUSH0 PUSH1 0x20 DUP3 ADD SWAP1 POP SWAP2 SWAP1 POP JUMP JUMPDEST PUSH0 PUSH2 0x1997 DUP3 PUSH2 0x1941 JUMP JUMPDEST PUSH2 0x19A1 DUP2 DUP6 PUSH2 0x194B JUMP JUMPDEST SWAP4 POP PUSH2 0x19AC DUP4 PUSH2 0x195B JUMP JUMPDEST DUP1 PUSH0 JUMPDEST DUP4 DUP2 LT ISZERO PUSH2 0x19DC JUMPI DUP2 MLOAD PUSH2 0x19C3 DUP9 DUP3 PUSH2 0x196A JUMP JUMPDEST SWAP8 POP PUSH2 0x19CE DUP4 PUSH2 0x1981 JUMP JUMPDEST SWAP3 POP POP PUSH1 0x1 DUP2 ADD SWAP1 POP PUSH2 0x19AF JUMP JUMPDEST POP DUP6 SWAP4 POP POP POP POP SWAP3 SWAP2 POP POP JUMP JUMPDEST PUSH0 PUSH1 0x20 DUP3 ADD SWAP1 POP DUP2 DUP2 SUB PUSH0 DUP4 ADD MSTORE PUSH2 0x1A01 DUP2 DUP5 PUSH2 0x198D JUMP JUMPDEST SWAP1 POP SWAP3 SWAP2 POP POP JUMP JUMPDEST PUSH0 DUP1 REVERT JUMPDEST PUSH0 DUP1 REVERT JUMPDEST PUSH32 0x4E487B7100000000000000000000000000000000000000000000000000000000 PUSH0 MSTORE PUSH1 0x41 PUSH1 0x4 MSTORE PUSH1 0x24 PUSH0 REVERT JUMPDEST PUSH2 0x1A47 DUP3 PUSH2 0x154F JUMP JUMPDEST DUP2 ADD DUP2 DUP2 LT PUSH8 0xFFFFFFFFFFFFFFFF DUP3 GT OR ISZERO PUSH2 0x1A66 JUMPI PUSH2 0x1A65 PUSH2 0x1A11 JUMP JUMPDEST JUMPDEST DUP1 PUSH1 0x40 MSTORE POP POP POP JUMP JUMPDEST PUSH0 PUSH2 0x1A78 PUSH2 0x1479 JUMP JUMPDEST SWAP1 POP PUSH2 0x1A84 DUP3 DUP3 PUSH2 0x1A3E JUMP JUMPDEST SWAP2 SWAP1 POP JUMP JUMPDEST PUSH0 PUSH8 0xFFFFFFFFFFFFFFFF DUP3 GT ISZERO PUSH2 0x1AA3 JUMPI PUSH2 0x1AA2 PUSH2 0x1A11 JUMP JUMPDEST JUMPDEST PUSH2 0x1AAC DUP3 PUSH2 0x154F JUMP JUMPDEST SWAP1 POP PUSH1 0x20 DUP2 ADD SWAP1 POP SWAP2 SWAP1 POP JUMP JUMPDEST DUP3 DUP2 DUP4 CALLDATACOPY PUSH0 DUP4 DUP4 ADD MSTORE POP POP POP JUMP JUMPDEST PUSH0 PUSH2 0x1AD9 PUSH2 0x1AD4 DUP5 PUSH2 0x1A89 JUMP JUMPDEST PUSH2 0x1A6F JUMP JUMPDEST SWAP1 POP DUP3 DUP2 MSTORE PUSH1 0x20 DUP2 ADD DUP5 DUP5 DUP5 ADD GT ISZERO PUSH2 0x1AF5 JUMPI PUSH2 0x1AF4 PUSH2 0x1A0D JUMP JUMPDEST JUMPDEST PUSH2 0x1B00 DUP5 DUP3 DUP6 PUSH2 0x1AB9 JUMP JUMPDEST POP SWAP4 SWAP3 POP POP POP JUMP JUMPDEST PUSH0 DUP3 PUSH1 0x1F DUP4 ADD SLT PUSH2 0x1B1C JUMPI PUSH2 0x1B1B PUSH2 0x1A09 JUMP JUMPDEST JUMPDEST DUP2 CALLDATALOAD PUSH2 0x1B2C DUP5 DUP3 PUSH1 0x20 DUP7 ADD PUSH2 0x1AC7 JUMP JUMPDEST SWAP2 POP POP SWAP3 SWAP2 POP POP JUMP JUMPDEST PUSH0 DUP1 PUSH1 0x40 DUP4 DUP6 SUB SLT ISZERO PUSH2 0x1B4B JUMPI PUSH2 0x1B4A PUSH2 0x1482 JUMP JUMPDEST JUMPDEST PUSH0 DUP4 ADD CALLDATALOAD PUSH8 0xFFFFFFFFFFFFFFFF DUP2 GT ISZERO PUSH2 0x1B68 JUMPI PUSH2 0x1B67 PUSH2 0x1486 JUMP JUMPDEST JUMPDEST PUSH2 0x1B74 DUP6 DUP3 DUP7 ADD PUSH2 0x1B08 JUMP JUMPDEST SWAP3 POP POP PUSH1 0x20 PUSH2 0x1B85 DUP6 DUP3 DUP7 ADD PUSH2 0x14A9 JUMP JUMPDEST SWAP2 POP POP SWAP3 POP SWAP3 SWAP1 POP JUMP JUMPDEST PUSH32 0x4E487B7100000000000000000000000000000000000000000000000000000000 PUSH0 MSTORE PUSH1 0x22 PUSH1 0x4 MSTORE PUSH1 0x24 PUSH0 REVERT JUMPDEST PUSH0 PUSH1 0x2 DUP3 DIV SWAP1 POP PUSH1 0x1 DUP3 AND DUP1 PUSH2 0x1BD3 JUMPI PUSH1 0x7F DUP3 AND SWAP2 POP JUMPDEST PUSH1 0x20 DUP3 LT DUP2 SUB PUSH2 0x1BE6 JUMPI PUSH2 0x1BE5 PUSH2 0x1B8F JUMP JUMPDEST JUMPDEST POP SWAP2 SWAP1 POP JUMP JUMPDEST PUSH32 0x4E487B7100000000000000000000000000000000000000000000000000000000 PUSH0 MSTORE PUSH1 0x11 PUSH1 0x4 MSTORE PUSH1 0x24 PUSH0 REVERT JUMPDEST PUSH0 PUSH2 0x1C23 DUP3 PUSH2 0x148A JUMP JUMPDEST SWAP2 POP PUSH2 0x1C2E DUP4 PUSH2 0x148A JUMP JUMPDEST SWAP3 POP DUP3 DUP3 SUB SWAP1 POP DUP2 DUP2 GT ISZERO PUSH2 0x1C46 JUMPI PUSH2 0x1C45 PUSH2 0x1BEC JUMP JUMPDEST JUMPDEST SWAP3 SWAP2 POP POP JUMP JUMPDEST PUSH0 PUSH2 0x1C56 DUP3 PUSH2 0x148A JUMP JUMPDEST SWAP2 POP PUSH2 0x1C61 DUP4 PUSH2 0x148A JUMP JUMPDEST SWAP3 POP DUP3 DUP3 ADD SWAP1 POP DUP1 DUP3 GT ISZERO PUSH2 0x1C79 JUMPI PUSH2 0x1C78 PUSH2 0x1BEC JUMP JUMPDEST JUMPDEST SWAP3 SWAP2 POP POP JUMP JUMPDEST PUSH32 0x4E487B7100000000000000000000000000000000000000000000000000000000 PUSH0 MSTORE PUSH1 0x32 PUSH1 0x4 MSTORE PUSH1 0x24 PUSH0 REVERT JUMPDEST PUSH32 0x4D65737361676520696E646578206F7574206F6620626F756E64730000000000 PUSH0 DUP3 ADD MSTORE POP JUMP JUMPDEST PUSH0 PUSH2 0x1CE0 PUSH1 0x1B DUP4 PUSH2 0x1531 JUMP JUMPDEST SWAP2 POP PUSH2 0x1CEB DUP3 PUSH2 0x1CAC JUMP JUMPDEST PUSH1 0x20 DUP3 ADD SWAP1 POP SWAP2 SWAP1 POP JUMP JUMPDEST PUSH0 PUSH1 0x20 DUP3 ADD SWAP1 POP DUP2 DUP2 SUB PUSH0 DUP4 ADD MSTORE PUSH2 0x1D0D DUP2 PUSH2 0x1CD4 JUMP JUMPDEST SWAP1 POP SWAP2 SWAP1 POP JUMP JUMPDEST PUSH32 0x55736572206D65737361676520696E646578206F7574206F6620626F756E6473 PUSH0 DUP3 ADD MSTORE POP JUMP JUMPDEST PUSH0 PUSH2 0x1D48 PUSH1 0x20 DUP4 PUSH2 0x1531 JUMP JUMPDEST SWAP2 POP PUSH2 0x1D53 DUP3 PUSH2 0x1D14 JUMP JUMPDEST PUSH1 0x20 DUP3 ADD SWAP1 POP SWAP2 SWAP1 POP JUMP JUMPDEST PUSH0 PUSH1 0x20 DUP3 ADD SWAP1 POP DUP2 DUP2 SUB PUSH0 DUP4 ADD MSTORE PUSH2 0x1D75 DUP2 PUSH2 0x1D3C JUMP JUMPDEST SWAP1 POP SWAP2 SWAP1 POP JUMP JUMPDEST PUSH32 0x476C6F62616C206D65737361676520696E646578206F7574206F6620626F756E PUSH0 DUP3 ADD MSTORE PUSH32 0x6473000000000000000000000000000000000000000000000000000000000000 PUSH1 0x20 DUP3 ADD MSTORE POP JUMP JUMPDEST PUSH0 PUSH2 0x1DD6 PUSH1 0x22 DUP4 PUSH2 0x1531 JUMP JUMPDEST SWAP2 POP PUSH2 0x1DE1 DUP3 PUSH2 0x1D7C JUMP JUMPDEST PUSH1 0x40 DUP3 ADD SWAP1 POP SWAP2 SWAP1 POP JUMP JUMPDEST PUSH0 PUSH1 0x20 DUP3 ADD SWAP1 POP DUP2 DUP2 SUB PUSH0 DUP4 ADD MSTORE PUSH2 0x1E03 DUP2 PUSH2 0x1DCA JUMP JUMPDEST SWAP1 POP SWAP2 SWAP1 POP JUMP JUMPDEST PUSH32 0x537461727420696E646578206F7574206F6620626F756E64732E000000000000 PUSH0 DUP3 ADD MSTORE POP JUMP JUMPDEST PUSH0 PUSH2 0x1E3E PUSH1 0x1A DUP4 PUSH2 0x1531 JUMP JUMPDEST SWAP2 POP PUSH2 0x1E49 DUP3 PUSH2 0x1E0A JUMP JUMPDEST PUSH1 0x20 DUP3 ADD SWAP1 POP SWAP2 SWAP1 POP JUMP JUMPDEST PUSH0 PUSH1 0x20 DUP3 ADD SWAP1 POP DUP2 DUP2 SUB PUSH0 DUP4 ADD MSTORE PUSH2 0x1E6B DUP2 PUSH2 0x1E32 JUMP JUMPDEST SWAP1 POP SWAP2 SWAP1 POP JUMP JUMPDEST PUSH0 DUP2 SWAP1 POP DUP2 PUSH0 MSTORE PUSH1 0x20 PUSH0 KECCAK256 SWAP1 POP SWAP2 SWAP1 POP JUMP JUMPDEST PUSH0 PUSH1 0x20 PUSH1 0x1F DUP4 ADD DIV SWAP1 POP SWAP2 SWAP1 POP JUMP JUMPDEST PUSH0 DUP3 DUP3 SHL SWAP1 POP SWAP3 SWAP2 POP POP JUMP JUMPDEST PUSH0 PUSH1 0x8 DUP4 MUL PUSH2 0x1ECE PUSH32 0xFFFFFFFFFFFFFFFFFFFFFFFFFFFFFFFFFFFFFFFFFFFFFFFFFFFFFFFFFFFFFFFF DUP3 PUSH2 0x1E93 JUMP JUMPDEST PUSH2 0x1ED8 DUP7 DUP4 PUSH2 0x1E93 JUMP JUMPDEST SWAP6 POP DUP1 NOT DUP5 AND SWAP4 POP DUP1 DUP7 AND DUP5 OR SWAP3 POP POP POP SWAP4 SWAP3 POP POP POP JUMP JUMPDEST PUSH0 DUP2 SWAP1 POP SWAP2 SWAP1 POP JUMP JUMPDEST PUSH0 PUSH2 0x1F13 PUSH2 0x1F0E PUSH2 0x1F09 DUP5 PUSH2 0x148A JUMP JUMPDEST PUSH2 0x1EF0 JUMP JUMPDEST PUSH2 0x148A JUMP JUMPDEST SWAP1 POP SWAP2 SWAP1 POP JUMP JUMPDEST PUSH0 DUP2 SWAP1 POP SWAP2 SWAP1 POP JUMP JUMPDEST PUSH2 0x1F2C DUP4 PUSH2 0x1EF9 JUMP JUMPDEST PUSH2 0x1F40 PUSH2 0x1F38 DUP3 PUSH2 0x1F1A JUMP JUMPDEST DUP5 DUP5 SLOAD PUSH2 0x1E9F JUMP JUMPDEST DUP3 SSTORE POP POP POP POP JUMP JUMPDEST PUSH0 SWAP1 JUMP JUMPDEST PUSH2 0x1F54 PUSH2 0x1F48 JUMP JUMPDEST PUSH2 0x1F5F DUP2 DUP5 DUP5 PUSH2 0x1F23 JUMP JUMPDEST POP POP POP JUMP JUMPDEST JUMPDEST DUP2 DUP2 LT ISZERO PUSH2 0x1F82 JUMPI PUSH2 0x1F77 PUSH0 DUP3 PUSH2 0x1F4C JUMP JUMPDEST PUSH1 0x1 DUP2 ADD SWAP1 POP PUSH2 0x1F65 JUMP JUMPDEST POP POP JUMP JUMPDEST PUSH1 0x1F DUP3 GT ISZERO PUSH2 0x1FC7 JUMPI PUSH2 0x1F98 DUP2 PUSH2 0x1E72 JUMP JUMPDEST PUSH2 0x1FA1 DUP5 PUSH2 0x1E84 JUMP JUMPDEST DUP2 ADD PUSH1 0x20 DUP6 LT ISZERO PUSH2 0x1FB0 JUMPI DUP2 SWAP1 POP JUMPDEST PUSH2 0x1FC4 PUSH2 0x1FBC DUP6 PUSH2 0x1E84 JUMP JUMPDEST DUP4 ADD DUP3 PUSH2 0x1F64 JUMP JUMPDEST POP POP JUMPDEST POP POP POP JUMP JUMPDEST PUSH0 DUP3 DUP3 SHR SWAP1 POP SWAP3 SWAP2 POP POP JUMP JUMPDEST PUSH0 PUSH2 0x1FE7 PUSH0 NOT DUP5 PUSH1 0x8 MUL PUSH2 0x1FCC JUMP JUMPDEST NOT DUP1 DUP4 AND SWAP2 POP POP SWAP3 SWAP2 POP POP JUMP JUMPDEST PUSH0 PUSH2 0x1FFF DUP4 DUP4 PUSH2 0x1FD8 JUMP JUMPDEST SWAP2 POP DUP3 PUSH1 0x2 MUL DUP3 OR SWAP1 POP SWAP3 SWAP2 POP POP JUMP JUMPDEST PUSH2 0x2018 DUP3 PUSH2 0x1527 JUMP JUMPDEST PUSH8 0xFFFFFFFFFFFFFFFF DUP2 GT ISZERO PUSH2 0x2031 JUMPI PUSH2 0x2030 PUSH2 0x1A11 JUMP JUMPDEST JUMPDEST PUSH2 0x203B DUP3 SLOAD PUSH2 0x1BBC JUMP JUMPDEST PUSH2 0x2046 DUP3 DUP3 DUP6 PUSH2 0x1F86 JUMP JUMPDEST PUSH0 PUSH1 0x20 SWAP1 POP PUSH1 0x1F DUP4 GT PUSH1 0x1 DUP2 EQ PUSH2 0x2077 JUMPI PUSH0 DUP5 ISZERO PUSH2 0x2065 JUMPI DUP3 DUP8 ADD MLOAD SWAP1 POP JUMPDEST PUSH2 0x206F DUP6 DUP3 PUSH2 0x1FF4 JUMP JUMPDEST DUP7 SSTORE POP PUSH2 0x20D6 JUMP JUMPDEST PUSH1 0x1F NOT DUP5 AND PUSH2 0x2085 DUP7 PUSH2 0x1E72 JUMP JUMPDEST PUSH0 JUMPDEST DUP3 DUP2 LT ISZERO PUSH2 0x20AC JUMPI DUP5 DUP10 ADD MLOAD DUP3 SSTORE PUSH1 0x1 DUP3 ADD SWAP2 POP PUSH1 0x20 DUP6 ADD SWAP5 POP PUSH1 0x20 DUP2 ADD SWAP1 POP PUSH2 0x2087 JUMP JUMPDEST DUP7 DUP4 LT ISZERO PUSH2 0x20C9 JUMPI DUP5 DUP10 ADD MLOAD PUSH2 0x20C5 PUSH1 0x1F DUP10 AND DUP3 PUSH2 0x1FD8 JUMP JUMPDEST DUP4 SSTORE POP JUMPDEST PUSH1 0x1 PUSH1 0x2 DUP9 MUL ADD DUP9 SSTORE POP POP POP JUMPDEST POP POP POP POP POP POP JUMP JUMPDEST PUSH0 PUSH1 0x40 DUP3 ADD SWAP1 POP DUP2 DUP2 SUB PUSH0 DUP4 ADD MSTORE PUSH2 0x20F6 DUP2 DUP6 PUSH2 0x155F JUMP JUMPDEST SWAP1 POP PUSH2 0x2105 PUSH1 0x20 DUP4 ADD DUP5 PUSH2 0x1597 JUMP JUMPDEST SWAP4 SWAP3 POP POP POP JUMP INVALID LOG2 PUSH5 0x6970667358 0x22 SLT KECCAK256 0xB7 0xE9 0xA9 SWAP3 0xF7 EXTCODECOPY SWAP5 0xA7 0xCC 0x25 CALLDATALOAD CHAINID DUP12 0x26 0xBA CHAINID 0xEE 0xA9 0xCA CHAINID 0xB6 SSTORE PUSH1 0xFB 0xAE 0xB2 0xEC 0xD0 0xE3 0xA5 0x2E DUP15 PUSH5 0x736F6C6343 STOP ADDMOD NOT STOP CALLER "
				},
				"gasEstimates": {
					"creation": {
						"codeDepositCost": "1702800",
						"executionCost": "infinite",
						"totalCost": "infinite"
					},
					"external": {
						"chatRoomFinance()": "2530",
						"getLastNMessages(uint256)": "infinite",
						"getMessageByIndex(uint256)": "infinite",
						"getMessageCount()": "2463",
						"getMessagesFromIndex(uint256,uint256)": "infinite",
						"getUserMessageByIndex(address,uint256)": "infinite",
						"getUserMessageIndexes(address)": "infinite",
						"getUserMessages(address)": "infinite",
						"messages(uint256)": "infinite",
						"owner()": "2560",
						"paused()": "2613",
						"renounceOwnership()": "infinite",
						"sendMessage(string,uint256)": "infinite",
						"transferOwnership(address)": "infinite",
						"userMessages(address,uint256)": "infinite"
					}
				},
				"methodIdentifiers": {
					"chatRoomFinance()": "ab7ee590",
					"getLastNMessages(uint256)": "1e85e7be",
					"getMessageByIndex(uint256)": "2024c1b7",
					"getMessageCount()": "31933916",
					"getMessagesFromIndex(uint256,uint256)": "58cad1cf",
					"getUserMessageByIndex(address,uint256)": "36913a40",
					"getUserMessageIndexes(address)": "ad039fad",
					"getUserMessages(address)": "98d63d3d",
					"messages(uint256)": "0d80fefd",
					"owner()": "8da5cb5b",
					"paused()": "5c975abb",
					"renounceOwnership()": "715018a6",
					"sendMessage(string,uint256)": "d013bef0",
					"transferOwnership(address)": "f2fde38b",
					"userMessages(address,uint256)": "9428cda3"
				}
			},
			"storageLayout": {
				"storage": [
					{
						"astId": 8,
						"contract": "contracts/ChatRoom.sol:ChatRoom",
						"label": "_owner",
						"offset": 0,
						"slot": "0",
						"type": "t_address"
					},
					{
						"astId": 186,
						"contract": "contracts/ChatRoom.sol:ChatRoom",
						"label": "_paused",
						"offset": 20,
						"slot": "0",
						"type": "t_bool"
					},
					{
						"astId": 310,
						"contract": "contracts/ChatRoom.sol:ChatRoom",
						"label": "chatRoomFinance",
						"offset": 0,
						"slot": "1",
						"type": "t_address"
					},
					{
						"astId": 321,
						"contract": "contracts/ChatRoom.sol:ChatRoom",
						"label": "messages",
						"offset": 0,
						"slot": "2",
						"type": "t_array(t_struct(Message)317_storage)dyn_storage"
					},
					{
						"astId": 326,
						"contract": "contracts/ChatRoom.sol:ChatRoom",
						"label": "userMessages",
						"offset": 0,
						"slot": "3",
						"type": "t_mapping(t_address,t_array(t_uint256)dyn_storage)"
					}
				],
				"types": {
					"t_address": {
						"encoding": "inplace",
						"label": "address",
						"numberOfBytes": "20"
					},
					"t_array(t_struct(Message)317_storage)dyn_storage": {
						"base": "t_struct(Message)317_storage",
						"encoding": "dynamic_array",
						"label": "struct ChatRoom.Message[]",
						"numberOfBytes": "32"
					},
					"t_array(t_uint256)dyn_storage": {
						"base": "t_uint256",
						"encoding": "dynamic_array",
						"label": "uint256[]",
						"numberOfBytes": "32"
					},
					"t_bool": {
						"encoding": "inplace",
						"label": "bool",
						"numberOfBytes": "1"
					},
					"t_mapping(t_address,t_array(t_uint256)dyn_storage)": {
						"encoding": "mapping",
						"key": "t_address",
						"label": "mapping(address => uint256[])",
						"numberOfBytes": "32",
						"value": "t_array(t_uint256)dyn_storage"
					},
					"t_string_storage": {
						"encoding": "bytes",
						"label": "string",
						"numberOfBytes": "32"
					},
					"t_struct(Message)317_storage": {
						"encoding": "inplace",
						"label": "struct ChatRoom.Message",
						"members": [
							{
								"astId": 312,
								"contract": "contracts/ChatRoom.sol:ChatRoom",
								"label": "sender",
								"offset": 0,
								"slot": "0",
								"type": "t_address"
							},
							{
								"astId": 314,
								"contract": "contracts/ChatRoom.sol:ChatRoom",
								"label": "content",
								"offset": 0,
								"slot": "1",
								"type": "t_string_storage"
							},
							{
								"astId": 316,
								"contract": "contracts/ChatRoom.sol:ChatRoom",
								"label": "timestamp",
								"offset": 0,
								"slot": "2",
								"type": "t_uint256"
							}
						],
						"numberOfBytes": "96"
					},
					"t_uint256": {
						"encoding": "inplace",
						"label": "uint256",
						"numberOfBytes": "32"
					}
				}
			},
			"userdoc": {
				"kind": "user",
				"methods": {},
				"version": 1
			}
		}
	}
}