{
	"contracts/GlobalChat.sol": {
		"GlobalChat": {
			"abi": [
				{
					"inputs": [
						{
							"internalType": "address",
							"name": "_tokenContract",
							"type": "address"
						},
						{
							"internalType": "address",
							"name": "_developerWallet",
							"type": "address"
						}
					],
					"stateMutability": "nonpayable",
					"type": "constructor"
				},
				{
					"inputs": [
						{
							"internalType": "address",
							"name": "target",
							"type": "address"
						}
					],
					"name": "AddressEmptyCode",
					"type": "error"
				},
				{
					"inputs": [
						{
							"internalType": "address",
							"name": "account",
							"type": "address"
						}
					],
					"name": "AddressInsufficientBalance",
					"type": "error"
				},
				{
					"inputs": [],
					"name": "FailedInnerCall",
					"type": "error"
				},
				{
					"inputs": [
						{
							"internalType": "address",
							"name": "owner",
							"type": "address"
						}
					],
					"name": "OwnableInvalidOwner",
					"type": "error"
				},
				{
					"inputs": [
						{
							"internalType": "address",
							"name": "account",
							"type": "address"
						}
					],
					"name": "OwnableUnauthorizedAccount",
					"type": "error"
				},
				{
					"inputs": [],
					"name": "ReentrancyGuardReentrantCall",
					"type": "error"
				},
				{
					"inputs": [
						{
							"internalType": "address",
							"name": "token",
							"type": "address"
						}
					],
					"name": "SafeERC20FailedOperation",
					"type": "error"
				},
				{
					"anonymous": false,
					"inputs": [
						{
							"indexed": false,
							"internalType": "uint256",
							"name": "amount",
							"type": "uint256"
						}
					],
					"name": "FeePaid",
					"type": "event"
				},
				{
					"anonymous": false,
					"inputs": [
						{
							"indexed": true,
							"internalType": "address",
							"name": "from",
							"type": "address"
						},
						{
							"indexed": false,
							"internalType": "string",
							"name": "message",
							"type": "string"
						}
					],
					"name": "MessageSent",
					"type": "event"
				},
				{
					"anonymous": false,
					"inputs": [
						{
							"indexed": true,
							"internalType": "address",
							"name": "previousOwner",
							"type": "address"
						},
						{
							"indexed": true,
							"internalType": "address",
							"name": "newOwner",
							"type": "address"
						}
					],
					"name": "OwnershipTransferred",
					"type": "event"
				},
				{
					"anonymous": false,
					"inputs": [
						{
							"indexed": false,
							"internalType": "uint256",
							"name": "amount",
							"type": "uint256"
						}
					],
					"name": "TokensBurned",
					"type": "event"
				},
				{
					"inputs": [],
					"name": "developerFeePercentage",
					"outputs": [
						{
							"internalType": "uint256",
							"name": "",
							"type": "uint256"
						}
					],
					"stateMutability": "view",
					"type": "function"
				},
				{
					"inputs": [],
					"name": "developerWallet",
					"outputs": [
						{
							"internalType": "address",
							"name": "",
							"type": "address"
						}
					],
					"stateMutability": "view",
					"type": "function"
				},
				{
					"inputs": [
						{
							"internalType": "uint256",
							"name": "index",
							"type": "uint256"
						}
					],
					"name": "getMessageByIndex",
					"outputs": [
						{
							"internalType": "address",
							"name": "sender",
							"type": "address"
						},
						{
							"internalType": "string",
							"name": "content",
							"type": "string"
						},
						{
							"internalType": "uint256",
							"name": "timestamp",
							"type": "uint256"
						}
					],
					"stateMutability": "view",
					"type": "function"
				},
				{
					"inputs": [],
					"name": "getTotalMessages",
					"outputs": [
						{
							"internalType": "uint256",
							"name": "",
							"type": "uint256"
						}
					],
					"stateMutability": "view",
					"type": "function"
				},
				{
					"inputs": [
						{
							"internalType": "address",
							"name": "user",
							"type": "address"
						},
						{
							"internalType": "uint256",
							"name": "index",
							"type": "uint256"
						}
					],
					"name": "getUserMessageByIndex",
					"outputs": [
						{
							"internalType": "string",
							"name": "content",
							"type": "string"
						},
						{
							"internalType": "uint256",
							"name": "timestamp",
							"type": "uint256"
						}
					],
					"stateMutability": "view",
					"type": "function"
				},
				{
					"inputs": [
						{
							"internalType": "address",
							"name": "user",
							"type": "address"
						}
					],
					"name": "getUserMessageIndexes",
					"outputs": [
						{
							"internalType": "uint256[]",
							"name": "",
							"type": "uint256[]"
						}
					],
					"stateMutability": "view",
					"type": "function"
				},
				{
					"inputs": [],
					"name": "messageCost",
					"outputs": [
						{
							"internalType": "uint256",
							"name": "",
							"type": "uint256"
						}
					],
					"stateMutability": "view",
					"type": "function"
				},
				{
					"inputs": [
						{
							"internalType": "uint256",
							"name": "",
							"type": "uint256"
						}
					],
					"name": "messages",
					"outputs": [
						{
							"internalType": "address",
							"name": "sender",
							"type": "address"
						},
						{
							"internalType": "string",
							"name": "content",
							"type": "string"
						},
						{
							"internalType": "uint256",
							"name": "timestamp",
							"type": "uint256"
						}
					],
					"stateMutability": "view",
					"type": "function"
				},
				{
					"inputs": [],
					"name": "owner",
					"outputs": [
						{
							"internalType": "address",
							"name": "",
							"type": "address"
						}
					],
					"stateMutability": "view",
					"type": "function"
				},
				{
					"inputs": [],
					"name": "renounceOwnership",
					"outputs": [],
					"stateMutability": "nonpayable",
					"type": "function"
				},
				{
					"inputs": [
						{
							"internalType": "string",
							"name": "_message",
							"type": "string"
						}
					],
					"name": "sendMessage",
					"outputs": [],
					"stateMutability": "nonpayable",
					"type": "function"
				},
				{
					"inputs": [
						{
							"internalType": "uint256",
							"name": "_newPercentage",
							"type": "uint256"
						}
					],
					"name": "setDeveloperFeePercentage",
					"outputs": [],
					"stateMutability": "nonpayable",
					"type": "function"
				},
				{
					"inputs": [
						{
							"internalType": "uint256",
							"name": "_newCost",
							"type": "uint256"
						}
					],
					"name": "setMessageCost",
					"outputs": [],
					"stateMutability": "nonpayable",
					"type": "function"
				},
				{
					"inputs": [],
					"name": "tokenContract",
					"outputs": [
						{
							"internalType": "contract ERC20Burnable",
							"name": "",
							"type": "address"
						}
					],
					"stateMutability": "view",
					"type": "function"
				},
				{
					"inputs": [
						{
							"internalType": "address",
							"name": "newOwner",
							"type": "address"
						}
					],
					"name": "transferOwnership",
					"outputs": [],
					"stateMutability": "nonpayable",
					"type": "function"
				},
				{
					"inputs": [
						{
							"internalType": "address",
							"name": "",
							"type": "address"
						},
						{
							"internalType": "uint256",
							"name": "",
							"type": "uint256"
						}
					],
					"name": "userMessages",
					"outputs": [
						{
							"internalType": "uint256",
							"name": "",
							"type": "uint256"
						}
					],
					"stateMutability": "view",
					"type": "function"
				}
			],
			"devdoc": {
				"errors": {
					"AddressEmptyCode(address)": [
						{
							"details": "There's no code at `target` (it is not a contract)."
						}
					],
					"AddressInsufficientBalance(address)": [
						{
							"details": "The ETH balance of the account is not enough to perform the operation."
						}
					],
					"FailedInnerCall()": [
						{
							"details": "A call to an address target failed. The target may have reverted."
						}
					],
					"OwnableInvalidOwner(address)": [
						{
							"details": "The owner is not a valid owner account. (eg. `address(0)`)"
						}
					],
					"OwnableUnauthorizedAccount(address)": [
						{
							"details": "The caller account is not authorized to perform an operation."
						}
					],
					"ReentrancyGuardReentrantCall()": [
						{
							"details": "Unauthorized reentrant call."
						}
					],
					"SafeERC20FailedOperation(address)": [
						{
							"details": "An operation with an ERC20 token failed."
						}
					]
				},
				"kind": "dev",
				"methods": {
					"owner()": {
						"details": "Returns the address of the current owner."
					},
					"renounceOwnership()": {
						"details": "Leaves the contract without owner. It will not be possible to call `onlyOwner` functions. Can only be called by the current owner. NOTE: Renouncing ownership will leave the contract without an owner, thereby disabling any functionality that is only available to the owner."
					},
					"transferOwnership(address)": {
						"details": "Transfers ownership of the contract to a new account (`newOwner`). Can only be called by the current owner."
					}
				},
				"version": 1
			},
			"evm": {
				"assembly": "    /* \"contracts/GlobalChat.sol\":377:4408  contract GlobalChat is Ownable, ReentrancyGuard {... */\n  mstore(0x40, 0x80)\n    /* \"contracts/GlobalChat.sol\":576:579  100 */\n  0x64\n    /* \"contracts/GlobalChat.sol\":547:579  uint256 public messageCost = 100 */\n  0x04\n  sstore\n    /* \"contracts/GlobalChat.sol\":714:716  10 */\n  0x0a\n    /* \"contracts/GlobalChat.sol\":674:716  uint256 public developerFeePercentage = 10 */\n  0x05\n  sstore\n    /* \"contracts/GlobalChat.sol\":1119:1406  constructor(... */\n  callvalue\n  dup1\n  iszero\n  tag_1\n  jumpi\n  0x00\n  dup1\n  revert\ntag_1:\n  pop\n  mload(0x40)\n  sub(codesize, bytecodeSize)\n  dup1\n  bytecodeSize\n  dup4\n  codecopy\n  dup2\n  dup2\n  add\n  0x40\n  mstore\n  dup2\n  add\n  swap1\n  tag_2\n  swap2\n  swap1\n  tag_3\n  jump\t// in\ntag_2:\n    /* \"contracts/GlobalChat.sol\":1211:1221  msg.sender */\n  caller\n    /* \"@openzeppelin/contracts/access/Ownable.sol\":1297:1298  0 */\n  0x00\n    /* \"@openzeppelin/contracts/access/Ownable.sol\":1273:1299  initialOwner == address(0) */\n  0xffffffffffffffffffffffffffffffffffffffff\n  and\n    /* \"@openzeppelin/contracts/access/Ownable.sol\":1273:1285  initialOwner */\n  dup2\n    /* \"@openzeppelin/contracts/access/Ownable.sol\":1273:1299  initialOwner == address(0) */\n  0xffffffffffffffffffffffffffffffffffffffff\n  and\n  sub\n    /* \"@openzeppelin/contracts/access/Ownable.sol\":1269:1364  if (initialOwner == address(0)) {... */\n  tag_8\n  jumpi\n    /* \"@openzeppelin/contracts/access/Ownable.sol\":1350:1351  0 */\n  0x00\n    /* \"@openzeppelin/contracts/access/Ownable.sol\":1322:1353  OwnableInvalidOwner(address(0)) */\n  mload(0x40)\n  0x1e4fbdf700000000000000000000000000000000000000000000000000000000\n  dup2\n  mstore\n  0x04\n  add\n  tag_9\n  swap2\n  swap1\n  tag_10\n  jump\t// in\ntag_9:\n  mload(0x40)\n  dup1\n  swap2\n  sub\n  swap1\n  revert\n    /* \"@openzeppelin/contracts/access/Ownable.sol\":1269:1364  if (initialOwner == address(0)) {... */\ntag_8:\n    /* \"@openzeppelin/contracts/access/Ownable.sol\":1373:1405  _transferOwnership(initialOwner) */\n  tag_11\n    /* \"@openzeppelin/contracts/access/Ownable.sol\":1392:1404  initialOwner */\n  dup2\n    /* \"@openzeppelin/contracts/access/Ownable.sol\":1373:1391  _transferOwnership */\n  shl(0x20, tag_12)\n    /* \"@openzeppelin/contracts/access/Ownable.sol\":1373:1405  _transferOwnership(initialOwner) */\n  0x20\n  shr\n  jump\t// in\ntag_11:\n    /* \"@openzeppelin/contracts/access/Ownable.sol\":1225:1412  constructor(address initialOwner) {... */\n  pop\n    /* \"@openzeppelin/contracts/utils/ReentrancyGuard.sol\":1713:1714  1 */\n  0x01\n    /* \"@openzeppelin/contracts/utils/ReentrancyGuard.sol\":1917:1924  _status */\n  dup1\n    /* \"@openzeppelin/contracts/utils/ReentrancyGuard.sol\":1917:1938  _status = NOT_ENTERED */\n  dup2\n  swap1\n  sstore\n  pop\n    /* \"contracts/GlobalChat.sol\":1263:1277  _tokenContract */\n  dup2\n    /* \"contracts/GlobalChat.sol\":1233:1246  tokenContract */\n  0x02\n  0x00\n    /* \"contracts/GlobalChat.sol\":1233:1278  tokenContract = ERC20Burnable(_tokenContract) */\n  0x0100\n  exp\n  dup2\n  sload\n  dup2\n  0xffffffffffffffffffffffffffffffffffffffff\n  mul\n  not\n  and\n  swap1\n  dup4\n  0xffffffffffffffffffffffffffffffffffffffff\n  and\n  mul\n  or\n  swap1\n  sstore\n  pop\n    /* \"contracts/GlobalChat.sol\":1306:1322  _developerWallet */\n  dup1\n    /* \"contracts/GlobalChat.sol\":1288:1303  developerWallet */\n  0x03\n  0x00\n    /* \"contracts/GlobalChat.sol\":1288:1322  developerWallet = _developerWallet */\n  0x0100\n  exp\n  dup2\n  sload\n  dup2\n  0xffffffffffffffffffffffffffffffffffffffff\n  mul\n  not\n  and\n  swap1\n  dup4\n  0xffffffffffffffffffffffffffffffffffffffff\n  and\n  mul\n  or\n  swap1\n  sstore\n  pop\n    /* \"contracts/GlobalChat.sol\":1332:1361  transferOwnership(msg.sender) */\n  tag_15\n    /* \"contracts/GlobalChat.sol\":1350:1360  msg.sender */\n  caller\n    /* \"contracts/GlobalChat.sol\":1332:1349  transferOwnership */\n  shl(0x20, tag_16)\n    /* \"contracts/GlobalChat.sol\":1332:1361  transferOwnership(msg.sender) */\n  0x20\n  shr\n  jump\t// in\ntag_15:\n    /* \"contracts/GlobalChat.sol\":1119:1406  constructor(... */\n  pop\n  pop\n    /* \"contracts/GlobalChat.sol\":377:4408  contract GlobalChat is Ownable, ReentrancyGuard {... */\n  jump(tag_17)\n    /* \"@openzeppelin/contracts/access/Ownable.sol\":2912:3099  function _transferOwnership(address newOwner) internal virtual {... */\ntag_12:\n    /* \"@openzeppelin/contracts/access/Ownable.sol\":2985:3001  address oldOwner */\n  0x00\n    /* \"@openzeppelin/contracts/access/Ownable.sol\":3004:3010  _owner */\n  dup1\n  0x00\n  swap1\n  sload\n  swap1\n  0x0100\n  exp\n  swap1\n  div\n  0xffffffffffffffffffffffffffffffffffffffff\n  and\n    /* \"@openzeppelin/contracts/access/Ownable.sol\":2985:3010  address oldOwner = _owner */\n  swap1\n  pop\n    /* \"@openzeppelin/contracts/access/Ownable.sol\":3029:3037  newOwner */\n  dup2\n    /* \"@openzeppelin/contracts/access/Ownable.sol\":3020:3026  _owner */\n  0x00\n  dup1\n    /* \"@openzeppelin/contracts/access/Ownable.sol\":3020:3037  _owner = newOwner */\n  0x0100\n  exp\n  dup2\n  sload\n  dup2\n  0xffffffffffffffffffffffffffffffffffffffff\n  mul\n  not\n  and\n  swap1\n  dup4\n  0xffffffffffffffffffffffffffffffffffffffff\n  and\n  mul\n  or\n  swap1\n  sstore\n  pop\n    /* \"@openzeppelin/contracts/access/Ownable.sol\":3083:3091  newOwner */\n  dup2\n    /* \"@openzeppelin/contracts/access/Ownable.sol\":3052:3092  OwnershipTransferred(oldOwner, newOwner) */\n  0xffffffffffffffffffffffffffffffffffffffff\n  and\n    /* \"@openzeppelin/contracts/access/Ownable.sol\":3073:3081  oldOwner */\n  dup2\n    /* \"@openzeppelin/contracts/access/Ownable.sol\":3052:3092  OwnershipTransferred(oldOwner, newOwner) */\n  0xffffffffffffffffffffffffffffffffffffffff\n  and\n  0x8be0079c531659141344cd1fd0a4f28419497f9722a3daafe3b4186f6b6457e0\n  mload(0x40)\n  mload(0x40)\n  dup1\n  swap2\n  sub\n  swap1\n  log3\n    /* \"@openzeppelin/contracts/access/Ownable.sol\":2975:3099  {... */\n  pop\n    /* \"@openzeppelin/contracts/access/Ownable.sol\":2912:3099  function _transferOwnership(address newOwner) internal virtual {... */\n  pop\n  jump\t// out\n    /* \"@openzeppelin/contracts/access/Ownable.sol\":2543:2758  function transferOwnership(address newOwner) public virtual onlyOwner {... */\ntag_16:\n    /* \"@openzeppelin/contracts/access/Ownable.sol\":1531:1544  _checkOwner() */\n  tag_20\n    /* \"@openzeppelin/contracts/access/Ownable.sol\":1531:1542  _checkOwner */\n  shl(0x20, tag_21)\n    /* \"@openzeppelin/contracts/access/Ownable.sol\":1531:1544  _checkOwner() */\n  0x20\n  shr\n  jump\t// in\ntag_20:\n    /* \"@openzeppelin/contracts/access/Ownable.sol\":2647:2648  0 */\n  0x00\n    /* \"@openzeppelin/contracts/access/Ownable.sol\":2627:2649  newOwner == address(0) */\n  0xffffffffffffffffffffffffffffffffffffffff\n  and\n    /* \"@openzeppelin/contracts/access/Ownable.sol\":2627:2635  newOwner */\n  dup2\n    /* \"@openzeppelin/contracts/access/Ownable.sol\":2627:2649  newOwner == address(0) */\n  0xffffffffffffffffffffffffffffffffffffffff\n  and\n  sub\n    /* \"@openzeppelin/contracts/access/Ownable.sol\":2623:2714  if (newOwner == address(0)) {... */\n  tag_23\n  jumpi\n    /* \"@openzeppelin/contracts/access/Ownable.sol\":2700:2701  0 */\n  0x00\n    /* \"@openzeppelin/contracts/access/Ownable.sol\":2672:2703  OwnableInvalidOwner(address(0)) */\n  mload(0x40)\n  0x1e4fbdf700000000000000000000000000000000000000000000000000000000\n  dup2\n  mstore\n  0x04\n  add\n  tag_24\n  swap2\n  swap1\n  tag_10\n  jump\t// in\ntag_24:\n  mload(0x40)\n  dup1\n  swap2\n  sub\n  swap1\n  revert\n    /* \"@openzeppelin/contracts/access/Ownable.sol\":2623:2714  if (newOwner == address(0)) {... */\ntag_23:\n    /* \"@openzeppelin/contracts/access/Ownable.sol\":2723:2751  _transferOwnership(newOwner) */\n  tag_25\n    /* \"@openzeppelin/contracts/access/Ownable.sol\":2742:2750  newOwner */\n  dup2\n    /* \"@openzeppelin/contracts/access/Ownable.sol\":2723:2741  _transferOwnership */\n  shl(0x20, tag_12)\n    /* \"@openzeppelin/contracts/access/Ownable.sol\":2723:2751  _transferOwnership(newOwner) */\n  0x20\n  shr\n  jump\t// in\ntag_25:\n    /* \"@openzeppelin/contracts/access/Ownable.sol\":2543:2758  function transferOwnership(address newOwner) public virtual onlyOwner {... */\n  pop\n  jump\t// out\n    /* \"@openzeppelin/contracts/access/Ownable.sol\":1796:1958  function _checkOwner() internal view virtual {... */\ntag_21:\n    /* \"@openzeppelin/contracts/access/Ownable.sol\":1866:1878  _msgSender() */\n  tag_27\n    /* \"@openzeppelin/contracts/access/Ownable.sol\":1866:1876  _msgSender */\n  shl(0x20, tag_28)\n    /* \"@openzeppelin/contracts/access/Ownable.sol\":1866:1878  _msgSender() */\n  0x20\n  shr\n  jump\t// in\ntag_27:\n    /* \"@openzeppelin/contracts/access/Ownable.sol\":1855:1878  owner() != _msgSender() */\n  0xffffffffffffffffffffffffffffffffffffffff\n  and\n    /* \"@openzeppelin/contracts/access/Ownable.sol\":1855:1862  owner() */\n  tag_29\n    /* \"@openzeppelin/contracts/access/Ownable.sol\":1855:1860  owner */\n  shl(0x20, tag_30)\n    /* \"@openzeppelin/contracts/access/Ownable.sol\":1855:1862  owner() */\n  0x20\n  shr\n  jump\t// in\ntag_29:\n    /* \"@openzeppelin/contracts/access/Ownable.sol\":1855:1878  owner() != _msgSender() */\n  0xffffffffffffffffffffffffffffffffffffffff\n  and\n  eq\n    /* \"@openzeppelin/contracts/access/Ownable.sol\":1851:1952  if (owner() != _msgSender()) {... */\n  tag_31\n  jumpi\n    /* \"@openzeppelin/contracts/access/Ownable.sol\":1928:1940  _msgSender() */\n  tag_32\n    /* \"@openzeppelin/contracts/access/Ownable.sol\":1928:1938  _msgSender */\n  shl(0x20, tag_28)\n    /* \"@openzeppelin/contracts/access/Ownable.sol\":1928:1940  _msgSender() */\n  0x20\n  shr\n  jump\t// in\ntag_32:\n    /* \"@openzeppelin/contracts/access/Ownable.sol\":1901:1941  OwnableUnauthorizedAccount(_msgSender()) */\n  mload(0x40)\n  0x118cdaa700000000000000000000000000000000000000000000000000000000\n  dup2\n  mstore\n  0x04\n  add\n  tag_33\n  swap2\n  swap1\n  tag_10\n  jump\t// in\ntag_33:\n  mload(0x40)\n  dup1\n  swap2\n  sub\n  swap1\n  revert\n    /* \"@openzeppelin/contracts/access/Ownable.sol\":1851:1952  if (owner() != _msgSender()) {... */\ntag_31:\n    /* \"@openzeppelin/contracts/access/Ownable.sol\":1796:1958  function _checkOwner() internal view virtual {... */\n  jump\t// out\n    /* \"@openzeppelin/contracts/utils/Context.sol\":656:752  function _msgSender() internal view virtual returns (address) {... */\ntag_28:\n    /* \"@openzeppelin/contracts/utils/Context.sol\":709:716  address */\n  0x00\n    /* \"@openzeppelin/contracts/utils/Context.sol\":735:745  msg.sender */\n  caller\n    /* \"@openzeppelin/contracts/utils/Context.sol\":728:745  return msg.sender */\n  swap1\n  pop\n    /* \"@openzeppelin/contracts/utils/Context.sol\":656:752  function _msgSender() internal view virtual returns (address) {... */\n  swap1\n  jump\t// out\n    /* \"@openzeppelin/contracts/access/Ownable.sol\":1638:1723  function owner() public view virtual returns (address) {... */\ntag_30:\n    /* \"@openzeppelin/contracts/access/Ownable.sol\":1684:1691  address */\n  0x00\n    /* \"@openzeppelin/contracts/access/Ownable.sol\":1710:1716  _owner */\n  dup1\n  0x00\n  swap1\n  sload\n  swap1\n  0x0100\n  exp\n  swap1\n  div\n  0xffffffffffffffffffffffffffffffffffffffff\n  and\n    /* \"@openzeppelin/contracts/access/Ownable.sol\":1703:1716  return _owner */\n  swap1\n  pop\n    /* \"@openzeppelin/contracts/access/Ownable.sol\":1638:1723  function owner() public view virtual returns (address) {... */\n  swap1\n  jump\t// out\n    /* \"#utility.yul\":88:205   */\ntag_37:\n    /* \"#utility.yul\":197:198   */\n  0x00\n    /* \"#utility.yul\":194:195   */\n  dup1\n    /* \"#utility.yul\":187:199   */\n  revert\n    /* \"#utility.yul\":334:460   */\ntag_39:\n    /* \"#utility.yul\":371:378   */\n  0x00\n    /* \"#utility.yul\":411:453   */\n  0xffffffffffffffffffffffffffffffffffffffff\n    /* \"#utility.yul\":404:409   */\n  dup3\n    /* \"#utility.yul\":400:454   */\n  and\n    /* \"#utility.yul\":389:454   */\n  swap1\n  pop\n    /* \"#utility.yul\":334:460   */\n  swap2\n  swap1\n  pop\n  jump\t// out\n    /* \"#utility.yul\":466:562   */\ntag_40:\n    /* \"#utility.yul\":503:510   */\n  0x00\n    /* \"#utility.yul\":532:556   */\n  tag_50\n    /* \"#utility.yul\":550:555   */\n  dup3\n    /* \"#utility.yul\":532:556   */\n  tag_39\n  jump\t// in\ntag_50:\n    /* \"#utility.yul\":521:556   */\n  swap1\n  pop\n    /* \"#utility.yul\":466:562   */\n  swap2\n  swap1\n  pop\n  jump\t// out\n    /* \"#utility.yul\":568:690   */\ntag_41:\n    /* \"#utility.yul\":641:665   */\n  tag_52\n    /* \"#utility.yul\":659:664   */\n  dup2\n    /* \"#utility.yul\":641:665   */\n  tag_40\n  jump\t// in\ntag_52:\n    /* \"#utility.yul\":634:639   */\n  dup2\n    /* \"#utility.yul\":631:666   */\n  eq\n    /* \"#utility.yul\":621:684   */\n  tag_53\n  jumpi\n    /* \"#utility.yul\":680:681   */\n  0x00\n    /* \"#utility.yul\":677:678   */\n  dup1\n    /* \"#utility.yul\":670:682   */\n  revert\n    /* \"#utility.yul\":621:684   */\ntag_53:\n    /* \"#utility.yul\":568:690   */\n  pop\n  jump\t// out\n    /* \"#utility.yul\":696:839   */\ntag_42:\n    /* \"#utility.yul\":753:758   */\n  0x00\n    /* \"#utility.yul\":784:790   */\n  dup2\n    /* \"#utility.yul\":778:791   */\n  mload\n    /* \"#utility.yul\":769:791   */\n  swap1\n  pop\n    /* \"#utility.yul\":800:833   */\n  tag_55\n    /* \"#utility.yul\":827:832   */\n  dup2\n    /* \"#utility.yul\":800:833   */\n  tag_41\n  jump\t// in\ntag_55:\n    /* \"#utility.yul\":696:839   */\n  swap3\n  swap2\n  pop\n  pop\n  jump\t// out\n    /* \"#utility.yul\":845:1352   */\ntag_3:\n    /* \"#utility.yul\":924:930   */\n  0x00\n    /* \"#utility.yul\":932:938   */\n  dup1\n    /* \"#utility.yul\":981:983   */\n  0x40\n    /* \"#utility.yul\":969:978   */\n  dup4\n    /* \"#utility.yul\":960:967   */\n  dup6\n    /* \"#utility.yul\":956:979   */\n  sub\n    /* \"#utility.yul\":952:984   */\n  slt\n    /* \"#utility.yul\":949:1068   */\n  iszero\n  tag_57\n  jumpi\n    /* \"#utility.yul\":987:1066   */\n  tag_58\n  tag_37\n  jump\t// in\ntag_58:\n    /* \"#utility.yul\":949:1068   */\ntag_57:\n    /* \"#utility.yul\":1107:1108   */\n  0x00\n    /* \"#utility.yul\":1132:1196   */\n  tag_59\n    /* \"#utility.yul\":1188:1195   */\n  dup6\n    /* \"#utility.yul\":1179:1185   */\n  dup3\n    /* \"#utility.yul\":1168:1177   */\n  dup7\n    /* \"#utility.yul\":1164:1186   */\n  add\n    /* \"#utility.yul\":1132:1196   */\n  tag_42\n  jump\t// in\ntag_59:\n    /* \"#utility.yul\":1122:1196   */\n  swap3\n  pop\n    /* \"#utility.yul\":1078:1206   */\n  pop\n    /* \"#utility.yul\":1245:1247   */\n  0x20\n    /* \"#utility.yul\":1271:1335   */\n  tag_60\n    /* \"#utility.yul\":1327:1334   */\n  dup6\n    /* \"#utility.yul\":1318:1324   */\n  dup3\n    /* \"#utility.yul\":1307:1316   */\n  dup7\n    /* \"#utility.yul\":1303:1325   */\n  add\n    /* \"#utility.yul\":1271:1335   */\n  tag_42\n  jump\t// in\ntag_60:\n    /* \"#utility.yul\":1261:1335   */\n  swap2\n  pop\n    /* \"#utility.yul\":1216:1345   */\n  pop\n    /* \"#utility.yul\":845:1352   */\n  swap3\n  pop\n  swap3\n  swap1\n  pop\n  jump\t// out\n    /* \"#utility.yul\":1358:1476   */\ntag_43:\n    /* \"#utility.yul\":1445:1469   */\n  tag_62\n    /* \"#utility.yul\":1463:1468   */\n  dup2\n    /* \"#utility.yul\":1445:1469   */\n  tag_40\n  jump\t// in\ntag_62:\n    /* \"#utility.yul\":1440:1443   */\n  dup3\n    /* \"#utility.yul\":1433:1470   */\n  mstore\n    /* \"#utility.yul\":1358:1476   */\n  pop\n  pop\n  jump\t// out\n    /* \"#utility.yul\":1482:1704   */\ntag_10:\n    /* \"#utility.yul\":1575:1579   */\n  0x00\n    /* \"#utility.yul\":1613:1615   */\n  0x20\n    /* \"#utility.yul\":1602:1611   */\n  dup3\n    /* \"#utility.yul\":1598:1616   */\n  add\n    /* \"#utility.yul\":1590:1616   */\n  swap1\n  pop\n    /* \"#utility.yul\":1626:1697   */\n  tag_64\n    /* \"#utility.yul\":1694:1695   */\n  0x00\n    /* \"#utility.yul\":1683:1692   */\n  dup4\n    /* \"#utility.yul\":1679:1696   */\n  add\n    /* \"#utility.yul\":1670:1676   */\n  dup5\n    /* \"#utility.yul\":1626:1697   */\n  tag_43\n  jump\t// in\ntag_64:\n    /* \"#utility.yul\":1482:1704   */\n  swap3\n  swap2\n  pop\n  pop\n  jump\t// out\n    /* \"contracts/GlobalChat.sol\":377:4408  contract GlobalChat is Ownable, ReentrancyGuard {... */\ntag_17:\n  dataSize(sub_0)\n  dup1\n  dataOffset(sub_0)\n  0x00\n  codecopy\n  0x00\n  return\nstop\n\nsub_0: assembly {\n        /* \"contracts/GlobalChat.sol\":377:4408  contract GlobalChat is Ownable, ReentrancyGuard {... */\n      mstore(0x40, 0x80)\n      callvalue\n      dup1\n      iszero\n      tag_1\n      jumpi\n      0x00\n      dup1\n      revert\n    tag_1:\n      pop\n      jumpi(tag_2, lt(calldatasize, 0x04))\n      shr(0xe0, calldataload(0x00))\n      dup1\n      0x55a373d6\n      gt\n      tag_19\n      jumpi\n      dup1\n      0x9428cda3\n      gt\n      tag_20\n      jumpi\n      dup1\n      0x9428cda3\n      eq\n      tag_15\n      jumpi\n      dup1\n      0xad039fad\n      eq\n      tag_16\n      jumpi\n      dup1\n      0xaface8cd\n      eq\n      tag_17\n      jumpi\n      dup1\n      0xf2fde38b\n      eq\n      tag_18\n      jumpi\n      jump(tag_2)\n    tag_20:\n      dup1\n      0x55a373d6\n      eq\n      tag_11\n      jumpi\n      dup1\n      0x715018a6\n      eq\n      tag_12\n      jumpi\n      dup1\n      0x7862f04c\n      eq\n      tag_13\n      jumpi\n      dup1\n      0x8da5cb5b\n      eq\n      tag_14\n      jumpi\n      jump(tag_2)\n    tag_19:\n      dup1\n      0x2024c1b7\n      gt\n      tag_21\n      jumpi\n      dup1\n      0x2024c1b7\n      eq\n      tag_7\n      jumpi\n      dup1\n      0x36913a40\n      eq\n      tag_8\n      jumpi\n      dup1\n      0x38daefb6\n      eq\n      tag_9\n      jumpi\n      dup1\n      0x469c8110\n      eq\n      tag_10\n      jumpi\n      jump(tag_2)\n    tag_21:\n      dup1\n      0x0d80fefd\n      eq\n      tag_3\n      jumpi\n      dup1\n      0x1293092e\n      eq\n      tag_4\n      jumpi\n      dup1\n      0x147e9108\n      eq\n      tag_5\n      jumpi\n      dup1\n      0x185870f9\n      eq\n      tag_6\n      jumpi\n    tag_2:\n      0x00\n      dup1\n      revert\n        /* \"contracts/GlobalChat.sol\":895:920  Message[] public messages */\n    tag_3:\n      tag_22\n      0x04\n      dup1\n      calldatasize\n      sub\n      dup2\n      add\n      swap1\n      tag_23\n      swap2\n      swap1\n      tag_24\n      jump\t// in\n    tag_23:\n      tag_25\n      jump\t// in\n    tag_22:\n      mload(0x40)\n      tag_26\n      swap4\n      swap3\n      swap2\n      swap1\n      tag_27\n      jump\t// in\n    tag_26:\n      mload(0x40)\n      dup1\n      swap2\n      sub\n      swap1\n      return\n        /* \"contracts/GlobalChat.sol\":547:579  uint256 public messageCost = 100 */\n    tag_4:\n      tag_28\n      tag_29\n      jump\t// in\n    tag_28:\n      mload(0x40)\n      tag_30\n      swap2\n      swap1\n      tag_31\n      jump\t// in\n    tag_30:\n      mload(0x40)\n      dup1\n      swap2\n      sub\n      swap1\n      return\n        /* \"contracts/GlobalChat.sol\":3162:3259  function getTotalMessages() public view returns (uint256) {... */\n    tag_5:\n      tag_32\n      tag_33\n      jump\t// in\n    tag_32:\n      mload(0x40)\n      tag_34\n      swap2\n      swap1\n      tag_31\n      jump\t// in\n    tag_34:\n      mload(0x40)\n      dup1\n      swap2\n      sub\n      swap1\n      return\n        /* \"contracts/GlobalChat.sol\":511:541  address public developerWallet */\n    tag_6:\n      tag_35\n      tag_36\n      jump\t// in\n    tag_35:\n      mload(0x40)\n      tag_37\n      swap2\n      swap1\n      tag_38\n      jump\t// in\n    tag_37:\n      mload(0x40)\n      dup1\n      swap2\n      sub\n      swap1\n      return\n        /* \"contracts/GlobalChat.sol\":3305:3668  function getMessageByIndex(... */\n    tag_7:\n      tag_39\n      0x04\n      dup1\n      calldatasize\n      sub\n      dup2\n      add\n      swap1\n      tag_40\n      swap2\n      swap1\n      tag_24\n      jump\t// in\n    tag_40:\n      tag_41\n      jump\t// in\n    tag_39:\n      mload(0x40)\n      tag_42\n      swap4\n      swap3\n      swap2\n      swap1\n      tag_27\n      jump\t// in\n    tag_42:\n      mload(0x40)\n      dup1\n      swap2\n      sub\n      swap1\n      return\n        /* \"contracts/GlobalChat.sol\":3961:4406  function getUserMessageByIndex(... */\n    tag_8:\n      tag_43\n      0x04\n      dup1\n      calldatasize\n      sub\n      dup2\n      add\n      swap1\n      tag_44\n      swap2\n      swap1\n      tag_45\n      jump\t// in\n    tag_44:\n      tag_46\n      jump\t// in\n    tag_43:\n      mload(0x40)\n      tag_47\n      swap3\n      swap2\n      swap1\n      tag_48\n      jump\t// in\n    tag_47:\n      mload(0x40)\n      dup1\n      swap2\n      sub\n      swap1\n      return\n        /* \"contracts/GlobalChat.sol\":1861:2073  function setDeveloperFeePercentage(... */\n    tag_9:\n      tag_49\n      0x04\n      dup1\n      calldatasize\n      sub\n      dup2\n      add\n      swap1\n      tag_50\n      swap2\n      swap1\n      tag_24\n      jump\t// in\n    tag_50:\n      tag_51\n      jump\t// in\n    tag_49:\n      stop\n        /* \"contracts/GlobalChat.sol\":2278:2989  function sendMessage(string memory _message) public nonReentrant {... */\n    tag_10:\n      tag_52\n      0x04\n      dup1\n      calldatasize\n      sub\n      dup2\n      add\n      swap1\n      tag_53\n      swap2\n      swap1\n      tag_54\n      jump\t// in\n    tag_53:\n      tag_55\n      jump\t// in\n    tag_52:\n      stop\n        /* \"contracts/GlobalChat.sol\":471:505  ERC20Burnable public tokenContract */\n    tag_11:\n      tag_56\n      tag_57\n      jump\t// in\n    tag_56:\n      mload(0x40)\n      tag_58\n      swap2\n      swap1\n      tag_59\n      jump\t// in\n    tag_58:\n      mload(0x40)\n      dup1\n      swap2\n      sub\n      swap1\n      return\n        /* \"contracts/GlobalChat.sol\":1478:1571  function renounceOwnership() public override onlyOwner {... */\n    tag_12:\n      tag_60\n      tag_61\n      jump\t// in\n    tag_60:\n      stop\n        /* \"contracts/GlobalChat.sol\":674:716  uint256 public developerFeePercentage = 10 */\n    tag_13:\n      tag_62\n      tag_63\n      jump\t// in\n    tag_62:\n      mload(0x40)\n      tag_64\n      swap2\n      swap1\n      tag_31\n      jump\t// in\n    tag_64:\n      mload(0x40)\n      dup1\n      swap2\n      sub\n      swap1\n      return\n        /* \"@openzeppelin/contracts/access/Ownable.sol\":1638:1723  function owner() public view virtual returns (address) {... */\n    tag_14:\n      tag_65\n      tag_66\n      jump\t// in\n    tag_65:\n      mload(0x40)\n      tag_67\n      swap2\n      swap1\n      tag_38\n      jump\t// in\n    tag_67:\n      mload(0x40)\n      dup1\n      swap2\n      sub\n      swap1\n      return\n        /* \"contracts/GlobalChat.sol\":926:975  mapping(address => uint256[]) public userMessages */\n    tag_15:\n      tag_68\n      0x04\n      dup1\n      calldatasize\n      sub\n      dup2\n      add\n      swap1\n      tag_69\n      swap2\n      swap1\n      tag_45\n      jump\t// in\n    tag_69:\n      tag_70\n      jump\t// in\n    tag_68:\n      mload(0x40)\n      tag_71\n      swap2\n      swap1\n      tag_31\n      jump\t// in\n    tag_71:\n      mload(0x40)\n      dup1\n      swap2\n      sub\n      swap1\n      return\n        /* \"contracts/GlobalChat.sol\":3726:3866  function getUserMessageIndexes(... */\n    tag_16:\n      tag_72\n      0x04\n      dup1\n      calldatasize\n      sub\n      dup2\n      add\n      swap1\n      tag_73\n      swap2\n      swap1\n      tag_74\n      jump\t// in\n    tag_73:\n      tag_75\n      jump\t// in\n    tag_72:\n      mload(0x40)\n      tag_76\n      swap2\n      swap1\n      tag_77\n      jump\t// in\n    tag_76:\n      mload(0x40)\n      dup1\n      swap2\n      sub\n      swap1\n      return\n        /* \"contracts/GlobalChat.sol\":1757:1855  function setMessageCost(uint256 _newCost) public onlyOwner {... */\n    tag_17:\n      tag_78\n      0x04\n      dup1\n      calldatasize\n      sub\n      dup2\n      add\n      swap1\n      tag_79\n      swap2\n      swap1\n      tag_24\n      jump\t// in\n    tag_79:\n      tag_80\n      jump\t// in\n    tag_78:\n      stop\n        /* \"@openzeppelin/contracts/access/Ownable.sol\":2543:2758  function transferOwnership(address newOwner) public virtual onlyOwner {... */\n    tag_18:\n      tag_81\n      0x04\n      dup1\n      calldatasize\n      sub\n      dup2\n      add\n      swap1\n      tag_82\n      swap2\n      swap1\n      tag_74\n      jump\t// in\n    tag_82:\n      tag_83\n      jump\t// in\n    tag_81:\n      stop\n        /* \"contracts/GlobalChat.sol\":895:920  Message[] public messages */\n    tag_25:\n      0x06\n      dup2\n      dup2\n      sload\n      dup2\n      lt\n      tag_84\n      jumpi\n      0x00\n      dup1\n      revert\n    tag_84:\n      swap1\n      0x00\n      mstore\n      keccak256(0x00, 0x20)\n      swap1\n      0x03\n      mul\n      add\n      0x00\n      swap2\n      pop\n      swap1\n      pop\n      dup1\n      0x00\n      add\n      0x00\n      swap1\n      sload\n      swap1\n      0x0100\n      exp\n      swap1\n      div\n      0xffffffffffffffffffffffffffffffffffffffff\n      and\n      swap1\n      dup1\n      0x01\n      add\n      dup1\n      sload\n      tag_86\n      swap1\n      tag_87\n      jump\t// in\n    tag_86:\n      dup1\n      0x1f\n      add\n      0x20\n      dup1\n      swap2\n      div\n      mul\n      0x20\n      add\n      mload(0x40)\n      swap1\n      dup2\n      add\n      0x40\n      mstore\n      dup1\n      swap3\n      swap2\n      swap1\n      dup2\n      dup2\n      mstore\n      0x20\n      add\n      dup3\n      dup1\n      sload\n      tag_88\n      swap1\n      tag_87\n      jump\t// in\n    tag_88:\n      dup1\n      iszero\n      tag_89\n      jumpi\n      dup1\n      0x1f\n      lt\n      tag_90\n      jumpi\n      0x0100\n      dup1\n      dup4\n      sload\n      div\n      mul\n      dup4\n      mstore\n      swap2\n      0x20\n      add\n      swap2\n      jump(tag_89)\n    tag_90:\n      dup3\n      add\n      swap2\n      swap1\n      0x00\n      mstore\n      keccak256(0x00, 0x20)\n      swap1\n    tag_91:\n      dup2\n      sload\n      dup2\n      mstore\n      swap1\n      0x01\n      add\n      swap1\n      0x20\n      add\n      dup1\n      dup4\n      gt\n      tag_91\n      jumpi\n      dup3\n      swap1\n      sub\n      0x1f\n      and\n      dup3\n      add\n      swap2\n    tag_89:\n      pop\n      pop\n      pop\n      pop\n      pop\n      swap1\n      dup1\n      0x02\n      add\n      sload\n      swap1\n      pop\n      dup4\n      jump\t// out\n        /* \"contracts/GlobalChat.sol\":547:579  uint256 public messageCost = 100 */\n    tag_29:\n      sload(0x04)\n      dup2\n      jump\t// out\n        /* \"contracts/GlobalChat.sol\":3162:3259  function getTotalMessages() public view returns (uint256) {... */\n    tag_33:\n        /* \"contracts/GlobalChat.sol\":3211:3218  uint256 */\n      0x00\n        /* \"contracts/GlobalChat.sol\":3237:3245  messages */\n      0x06\n        /* \"contracts/GlobalChat.sol\":3237:3252  messages.length */\n      dup1\n      sload\n      swap1\n      pop\n        /* \"contracts/GlobalChat.sol\":3230:3252  return messages.length */\n      swap1\n      pop\n        /* \"contracts/GlobalChat.sol\":3162:3259  function getTotalMessages() public view returns (uint256) {... */\n      swap1\n      jump\t// out\n        /* \"contracts/GlobalChat.sol\":511:541  address public developerWallet */\n    tag_36:\n      0x03\n      0x00\n      swap1\n      sload\n      swap1\n      0x0100\n      exp\n      swap1\n      div\n      0xffffffffffffffffffffffffffffffffffffffff\n      and\n      dup2\n      jump\t// out\n        /* \"contracts/GlobalChat.sol\":3305:3668  function getMessageByIndex(... */\n    tag_41:\n        /* \"contracts/GlobalChat.sol\":3406:3420  address sender */\n      0x00\n        /* \"contracts/GlobalChat.sol\":3422:3443  string memory content */\n      0x60\n        /* \"contracts/GlobalChat.sol\":3445:3462  uint256 timestamp */\n      0x00\n        /* \"contracts/GlobalChat.sol\":3494:3502  messages */\n      0x06\n        /* \"contracts/GlobalChat.sol\":3494:3509  messages.length */\n      dup1\n      sload\n      swap1\n      pop\n        /* \"contracts/GlobalChat.sol\":3486:3491  index */\n      dup5\n        /* \"contracts/GlobalChat.sol\":3486:3509  index < messages.length */\n      lt\n        /* \"contracts/GlobalChat.sol\":3478:3541  require(index < messages.length, \"Message index out of bounds\") */\n      tag_94\n      jumpi\n      mload(0x40)\n      0x08c379a000000000000000000000000000000000000000000000000000000000\n      dup2\n      mstore\n      0x04\n      add\n      tag_95\n      swap1\n      tag_96\n      jump\t// in\n    tag_95:\n      mload(0x40)\n      dup1\n      swap2\n      sub\n      swap1\n      revert\n    tag_94:\n        /* \"contracts/GlobalChat.sol\":3551:3574  Message storage message */\n      0x00\n        /* \"contracts/GlobalChat.sol\":3577:3585  messages */\n      0x06\n        /* \"contracts/GlobalChat.sol\":3586:3591  index */\n      dup6\n        /* \"contracts/GlobalChat.sol\":3577:3592  messages[index] */\n      dup2\n      sload\n      dup2\n      lt\n      tag_97\n      jumpi\n      tag_98\n      tag_99\n      jump\t// in\n    tag_98:\n    tag_97:\n      swap1\n      0x00\n      mstore\n      keccak256(0x00, 0x20)\n      swap1\n      0x03\n      mul\n      add\n        /* \"contracts/GlobalChat.sol\":3551:3592  Message storage message = messages[index] */\n      swap1\n      pop\n        /* \"contracts/GlobalChat.sol\":3610:3617  message */\n      dup1\n        /* \"contracts/GlobalChat.sol\":3610:3624  message.sender */\n      0x00\n      add\n      0x00\n      swap1\n      sload\n      swap1\n      0x0100\n      exp\n      swap1\n      div\n      0xffffffffffffffffffffffffffffffffffffffff\n      and\n        /* \"contracts/GlobalChat.sol\":3626:3633  message */\n      dup2\n        /* \"contracts/GlobalChat.sol\":3626:3641  message.content */\n      0x01\n      add\n        /* \"contracts/GlobalChat.sol\":3643:3650  message */\n      dup3\n        /* \"contracts/GlobalChat.sol\":3643:3660  message.timestamp */\n      0x02\n      add\n      sload\n        /* \"contracts/GlobalChat.sol\":3602:3661  return (message.sender, message.content, message.timestamp) */\n      dup2\n      dup1\n      sload\n      tag_101\n      swap1\n      tag_87\n      jump\t// in\n    tag_101:\n      dup1\n      0x1f\n      add\n      0x20\n      dup1\n      swap2\n      div\n      mul\n      0x20\n      add\n      mload(0x40)\n      swap1\n      dup2\n      add\n      0x40\n      mstore\n      dup1\n      swap3\n      swap2\n      swap1\n      dup2\n      dup2\n      mstore\n      0x20\n      add\n      dup3\n      dup1\n      sload\n      tag_102\n      swap1\n      tag_87\n      jump\t// in\n    tag_102:\n      dup1\n      iszero\n      tag_103\n      jumpi\n      dup1\n      0x1f\n      lt\n      tag_104\n      jumpi\n      0x0100\n      dup1\n      dup4\n      sload\n      div\n      mul\n      dup4\n      mstore\n      swap2\n      0x20\n      add\n      swap2\n      jump(tag_103)\n    tag_104:\n      dup3\n      add\n      swap2\n      swap1\n      0x00\n      mstore\n      keccak256(0x00, 0x20)\n      swap1\n    tag_105:\n      dup2\n      sload\n      dup2\n      mstore\n      swap1\n      0x01\n      add\n      swap1\n      0x20\n      add\n      dup1\n      dup4\n      gt\n      tag_105\n      jumpi\n      dup3\n      swap1\n      sub\n      0x1f\n      and\n      dup3\n      add\n      swap2\n    tag_103:\n      pop\n      pop\n      pop\n      pop\n      pop\n      swap2\n      pop\n      swap4\n      pop\n      swap4\n      pop\n      swap4\n      pop\n      pop\n        /* \"contracts/GlobalChat.sol\":3305:3668  function getMessageByIndex(... */\n      swap2\n      swap4\n      swap1\n      swap3\n      pop\n      jump\t// out\n        /* \"contracts/GlobalChat.sol\":3961:4406  function getUserMessageByIndex(... */\n    tag_46:\n        /* \"contracts/GlobalChat.sol\":4064:4085  string memory content */\n      0x60\n        /* \"contracts/GlobalChat.sol\":4087:4104  uint256 timestamp */\n      0x00\n        /* \"contracts/GlobalChat.sol\":4145:4157  userMessages */\n      0x07\n        /* \"contracts/GlobalChat.sol\":4145:4163  userMessages[user] */\n      0x00\n        /* \"contracts/GlobalChat.sol\":4158:4162  user */\n      dup6\n        /* \"contracts/GlobalChat.sol\":4145:4163  userMessages[user] */\n      0xffffffffffffffffffffffffffffffffffffffff\n      and\n      0xffffffffffffffffffffffffffffffffffffffff\n      and\n      dup2\n      mstore\n      0x20\n      add\n      swap1\n      dup2\n      mstore\n      0x20\n      add\n      0x00\n      keccak256\n        /* \"contracts/GlobalChat.sol\":4145:4170  userMessages[user].length */\n      dup1\n      sload\n      swap1\n      pop\n        /* \"contracts/GlobalChat.sol\":4137:4142  index */\n      dup4\n        /* \"contracts/GlobalChat.sol\":4137:4170  index < userMessages[user].length */\n      lt\n        /* \"contracts/GlobalChat.sol\":4116:4232  require(... */\n      tag_107\n      jumpi\n      mload(0x40)\n      0x08c379a000000000000000000000000000000000000000000000000000000000\n      dup2\n      mstore\n      0x04\n      add\n      tag_108\n      swap1\n      tag_109\n      jump\t// in\n    tag_108:\n      mload(0x40)\n      dup1\n      swap2\n      sub\n      swap1\n      revert\n    tag_107:\n        /* \"contracts/GlobalChat.sol\":4242:4261  uint256 globalIndex */\n      0x00\n        /* \"contracts/GlobalChat.sol\":4264:4276  userMessages */\n      0x07\n        /* \"contracts/GlobalChat.sol\":4264:4282  userMessages[user] */\n      0x00\n        /* \"contracts/GlobalChat.sol\":4277:4281  user */\n      dup7\n        /* \"contracts/GlobalChat.sol\":4264:4282  userMessages[user] */\n      0xffffffffffffffffffffffffffffffffffffffff\n      and\n      0xffffffffffffffffffffffffffffffffffffffff\n      and\n      dup2\n      mstore\n      0x20\n      add\n      swap1\n      dup2\n      mstore\n      0x20\n      add\n      0x00\n      keccak256\n        /* \"contracts/GlobalChat.sol\":4283:4288  index */\n      dup5\n        /* \"contracts/GlobalChat.sol\":4264:4289  userMessages[user][index] */\n      dup2\n      sload\n      dup2\n      lt\n      tag_110\n      jumpi\n      tag_111\n      tag_99\n      jump\t// in\n    tag_111:\n    tag_110:\n      swap1\n      0x00\n      mstore\n      keccak256(0x00, 0x20)\n      add\n      sload\n        /* \"contracts/GlobalChat.sol\":4242:4289  uint256 globalIndex = userMessages[user][index] */\n      swap1\n      pop\n        /* \"contracts/GlobalChat.sol\":4299:4322  Message storage message */\n      0x00\n        /* \"contracts/GlobalChat.sol\":4325:4333  messages */\n      0x06\n        /* \"contracts/GlobalChat.sol\":4334:4345  globalIndex */\n      dup3\n        /* \"contracts/GlobalChat.sol\":4325:4346  messages[globalIndex] */\n      dup2\n      sload\n      dup2\n      lt\n      tag_113\n      jumpi\n      tag_114\n      tag_99\n      jump\t// in\n    tag_114:\n    tag_113:\n      swap1\n      0x00\n      mstore\n      keccak256(0x00, 0x20)\n      swap1\n      0x03\n      mul\n      add\n        /* \"contracts/GlobalChat.sol\":4299:4346  Message storage message = messages[globalIndex] */\n      swap1\n      pop\n        /* \"contracts/GlobalChat.sol\":4364:4371  message */\n      dup1\n        /* \"contracts/GlobalChat.sol\":4364:4379  message.content */\n      0x01\n      add\n        /* \"contracts/GlobalChat.sol\":4381:4388  message */\n      dup2\n        /* \"contracts/GlobalChat.sol\":4381:4398  message.timestamp */\n      0x02\n      add\n      sload\n        /* \"contracts/GlobalChat.sol\":4356:4399  return (message.content, message.timestamp) */\n      dup2\n      dup1\n      sload\n      tag_116\n      swap1\n      tag_87\n      jump\t// in\n    tag_116:\n      dup1\n      0x1f\n      add\n      0x20\n      dup1\n      swap2\n      div\n      mul\n      0x20\n      add\n      mload(0x40)\n      swap1\n      dup2\n      add\n      0x40\n      mstore\n      dup1\n      swap3\n      swap2\n      swap1\n      dup2\n      dup2\n      mstore\n      0x20\n      add\n      dup3\n      dup1\n      sload\n      tag_117\n      swap1\n      tag_87\n      jump\t// in\n    tag_117:\n      dup1\n      iszero\n      tag_118\n      jumpi\n      dup1\n      0x1f\n      lt\n      tag_119\n      jumpi\n      0x0100\n      dup1\n      dup4\n      sload\n      div\n      mul\n      dup4\n      mstore\n      swap2\n      0x20\n      add\n      swap2\n      jump(tag_118)\n    tag_119:\n      dup3\n      add\n      swap2\n      swap1\n      0x00\n      mstore\n      keccak256(0x00, 0x20)\n      swap1\n    tag_120:\n      dup2\n      sload\n      dup2\n      mstore\n      swap1\n      0x01\n      add\n      swap1\n      0x20\n      add\n      dup1\n      dup4\n      gt\n      tag_120\n      jumpi\n      dup3\n      swap1\n      sub\n      0x1f\n      and\n      dup3\n      add\n      swap2\n    tag_118:\n      pop\n      pop\n      pop\n      pop\n      pop\n      swap2\n      pop\n      swap4\n      pop\n      swap4\n      pop\n      pop\n      pop\n        /* \"contracts/GlobalChat.sol\":3961:4406  function getUserMessageByIndex(... */\n      swap3\n      pop\n      swap3\n      swap1\n      pop\n      jump\t// out\n        /* \"contracts/GlobalChat.sol\":1861:2073  function setDeveloperFeePercentage(... */\n    tag_51:\n        /* \"@openzeppelin/contracts/access/Ownable.sol\":1531:1544  _checkOwner() */\n      tag_122\n        /* \"@openzeppelin/contracts/access/Ownable.sol\":1531:1542  _checkOwner */\n      tag_123\n        /* \"@openzeppelin/contracts/access/Ownable.sol\":1531:1544  _checkOwner() */\n      jump\t// in\n    tag_122:\n        /* \"contracts/GlobalChat.sol\":1987:1990  100 */\n      0x64\n        /* \"contracts/GlobalChat.sol\":1969:1983  _newPercentage */\n      dup2\n        /* \"contracts/GlobalChat.sol\":1969:1990  _newPercentage <= 100 */\n      gt\n      iszero\n        /* \"contracts/GlobalChat.sol\":1961:2017  require(_newPercentage <= 100, \"Invalid fee percentage\") */\n      tag_125\n      jumpi\n      mload(0x40)\n      0x08c379a000000000000000000000000000000000000000000000000000000000\n      dup2\n      mstore\n      0x04\n      add\n      tag_126\n      swap1\n      tag_127\n      jump\t// in\n    tag_126:\n      mload(0x40)\n      dup1\n      swap2\n      sub\n      swap1\n      revert\n    tag_125:\n        /* \"contracts/GlobalChat.sol\":2052:2066  _newPercentage */\n      dup1\n        /* \"contracts/GlobalChat.sol\":2027:2049  developerFeePercentage */\n      0x05\n        /* \"contracts/GlobalChat.sol\":2027:2066  developerFeePercentage = _newPercentage */\n      dup2\n      swap1\n      sstore\n      pop\n        /* \"contracts/GlobalChat.sol\":1861:2073  function setDeveloperFeePercentage(... */\n      pop\n      jump\t// out\n        /* \"contracts/GlobalChat.sol\":2278:2989  function sendMessage(string memory _message) public nonReentrant {... */\n    tag_55:\n        /* \"@openzeppelin/contracts/utils/ReentrancyGuard.sol\":2356:2377  _nonReentrantBefore() */\n      tag_129\n        /* \"@openzeppelin/contracts/utils/ReentrancyGuard.sol\":2356:2375  _nonReentrantBefore */\n      tag_130\n        /* \"@openzeppelin/contracts/utils/ReentrancyGuard.sol\":2356:2377  _nonReentrantBefore() */\n      jump\t// in\n    tag_129:\n        /* \"contracts/GlobalChat.sol\":2353:2373  uint256 developerFee */\n      0x00\n        /* \"contracts/GlobalChat.sol\":2417:2420  100 */\n      0x64\n        /* \"contracts/GlobalChat.sol\":2391:2413  developerFeePercentage */\n      sload(0x05)\n        /* \"contracts/GlobalChat.sol\":2377:2388  messageCost */\n      sload(0x04)\n        /* \"contracts/GlobalChat.sol\":2377:2413  messageCost * developerFeePercentage */\n      tag_132\n      swap2\n      swap1\n      tag_133\n      jump\t// in\n    tag_132:\n        /* \"contracts/GlobalChat.sol\":2376:2420  (messageCost * developerFeePercentage) / 100 */\n      tag_134\n      swap2\n      swap1\n      tag_135\n      jump\t// in\n    tag_134:\n        /* \"contracts/GlobalChat.sol\":2353:2420  uint256 developerFee = (messageCost * developerFeePercentage) / 100 */\n      swap1\n      pop\n        /* \"contracts/GlobalChat.sol\":2430:2448  uint256 burnAmount */\n      0x00\n        /* \"contracts/GlobalChat.sol\":2465:2477  developerFee */\n      dup2\n        /* \"contracts/GlobalChat.sol\":2451:2462  messageCost */\n      sload(0x04)\n        /* \"contracts/GlobalChat.sol\":2451:2477  messageCost - developerFee */\n      tag_136\n      swap2\n      swap1\n      tag_137\n      jump\t// in\n    tag_136:\n        /* \"contracts/GlobalChat.sol\":2430:2477  uint256 burnAmount = messageCost - developerFee */\n      swap1\n      pop\n        /* \"contracts/GlobalChat.sol\":2488:2607  tokenContract.safeTransferFrom(... */\n      tag_138\n        /* \"contracts/GlobalChat.sol\":2532:2542  msg.sender */\n      caller\n        /* \"contracts/GlobalChat.sol\":2556:2571  developerWallet */\n      0x03\n      0x00\n      swap1\n      sload\n      swap1\n      0x0100\n      exp\n      swap1\n      div\n      0xffffffffffffffffffffffffffffffffffffffff\n      and\n        /* \"contracts/GlobalChat.sol\":2585:2597  developerFee */\n      dup5\n        /* \"contracts/GlobalChat.sol\":2488:2501  tokenContract */\n      0x02\n      0x00\n      swap1\n      sload\n      swap1\n      0x0100\n      exp\n      swap1\n      div\n      0xffffffffffffffffffffffffffffffffffffffff\n      and\n        /* \"contracts/GlobalChat.sol\":2488:2518  tokenContract.safeTransferFrom */\n      0xffffffffffffffffffffffffffffffffffffffff\n      and\n      tag_139\n      swap1\n        /* \"contracts/GlobalChat.sol\":2488:2607  tokenContract.safeTransferFrom(... */\n      swap4\n      swap3\n      swap2\n      swap1\n      0xffffffff\n      and\n      jump\t// in\n    tag_138:\n        /* \"contracts/GlobalChat.sol\":2617:2686  tokenContract.safeTransferFrom(msg.sender, address(this), burnAmount) */\n      tag_140\n        /* \"contracts/GlobalChat.sol\":2648:2658  msg.sender */\n      caller\n        /* \"contracts/GlobalChat.sol\":2668:2672  this */\n      address\n        /* \"contracts/GlobalChat.sol\":2675:2685  burnAmount */\n      dup4\n        /* \"contracts/GlobalChat.sol\":2617:2630  tokenContract */\n      0x02\n      0x00\n      swap1\n      sload\n      swap1\n      0x0100\n      exp\n      swap1\n      div\n      0xffffffffffffffffffffffffffffffffffffffff\n      and\n        /* \"contracts/GlobalChat.sol\":2617:2647  tokenContract.safeTransferFrom */\n      0xffffffffffffffffffffffffffffffffffffffff\n      and\n      tag_139\n      swap1\n        /* \"contracts/GlobalChat.sol\":2617:2686  tokenContract.safeTransferFrom(msg.sender, address(this), burnAmount) */\n      swap4\n      swap3\n      swap2\n      swap1\n      0xffffffff\n      and\n      jump\t// in\n    tag_140:\n        /* \"contracts/GlobalChat.sol\":2696:2709  tokenContract */\n      0x02\n      0x00\n      swap1\n      sload\n      swap1\n      0x0100\n      exp\n      swap1\n      div\n      0xffffffffffffffffffffffffffffffffffffffff\n      and\n        /* \"contracts/GlobalChat.sol\":2696:2714  tokenContract.burn */\n      0xffffffffffffffffffffffffffffffffffffffff\n      and\n      0x42966c68\n        /* \"contracts/GlobalChat.sol\":2715:2725  burnAmount */\n      dup3\n        /* \"contracts/GlobalChat.sol\":2696:2726  tokenContract.burn(burnAmount) */\n      mload(0x40)\n      dup3\n      0xffffffff\n      and\n      0xe0\n      shl\n      dup2\n      mstore\n      0x04\n      add\n      tag_141\n      swap2\n      swap1\n      tag_31\n      jump\t// in\n    tag_141:\n      0x00\n      mload(0x40)\n      dup1\n      dup4\n      sub\n      dup2\n      0x00\n      dup8\n      dup1\n      extcodesize\n      iszero\n      dup1\n      iszero\n      tag_142\n      jumpi\n      0x00\n      dup1\n      revert\n    tag_142:\n      pop\n      gas\n      call\n      iszero\n      dup1\n      iszero\n      tag_144\n      jumpi\n      returndatasize\n      0x00\n      dup1\n      returndatacopy\n      revert(0x00, returndatasize)\n    tag_144:\n      pop\n      pop\n      pop\n      pop\n        /* \"contracts/GlobalChat.sol\":2737:2745  messages */\n      0x06\n        /* \"contracts/GlobalChat.sol\":2751:2797  Message(msg.sender, _message, block.timestamp) */\n      mload(0x40)\n      dup1\n      0x60\n      add\n      0x40\n      mstore\n      dup1\n        /* \"contracts/GlobalChat.sol\":2759:2769  msg.sender */\n      caller\n        /* \"contracts/GlobalChat.sol\":2751:2797  Message(msg.sender, _message, block.timestamp) */\n      0xffffffffffffffffffffffffffffffffffffffff\n      and\n      dup2\n      mstore\n      0x20\n      add\n        /* \"contracts/GlobalChat.sol\":2771:2779  _message */\n      dup6\n        /* \"contracts/GlobalChat.sol\":2751:2797  Message(msg.sender, _message, block.timestamp) */\n      dup2\n      mstore\n      0x20\n      add\n        /* \"contracts/GlobalChat.sol\":2781:2796  block.timestamp */\n      timestamp\n        /* \"contracts/GlobalChat.sol\":2751:2797  Message(msg.sender, _message, block.timestamp) */\n      dup2\n      mstore\n      pop\n        /* \"contracts/GlobalChat.sol\":2737:2798  messages.push(Message(msg.sender, _message, block.timestamp)) */\n      swap1\n      dup1\n      0x01\n      dup2\n      sload\n      add\n      dup1\n      dup3\n      sstore\n      dup1\n      swap2\n      pop\n      pop\n      0x01\n      swap1\n      sub\n      swap1\n      0x00\n      mstore\n      keccak256(0x00, 0x20)\n      swap1\n      0x03\n      mul\n      add\n      0x00\n      swap1\n      swap2\n      swap1\n      swap2\n      swap1\n      swap2\n      pop\n      0x00\n      dup3\n      add\n      mload\n      dup2\n      0x00\n      add\n      exp(0x0100, 0x00)\n      dup2\n      sload\n      dup2\n      0xffffffffffffffffffffffffffffffffffffffff\n      mul\n      not\n      and\n      swap1\n      dup4\n      0xffffffffffffffffffffffffffffffffffffffff\n      and\n      mul\n      or\n      swap1\n      sstore\n      pop\n      0x20\n      dup3\n      add\n      mload\n      dup2\n      0x01\n      add\n      swap1\n      dup2\n      tag_146\n      swap2\n      swap1\n      tag_147\n      jump\t// in\n    tag_146:\n      pop\n      0x40\n      dup3\n      add\n      mload\n      dup2\n      0x02\n      add\n      sstore\n      pop\n      pop\n        /* \"contracts/GlobalChat.sol\":2808:2820  userMessages */\n      0x07\n        /* \"contracts/GlobalChat.sol\":2808:2832  userMessages[msg.sender] */\n      0x00\n        /* \"contracts/GlobalChat.sol\":2821:2831  msg.sender */\n      caller\n        /* \"contracts/GlobalChat.sol\":2808:2832  userMessages[msg.sender] */\n      0xffffffffffffffffffffffffffffffffffffffff\n      and\n      0xffffffffffffffffffffffffffffffffffffffff\n      and\n      dup2\n      mstore\n      0x20\n      add\n      swap1\n      dup2\n      mstore\n      0x20\n      add\n      0x00\n      keccak256\n        /* \"contracts/GlobalChat.sol\":2856:2857  1 */\n      0x01\n        /* \"contracts/GlobalChat.sol\":2838:2846  messages */\n      0x06\n        /* \"contracts/GlobalChat.sol\":2838:2853  messages.length */\n      dup1\n      sload\n      swap1\n      pop\n        /* \"contracts/GlobalChat.sol\":2838:2857  messages.length - 1 */\n      tag_148\n      swap2\n      swap1\n      tag_137\n      jump\t// in\n    tag_148:\n        /* \"contracts/GlobalChat.sol\":2808:2858  userMessages[msg.sender].push(messages.length - 1) */\n      swap1\n      dup1\n      0x01\n      dup2\n      sload\n      add\n      dup1\n      dup3\n      sstore\n      dup1\n      swap2\n      pop\n      pop\n      0x01\n      swap1\n      sub\n      swap1\n      0x00\n      mstore\n      keccak256(0x00, 0x20)\n      add\n      0x00\n      swap1\n      swap2\n      swap1\n      swap2\n      swap1\n      swap2\n      pop\n      sstore\n        /* \"contracts/GlobalChat.sol\":2874:2895  FeePaid(developerFee) */\n      0x69e27f80547602d16208b028c44d20f25956e1fb7d0f51d62aa02f392426f371\n        /* \"contracts/GlobalChat.sol\":2882:2894  developerFee */\n      dup3\n        /* \"contracts/GlobalChat.sol\":2874:2895  FeePaid(developerFee) */\n      mload(0x40)\n      tag_150\n      swap2\n      swap1\n      tag_31\n      jump\t// in\n    tag_150:\n      mload(0x40)\n      dup1\n      swap2\n      sub\n      swap1\n      log1\n        /* \"contracts/GlobalChat.sol\":2910:2934  TokensBurned(burnAmount) */\n      0x6ef4855b666dcc7884561072e4358b28dfe01feb1b7f4dcebc00e62d50394ac7\n        /* \"contracts/GlobalChat.sol\":2923:2933  burnAmount */\n      dup2\n        /* \"contracts/GlobalChat.sol\":2910:2934  TokensBurned(burnAmount) */\n      mload(0x40)\n      tag_151\n      swap2\n      swap1\n      tag_31\n      jump\t// in\n    tag_151:\n      mload(0x40)\n      dup1\n      swap2\n      sub\n      swap1\n      log1\n        /* \"contracts/GlobalChat.sol\":2961:2971  msg.sender */\n      caller\n        /* \"contracts/GlobalChat.sol\":2949:2982  MessageSent(msg.sender, _message) */\n      0xffffffffffffffffffffffffffffffffffffffff\n      and\n      0x0d7fccda06d6eb51c23cbd16d49b9b3f3ebafb002dba1b074895cbb35d0e8130\n        /* \"contracts/GlobalChat.sol\":2973:2981  _message */\n      dup5\n        /* \"contracts/GlobalChat.sol\":2949:2982  MessageSent(msg.sender, _message) */\n      mload(0x40)\n      tag_152\n      swap2\n      swap1\n      tag_153\n      jump\t// in\n    tag_152:\n      mload(0x40)\n      dup1\n      swap2\n      sub\n      swap1\n      log2\n        /* \"contracts/GlobalChat.sol\":2343:2989  {... */\n      pop\n      pop\n        /* \"@openzeppelin/contracts/utils/ReentrancyGuard.sol\":2398:2418  _nonReentrantAfter() */\n      tag_154\n        /* \"@openzeppelin/contracts/utils/ReentrancyGuard.sol\":2398:2416  _nonReentrantAfter */\n      tag_155\n        /* \"@openzeppelin/contracts/utils/ReentrancyGuard.sol\":2398:2418  _nonReentrantAfter() */\n      jump\t// in\n    tag_154:\n        /* \"contracts/GlobalChat.sol\":2278:2989  function sendMessage(string memory _message) public nonReentrant {... */\n      pop\n      jump\t// out\n        /* \"contracts/GlobalChat.sol\":471:505  ERC20Burnable public tokenContract */\n    tag_57:\n      0x02\n      0x00\n      swap1\n      sload\n      swap1\n      0x0100\n      exp\n      swap1\n      div\n      0xffffffffffffffffffffffffffffffffffffffff\n      and\n      dup2\n      jump\t// out\n        /* \"contracts/GlobalChat.sol\":1478:1571  function renounceOwnership() public override onlyOwner {... */\n    tag_61:\n        /* \"@openzeppelin/contracts/access/Ownable.sol\":1531:1544  _checkOwner() */\n      tag_157\n        /* \"@openzeppelin/contracts/access/Ownable.sol\":1531:1542  _checkOwner */\n      tag_123\n        /* \"@openzeppelin/contracts/access/Ownable.sol\":1531:1544  _checkOwner() */\n      jump\t// in\n    tag_157:\n        /* \"contracts/GlobalChat.sol\":1478:1571  function renounceOwnership() public override onlyOwner {... */\n      jump\t// out\n        /* \"contracts/GlobalChat.sol\":674:716  uint256 public developerFeePercentage = 10 */\n    tag_63:\n      sload(0x05)\n      dup2\n      jump\t// out\n        /* \"@openzeppelin/contracts/access/Ownable.sol\":1638:1723  function owner() public view virtual returns (address) {... */\n    tag_66:\n        /* \"@openzeppelin/contracts/access/Ownable.sol\":1684:1691  address */\n      0x00\n        /* \"@openzeppelin/contracts/access/Ownable.sol\":1710:1716  _owner */\n      dup1\n      0x00\n      swap1\n      sload\n      swap1\n      0x0100\n      exp\n      swap1\n      div\n      0xffffffffffffffffffffffffffffffffffffffff\n      and\n        /* \"@openzeppelin/contracts/access/Ownable.sol\":1703:1716  return _owner */\n      swap1\n      pop\n        /* \"@openzeppelin/contracts/access/Ownable.sol\":1638:1723  function owner() public view virtual returns (address) {... */\n      swap1\n      jump\t// out\n        /* \"contracts/GlobalChat.sol\":926:975  mapping(address => uint256[]) public userMessages */\n    tag_70:\n      mstore(0x20, 0x07)\n      dup2\n      0x00\n      mstore\n      keccak256(0x00, 0x40)\n      dup2\n      dup2\n      sload\n      dup2\n      lt\n      tag_160\n      jumpi\n      0x00\n      dup1\n      revert\n    tag_160:\n      swap1\n      0x00\n      mstore\n      keccak256(0x00, 0x20)\n      add\n      0x00\n      swap2\n      pop\n      swap2\n      pop\n      pop\n      sload\n      dup2\n      jump\t// out\n        /* \"contracts/GlobalChat.sol\":3726:3866  function getUserMessageIndexes(... */\n    tag_75:\n        /* \"contracts/GlobalChat.sol\":3806:3822  uint256[] memory */\n      0x60\n        /* \"contracts/GlobalChat.sol\":3841:3853  userMessages */\n      0x07\n        /* \"contracts/GlobalChat.sol\":3841:3859  userMessages[user] */\n      0x00\n        /* \"contracts/GlobalChat.sol\":3854:3858  user */\n      dup4\n        /* \"contracts/GlobalChat.sol\":3841:3859  userMessages[user] */\n      0xffffffffffffffffffffffffffffffffffffffff\n      and\n      0xffffffffffffffffffffffffffffffffffffffff\n      and\n      dup2\n      mstore\n      0x20\n      add\n      swap1\n      dup2\n      mstore\n      0x20\n      add\n      0x00\n      keccak256\n        /* \"contracts/GlobalChat.sol\":3834:3859  return userMessages[user] */\n      dup1\n      sload\n      dup1\n      0x20\n      mul\n      0x20\n      add\n      mload(0x40)\n      swap1\n      dup2\n      add\n      0x40\n      mstore\n      dup1\n      swap3\n      swap2\n      swap1\n      dup2\n      dup2\n      mstore\n      0x20\n      add\n      dup3\n      dup1\n      sload\n      dup1\n      iszero\n      tag_163\n      jumpi\n      0x20\n      mul\n      dup3\n      add\n      swap2\n      swap1\n      0x00\n      mstore\n      keccak256(0x00, 0x20)\n      swap1\n    tag_164:\n      dup2\n      sload\n      dup2\n      mstore\n      0x20\n      add\n      swap1\n      0x01\n      add\n      swap1\n      dup1\n      dup4\n      gt\n      tag_164\n      jumpi\n    tag_163:\n      pop\n      pop\n      pop\n      pop\n      pop\n      swap1\n      pop\n        /* \"contracts/GlobalChat.sol\":3726:3866  function getUserMessageIndexes(... */\n      swap2\n      swap1\n      pop\n      jump\t// out\n        /* \"contracts/GlobalChat.sol\":1757:1855  function setMessageCost(uint256 _newCost) public onlyOwner {... */\n    tag_80:\n        /* \"@openzeppelin/contracts/access/Ownable.sol\":1531:1544  _checkOwner() */\n      tag_166\n        /* \"@openzeppelin/contracts/access/Ownable.sol\":1531:1542  _checkOwner */\n      tag_123\n        /* \"@openzeppelin/contracts/access/Ownable.sol\":1531:1544  _checkOwner() */\n      jump\t// in\n    tag_166:\n        /* \"contracts/GlobalChat.sol\":1840:1848  _newCost */\n      dup1\n        /* \"contracts/GlobalChat.sol\":1826:1837  messageCost */\n      0x04\n        /* \"contracts/GlobalChat.sol\":1826:1848  messageCost = _newCost */\n      dup2\n      swap1\n      sstore\n      pop\n        /* \"contracts/GlobalChat.sol\":1757:1855  function setMessageCost(uint256 _newCost) public onlyOwner {... */\n      pop\n      jump\t// out\n        /* \"@openzeppelin/contracts/access/Ownable.sol\":2543:2758  function transferOwnership(address newOwner) public virtual onlyOwner {... */\n    tag_83:\n        /* \"@openzeppelin/contracts/access/Ownable.sol\":1531:1544  _checkOwner() */\n      tag_169\n        /* \"@openzeppelin/contracts/access/Ownable.sol\":1531:1542  _checkOwner */\n      tag_123\n        /* \"@openzeppelin/contracts/access/Ownable.sol\":1531:1544  _checkOwner() */\n      jump\t// in\n    tag_169:\n        /* \"@openzeppelin/contracts/access/Ownable.sol\":2647:2648  0 */\n      0x00\n        /* \"@openzeppelin/contracts/access/Ownable.sol\":2627:2649  newOwner == address(0) */\n      0xffffffffffffffffffffffffffffffffffffffff\n      and\n        /* \"@openzeppelin/contracts/access/Ownable.sol\":2627:2635  newOwner */\n      dup2\n        /* \"@openzeppelin/contracts/access/Ownable.sol\":2627:2649  newOwner == address(0) */\n      0xffffffffffffffffffffffffffffffffffffffff\n      and\n      sub\n        /* \"@openzeppelin/contracts/access/Ownable.sol\":2623:2714  if (newOwner == address(0)) {... */\n      tag_171\n      jumpi\n        /* \"@openzeppelin/contracts/access/Ownable.sol\":2700:2701  0 */\n      0x00\n        /* \"@openzeppelin/contracts/access/Ownable.sol\":2672:2703  OwnableInvalidOwner(address(0)) */\n      mload(0x40)\n      0x1e4fbdf700000000000000000000000000000000000000000000000000000000\n      dup2\n      mstore\n      0x04\n      add\n      tag_172\n      swap2\n      swap1\n      tag_38\n      jump\t// in\n    tag_172:\n      mload(0x40)\n      dup1\n      swap2\n      sub\n      swap1\n      revert\n        /* \"@openzeppelin/contracts/access/Ownable.sol\":2623:2714  if (newOwner == address(0)) {... */\n    tag_171:\n        /* \"@openzeppelin/contracts/access/Ownable.sol\":2723:2751  _transferOwnership(newOwner) */\n      tag_173\n        /* \"@openzeppelin/contracts/access/Ownable.sol\":2742:2750  newOwner */\n      dup2\n        /* \"@openzeppelin/contracts/access/Ownable.sol\":2723:2741  _transferOwnership */\n      tag_174\n        /* \"@openzeppelin/contracts/access/Ownable.sol\":2723:2751  _transferOwnership(newOwner) */\n      jump\t// in\n    tag_173:\n        /* \"@openzeppelin/contracts/access/Ownable.sol\":2543:2758  function transferOwnership(address newOwner) public virtual onlyOwner {... */\n      pop\n      jump\t// out\n        /* \"@openzeppelin/contracts/access/Ownable.sol\":1796:1958  function _checkOwner() internal view virtual {... */\n    tag_123:\n        /* \"@openzeppelin/contracts/access/Ownable.sol\":1866:1878  _msgSender() */\n      tag_176\n        /* \"@openzeppelin/contracts/access/Ownable.sol\":1866:1876  _msgSender */\n      tag_177\n        /* \"@openzeppelin/contracts/access/Ownable.sol\":1866:1878  _msgSender() */\n      jump\t// in\n    tag_176:\n        /* \"@openzeppelin/contracts/access/Ownable.sol\":1855:1878  owner() != _msgSender() */\n      0xffffffffffffffffffffffffffffffffffffffff\n      and\n        /* \"@openzeppelin/contracts/access/Ownable.sol\":1855:1862  owner() */\n      tag_178\n        /* \"@openzeppelin/contracts/access/Ownable.sol\":1855:1860  owner */\n      tag_66\n        /* \"@openzeppelin/contracts/access/Ownable.sol\":1855:1862  owner() */\n      jump\t// in\n    tag_178:\n        /* \"@openzeppelin/contracts/access/Ownable.sol\":1855:1878  owner() != _msgSender() */\n      0xffffffffffffffffffffffffffffffffffffffff\n      and\n      eq\n        /* \"@openzeppelin/contracts/access/Ownable.sol\":1851:1952  if (owner() != _msgSender()) {... */\n      tag_179\n      jumpi\n        /* \"@openzeppelin/contracts/access/Ownable.sol\":1928:1940  _msgSender() */\n      tag_180\n        /* \"@openzeppelin/contracts/access/Ownable.sol\":1928:1938  _msgSender */\n      tag_177\n        /* \"@openzeppelin/contracts/access/Ownable.sol\":1928:1940  _msgSender() */\n      jump\t// in\n    tag_180:\n        /* \"@openzeppelin/contracts/access/Ownable.sol\":1901:1941  OwnableUnauthorizedAccount(_msgSender()) */\n      mload(0x40)\n      0x118cdaa700000000000000000000000000000000000000000000000000000000\n      dup2\n      mstore\n      0x04\n      add\n      tag_181\n      swap2\n      swap1\n      tag_38\n      jump\t// in\n    tag_181:\n      mload(0x40)\n      dup1\n      swap2\n      sub\n      swap1\n      revert\n        /* \"@openzeppelin/contracts/access/Ownable.sol\":1851:1952  if (owner() != _msgSender()) {... */\n    tag_179:\n        /* \"@openzeppelin/contracts/access/Ownable.sol\":1796:1958  function _checkOwner() internal view virtual {... */\n      jump\t// out\n        /* \"@openzeppelin/contracts/utils/ReentrancyGuard.sol\":2431:2738  function _nonReentrantBefore() private {... */\n    tag_130:\n        /* \"@openzeppelin/contracts/utils/ReentrancyGuard.sol\":1755:1756  2 */\n      0x02\n        /* \"@openzeppelin/contracts/utils/ReentrancyGuard.sol\":2558:2565  _status */\n      sload(0x01)\n        /* \"@openzeppelin/contracts/utils/ReentrancyGuard.sol\":2558:2576  _status == ENTERED */\n      sub\n        /* \"@openzeppelin/contracts/utils/ReentrancyGuard.sol\":2554:2640  if (_status == ENTERED) {... */\n      tag_183\n      jumpi\n        /* \"@openzeppelin/contracts/utils/ReentrancyGuard.sol\":2599:2629  ReentrancyGuardReentrantCall() */\n      mload(0x40)\n      0x3ee5aeb500000000000000000000000000000000000000000000000000000000\n      dup2\n      mstore\n      0x04\n      add\n      mload(0x40)\n      dup1\n      swap2\n      sub\n      swap1\n      revert\n        /* \"@openzeppelin/contracts/utils/ReentrancyGuard.sol\":2554:2640  if (_status == ENTERED) {... */\n    tag_183:\n        /* \"@openzeppelin/contracts/utils/ReentrancyGuard.sol\":1755:1756  2 */\n      0x02\n        /* \"@openzeppelin/contracts/utils/ReentrancyGuard.sol\":2714:2721  _status */\n      0x01\n        /* \"@openzeppelin/contracts/utils/ReentrancyGuard.sol\":2714:2731  _status = ENTERED */\n      dup2\n      swap1\n      sstore\n      pop\n        /* \"@openzeppelin/contracts/utils/ReentrancyGuard.sol\":2431:2738  function _nonReentrantBefore() private {... */\n      jump\t// out\n        /* \"@openzeppelin/contracts/token/ERC20/utils/SafeERC20.sol\":1702:1890  function safeTransferFrom(IERC20 token, address from, address to, uint256 value) internal {... */\n    tag_139:\n        /* \"@openzeppelin/contracts/token/ERC20/utils/SafeERC20.sol\":1802:1883  _callOptionalReturn(token, abi.encodeCall(token.transferFrom, (from, to, value))) */\n      tag_185\n        /* \"@openzeppelin/contracts/token/ERC20/utils/SafeERC20.sol\":1822:1827  token */\n      dup5\n        /* \"@openzeppelin/contracts/token/ERC20/utils/SafeERC20.sol\":1844:1849  token */\n      dup6\n        /* \"@openzeppelin/contracts/token/ERC20/utils/SafeERC20.sol\":1844:1862  token.transferFrom */\n      0xffffffffffffffffffffffffffffffffffffffff\n      and\n      0x23b872dd\n        /* \"@openzeppelin/contracts/token/ERC20/utils/SafeERC20.sol\":1865:1869  from */\n      dup7\n        /* \"@openzeppelin/contracts/token/ERC20/utils/SafeERC20.sol\":1871:1873  to */\n      dup7\n        /* \"@openzeppelin/contracts/token/ERC20/utils/SafeERC20.sol\":1875:1880  value */\n      dup7\n        /* \"@openzeppelin/contracts/token/ERC20/utils/SafeERC20.sol\":1829:1882  abi.encodeCall(token.transferFrom, (from, to, value)) */\n      add(0x24, mload(0x40))\n      tag_186\n      swap4\n      swap3\n      swap2\n      swap1\n      tag_187\n      jump\t// in\n    tag_186:\n      mload(0x40)\n      0x20\n      dup2\n      dup4\n      sub\n      sub\n      dup2\n      mstore\n      swap1\n      0x40\n      mstore\n      swap2\n      pop\n      0xe0\n      shl\n      0x20\n      dup3\n      add\n      dup1\n      mload\n      0xffffffffffffffffffffffffffffffffffffffffffffffffffffffff\n      dup4\n      dup2\n      dup4\n      and\n      or\n      dup4\n      mstore\n      pop\n      pop\n      pop\n      pop\n        /* \"@openzeppelin/contracts/token/ERC20/utils/SafeERC20.sol\":1802:1821  _callOptionalReturn */\n      tag_188\n        /* \"@openzeppelin/contracts/token/ERC20/utils/SafeERC20.sol\":1802:1883  _callOptionalReturn(token, abi.encodeCall(token.transferFrom, (from, to, value))) */\n      jump\t// in\n    tag_185:\n        /* \"@openzeppelin/contracts/token/ERC20/utils/SafeERC20.sol\":1702:1890  function safeTransferFrom(IERC20 token, address from, address to, uint256 value) internal {... */\n      pop\n      pop\n      pop\n      pop\n      jump\t// out\n        /* \"@openzeppelin/contracts/utils/ReentrancyGuard.sol\":2744:2952  function _nonReentrantAfter() private {... */\n    tag_155:\n        /* \"@openzeppelin/contracts/utils/ReentrancyGuard.sol\":1713:1714  1 */\n      0x01\n        /* \"@openzeppelin/contracts/utils/ReentrancyGuard.sol\":2924:2931  _status */\n      dup1\n        /* \"@openzeppelin/contracts/utils/ReentrancyGuard.sol\":2924:2945  _status = NOT_ENTERED */\n      dup2\n      swap1\n      sstore\n      pop\n        /* \"@openzeppelin/contracts/utils/ReentrancyGuard.sol\":2744:2952  function _nonReentrantAfter() private {... */\n      jump\t// out\n        /* \"@openzeppelin/contracts/access/Ownable.sol\":2912:3099  function _transferOwnership(address newOwner) internal virtual {... */\n    tag_174:\n        /* \"@openzeppelin/contracts/access/Ownable.sol\":2985:3001  address oldOwner */\n      0x00\n        /* \"@openzeppelin/contracts/access/Ownable.sol\":3004:3010  _owner */\n      dup1\n      0x00\n      swap1\n      sload\n      swap1\n      0x0100\n      exp\n      swap1\n      div\n      0xffffffffffffffffffffffffffffffffffffffff\n      and\n        /* \"@openzeppelin/contracts/access/Ownable.sol\":2985:3010  address oldOwner = _owner */\n      swap1\n      pop\n        /* \"@openzeppelin/contracts/access/Ownable.sol\":3029:3037  newOwner */\n      dup2\n        /* \"@openzeppelin/contracts/access/Ownable.sol\":3020:3026  _owner */\n      0x00\n      dup1\n        /* \"@openzeppelin/contracts/access/Ownable.sol\":3020:3037  _owner = newOwner */\n      0x0100\n      exp\n      dup2\n      sload\n      dup2\n      0xffffffffffffffffffffffffffffffffffffffff\n      mul\n      not\n      and\n      swap1\n      dup4\n      0xffffffffffffffffffffffffffffffffffffffff\n      and\n      mul\n      or\n      swap1\n      sstore\n      pop\n        /* \"@openzeppelin/contracts/access/Ownable.sol\":3083:3091  newOwner */\n      dup2\n        /* \"@openzeppelin/contracts/access/Ownable.sol\":3052:3092  OwnershipTransferred(oldOwner, newOwner) */\n      0xffffffffffffffffffffffffffffffffffffffff\n      and\n        /* \"@openzeppelin/contracts/access/Ownable.sol\":3073:3081  oldOwner */\n      dup2\n        /* \"@openzeppelin/contracts/access/Ownable.sol\":3052:3092  OwnershipTransferred(oldOwner, newOwner) */\n      0xffffffffffffffffffffffffffffffffffffffff\n      and\n      0x8be0079c531659141344cd1fd0a4f28419497f9722a3daafe3b4186f6b6457e0\n      mload(0x40)\n      mload(0x40)\n      dup1\n      swap2\n      sub\n      swap1\n      log3\n        /* \"@openzeppelin/contracts/access/Ownable.sol\":2975:3099  {... */\n      pop\n        /* \"@openzeppelin/contracts/access/Ownable.sol\":2912:3099  function _transferOwnership(address newOwner) internal virtual {... */\n      pop\n      jump\t// out\n        /* \"@openzeppelin/contracts/utils/Context.sol\":656:752  function _msgSender() internal view virtual returns (address) {... */\n    tag_177:\n        /* \"@openzeppelin/contracts/utils/Context.sol\":709:716  address */\n      0x00\n        /* \"@openzeppelin/contracts/utils/Context.sol\":735:745  msg.sender */\n      caller\n        /* \"@openzeppelin/contracts/utils/Context.sol\":728:745  return msg.sender */\n      swap1\n      pop\n        /* \"@openzeppelin/contracts/utils/Context.sol\":656:752  function _msgSender() internal view virtual returns (address) {... */\n      swap1\n      jump\t// out\n        /* \"@openzeppelin/contracts/token/ERC20/utils/SafeERC20.sol\":4059:4688  function _callOptionalReturn(IERC20 token, bytes memory data) private {... */\n    tag_188:\n        /* \"@openzeppelin/contracts/token/ERC20/utils/SafeERC20.sol\":4478:4501  bytes memory returndata */\n      0x00\n        /* \"@openzeppelin/contracts/token/ERC20/utils/SafeERC20.sol\":4504:4537  address(token).functionCall(data) */\n      tag_193\n        /* \"@openzeppelin/contracts/token/ERC20/utils/SafeERC20.sol\":4532:4536  data */\n      dup3\n        /* \"@openzeppelin/contracts/token/ERC20/utils/SafeERC20.sol\":4512:4517  token */\n      dup5\n        /* \"@openzeppelin/contracts/token/ERC20/utils/SafeERC20.sol\":4504:4531  address(token).functionCall */\n      0xffffffffffffffffffffffffffffffffffffffff\n      and\n      tag_194\n      swap1\n        /* \"@openzeppelin/contracts/token/ERC20/utils/SafeERC20.sol\":4504:4537  address(token).functionCall(data) */\n      swap2\n      swap1\n      0xffffffff\n      and\n      jump\t// in\n    tag_193:\n        /* \"@openzeppelin/contracts/token/ERC20/utils/SafeERC20.sol\":4478:4537  bytes memory returndata = address(token).functionCall(data) */\n      swap1\n      pop\n        /* \"@openzeppelin/contracts/token/ERC20/utils/SafeERC20.sol\":4572:4573  0 */\n      0x00\n        /* \"@openzeppelin/contracts/token/ERC20/utils/SafeERC20.sol\":4551:4561  returndata */\n      dup2\n        /* \"@openzeppelin/contracts/token/ERC20/utils/SafeERC20.sol\":4551:4568  returndata.length */\n      mload\n        /* \"@openzeppelin/contracts/token/ERC20/utils/SafeERC20.sol\":4551:4573  returndata.length != 0 */\n      eq\n      iszero\n        /* \"@openzeppelin/contracts/token/ERC20/utils/SafeERC20.sol\":4551:4608  returndata.length != 0 && !abi.decode(returndata, (bool)) */\n      dup1\n      iszero\n      tag_195\n      jumpi\n      pop\n        /* \"@openzeppelin/contracts/token/ERC20/utils/SafeERC20.sol\":4589:4599  returndata */\n      dup1\n        /* \"@openzeppelin/contracts/token/ERC20/utils/SafeERC20.sol\":4578:4608  abi.decode(returndata, (bool)) */\n      dup1\n      0x20\n      add\n      swap1\n      mload\n      dup2\n      add\n      swap1\n      tag_196\n      swap2\n      swap1\n      tag_197\n      jump\t// in\n    tag_196:\n        /* \"@openzeppelin/contracts/token/ERC20/utils/SafeERC20.sol\":4577:4608  !abi.decode(returndata, (bool)) */\n      iszero\n        /* \"@openzeppelin/contracts/token/ERC20/utils/SafeERC20.sol\":4551:4608  returndata.length != 0 && !abi.decode(returndata, (bool)) */\n    tag_195:\n        /* \"@openzeppelin/contracts/token/ERC20/utils/SafeERC20.sol\":4547:4682  if (returndata.length != 0 && !abi.decode(returndata, (bool))) {... */\n      iszero\n      tag_198\n      jumpi\n        /* \"@openzeppelin/contracts/token/ERC20/utils/SafeERC20.sol\":4664:4669  token */\n      dup3\n        /* \"@openzeppelin/contracts/token/ERC20/utils/SafeERC20.sol\":4631:4671  SafeERC20FailedOperation(address(token)) */\n      mload(0x40)\n      0x5274afe700000000000000000000000000000000000000000000000000000000\n      dup2\n      mstore\n      0x04\n      add\n      tag_199\n      swap2\n      swap1\n      tag_38\n      jump\t// in\n    tag_199:\n      mload(0x40)\n      dup1\n      swap2\n      sub\n      swap1\n      revert\n        /* \"@openzeppelin/contracts/token/ERC20/utils/SafeERC20.sol\":4547:4682  if (returndata.length != 0 && !abi.decode(returndata, (bool))) {... */\n    tag_198:\n        /* \"@openzeppelin/contracts/token/ERC20/utils/SafeERC20.sol\":4129:4688  {... */\n      pop\n        /* \"@openzeppelin/contracts/token/ERC20/utils/SafeERC20.sol\":4059:4688  function _callOptionalReturn(IERC20 token, bytes memory data) private {... */\n      pop\n      pop\n      jump\t// out\n        /* \"@openzeppelin/contracts/utils/Address.sol\":2705:2856  function functionCall(address target, bytes memory data) internal returns (bytes memory) {... */\n    tag_194:\n        /* \"@openzeppelin/contracts/utils/Address.sol\":2780:2792  bytes memory */\n      0x60\n        /* \"@openzeppelin/contracts/utils/Address.sol\":2811:2849  functionCallWithValue(target, data, 0) */\n      tag_201\n        /* \"@openzeppelin/contracts/utils/Address.sol\":2833:2839  target */\n      dup4\n        /* \"@openzeppelin/contracts/utils/Address.sol\":2841:2845  data */\n      dup4\n        /* \"@openzeppelin/contracts/utils/Address.sol\":2847:2848  0 */\n      0x00\n        /* \"@openzeppelin/contracts/utils/Address.sol\":2811:2832  functionCallWithValue */\n      tag_202\n        /* \"@openzeppelin/contracts/utils/Address.sol\":2811:2849  functionCallWithValue(target, data, 0) */\n      jump\t// in\n    tag_201:\n        /* \"@openzeppelin/contracts/utils/Address.sol\":2804:2849  return functionCallWithValue(target, data, 0) */\n      swap1\n      pop\n        /* \"@openzeppelin/contracts/utils/Address.sol\":2705:2856  function functionCall(address target, bytes memory data) internal returns (bytes memory) {... */\n      swap3\n      swap2\n      pop\n      pop\n      jump\t// out\n        /* \"@openzeppelin/contracts/utils/Address.sol\":3180:3572  function functionCallWithValue(address target, bytes memory data, uint256 value) internal returns (bytes memory) {... */\n    tag_202:\n        /* \"@openzeppelin/contracts/utils/Address.sol\":3279:3291  bytes memory */\n      0x60\n        /* \"@openzeppelin/contracts/utils/Address.sol\":3331:3336  value */\n      dup2\n        /* \"@openzeppelin/contracts/utils/Address.sol\":3307:3328  address(this).balance */\n      selfbalance\n        /* \"@openzeppelin/contracts/utils/Address.sol\":3307:3336  address(this).balance < value */\n      lt\n        /* \"@openzeppelin/contracts/utils/Address.sol\":3303:3411  if (address(this).balance < value) {... */\n      iszero\n      tag_204\n      jumpi\n        /* \"@openzeppelin/contracts/utils/Address.sol\":3394:3398  this */\n      address\n        /* \"@openzeppelin/contracts/utils/Address.sol\":3359:3400  AddressInsufficientBalance(address(this)) */\n      mload(0x40)\n      0xcd78605900000000000000000000000000000000000000000000000000000000\n      dup2\n      mstore\n      0x04\n      add\n      tag_205\n      swap2\n      swap1\n      tag_38\n      jump\t// in\n    tag_205:\n      mload(0x40)\n      dup1\n      swap2\n      sub\n      swap1\n      revert\n        /* \"@openzeppelin/contracts/utils/Address.sol\":3303:3411  if (address(this).balance < value) {... */\n    tag_204:\n        /* \"@openzeppelin/contracts/utils/Address.sol\":3421:3433  bool success */\n      0x00\n        /* \"@openzeppelin/contracts/utils/Address.sol\":3435:3458  bytes memory returndata */\n      dup1\n        /* \"@openzeppelin/contracts/utils/Address.sol\":3462:3468  target */\n      dup6\n        /* \"@openzeppelin/contracts/utils/Address.sol\":3462:3473  target.call */\n      0xffffffffffffffffffffffffffffffffffffffff\n      and\n        /* \"@openzeppelin/contracts/utils/Address.sol\":3481:3486  value */\n      dup5\n        /* \"@openzeppelin/contracts/utils/Address.sol\":3488:3492  data */\n      dup7\n        /* \"@openzeppelin/contracts/utils/Address.sol\":3462:3493  target.call{value: value}(data) */\n      mload(0x40)\n      tag_206\n      swap2\n      swap1\n      tag_207\n      jump\t// in\n    tag_206:\n      0x00\n      mload(0x40)\n      dup1\n      dup4\n      sub\n      dup2\n      dup6\n      dup8\n      gas\n      call\n      swap3\n      pop\n      pop\n      pop\n      returndatasize\n      dup1\n      0x00\n      dup2\n      eq\n      tag_210\n      jumpi\n      mload(0x40)\n      swap2\n      pop\n      and(add(returndatasize, 0x3f), not(0x1f))\n      dup3\n      add\n      0x40\n      mstore\n      returndatasize\n      dup3\n      mstore\n      returndatasize\n      0x00\n      0x20\n      dup5\n      add\n      returndatacopy\n      jump(tag_209)\n    tag_210:\n      0x60\n      swap2\n      pop\n    tag_209:\n      pop\n        /* \"@openzeppelin/contracts/utils/Address.sol\":3420:3493  (bool success, bytes memory returndata) = target.call{value: value}(data) */\n      swap2\n      pop\n      swap2\n      pop\n        /* \"@openzeppelin/contracts/utils/Address.sol\":3510:3565  verifyCallResultFromTarget(target, success, returndata) */\n      tag_211\n        /* \"@openzeppelin/contracts/utils/Address.sol\":3537:3543  target */\n      dup7\n        /* \"@openzeppelin/contracts/utils/Address.sol\":3545:3552  success */\n      dup4\n        /* \"@openzeppelin/contracts/utils/Address.sol\":3554:3564  returndata */\n      dup4\n        /* \"@openzeppelin/contracts/utils/Address.sol\":3510:3536  verifyCallResultFromTarget */\n      tag_212\n        /* \"@openzeppelin/contracts/utils/Address.sol\":3510:3565  verifyCallResultFromTarget(target, success, returndata) */\n      jump\t// in\n    tag_211:\n        /* \"@openzeppelin/contracts/utils/Address.sol\":3503:3565  return verifyCallResultFromTarget(target, success, returndata) */\n      swap3\n      pop\n      pop\n      pop\n        /* \"@openzeppelin/contracts/utils/Address.sol\":3180:3572  function functionCallWithValue(address target, bytes memory data, uint256 value) internal returns (bytes memory) {... */\n      swap4\n      swap3\n      pop\n      pop\n      pop\n      jump\t// out\n        /* \"@openzeppelin/contracts/utils/Address.sol\":4625:5207  function verifyCallResultFromTarget(... */\n    tag_212:\n        /* \"@openzeppelin/contracts/utils/Address.sol\":4769:4781  bytes memory */\n      0x60\n        /* \"@openzeppelin/contracts/utils/Address.sol\":4798:4805  success */\n      dup3\n        /* \"@openzeppelin/contracts/utils/Address.sol\":4793:5201  if (!success) {... */\n      tag_214\n      jumpi\n        /* \"@openzeppelin/contracts/utils/Address.sol\":4821:4840  _revert(returndata) */\n      tag_215\n        /* \"@openzeppelin/contracts/utils/Address.sol\":4829:4839  returndata */\n      dup3\n        /* \"@openzeppelin/contracts/utils/Address.sol\":4821:4828  _revert */\n      tag_216\n        /* \"@openzeppelin/contracts/utils/Address.sol\":4821:4840  _revert(returndata) */\n      jump\t// in\n    tag_215:\n        /* \"@openzeppelin/contracts/utils/Address.sol\":4793:5201  if (!success) {... */\n      jump(tag_217)\n    tag_214:\n        /* \"@openzeppelin/contracts/utils/Address.sol\":5066:5067  0 */\n      0x00\n        /* \"@openzeppelin/contracts/utils/Address.sol\":5045:5055  returndata */\n      dup3\n        /* \"@openzeppelin/contracts/utils/Address.sol\":5045:5062  returndata.length */\n      mload\n        /* \"@openzeppelin/contracts/utils/Address.sol\":5045:5067  returndata.length == 0 */\n      eq\n        /* \"@openzeppelin/contracts/utils/Address.sol\":5045:5094  returndata.length == 0 && target.code.length == 0 */\n      dup1\n      iszero\n      tag_218\n      jumpi\n      pop\n        /* \"@openzeppelin/contracts/utils/Address.sol\":5093:5094  0 */\n      0x00\n        /* \"@openzeppelin/contracts/utils/Address.sol\":5071:5077  target */\n      dup5\n        /* \"@openzeppelin/contracts/utils/Address.sol\":5071:5089  target.code.length */\n      0xffffffffffffffffffffffffffffffffffffffff\n      and\n      extcodesize\n        /* \"@openzeppelin/contracts/utils/Address.sol\":5071:5094  target.code.length == 0 */\n      eq\n        /* \"@openzeppelin/contracts/utils/Address.sol\":5045:5094  returndata.length == 0 && target.code.length == 0 */\n    tag_218:\n        /* \"@openzeppelin/contracts/utils/Address.sol\":5041:5160  if (returndata.length == 0 && target.code.length == 0) {... */\n      iszero\n      tag_219\n      jumpi\n        /* \"@openzeppelin/contracts/utils/Address.sol\":5138:5144  target */\n      dup4\n        /* \"@openzeppelin/contracts/utils/Address.sol\":5121:5145  AddressEmptyCode(target) */\n      mload(0x40)\n      0x9996b31500000000000000000000000000000000000000000000000000000000\n      dup2\n      mstore\n      0x04\n      add\n      tag_220\n      swap2\n      swap1\n      tag_38\n      jump\t// in\n    tag_220:\n      mload(0x40)\n      dup1\n      swap2\n      sub\n      swap1\n      revert\n        /* \"@openzeppelin/contracts/utils/Address.sol\":5041:5160  if (returndata.length == 0 && target.code.length == 0) {... */\n    tag_219:\n        /* \"@openzeppelin/contracts/utils/Address.sol\":5180:5190  returndata */\n      dup2\n        /* \"@openzeppelin/contracts/utils/Address.sol\":5173:5190  return returndata */\n      swap1\n      pop\n      jump(tag_213)\n        /* \"@openzeppelin/contracts/utils/Address.sol\":4793:5201  if (!success) {... */\n    tag_217:\n        /* \"@openzeppelin/contracts/utils/Address.sol\":4625:5207  function verifyCallResultFromTarget(... */\n    tag_213:\n      swap4\n      swap3\n      pop\n      pop\n      pop\n      jump\t// out\n        /* \"@openzeppelin/contracts/utils/Address.sol\":5743:6259  function _revert(bytes memory returndata) private pure {... */\n    tag_216:\n        /* \"@openzeppelin/contracts/utils/Address.sol\":5894:5895  0 */\n      0x00\n        /* \"@openzeppelin/contracts/utils/Address.sol\":5874:5884  returndata */\n      dup2\n        /* \"@openzeppelin/contracts/utils/Address.sol\":5874:5891  returndata.length */\n      mload\n        /* \"@openzeppelin/contracts/utils/Address.sol\":5874:5895  returndata.length > 0 */\n      gt\n        /* \"@openzeppelin/contracts/utils/Address.sol\":5870:6253  if (returndata.length > 0) {... */\n      iszero\n      tag_222\n      jumpi\n        /* \"@openzeppelin/contracts/utils/Address.sol\":6102:6112  returndata */\n      dup1\n        /* \"@openzeppelin/contracts/utils/Address.sol\":6096:6113  mload(returndata) */\n      mload\n        /* \"@openzeppelin/contracts/utils/Address.sol\":6158:6173  returndata_size */\n      dup1\n        /* \"@openzeppelin/contracts/utils/Address.sol\":6145:6155  returndata */\n      dup3\n        /* \"@openzeppelin/contracts/utils/Address.sol\":6141:6143  32 */\n      0x20\n        /* \"@openzeppelin/contracts/utils/Address.sol\":6137:6156  add(32, returndata) */\n      add\n        /* \"@openzeppelin/contracts/utils/Address.sol\":6130:6174  revert(add(32, returndata), returndata_size) */\n      revert\n        /* \"@openzeppelin/contracts/utils/Address.sol\":5870:6253  if (returndata.length > 0) {... */\n    tag_222:\n        /* \"@openzeppelin/contracts/utils/Address.sol\":6225:6242  FailedInnerCall() */\n      mload(0x40)\n      0x1425ea4200000000000000000000000000000000000000000000000000000000\n      dup2\n      mstore\n      0x04\n      add\n      mload(0x40)\n      dup1\n      swap2\n      sub\n      swap1\n      revert\n        /* \"#utility.yul\":7:82   */\n    tag_224:\n        /* \"#utility.yul\":40:46   */\n      0x00\n        /* \"#utility.yul\":73:75   */\n      0x40\n        /* \"#utility.yul\":67:76   */\n      mload\n        /* \"#utility.yul\":57:76   */\n      swap1\n      pop\n        /* \"#utility.yul\":7:82   */\n      swap1\n      jump\t// out\n        /* \"#utility.yul\":88:205   */\n    tag_225:\n        /* \"#utility.yul\":197:198   */\n      0x00\n        /* \"#utility.yul\":194:195   */\n      dup1\n        /* \"#utility.yul\":187:199   */\n      revert\n        /* \"#utility.yul\":211:328   */\n    tag_226:\n        /* \"#utility.yul\":320:321   */\n      0x00\n        /* \"#utility.yul\":317:318   */\n      dup1\n        /* \"#utility.yul\":310:322   */\n      revert\n        /* \"#utility.yul\":334:411   */\n    tag_227:\n        /* \"#utility.yul\":371:378   */\n      0x00\n        /* \"#utility.yul\":400:405   */\n      dup2\n        /* \"#utility.yul\":389:405   */\n      swap1\n      pop\n        /* \"#utility.yul\":334:411   */\n      swap2\n      swap1\n      pop\n      jump\t// out\n        /* \"#utility.yul\":417:539   */\n    tag_228:\n        /* \"#utility.yul\":490:514   */\n      tag_297\n        /* \"#utility.yul\":508:513   */\n      dup2\n        /* \"#utility.yul\":490:514   */\n      tag_227\n      jump\t// in\n    tag_297:\n        /* \"#utility.yul\":483:488   */\n      dup2\n        /* \"#utility.yul\":480:515   */\n      eq\n        /* \"#utility.yul\":470:533   */\n      tag_298\n      jumpi\n        /* \"#utility.yul\":529:530   */\n      0x00\n        /* \"#utility.yul\":526:527   */\n      dup1\n        /* \"#utility.yul\":519:531   */\n      revert\n        /* \"#utility.yul\":470:533   */\n    tag_298:\n        /* \"#utility.yul\":417:539   */\n      pop\n      jump\t// out\n        /* \"#utility.yul\":545:684   */\n    tag_229:\n        /* \"#utility.yul\":591:596   */\n      0x00\n        /* \"#utility.yul\":629:635   */\n      dup2\n        /* \"#utility.yul\":616:636   */\n      calldataload\n        /* \"#utility.yul\":607:636   */\n      swap1\n      pop\n        /* \"#utility.yul\":645:678   */\n      tag_300\n        /* \"#utility.yul\":672:677   */\n      dup2\n        /* \"#utility.yul\":645:678   */\n      tag_228\n      jump\t// in\n    tag_300:\n        /* \"#utility.yul\":545:684   */\n      swap3\n      swap2\n      pop\n      pop\n      jump\t// out\n        /* \"#utility.yul\":690:1019   */\n    tag_24:\n        /* \"#utility.yul\":749:755   */\n      0x00\n        /* \"#utility.yul\":798:800   */\n      0x20\n        /* \"#utility.yul\":786:795   */\n      dup3\n        /* \"#utility.yul\":777:784   */\n      dup5\n        /* \"#utility.yul\":773:796   */\n      sub\n        /* \"#utility.yul\":769:801   */\n      slt\n        /* \"#utility.yul\":766:885   */\n      iszero\n      tag_302\n      jumpi\n        /* \"#utility.yul\":804:883   */\n      tag_303\n      tag_225\n      jump\t// in\n    tag_303:\n        /* \"#utility.yul\":766:885   */\n    tag_302:\n        /* \"#utility.yul\":924:925   */\n      0x00\n        /* \"#utility.yul\":949:1002   */\n      tag_304\n        /* \"#utility.yul\":994:1001   */\n      dup5\n        /* \"#utility.yul\":985:991   */\n      dup3\n        /* \"#utility.yul\":974:983   */\n      dup6\n        /* \"#utility.yul\":970:992   */\n      add\n        /* \"#utility.yul\":949:1002   */\n      tag_229\n      jump\t// in\n    tag_304:\n        /* \"#utility.yul\":939:1002   */\n      swap2\n      pop\n        /* \"#utility.yul\":895:1012   */\n      pop\n        /* \"#utility.yul\":690:1019   */\n      swap3\n      swap2\n      pop\n      pop\n      jump\t// out\n        /* \"#utility.yul\":1025:1151   */\n    tag_230:\n        /* \"#utility.yul\":1062:1069   */\n      0x00\n        /* \"#utility.yul\":1102:1144   */\n      0xffffffffffffffffffffffffffffffffffffffff\n        /* \"#utility.yul\":1095:1100   */\n      dup3\n        /* \"#utility.yul\":1091:1145   */\n      and\n        /* \"#utility.yul\":1080:1145   */\n      swap1\n      pop\n        /* \"#utility.yul\":1025:1151   */\n      swap2\n      swap1\n      pop\n      jump\t// out\n        /* \"#utility.yul\":1157:1253   */\n    tag_231:\n        /* \"#utility.yul\":1194:1201   */\n      0x00\n        /* \"#utility.yul\":1223:1247   */\n      tag_307\n        /* \"#utility.yul\":1241:1246   */\n      dup3\n        /* \"#utility.yul\":1223:1247   */\n      tag_230\n      jump\t// in\n    tag_307:\n        /* \"#utility.yul\":1212:1247   */\n      swap1\n      pop\n        /* \"#utility.yul\":1157:1253   */\n      swap2\n      swap1\n      pop\n      jump\t// out\n        /* \"#utility.yul\":1259:1377   */\n    tag_232:\n        /* \"#utility.yul\":1346:1370   */\n      tag_309\n        /* \"#utility.yul\":1364:1369   */\n      dup2\n        /* \"#utility.yul\":1346:1370   */\n      tag_231\n      jump\t// in\n    tag_309:\n        /* \"#utility.yul\":1341:1344   */\n      dup3\n        /* \"#utility.yul\":1334:1371   */\n      mstore\n        /* \"#utility.yul\":1259:1377   */\n      pop\n      pop\n      jump\t// out\n        /* \"#utility.yul\":1383:1482   */\n    tag_233:\n        /* \"#utility.yul\":1435:1441   */\n      0x00\n        /* \"#utility.yul\":1469:1474   */\n      dup2\n        /* \"#utility.yul\":1463:1475   */\n      mload\n        /* \"#utility.yul\":1453:1475   */\n      swap1\n      pop\n        /* \"#utility.yul\":1383:1482   */\n      swap2\n      swap1\n      pop\n      jump\t// out\n        /* \"#utility.yul\":1488:1657   */\n    tag_234:\n        /* \"#utility.yul\":1572:1583   */\n      0x00\n        /* \"#utility.yul\":1606:1612   */\n      dup3\n        /* \"#utility.yul\":1601:1604   */\n      dup3\n        /* \"#utility.yul\":1594:1613   */\n      mstore\n        /* \"#utility.yul\":1646:1650   */\n      0x20\n        /* \"#utility.yul\":1641:1644   */\n      dup3\n        /* \"#utility.yul\":1637:1651   */\n      add\n        /* \"#utility.yul\":1622:1651   */\n      swap1\n      pop\n        /* \"#utility.yul\":1488:1657   */\n      swap3\n      swap2\n      pop\n      pop\n      jump\t// out\n        /* \"#utility.yul\":1663:1802   */\n    tag_235:\n        /* \"#utility.yul\":1752:1758   */\n      dup3\n        /* \"#utility.yul\":1747:1750   */\n      dup2\n        /* \"#utility.yul\":1742:1745   */\n      dup4\n        /* \"#utility.yul\":1736:1759   */\n      mcopy\n        /* \"#utility.yul\":1793:1794   */\n      0x00\n        /* \"#utility.yul\":1784:1790   */\n      dup4\n        /* \"#utility.yul\":1779:1782   */\n      dup4\n        /* \"#utility.yul\":1775:1791   */\n      add\n        /* \"#utility.yul\":1768:1795   */\n      mstore\n        /* \"#utility.yul\":1663:1802   */\n      pop\n      pop\n      pop\n      jump\t// out\n        /* \"#utility.yul\":1808:1910   */\n    tag_236:\n        /* \"#utility.yul\":1849:1855   */\n      0x00\n        /* \"#utility.yul\":1900:1902   */\n      0x1f\n        /* \"#utility.yul\":1896:1903   */\n      not\n        /* \"#utility.yul\":1891:1893   */\n      0x1f\n        /* \"#utility.yul\":1884:1889   */\n      dup4\n        /* \"#utility.yul\":1880:1894   */\n      add\n        /* \"#utility.yul\":1876:1904   */\n      and\n        /* \"#utility.yul\":1866:1904   */\n      swap1\n      pop\n        /* \"#utility.yul\":1808:1910   */\n      swap2\n      swap1\n      pop\n      jump\t// out\n        /* \"#utility.yul\":1916:2293   */\n    tag_237:\n        /* \"#utility.yul\":2004:2007   */\n      0x00\n        /* \"#utility.yul\":2032:2071   */\n      tag_315\n        /* \"#utility.yul\":2065:2070   */\n      dup3\n        /* \"#utility.yul\":2032:2071   */\n      tag_233\n      jump\t// in\n    tag_315:\n        /* \"#utility.yul\":2087:2158   */\n      tag_316\n        /* \"#utility.yul\":2151:2157   */\n      dup2\n        /* \"#utility.yul\":2146:2149   */\n      dup6\n        /* \"#utility.yul\":2087:2158   */\n      tag_234\n      jump\t// in\n    tag_316:\n        /* \"#utility.yul\":2080:2158   */\n      swap4\n      pop\n        /* \"#utility.yul\":2167:2232   */\n      tag_317\n        /* \"#utility.yul\":2225:2231   */\n      dup2\n        /* \"#utility.yul\":2220:2223   */\n      dup6\n        /* \"#utility.yul\":2213:2217   */\n      0x20\n        /* \"#utility.yul\":2206:2211   */\n      dup7\n        /* \"#utility.yul\":2202:2218   */\n      add\n        /* \"#utility.yul\":2167:2232   */\n      tag_235\n      jump\t// in\n    tag_317:\n        /* \"#utility.yul\":2257:2286   */\n      tag_318\n        /* \"#utility.yul\":2279:2285   */\n      dup2\n        /* \"#utility.yul\":2257:2286   */\n      tag_236\n      jump\t// in\n    tag_318:\n        /* \"#utility.yul\":2252:2255   */\n      dup5\n        /* \"#utility.yul\":2248:2287   */\n      add\n        /* \"#utility.yul\":2241:2287   */\n      swap2\n      pop\n        /* \"#utility.yul\":2008:2293   */\n      pop\n        /* \"#utility.yul\":1916:2293   */\n      swap3\n      swap2\n      pop\n      pop\n      jump\t// out\n        /* \"#utility.yul\":2299:2417   */\n    tag_238:\n        /* \"#utility.yul\":2386:2410   */\n      tag_320\n        /* \"#utility.yul\":2404:2409   */\n      dup2\n        /* \"#utility.yul\":2386:2410   */\n      tag_227\n      jump\t// in\n    tag_320:\n        /* \"#utility.yul\":2381:2384   */\n      dup3\n        /* \"#utility.yul\":2374:2411   */\n      mstore\n        /* \"#utility.yul\":2299:2417   */\n      pop\n      pop\n      jump\t// out\n        /* \"#utility.yul\":2423:2956   */\n    tag_27:\n        /* \"#utility.yul\":2592:2596   */\n      0x00\n        /* \"#utility.yul\":2630:2632   */\n      0x60\n        /* \"#utility.yul\":2619:2628   */\n      dup3\n        /* \"#utility.yul\":2615:2633   */\n      add\n        /* \"#utility.yul\":2607:2633   */\n      swap1\n      pop\n        /* \"#utility.yul\":2643:2714   */\n      tag_322\n        /* \"#utility.yul\":2711:2712   */\n      0x00\n        /* \"#utility.yul\":2700:2709   */\n      dup4\n        /* \"#utility.yul\":2696:2713   */\n      add\n        /* \"#utility.yul\":2687:2693   */\n      dup7\n        /* \"#utility.yul\":2643:2714   */\n      tag_232\n      jump\t// in\n    tag_322:\n        /* \"#utility.yul\":2761:2770   */\n      dup2\n        /* \"#utility.yul\":2755:2759   */\n      dup2\n        /* \"#utility.yul\":2751:2771   */\n      sub\n        /* \"#utility.yul\":2746:2748   */\n      0x20\n        /* \"#utility.yul\":2735:2744   */\n      dup4\n        /* \"#utility.yul\":2731:2749   */\n      add\n        /* \"#utility.yul\":2724:2772   */\n      mstore\n        /* \"#utility.yul\":2789:2867   */\n      tag_323\n        /* \"#utility.yul\":2862:2866   */\n      dup2\n        /* \"#utility.yul\":2853:2859   */\n      dup6\n        /* \"#utility.yul\":2789:2867   */\n      tag_237\n      jump\t// in\n    tag_323:\n        /* \"#utility.yul\":2781:2867   */\n      swap1\n      pop\n        /* \"#utility.yul\":2877:2949   */\n      tag_324\n        /* \"#utility.yul\":2945:2947   */\n      0x40\n        /* \"#utility.yul\":2934:2943   */\n      dup4\n        /* \"#utility.yul\":2930:2948   */\n      add\n        /* \"#utility.yul\":2921:2927   */\n      dup5\n        /* \"#utility.yul\":2877:2949   */\n      tag_238\n      jump\t// in\n    tag_324:\n        /* \"#utility.yul\":2423:2956   */\n      swap5\n      swap4\n      pop\n      pop\n      pop\n      pop\n      jump\t// out\n        /* \"#utility.yul\":2962:3184   */\n    tag_31:\n        /* \"#utility.yul\":3055:3059   */\n      0x00\n        /* \"#utility.yul\":3093:3095   */\n      0x20\n        /* \"#utility.yul\":3082:3091   */\n      dup3\n        /* \"#utility.yul\":3078:3096   */\n      add\n        /* \"#utility.yul\":3070:3096   */\n      swap1\n      pop\n        /* \"#utility.yul\":3106:3177   */\n      tag_326\n        /* \"#utility.yul\":3174:3175   */\n      0x00\n        /* \"#utility.yul\":3163:3172   */\n      dup4\n        /* \"#utility.yul\":3159:3176   */\n      add\n        /* \"#utility.yul\":3150:3156   */\n      dup5\n        /* \"#utility.yul\":3106:3177   */\n      tag_238\n      jump\t// in\n    tag_326:\n        /* \"#utility.yul\":2962:3184   */\n      swap3\n      swap2\n      pop\n      pop\n      jump\t// out\n        /* \"#utility.yul\":3190:3412   */\n    tag_38:\n        /* \"#utility.yul\":3283:3287   */\n      0x00\n        /* \"#utility.yul\":3321:3323   */\n      0x20\n        /* \"#utility.yul\":3310:3319   */\n      dup3\n        /* \"#utility.yul\":3306:3324   */\n      add\n        /* \"#utility.yul\":3298:3324   */\n      swap1\n      pop\n        /* \"#utility.yul\":3334:3405   */\n      tag_328\n        /* \"#utility.yul\":3402:3403   */\n      0x00\n        /* \"#utility.yul\":3391:3400   */\n      dup4\n        /* \"#utility.yul\":3387:3404   */\n      add\n        /* \"#utility.yul\":3378:3384   */\n      dup5\n        /* \"#utility.yul\":3334:3405   */\n      tag_232\n      jump\t// in\n    tag_328:\n        /* \"#utility.yul\":3190:3412   */\n      swap3\n      swap2\n      pop\n      pop\n      jump\t// out\n        /* \"#utility.yul\":3418:3540   */\n    tag_239:\n        /* \"#utility.yul\":3491:3515   */\n      tag_330\n        /* \"#utility.yul\":3509:3514   */\n      dup2\n        /* \"#utility.yul\":3491:3515   */\n      tag_231\n      jump\t// in\n    tag_330:\n        /* \"#utility.yul\":3484:3489   */\n      dup2\n        /* \"#utility.yul\":3481:3516   */\n      eq\n        /* \"#utility.yul\":3471:3534   */\n      tag_331\n      jumpi\n        /* \"#utility.yul\":3530:3531   */\n      0x00\n        /* \"#utility.yul\":3527:3528   */\n      dup1\n        /* \"#utility.yul\":3520:3532   */\n      revert\n        /* \"#utility.yul\":3471:3534   */\n    tag_331:\n        /* \"#utility.yul\":3418:3540   */\n      pop\n      jump\t// out\n        /* \"#utility.yul\":3546:3685   */\n    tag_240:\n        /* \"#utility.yul\":3592:3597   */\n      0x00\n        /* \"#utility.yul\":3630:3636   */\n      dup2\n        /* \"#utility.yul\":3617:3637   */\n      calldataload\n        /* \"#utility.yul\":3608:3637   */\n      swap1\n      pop\n        /* \"#utility.yul\":3646:3679   */\n      tag_333\n        /* \"#utility.yul\":3673:3678   */\n      dup2\n        /* \"#utility.yul\":3646:3679   */\n      tag_239\n      jump\t// in\n    tag_333:\n        /* \"#utility.yul\":3546:3685   */\n      swap3\n      swap2\n      pop\n      pop\n      jump\t// out\n        /* \"#utility.yul\":3691:4165   */\n    tag_45:\n        /* \"#utility.yul\":3759:3765   */\n      0x00\n        /* \"#utility.yul\":3767:3773   */\n      dup1\n        /* \"#utility.yul\":3816:3818   */\n      0x40\n        /* \"#utility.yul\":3804:3813   */\n      dup4\n        /* \"#utility.yul\":3795:3802   */\n      dup6\n        /* \"#utility.yul\":3791:3814   */\n      sub\n        /* \"#utility.yul\":3787:3819   */\n      slt\n        /* \"#utility.yul\":3784:3903   */\n      iszero\n      tag_335\n      jumpi\n        /* \"#utility.yul\":3822:3901   */\n      tag_336\n      tag_225\n      jump\t// in\n    tag_336:\n        /* \"#utility.yul\":3784:3903   */\n    tag_335:\n        /* \"#utility.yul\":3942:3943   */\n      0x00\n        /* \"#utility.yul\":3967:4020   */\n      tag_337\n        /* \"#utility.yul\":4012:4019   */\n      dup6\n        /* \"#utility.yul\":4003:4009   */\n      dup3\n        /* \"#utility.yul\":3992:4001   */\n      dup7\n        /* \"#utility.yul\":3988:4010   */\n      add\n        /* \"#utility.yul\":3967:4020   */\n      tag_240\n      jump\t// in\n    tag_337:\n        /* \"#utility.yul\":3957:4020   */\n      swap3\n      pop\n        /* \"#utility.yul\":3913:4030   */\n      pop\n        /* \"#utility.yul\":4069:4071   */\n      0x20\n        /* \"#utility.yul\":4095:4148   */\n      tag_338\n        /* \"#utility.yul\":4140:4147   */\n      dup6\n        /* \"#utility.yul\":4131:4137   */\n      dup3\n        /* \"#utility.yul\":4120:4129   */\n      dup7\n        /* \"#utility.yul\":4116:4138   */\n      add\n        /* \"#utility.yul\":4095:4148   */\n      tag_229\n      jump\t// in\n    tag_338:\n        /* \"#utility.yul\":4085:4148   */\n      swap2\n      pop\n        /* \"#utility.yul\":4040:4158   */\n      pop\n        /* \"#utility.yul\":3691:4165   */\n      swap3\n      pop\n      swap3\n      swap1\n      pop\n      jump\t// out\n        /* \"#utility.yul\":4171:4594   */\n    tag_48:\n        /* \"#utility.yul\":4312:4316   */\n      0x00\n        /* \"#utility.yul\":4350:4352   */\n      0x40\n        /* \"#utility.yul\":4339:4348   */\n      dup3\n        /* \"#utility.yul\":4335:4353   */\n      add\n        /* \"#utility.yul\":4327:4353   */\n      swap1\n      pop\n        /* \"#utility.yul\":4399:4408   */\n      dup2\n        /* \"#utility.yul\":4393:4397   */\n      dup2\n        /* \"#utility.yul\":4389:4409   */\n      sub\n        /* \"#utility.yul\":4385:4386   */\n      0x00\n        /* \"#utility.yul\":4374:4383   */\n      dup4\n        /* \"#utility.yul\":4370:4387   */\n      add\n        /* \"#utility.yul\":4363:4410   */\n      mstore\n        /* \"#utility.yul\":4427:4505   */\n      tag_340\n        /* \"#utility.yul\":4500:4504   */\n      dup2\n        /* \"#utility.yul\":4491:4497   */\n      dup6\n        /* \"#utility.yul\":4427:4505   */\n      tag_237\n      jump\t// in\n    tag_340:\n        /* \"#utility.yul\":4419:4505   */\n      swap1\n      pop\n        /* \"#utility.yul\":4515:4587   */\n      tag_341\n        /* \"#utility.yul\":4583:4585   */\n      0x20\n        /* \"#utility.yul\":4572:4581   */\n      dup4\n        /* \"#utility.yul\":4568:4586   */\n      add\n        /* \"#utility.yul\":4559:4565   */\n      dup5\n        /* \"#utility.yul\":4515:4587   */\n      tag_238\n      jump\t// in\n    tag_341:\n        /* \"#utility.yul\":4171:4594   */\n      swap4\n      swap3\n      pop\n      pop\n      pop\n      jump\t// out\n        /* \"#utility.yul\":4600:4717   */\n    tag_241:\n        /* \"#utility.yul\":4709:4710   */\n      0x00\n        /* \"#utility.yul\":4706:4707   */\n      dup1\n        /* \"#utility.yul\":4699:4711   */\n      revert\n        /* \"#utility.yul\":4723:4840   */\n    tag_242:\n        /* \"#utility.yul\":4832:4833   */\n      0x00\n        /* \"#utility.yul\":4829:4830   */\n      dup1\n        /* \"#utility.yul\":4822:4834   */\n      revert\n        /* \"#utility.yul\":4846:5026   */\n    tag_243:\n        /* \"#utility.yul\":4894:4971   */\n      0x4e487b7100000000000000000000000000000000000000000000000000000000\n        /* \"#utility.yul\":4891:4892   */\n      0x00\n        /* \"#utility.yul\":4884:4972   */\n      mstore\n        /* \"#utility.yul\":4991:4995   */\n      0x41\n        /* \"#utility.yul\":4988:4989   */\n      0x04\n        /* \"#utility.yul\":4981:4996   */\n      mstore\n        /* \"#utility.yul\":5015:5019   */\n      0x24\n        /* \"#utility.yul\":5012:5013   */\n      0x00\n        /* \"#utility.yul\":5005:5020   */\n      revert\n        /* \"#utility.yul\":5032:5313   */\n    tag_244:\n        /* \"#utility.yul\":5115:5142   */\n      tag_346\n        /* \"#utility.yul\":5137:5141   */\n      dup3\n        /* \"#utility.yul\":5115:5142   */\n      tag_236\n      jump\t// in\n    tag_346:\n        /* \"#utility.yul\":5107:5113   */\n      dup2\n        /* \"#utility.yul\":5103:5143   */\n      add\n        /* \"#utility.yul\":5245:5251   */\n      dup2\n        /* \"#utility.yul\":5233:5243   */\n      dup2\n        /* \"#utility.yul\":5230:5252   */\n      lt\n        /* \"#utility.yul\":5209:5227   */\n      0xffffffffffffffff\n        /* \"#utility.yul\":5197:5207   */\n      dup3\n        /* \"#utility.yul\":5194:5228   */\n      gt\n        /* \"#utility.yul\":5191:5253   */\n      or\n        /* \"#utility.yul\":5188:5276   */\n      iszero\n      tag_347\n      jumpi\n        /* \"#utility.yul\":5256:5274   */\n      tag_348\n      tag_243\n      jump\t// in\n    tag_348:\n        /* \"#utility.yul\":5188:5276   */\n    tag_347:\n        /* \"#utility.yul\":5296:5306   */\n      dup1\n        /* \"#utility.yul\":5292:5294   */\n      0x40\n        /* \"#utility.yul\":5285:5307   */\n      mstore\n        /* \"#utility.yul\":5075:5313   */\n      pop\n        /* \"#utility.yul\":5032:5313   */\n      pop\n      pop\n      jump\t// out\n        /* \"#utility.yul\":5319:5448   */\n    tag_245:\n        /* \"#utility.yul\":5353:5359   */\n      0x00\n        /* \"#utility.yul\":5380:5400   */\n      tag_350\n      tag_224\n      jump\t// in\n    tag_350:\n        /* \"#utility.yul\":5370:5400   */\n      swap1\n      pop\n        /* \"#utility.yul\":5409:5442   */\n      tag_351\n        /* \"#utility.yul\":5437:5441   */\n      dup3\n        /* \"#utility.yul\":5429:5435   */\n      dup3\n        /* \"#utility.yul\":5409:5442   */\n      tag_244\n      jump\t// in\n    tag_351:\n        /* \"#utility.yul\":5319:5448   */\n      swap2\n      swap1\n      pop\n      jump\t// out\n        /* \"#utility.yul\":5454:5762   */\n    tag_246:\n        /* \"#utility.yul\":5516:5520   */\n      0x00\n        /* \"#utility.yul\":5606:5624   */\n      0xffffffffffffffff\n        /* \"#utility.yul\":5598:5604   */\n      dup3\n        /* \"#utility.yul\":5595:5625   */\n      gt\n        /* \"#utility.yul\":5592:5648   */\n      iszero\n      tag_353\n      jumpi\n        /* \"#utility.yul\":5628:5646   */\n      tag_354\n      tag_243\n      jump\t// in\n    tag_354:\n        /* \"#utility.yul\":5592:5648   */\n    tag_353:\n        /* \"#utility.yul\":5666:5695   */\n      tag_355\n        /* \"#utility.yul\":5688:5694   */\n      dup3\n        /* \"#utility.yul\":5666:5695   */\n      tag_236\n      jump\t// in\n    tag_355:\n        /* \"#utility.yul\":5658:5695   */\n      swap1\n      pop\n        /* \"#utility.yul\":5750:5754   */\n      0x20\n        /* \"#utility.yul\":5744:5748   */\n      dup2\n        /* \"#utility.yul\":5740:5755   */\n      add\n        /* \"#utility.yul\":5732:5755   */\n      swap1\n      pop\n        /* \"#utility.yul\":5454:5762   */\n      swap2\n      swap1\n      pop\n      jump\t// out\n        /* \"#utility.yul\":5768:5916   */\n    tag_247:\n        /* \"#utility.yul\":5866:5872   */\n      dup3\n        /* \"#utility.yul\":5861:5864   */\n      dup2\n        /* \"#utility.yul\":5856:5859   */\n      dup4\n        /* \"#utility.yul\":5843:5873   */\n      calldatacopy\n        /* \"#utility.yul\":5907:5908   */\n      0x00\n        /* \"#utility.yul\":5898:5904   */\n      dup4\n        /* \"#utility.yul\":5893:5896   */\n      dup4\n        /* \"#utility.yul\":5889:5905   */\n      add\n        /* \"#utility.yul\":5882:5909   */\n      mstore\n        /* \"#utility.yul\":5768:5916   */\n      pop\n      pop\n      pop\n      jump\t// out\n        /* \"#utility.yul\":5922:6347   */\n    tag_248:\n        /* \"#utility.yul\":6000:6005   */\n      0x00\n        /* \"#utility.yul\":6025:6091   */\n      tag_358\n        /* \"#utility.yul\":6041:6090   */\n      tag_359\n        /* \"#utility.yul\":6083:6089   */\n      dup5\n        /* \"#utility.yul\":6041:6090   */\n      tag_246\n      jump\t// in\n    tag_359:\n        /* \"#utility.yul\":6025:6091   */\n      tag_245\n      jump\t// in\n    tag_358:\n        /* \"#utility.yul\":6016:6091   */\n      swap1\n      pop\n        /* \"#utility.yul\":6114:6120   */\n      dup3\n        /* \"#utility.yul\":6107:6112   */\n      dup2\n        /* \"#utility.yul\":6100:6121   */\n      mstore\n        /* \"#utility.yul\":6152:6156   */\n      0x20\n        /* \"#utility.yul\":6145:6150   */\n      dup2\n        /* \"#utility.yul\":6141:6157   */\n      add\n        /* \"#utility.yul\":6190:6193   */\n      dup5\n        /* \"#utility.yul\":6181:6187   */\n      dup5\n        /* \"#utility.yul\":6176:6179   */\n      dup5\n        /* \"#utility.yul\":6172:6188   */\n      add\n        /* \"#utility.yul\":6169:6194   */\n      gt\n        /* \"#utility.yul\":6166:6278   */\n      iszero\n      tag_360\n      jumpi\n        /* \"#utility.yul\":6197:6276   */\n      tag_361\n      tag_242\n      jump\t// in\n    tag_361:\n        /* \"#utility.yul\":6166:6278   */\n    tag_360:\n        /* \"#utility.yul\":6287:6341   */\n      tag_362\n        /* \"#utility.yul\":6334:6340   */\n      dup5\n        /* \"#utility.yul\":6329:6332   */\n      dup3\n        /* \"#utility.yul\":6324:6327   */\n      dup6\n        /* \"#utility.yul\":6287:6341   */\n      tag_247\n      jump\t// in\n    tag_362:\n        /* \"#utility.yul\":6006:6347   */\n      pop\n        /* \"#utility.yul\":5922:6347   */\n      swap4\n      swap3\n      pop\n      pop\n      pop\n      jump\t// out\n        /* \"#utility.yul\":6367:6707   */\n    tag_249:\n        /* \"#utility.yul\":6423:6428   */\n      0x00\n        /* \"#utility.yul\":6472:6475   */\n      dup3\n        /* \"#utility.yul\":6465:6469   */\n      0x1f\n        /* \"#utility.yul\":6457:6463   */\n      dup4\n        /* \"#utility.yul\":6453:6470   */\n      add\n        /* \"#utility.yul\":6449:6476   */\n      slt\n        /* \"#utility.yul\":6439:6561   */\n      tag_364\n      jumpi\n        /* \"#utility.yul\":6480:6559   */\n      tag_365\n      tag_241\n      jump\t// in\n    tag_365:\n        /* \"#utility.yul\":6439:6561   */\n    tag_364:\n        /* \"#utility.yul\":6597:6603   */\n      dup2\n        /* \"#utility.yul\":6584:6604   */\n      calldataload\n        /* \"#utility.yul\":6622:6701   */\n      tag_366\n        /* \"#utility.yul\":6697:6700   */\n      dup5\n        /* \"#utility.yul\":6689:6695   */\n      dup3\n        /* \"#utility.yul\":6682:6686   */\n      0x20\n        /* \"#utility.yul\":6674:6680   */\n      dup7\n        /* \"#utility.yul\":6670:6687   */\n      add\n        /* \"#utility.yul\":6622:6701   */\n      tag_248\n      jump\t// in\n    tag_366:\n        /* \"#utility.yul\":6613:6701   */\n      swap2\n      pop\n        /* \"#utility.yul\":6429:6707   */\n      pop\n        /* \"#utility.yul\":6367:6707   */\n      swap3\n      swap2\n      pop\n      pop\n      jump\t// out\n        /* \"#utility.yul\":6713:7222   */\n    tag_54:\n        /* \"#utility.yul\":6782:6788   */\n      0x00\n        /* \"#utility.yul\":6831:6833   */\n      0x20\n        /* \"#utility.yul\":6819:6828   */\n      dup3\n        /* \"#utility.yul\":6810:6817   */\n      dup5\n        /* \"#utility.yul\":6806:6829   */\n      sub\n        /* \"#utility.yul\":6802:6834   */\n      slt\n        /* \"#utility.yul\":6799:6918   */\n      iszero\n      tag_368\n      jumpi\n        /* \"#utility.yul\":6837:6916   */\n      tag_369\n      tag_225\n      jump\t// in\n    tag_369:\n        /* \"#utility.yul\":6799:6918   */\n    tag_368:\n        /* \"#utility.yul\":6985:6986   */\n      0x00\n        /* \"#utility.yul\":6974:6983   */\n      dup3\n        /* \"#utility.yul\":6970:6987   */\n      add\n        /* \"#utility.yul\":6957:6988   */\n      calldataload\n        /* \"#utility.yul\":7015:7033   */\n      0xffffffffffffffff\n        /* \"#utility.yul\":7007:7013   */\n      dup2\n        /* \"#utility.yul\":7004:7034   */\n      gt\n        /* \"#utility.yul\":7001:7118   */\n      iszero\n      tag_370\n      jumpi\n        /* \"#utility.yul\":7037:7116   */\n      tag_371\n      tag_226\n      jump\t// in\n    tag_371:\n        /* \"#utility.yul\":7001:7118   */\n    tag_370:\n        /* \"#utility.yul\":7142:7205   */\n      tag_372\n        /* \"#utility.yul\":7197:7204   */\n      dup5\n        /* \"#utility.yul\":7188:7194   */\n      dup3\n        /* \"#utility.yul\":7177:7186   */\n      dup6\n        /* \"#utility.yul\":7173:7195   */\n      add\n        /* \"#utility.yul\":7142:7205   */\n      tag_249\n      jump\t// in\n    tag_372:\n        /* \"#utility.yul\":7132:7205   */\n      swap2\n      pop\n        /* \"#utility.yul\":6928:7215   */\n      pop\n        /* \"#utility.yul\":6713:7222   */\n      swap3\n      swap2\n      pop\n      pop\n      jump\t// out\n        /* \"#utility.yul\":7228:7288   */\n    tag_250:\n        /* \"#utility.yul\":7256:7259   */\n      0x00\n        /* \"#utility.yul\":7277:7282   */\n      dup2\n        /* \"#utility.yul\":7270:7282   */\n      swap1\n      pop\n        /* \"#utility.yul\":7228:7288   */\n      swap2\n      swap1\n      pop\n      jump\t// out\n        /* \"#utility.yul\":7294:7436   */\n    tag_251:\n        /* \"#utility.yul\":7344:7353   */\n      0x00\n        /* \"#utility.yul\":7377:7430   */\n      tag_375\n        /* \"#utility.yul\":7395:7429   */\n      tag_376\n        /* \"#utility.yul\":7404:7428   */\n      tag_377\n        /* \"#utility.yul\":7422:7427   */\n      dup5\n        /* \"#utility.yul\":7404:7428   */\n      tag_230\n      jump\t// in\n    tag_377:\n        /* \"#utility.yul\":7395:7429   */\n      tag_250\n      jump\t// in\n    tag_376:\n        /* \"#utility.yul\":7377:7430   */\n      tag_230\n      jump\t// in\n    tag_375:\n        /* \"#utility.yul\":7364:7430   */\n      swap1\n      pop\n        /* \"#utility.yul\":7294:7436   */\n      swap2\n      swap1\n      pop\n      jump\t// out\n        /* \"#utility.yul\":7442:7568   */\n    tag_252:\n        /* \"#utility.yul\":7492:7501   */\n      0x00\n        /* \"#utility.yul\":7525:7562   */\n      tag_379\n        /* \"#utility.yul\":7556:7561   */\n      dup3\n        /* \"#utility.yul\":7525:7562   */\n      tag_251\n      jump\t// in\n    tag_379:\n        /* \"#utility.yul\":7512:7562   */\n      swap1\n      pop\n        /* \"#utility.yul\":7442:7568   */\n      swap2\n      swap1\n      pop\n      jump\t// out\n        /* \"#utility.yul\":7574:7721   */\n    tag_253:\n        /* \"#utility.yul\":7645:7654   */\n      0x00\n        /* \"#utility.yul\":7678:7715   */\n      tag_381\n        /* \"#utility.yul\":7709:7714   */\n      dup3\n        /* \"#utility.yul\":7678:7715   */\n      tag_252\n      jump\t// in\n    tag_381:\n        /* \"#utility.yul\":7665:7715   */\n      swap1\n      pop\n        /* \"#utility.yul\":7574:7721   */\n      swap2\n      swap1\n      pop\n      jump\t// out\n        /* \"#utility.yul\":7727:7900   */\n    tag_254:\n        /* \"#utility.yul\":7835:7893   */\n      tag_383\n        /* \"#utility.yul\":7887:7892   */\n      dup2\n        /* \"#utility.yul\":7835:7893   */\n      tag_253\n      jump\t// in\n    tag_383:\n        /* \"#utility.yul\":7830:7833   */\n      dup3\n        /* \"#utility.yul\":7823:7894   */\n      mstore\n        /* \"#utility.yul\":7727:7900   */\n      pop\n      pop\n      jump\t// out\n        /* \"#utility.yul\":7906:8170   */\n    tag_59:\n        /* \"#utility.yul\":8020:8024   */\n      0x00\n        /* \"#utility.yul\":8058:8060   */\n      0x20\n        /* \"#utility.yul\":8047:8056   */\n      dup3\n        /* \"#utility.yul\":8043:8061   */\n      add\n        /* \"#utility.yul\":8035:8061   */\n      swap1\n      pop\n        /* \"#utility.yul\":8071:8163   */\n      tag_385\n        /* \"#utility.yul\":8160:8161   */\n      0x00\n        /* \"#utility.yul\":8149:8158   */\n      dup4\n        /* \"#utility.yul\":8145:8162   */\n      add\n        /* \"#utility.yul\":8136:8142   */\n      dup5\n        /* \"#utility.yul\":8071:8163   */\n      tag_254\n      jump\t// in\n    tag_385:\n        /* \"#utility.yul\":7906:8170   */\n      swap3\n      swap2\n      pop\n      pop\n      jump\t// out\n        /* \"#utility.yul\":8176:8505   */\n    tag_74:\n        /* \"#utility.yul\":8235:8241   */\n      0x00\n        /* \"#utility.yul\":8284:8286   */\n      0x20\n        /* \"#utility.yul\":8272:8281   */\n      dup3\n        /* \"#utility.yul\":8263:8270   */\n      dup5\n        /* \"#utility.yul\":8259:8282   */\n      sub\n        /* \"#utility.yul\":8255:8287   */\n      slt\n        /* \"#utility.yul\":8252:8371   */\n      iszero\n      tag_387\n      jumpi\n        /* \"#utility.yul\":8290:8369   */\n      tag_388\n      tag_225\n      jump\t// in\n    tag_388:\n        /* \"#utility.yul\":8252:8371   */\n    tag_387:\n        /* \"#utility.yul\":8410:8411   */\n      0x00\n        /* \"#utility.yul\":8435:8488   */\n      tag_389\n        /* \"#utility.yul\":8480:8487   */\n      dup5\n        /* \"#utility.yul\":8471:8477   */\n      dup3\n        /* \"#utility.yul\":8460:8469   */\n      dup6\n        /* \"#utility.yul\":8456:8478   */\n      add\n        /* \"#utility.yul\":8435:8488   */\n      tag_240\n      jump\t// in\n    tag_389:\n        /* \"#utility.yul\":8425:8488   */\n      swap2\n      pop\n        /* \"#utility.yul\":8381:8498   */\n      pop\n        /* \"#utility.yul\":8176:8505   */\n      swap3\n      swap2\n      pop\n      pop\n      jump\t// out\n        /* \"#utility.yul\":8511:8625   */\n    tag_255:\n        /* \"#utility.yul\":8578:8584   */\n      0x00\n        /* \"#utility.yul\":8612:8617   */\n      dup2\n        /* \"#utility.yul\":8606:8618   */\n      mload\n        /* \"#utility.yul\":8596:8618   */\n      swap1\n      pop\n        /* \"#utility.yul\":8511:8625   */\n      swap2\n      swap1\n      pop\n      jump\t// out\n        /* \"#utility.yul\":8631:8815   */\n    tag_256:\n        /* \"#utility.yul\":8730:8741   */\n      0x00\n        /* \"#utility.yul\":8764:8770   */\n      dup3\n        /* \"#utility.yul\":8759:8762   */\n      dup3\n        /* \"#utility.yul\":8752:8771   */\n      mstore\n        /* \"#utility.yul\":8804:8808   */\n      0x20\n        /* \"#utility.yul\":8799:8802   */\n      dup3\n        /* \"#utility.yul\":8795:8809   */\n      add\n        /* \"#utility.yul\":8780:8809   */\n      swap1\n      pop\n        /* \"#utility.yul\":8631:8815   */\n      swap3\n      swap2\n      pop\n      pop\n      jump\t// out\n        /* \"#utility.yul\":8821:8953   */\n    tag_257:\n        /* \"#utility.yul\":8888:8892   */\n      0x00\n        /* \"#utility.yul\":8911:8914   */\n      dup2\n        /* \"#utility.yul\":8903:8914   */\n      swap1\n      pop\n        /* \"#utility.yul\":8941:8945   */\n      0x20\n        /* \"#utility.yul\":8936:8939   */\n      dup3\n        /* \"#utility.yul\":8932:8946   */\n      add\n        /* \"#utility.yul\":8924:8946   */\n      swap1\n      pop\n        /* \"#utility.yul\":8821:8953   */\n      swap2\n      swap1\n      pop\n      jump\t// out\n        /* \"#utility.yul\":8959:9067   */\n    tag_258:\n        /* \"#utility.yul\":9036:9060   */\n      tag_394\n        /* \"#utility.yul\":9054:9059   */\n      dup2\n        /* \"#utility.yul\":9036:9060   */\n      tag_227\n      jump\t// in\n    tag_394:\n        /* \"#utility.yul\":9031:9034   */\n      dup3\n        /* \"#utility.yul\":9024:9061   */\n      mstore\n        /* \"#utility.yul\":8959:9067   */\n      pop\n      pop\n      jump\t// out\n        /* \"#utility.yul\":9073:9252   */\n    tag_259:\n        /* \"#utility.yul\":9142:9152   */\n      0x00\n        /* \"#utility.yul\":9163:9209   */\n      tag_396\n        /* \"#utility.yul\":9205:9208   */\n      dup4\n        /* \"#utility.yul\":9197:9203   */\n      dup4\n        /* \"#utility.yul\":9163:9209   */\n      tag_258\n      jump\t// in\n    tag_396:\n        /* \"#utility.yul\":9241:9245   */\n      0x20\n        /* \"#utility.yul\":9236:9239   */\n      dup4\n        /* \"#utility.yul\":9232:9246   */\n      add\n        /* \"#utility.yul\":9218:9246   */\n      swap1\n      pop\n        /* \"#utility.yul\":9073:9252   */\n      swap3\n      swap2\n      pop\n      pop\n      jump\t// out\n        /* \"#utility.yul\":9258:9371   */\n    tag_260:\n        /* \"#utility.yul\":9328:9332   */\n      0x00\n        /* \"#utility.yul\":9360:9364   */\n      0x20\n        /* \"#utility.yul\":9355:9358   */\n      dup3\n        /* \"#utility.yul\":9351:9365   */\n      add\n        /* \"#utility.yul\":9343:9365   */\n      swap1\n      pop\n        /* \"#utility.yul\":9258:9371   */\n      swap2\n      swap1\n      pop\n      jump\t// out\n        /* \"#utility.yul\":9407:10139   */\n    tag_261:\n        /* \"#utility.yul\":9526:9529   */\n      0x00\n        /* \"#utility.yul\":9555:9609   */\n      tag_399\n        /* \"#utility.yul\":9603:9608   */\n      dup3\n        /* \"#utility.yul\":9555:9609   */\n      tag_255\n      jump\t// in\n    tag_399:\n        /* \"#utility.yul\":9625:9711   */\n      tag_400\n        /* \"#utility.yul\":9704:9710   */\n      dup2\n        /* \"#utility.yul\":9699:9702   */\n      dup6\n        /* \"#utility.yul\":9625:9711   */\n      tag_256\n      jump\t// in\n    tag_400:\n        /* \"#utility.yul\":9618:9711   */\n      swap4\n      pop\n        /* \"#utility.yul\":9735:9791   */\n      tag_401\n        /* \"#utility.yul\":9785:9790   */\n      dup4\n        /* \"#utility.yul\":9735:9791   */\n      tag_257\n      jump\t// in\n    tag_401:\n        /* \"#utility.yul\":9814:9821   */\n      dup1\n        /* \"#utility.yul\":9845:9846   */\n      0x00\n        /* \"#utility.yul\":9830:10114   */\n    tag_402:\n        /* \"#utility.yul\":9855:9861   */\n      dup4\n        /* \"#utility.yul\":9852:9853   */\n      dup2\n        /* \"#utility.yul\":9849:9862   */\n      lt\n        /* \"#utility.yul\":9830:10114   */\n      iszero\n      tag_404\n      jumpi\n        /* \"#utility.yul\":9931:9937   */\n      dup2\n        /* \"#utility.yul\":9925:9938   */\n      mload\n        /* \"#utility.yul\":9958:10021   */\n      tag_405\n        /* \"#utility.yul\":10017:10020   */\n      dup9\n        /* \"#utility.yul\":10002:10015   */\n      dup3\n        /* \"#utility.yul\":9958:10021   */\n      tag_259\n      jump\t// in\n    tag_405:\n        /* \"#utility.yul\":9951:10021   */\n      swap8\n      pop\n        /* \"#utility.yul\":10044:10104   */\n      tag_406\n        /* \"#utility.yul\":10097:10103   */\n      dup4\n        /* \"#utility.yul\":10044:10104   */\n      tag_260\n      jump\t// in\n    tag_406:\n        /* \"#utility.yul\":10034:10104   */\n      swap3\n      pop\n        /* \"#utility.yul\":9890:10114   */\n      pop\n        /* \"#utility.yul\":9877:9878   */\n      0x01\n        /* \"#utility.yul\":9874:9875   */\n      dup2\n        /* \"#utility.yul\":9870:9879   */\n      add\n        /* \"#utility.yul\":9865:9879   */\n      swap1\n      pop\n        /* \"#utility.yul\":9830:10114   */\n      jump(tag_402)\n    tag_404:\n        /* \"#utility.yul\":9834:9848   */\n      pop\n        /* \"#utility.yul\":10130:10133   */\n      dup6\n        /* \"#utility.yul\":10123:10133   */\n      swap4\n      pop\n        /* \"#utility.yul\":9531:10139   */\n      pop\n      pop\n      pop\n        /* \"#utility.yul\":9407:10139   */\n      swap3\n      swap2\n      pop\n      pop\n      jump\t// out\n        /* \"#utility.yul\":10145:10518   */\n    tag_77:\n        /* \"#utility.yul\":10288:10292   */\n      0x00\n        /* \"#utility.yul\":10326:10328   */\n      0x20\n        /* \"#utility.yul\":10315:10324   */\n      dup3\n        /* \"#utility.yul\":10311:10329   */\n      add\n        /* \"#utility.yul\":10303:10329   */\n      swap1\n      pop\n        /* \"#utility.yul\":10375:10384   */\n      dup2\n        /* \"#utility.yul\":10369:10373   */\n      dup2\n        /* \"#utility.yul\":10365:10385   */\n      sub\n        /* \"#utility.yul\":10361:10362   */\n      0x00\n        /* \"#utility.yul\":10350:10359   */\n      dup4\n        /* \"#utility.yul\":10346:10363   */\n      add\n        /* \"#utility.yul\":10339:10386   */\n      mstore\n        /* \"#utility.yul\":10403:10511   */\n      tag_408\n        /* \"#utility.yul\":10506:10510   */\n      dup2\n        /* \"#utility.yul\":10497:10503   */\n      dup5\n        /* \"#utility.yul\":10403:10511   */\n      tag_261\n      jump\t// in\n    tag_408:\n        /* \"#utility.yul\":10395:10511   */\n      swap1\n      pop\n        /* \"#utility.yul\":10145:10518   */\n      swap3\n      swap2\n      pop\n      pop\n      jump\t// out\n        /* \"#utility.yul\":10524:10704   */\n    tag_262:\n        /* \"#utility.yul\":10572:10649   */\n      0x4e487b7100000000000000000000000000000000000000000000000000000000\n        /* \"#utility.yul\":10569:10570   */\n      0x00\n        /* \"#utility.yul\":10562:10650   */\n      mstore\n        /* \"#utility.yul\":10669:10673   */\n      0x22\n        /* \"#utility.yul\":10666:10667   */\n      0x04\n        /* \"#utility.yul\":10659:10674   */\n      mstore\n        /* \"#utility.yul\":10693:10697   */\n      0x24\n        /* \"#utility.yul\":10690:10691   */\n      0x00\n        /* \"#utility.yul\":10683:10698   */\n      revert\n        /* \"#utility.yul\":10710:11030   */\n    tag_87:\n        /* \"#utility.yul\":10754:10760   */\n      0x00\n        /* \"#utility.yul\":10791:10792   */\n      0x02\n        /* \"#utility.yul\":10785:10789   */\n      dup3\n        /* \"#utility.yul\":10781:10793   */\n      div\n        /* \"#utility.yul\":10771:10793   */\n      swap1\n      pop\n        /* \"#utility.yul\":10838:10839   */\n      0x01\n        /* \"#utility.yul\":10832:10836   */\n      dup3\n        /* \"#utility.yul\":10828:10840   */\n      and\n        /* \"#utility.yul\":10859:10877   */\n      dup1\n        /* \"#utility.yul\":10849:10930   */\n      tag_411\n      jumpi\n        /* \"#utility.yul\":10915:10919   */\n      0x7f\n        /* \"#utility.yul\":10907:10913   */\n      dup3\n        /* \"#utility.yul\":10903:10920   */\n      and\n        /* \"#utility.yul\":10893:10920   */\n      swap2\n      pop\n        /* \"#utility.yul\":10849:10930   */\n    tag_411:\n        /* \"#utility.yul\":10977:10979   */\n      0x20\n        /* \"#utility.yul\":10969:10975   */\n      dup3\n        /* \"#utility.yul\":10966:10980   */\n      lt\n        /* \"#utility.yul\":10946:10964   */\n      dup2\n        /* \"#utility.yul\":10943:10981   */\n      sub\n        /* \"#utility.yul\":10940:11024   */\n      tag_412\n      jumpi\n        /* \"#utility.yul\":10996:11014   */\n      tag_413\n      tag_262\n      jump\t// in\n    tag_413:\n        /* \"#utility.yul\":10940:11024   */\n    tag_412:\n        /* \"#utility.yul\":10761:11030   */\n      pop\n        /* \"#utility.yul\":10710:11030   */\n      swap2\n      swap1\n      pop\n      jump\t// out\n        /* \"#utility.yul\":11036:11213   */\n    tag_263:\n        /* \"#utility.yul\":11176:11205   */\n      0x4d65737361676520696e646578206f7574206f6620626f756e64730000000000\n        /* \"#utility.yul\":11172:11173   */\n      0x00\n        /* \"#utility.yul\":11164:11170   */\n      dup3\n        /* \"#utility.yul\":11160:11174   */\n      add\n        /* \"#utility.yul\":11153:11206   */\n      mstore\n        /* \"#utility.yul\":11036:11213   */\n      pop\n      jump\t// out\n        /* \"#utility.yul\":11219:11585   */\n    tag_264:\n        /* \"#utility.yul\":11361:11364   */\n      0x00\n        /* \"#utility.yul\":11382:11449   */\n      tag_416\n        /* \"#utility.yul\":11446:11448   */\n      0x1b\n        /* \"#utility.yul\":11441:11444   */\n      dup4\n        /* \"#utility.yul\":11382:11449   */\n      tag_234\n      jump\t// in\n    tag_416:\n        /* \"#utility.yul\":11375:11449   */\n      swap2\n      pop\n        /* \"#utility.yul\":11458:11551   */\n      tag_417\n        /* \"#utility.yul\":11547:11550   */\n      dup3\n        /* \"#utility.yul\":11458:11551   */\n      tag_263\n      jump\t// in\n    tag_417:\n        /* \"#utility.yul\":11576:11578   */\n      0x20\n        /* \"#utility.yul\":11571:11574   */\n      dup3\n        /* \"#utility.yul\":11567:11579   */\n      add\n        /* \"#utility.yul\":11560:11579   */\n      swap1\n      pop\n        /* \"#utility.yul\":11219:11585   */\n      swap2\n      swap1\n      pop\n      jump\t// out\n        /* \"#utility.yul\":11591:12010   */\n    tag_96:\n        /* \"#utility.yul\":11757:11761   */\n      0x00\n        /* \"#utility.yul\":11795:11797   */\n      0x20\n        /* \"#utility.yul\":11784:11793   */\n      dup3\n        /* \"#utility.yul\":11780:11798   */\n      add\n        /* \"#utility.yul\":11772:11798   */\n      swap1\n      pop\n        /* \"#utility.yul\":11844:11853   */\n      dup2\n        /* \"#utility.yul\":11838:11842   */\n      dup2\n        /* \"#utility.yul\":11834:11854   */\n      sub\n        /* \"#utility.yul\":11830:11831   */\n      0x00\n        /* \"#utility.yul\":11819:11828   */\n      dup4\n        /* \"#utility.yul\":11815:11832   */\n      add\n        /* \"#utility.yul\":11808:11855   */\n      mstore\n        /* \"#utility.yul\":11872:12003   */\n      tag_419\n        /* \"#utility.yul\":11998:12002   */\n      dup2\n        /* \"#utility.yul\":11872:12003   */\n      tag_264\n      jump\t// in\n    tag_419:\n        /* \"#utility.yul\":11864:12003   */\n      swap1\n      pop\n        /* \"#utility.yul\":11591:12010   */\n      swap2\n      swap1\n      pop\n      jump\t// out\n        /* \"#utility.yul\":12016:12196   */\n    tag_99:\n        /* \"#utility.yul\":12064:12141   */\n      0x4e487b7100000000000000000000000000000000000000000000000000000000\n        /* \"#utility.yul\":12061:12062   */\n      0x00\n        /* \"#utility.yul\":12054:12142   */\n      mstore\n        /* \"#utility.yul\":12161:12165   */\n      0x32\n        /* \"#utility.yul\":12158:12159   */\n      0x04\n        /* \"#utility.yul\":12151:12166   */\n      mstore\n        /* \"#utility.yul\":12185:12189   */\n      0x24\n        /* \"#utility.yul\":12182:12183   */\n      0x00\n        /* \"#utility.yul\":12175:12190   */\n      revert\n        /* \"#utility.yul\":12202:12425   */\n    tag_265:\n        /* \"#utility.yul\":12342:12376   */\n      0x4d65737361676520696e646578206f7574206f6620626f756e647320666f7220\n        /* \"#utility.yul\":12338:12339   */\n      0x00\n        /* \"#utility.yul\":12330:12336   */\n      dup3\n        /* \"#utility.yul\":12326:12340   */\n      add\n        /* \"#utility.yul\":12319:12377   */\n      mstore\n        /* \"#utility.yul\":12411:12417   */\n      0x7573657200000000000000000000000000000000000000000000000000000000\n        /* \"#utility.yul\":12406:12408   */\n      0x20\n        /* \"#utility.yul\":12398:12404   */\n      dup3\n        /* \"#utility.yul\":12394:12409   */\n      add\n        /* \"#utility.yul\":12387:12418   */\n      mstore\n        /* \"#utility.yul\":12202:12425   */\n      pop\n      jump\t// out\n        /* \"#utility.yul\":12431:12797   */\n    tag_266:\n        /* \"#utility.yul\":12573:12576   */\n      0x00\n        /* \"#utility.yul\":12594:12661   */\n      tag_423\n        /* \"#utility.yul\":12658:12660   */\n      0x24\n        /* \"#utility.yul\":12653:12656   */\n      dup4\n        /* \"#utility.yul\":12594:12661   */\n      tag_234\n      jump\t// in\n    tag_423:\n        /* \"#utility.yul\":12587:12661   */\n      swap2\n      pop\n        /* \"#utility.yul\":12670:12763   */\n      tag_424\n        /* \"#utility.yul\":12759:12762   */\n      dup3\n        /* \"#utility.yul\":12670:12763   */\n      tag_265\n      jump\t// in\n    tag_424:\n        /* \"#utility.yul\":12788:12790   */\n      0x40\n        /* \"#utility.yul\":12783:12786   */\n      dup3\n        /* \"#utility.yul\":12779:12791   */\n      add\n        /* \"#utility.yul\":12772:12791   */\n      swap1\n      pop\n        /* \"#utility.yul\":12431:12797   */\n      swap2\n      swap1\n      pop\n      jump\t// out\n        /* \"#utility.yul\":12803:13222   */\n    tag_109:\n        /* \"#utility.yul\":12969:12973   */\n      0x00\n        /* \"#utility.yul\":13007:13009   */\n      0x20\n        /* \"#utility.yul\":12996:13005   */\n      dup3\n        /* \"#utility.yul\":12992:13010   */\n      add\n        /* \"#utility.yul\":12984:13010   */\n      swap1\n      pop\n        /* \"#utility.yul\":13056:13065   */\n      dup2\n        /* \"#utility.yul\":13050:13054   */\n      dup2\n        /* \"#utility.yul\":13046:13066   */\n      sub\n        /* \"#utility.yul\":13042:13043   */\n      0x00\n        /* \"#utility.yul\":13031:13040   */\n      dup4\n        /* \"#utility.yul\":13027:13044   */\n      add\n        /* \"#utility.yul\":13020:13067   */\n      mstore\n        /* \"#utility.yul\":13084:13215   */\n      tag_426\n        /* \"#utility.yul\":13210:13214   */\n      dup2\n        /* \"#utility.yul\":13084:13215   */\n      tag_266\n      jump\t// in\n    tag_426:\n        /* \"#utility.yul\":13076:13215   */\n      swap1\n      pop\n        /* \"#utility.yul\":12803:13222   */\n      swap2\n      swap1\n      pop\n      jump\t// out\n        /* \"#utility.yul\":13228:13400   */\n    tag_267:\n        /* \"#utility.yul\":13368:13392   */\n      0x496e76616c6964206665652070657263656e7461676500000000000000000000\n        /* \"#utility.yul\":13364:13365   */\n      0x00\n        /* \"#utility.yul\":13356:13362   */\n      dup3\n        /* \"#utility.yul\":13352:13366   */\n      add\n        /* \"#utility.yul\":13345:13393   */\n      mstore\n        /* \"#utility.yul\":13228:13400   */\n      pop\n      jump\t// out\n        /* \"#utility.yul\":13406:13772   */\n    tag_268:\n        /* \"#utility.yul\":13548:13551   */\n      0x00\n        /* \"#utility.yul\":13569:13636   */\n      tag_429\n        /* \"#utility.yul\":13633:13635   */\n      0x16\n        /* \"#utility.yul\":13628:13631   */\n      dup4\n        /* \"#utility.yul\":13569:13636   */\n      tag_234\n      jump\t// in\n    tag_429:\n        /* \"#utility.yul\":13562:13636   */\n      swap2\n      pop\n        /* \"#utility.yul\":13645:13738   */\n      tag_430\n        /* \"#utility.yul\":13734:13737   */\n      dup3\n        /* \"#utility.yul\":13645:13738   */\n      tag_267\n      jump\t// in\n    tag_430:\n        /* \"#utility.yul\":13763:13765   */\n      0x20\n        /* \"#utility.yul\":13758:13761   */\n      dup3\n        /* \"#utility.yul\":13754:13766   */\n      add\n        /* \"#utility.yul\":13747:13766   */\n      swap1\n      pop\n        /* \"#utility.yul\":13406:13772   */\n      swap2\n      swap1\n      pop\n      jump\t// out\n        /* \"#utility.yul\":13778:14197   */\n    tag_127:\n        /* \"#utility.yul\":13944:13948   */\n      0x00\n        /* \"#utility.yul\":13982:13984   */\n      0x20\n        /* \"#utility.yul\":13971:13980   */\n      dup3\n        /* \"#utility.yul\":13967:13985   */\n      add\n        /* \"#utility.yul\":13959:13985   */\n      swap1\n      pop\n        /* \"#utility.yul\":14031:14040   */\n      dup2\n        /* \"#utility.yul\":14025:14029   */\n      dup2\n        /* \"#utility.yul\":14021:14041   */\n      sub\n        /* \"#utility.yul\":14017:14018   */\n      0x00\n        /* \"#utility.yul\":14006:14015   */\n      dup4\n        /* \"#utility.yul\":14002:14019   */\n      add\n        /* \"#utility.yul\":13995:14042   */\n      mstore\n        /* \"#utility.yul\":14059:14190   */\n      tag_432\n        /* \"#utility.yul\":14185:14189   */\n      dup2\n        /* \"#utility.yul\":14059:14190   */\n      tag_268\n      jump\t// in\n    tag_432:\n        /* \"#utility.yul\":14051:14190   */\n      swap1\n      pop\n        /* \"#utility.yul\":13778:14197   */\n      swap2\n      swap1\n      pop\n      jump\t// out\n        /* \"#utility.yul\":14203:14383   */\n    tag_269:\n        /* \"#utility.yul\":14251:14328   */\n      0x4e487b7100000000000000000000000000000000000000000000000000000000\n        /* \"#utility.yul\":14248:14249   */\n      0x00\n        /* \"#utility.yul\":14241:14329   */\n      mstore\n        /* \"#utility.yul\":14348:14352   */\n      0x11\n        /* \"#utility.yul\":14345:14346   */\n      0x04\n        /* \"#utility.yul\":14338:14353   */\n      mstore\n        /* \"#utility.yul\":14372:14376   */\n      0x24\n        /* \"#utility.yul\":14369:14370   */\n      0x00\n        /* \"#utility.yul\":14362:14377   */\n      revert\n        /* \"#utility.yul\":14389:14799   */\n    tag_133:\n        /* \"#utility.yul\":14429:14436   */\n      0x00\n        /* \"#utility.yul\":14452:14472   */\n      tag_435\n        /* \"#utility.yul\":14470:14471   */\n      dup3\n        /* \"#utility.yul\":14452:14472   */\n      tag_227\n      jump\t// in\n    tag_435:\n        /* \"#utility.yul\":14447:14472   */\n      swap2\n      pop\n        /* \"#utility.yul\":14486:14506   */\n      tag_436\n        /* \"#utility.yul\":14504:14505   */\n      dup4\n        /* \"#utility.yul\":14486:14506   */\n      tag_227\n      jump\t// in\n    tag_436:\n        /* \"#utility.yul\":14481:14506   */\n      swap3\n      pop\n        /* \"#utility.yul\":14541:14542   */\n      dup3\n        /* \"#utility.yul\":14538:14539   */\n      dup3\n        /* \"#utility.yul\":14534:14543   */\n      mul\n        /* \"#utility.yul\":14563:14593   */\n      tag_437\n        /* \"#utility.yul\":14581:14592   */\n      dup2\n        /* \"#utility.yul\":14563:14593   */\n      tag_227\n      jump\t// in\n    tag_437:\n        /* \"#utility.yul\":14552:14593   */\n      swap2\n      pop\n        /* \"#utility.yul\":14742:14743   */\n      dup3\n        /* \"#utility.yul\":14733:14740   */\n      dup3\n        /* \"#utility.yul\":14729:14744   */\n      div\n        /* \"#utility.yul\":14726:14727   */\n      dup5\n        /* \"#utility.yul\":14723:14745   */\n      eq\n        /* \"#utility.yul\":14703:14704   */\n      dup4\n        /* \"#utility.yul\":14696:14705   */\n      iszero\n        /* \"#utility.yul\":14676:14759   */\n      or\n        /* \"#utility.yul\":14653:14792   */\n      tag_438\n      jumpi\n        /* \"#utility.yul\":14772:14790   */\n      tag_439\n      tag_269\n      jump\t// in\n    tag_439:\n        /* \"#utility.yul\":14653:14792   */\n    tag_438:\n        /* \"#utility.yul\":14437:14799   */\n      pop\n        /* \"#utility.yul\":14389:14799   */\n      swap3\n      swap2\n      pop\n      pop\n      jump\t// out\n        /* \"#utility.yul\":14805:14985   */\n    tag_270:\n        /* \"#utility.yul\":14853:14930   */\n      0x4e487b7100000000000000000000000000000000000000000000000000000000\n        /* \"#utility.yul\":14850:14851   */\n      0x00\n        /* \"#utility.yul\":14843:14931   */\n      mstore\n        /* \"#utility.yul\":14950:14954   */\n      0x12\n        /* \"#utility.yul\":14947:14948   */\n      0x04\n        /* \"#utility.yul\":14940:14955   */\n      mstore\n        /* \"#utility.yul\":14974:14978   */\n      0x24\n        /* \"#utility.yul\":14971:14972   */\n      0x00\n        /* \"#utility.yul\":14964:14979   */\n      revert\n        /* \"#utility.yul\":14991:15176   */\n    tag_135:\n        /* \"#utility.yul\":15031:15032   */\n      0x00\n        /* \"#utility.yul\":15048:15068   */\n      tag_442\n        /* \"#utility.yul\":15066:15067   */\n      dup3\n        /* \"#utility.yul\":15048:15068   */\n      tag_227\n      jump\t// in\n    tag_442:\n        /* \"#utility.yul\":15043:15068   */\n      swap2\n      pop\n        /* \"#utility.yul\":15082:15102   */\n      tag_443\n        /* \"#utility.yul\":15100:15101   */\n      dup4\n        /* \"#utility.yul\":15082:15102   */\n      tag_227\n      jump\t// in\n    tag_443:\n        /* \"#utility.yul\":15077:15102   */\n      swap3\n      pop\n        /* \"#utility.yul\":15121:15122   */\n      dup3\n        /* \"#utility.yul\":15111:15146   */\n      tag_444\n      jumpi\n        /* \"#utility.yul\":15126:15144   */\n      tag_445\n      tag_270\n      jump\t// in\n    tag_445:\n        /* \"#utility.yul\":15111:15146   */\n    tag_444:\n        /* \"#utility.yul\":15168:15169   */\n      dup3\n        /* \"#utility.yul\":15165:15166   */\n      dup3\n        /* \"#utility.yul\":15161:15170   */\n      div\n        /* \"#utility.yul\":15156:15170   */\n      swap1\n      pop\n        /* \"#utility.yul\":14991:15176   */\n      swap3\n      swap2\n      pop\n      pop\n      jump\t// out\n        /* \"#utility.yul\":15182:15376   */\n    tag_137:\n        /* \"#utility.yul\":15222:15226   */\n      0x00\n        /* \"#utility.yul\":15242:15262   */\n      tag_447\n        /* \"#utility.yul\":15260:15261   */\n      dup3\n        /* \"#utility.yul\":15242:15262   */\n      tag_227\n      jump\t// in\n    tag_447:\n        /* \"#utility.yul\":15237:15262   */\n      swap2\n      pop\n        /* \"#utility.yul\":15276:15296   */\n      tag_448\n        /* \"#utility.yul\":15294:15295   */\n      dup4\n        /* \"#utility.yul\":15276:15296   */\n      tag_227\n      jump\t// in\n    tag_448:\n        /* \"#utility.yul\":15271:15296   */\n      swap3\n      pop\n        /* \"#utility.yul\":15320:15321   */\n      dup3\n        /* \"#utility.yul\":15317:15318   */\n      dup3\n        /* \"#utility.yul\":15313:15322   */\n      sub\n        /* \"#utility.yul\":15305:15322   */\n      swap1\n      pop\n        /* \"#utility.yul\":15344:15345   */\n      dup2\n        /* \"#utility.yul\":15338:15342   */\n      dup2\n        /* \"#utility.yul\":15335:15346   */\n      gt\n        /* \"#utility.yul\":15332:15369   */\n      iszero\n      tag_449\n      jumpi\n        /* \"#utility.yul\":15349:15367   */\n      tag_450\n      tag_269\n      jump\t// in\n    tag_450:\n        /* \"#utility.yul\":15332:15369   */\n    tag_449:\n        /* \"#utility.yul\":15182:15376   */\n      swap3\n      swap2\n      pop\n      pop\n      jump\t// out\n        /* \"#utility.yul\":15382:15523   */\n    tag_271:\n        /* \"#utility.yul\":15431:15435   */\n      0x00\n        /* \"#utility.yul\":15454:15457   */\n      dup2\n        /* \"#utility.yul\":15446:15457   */\n      swap1\n      pop\n        /* \"#utility.yul\":15477:15480   */\n      dup2\n        /* \"#utility.yul\":15474:15475   */\n      0x00\n        /* \"#utility.yul\":15467:15481   */\n      mstore\n        /* \"#utility.yul\":15511:15515   */\n      0x20\n        /* \"#utility.yul\":15508:15509   */\n      0x00\n        /* \"#utility.yul\":15498:15516   */\n      keccak256\n        /* \"#utility.yul\":15490:15516   */\n      swap1\n      pop\n        /* \"#utility.yul\":15382:15523   */\n      swap2\n      swap1\n      pop\n      jump\t// out\n        /* \"#utility.yul\":15529:15622   */\n    tag_272:\n        /* \"#utility.yul\":15566:15572   */\n      0x00\n        /* \"#utility.yul\":15613:15615   */\n      0x20\n        /* \"#utility.yul\":15608:15610   */\n      0x1f\n        /* \"#utility.yul\":15601:15606   */\n      dup4\n        /* \"#utility.yul\":15597:15611   */\n      add\n        /* \"#utility.yul\":15593:15616   */\n      div\n        /* \"#utility.yul\":15583:15616   */\n      swap1\n      pop\n        /* \"#utility.yul\":15529:15622   */\n      swap2\n      swap1\n      pop\n      jump\t// out\n        /* \"#utility.yul\":15628:15735   */\n    tag_273:\n        /* \"#utility.yul\":15672:15680   */\n      0x00\n        /* \"#utility.yul\":15722:15727   */\n      dup3\n        /* \"#utility.yul\":15716:15720   */\n      dup3\n        /* \"#utility.yul\":15712:15728   */\n      shl\n        /* \"#utility.yul\":15691:15728   */\n      swap1\n      pop\n        /* \"#utility.yul\":15628:15735   */\n      swap3\n      swap2\n      pop\n      pop\n      jump\t// out\n        /* \"#utility.yul\":15741:16134   */\n    tag_274:\n        /* \"#utility.yul\":15810:15816   */\n      0x00\n        /* \"#utility.yul\":15860:15861   */\n      0x08\n        /* \"#utility.yul\":15848:15858   */\n      dup4\n        /* \"#utility.yul\":15844:15862   */\n      mul\n        /* \"#utility.yul\":15883:15980   */\n      tag_455\n        /* \"#utility.yul\":15913:15979   */\n      0xffffffffffffffffffffffffffffffffffffffffffffffffffffffffffffffff\n        /* \"#utility.yul\":15902:15911   */\n      dup3\n        /* \"#utility.yul\":15883:15980   */\n      tag_273\n      jump\t// in\n    tag_455:\n        /* \"#utility.yul\":16001:16040   */\n      tag_456\n        /* \"#utility.yul\":16031:16039   */\n      dup7\n        /* \"#utility.yul\":16020:16029   */\n      dup4\n        /* \"#utility.yul\":16001:16040   */\n      tag_273\n      jump\t// in\n    tag_456:\n        /* \"#utility.yul\":15989:16040   */\n      swap6\n      pop\n        /* \"#utility.yul\":16073:16077   */\n      dup1\n        /* \"#utility.yul\":16069:16078   */\n      not\n        /* \"#utility.yul\":16062:16067   */\n      dup5\n        /* \"#utility.yul\":16058:16079   */\n      and\n        /* \"#utility.yul\":16049:16079   */\n      swap4\n      pop\n        /* \"#utility.yul\":16122:16126   */\n      dup1\n        /* \"#utility.yul\":16112:16120   */\n      dup7\n        /* \"#utility.yul\":16108:16127   */\n      and\n        /* \"#utility.yul\":16101:16106   */\n      dup5\n        /* \"#utility.yul\":16098:16128   */\n      or\n        /* \"#utility.yul\":16088:16128   */\n      swap3\n      pop\n        /* \"#utility.yul\":15817:16134   */\n      pop\n      pop\n        /* \"#utility.yul\":15741:16134   */\n      swap4\n      swap3\n      pop\n      pop\n      pop\n      jump\t// out\n        /* \"#utility.yul\":16140:16282   */\n    tag_275:\n        /* \"#utility.yul\":16190:16199   */\n      0x00\n        /* \"#utility.yul\":16223:16276   */\n      tag_458\n        /* \"#utility.yul\":16241:16275   */\n      tag_459\n        /* \"#utility.yul\":16250:16274   */\n      tag_460\n        /* \"#utility.yul\":16268:16273   */\n      dup5\n        /* \"#utility.yul\":16250:16274   */\n      tag_227\n      jump\t// in\n    tag_460:\n        /* \"#utility.yul\":16241:16275   */\n      tag_250\n      jump\t// in\n    tag_459:\n        /* \"#utility.yul\":16223:16276   */\n      tag_227\n      jump\t// in\n    tag_458:\n        /* \"#utility.yul\":16210:16276   */\n      swap1\n      pop\n        /* \"#utility.yul\":16140:16282   */\n      swap2\n      swap1\n      pop\n      jump\t// out\n        /* \"#utility.yul\":16288:16363   */\n    tag_276:\n        /* \"#utility.yul\":16331:16334   */\n      0x00\n        /* \"#utility.yul\":16352:16357   */\n      dup2\n        /* \"#utility.yul\":16345:16357   */\n      swap1\n      pop\n        /* \"#utility.yul\":16288:16363   */\n      swap2\n      swap1\n      pop\n      jump\t// out\n        /* \"#utility.yul\":16369:16638   */\n    tag_277:\n        /* \"#utility.yul\":16479:16518   */\n      tag_463\n        /* \"#utility.yul\":16510:16517   */\n      dup4\n        /* \"#utility.yul\":16479:16518   */\n      tag_275\n      jump\t// in\n    tag_463:\n        /* \"#utility.yul\":16540:16631   */\n      tag_464\n        /* \"#utility.yul\":16589:16630   */\n      tag_465\n        /* \"#utility.yul\":16613:16629   */\n      dup3\n        /* \"#utility.yul\":16589:16630   */\n      tag_276\n      jump\t// in\n    tag_465:\n        /* \"#utility.yul\":16581:16587   */\n      dup5\n        /* \"#utility.yul\":16574:16578   */\n      dup5\n        /* \"#utility.yul\":16568:16579   */\n      sload\n        /* \"#utility.yul\":16540:16631   */\n      tag_274\n      jump\t// in\n    tag_464:\n        /* \"#utility.yul\":16534:16538   */\n      dup3\n        /* \"#utility.yul\":16527:16632   */\n      sstore\n        /* \"#utility.yul\":16445:16638   */\n      pop\n        /* \"#utility.yul\":16369:16638   */\n      pop\n      pop\n      pop\n      jump\t// out\n        /* \"#utility.yul\":16644:16717   */\n    tag_278:\n        /* \"#utility.yul\":16689:16692   */\n      0x00\n        /* \"#utility.yul\":16644:16717   */\n      swap1\n      jump\t// out\n        /* \"#utility.yul\":16723:16912   */\n    tag_279:\n        /* \"#utility.yul\":16800:16832   */\n      tag_468\n      tag_278\n      jump\t// in\n    tag_468:\n        /* \"#utility.yul\":16841:16906   */\n      tag_469\n        /* \"#utility.yul\":16899:16905   */\n      dup2\n        /* \"#utility.yul\":16891:16897   */\n      dup5\n        /* \"#utility.yul\":16885:16889   */\n      dup5\n        /* \"#utility.yul\":16841:16906   */\n      tag_277\n      jump\t// in\n    tag_469:\n        /* \"#utility.yul\":16776:16912   */\n      pop\n        /* \"#utility.yul\":16723:16912   */\n      pop\n      pop\n      jump\t// out\n        /* \"#utility.yul\":16918:17104   */\n    tag_280:\n        /* \"#utility.yul\":16978:17098   */\n    tag_471:\n        /* \"#utility.yul\":16995:16998   */\n      dup2\n        /* \"#utility.yul\":16988:16993   */\n      dup2\n        /* \"#utility.yul\":16985:16999   */\n      lt\n        /* \"#utility.yul\":16978:17098   */\n      iszero\n      tag_473\n      jumpi\n        /* \"#utility.yul\":17049:17088   */\n      tag_474\n        /* \"#utility.yul\":17086:17087   */\n      0x00\n        /* \"#utility.yul\":17079:17084   */\n      dup3\n        /* \"#utility.yul\":17049:17088   */\n      tag_279\n      jump\t// in\n    tag_474:\n        /* \"#utility.yul\":17022:17023   */\n      0x01\n        /* \"#utility.yul\":17015:17020   */\n      dup2\n        /* \"#utility.yul\":17011:17024   */\n      add\n        /* \"#utility.yul\":17002:17024   */\n      swap1\n      pop\n        /* \"#utility.yul\":16978:17098   */\n      jump(tag_471)\n    tag_473:\n        /* \"#utility.yul\":16918:17104   */\n      pop\n      pop\n      jump\t// out\n        /* \"#utility.yul\":17110:17653   */\n    tag_281:\n        /* \"#utility.yul\":17211:17213   */\n      0x1f\n        /* \"#utility.yul\":17206:17209   */\n      dup3\n        /* \"#utility.yul\":17203:17214   */\n      gt\n        /* \"#utility.yul\":17200:17646   */\n      iszero\n      tag_476\n      jumpi\n        /* \"#utility.yul\":17245:17283   */\n      tag_477\n        /* \"#utility.yul\":17277:17282   */\n      dup2\n        /* \"#utility.yul\":17245:17283   */\n      tag_271\n      jump\t// in\n    tag_477:\n        /* \"#utility.yul\":17329:17358   */\n      tag_478\n        /* \"#utility.yul\":17347:17357   */\n      dup5\n        /* \"#utility.yul\":17329:17358   */\n      tag_272\n      jump\t// in\n    tag_478:\n        /* \"#utility.yul\":17319:17327   */\n      dup2\n        /* \"#utility.yul\":17315:17359   */\n      add\n        /* \"#utility.yul\":17512:17514   */\n      0x20\n        /* \"#utility.yul\":17500:17510   */\n      dup6\n        /* \"#utility.yul\":17497:17515   */\n      lt\n        /* \"#utility.yul\":17494:17543   */\n      iszero\n      tag_479\n      jumpi\n        /* \"#utility.yul\":17533:17541   */\n      dup2\n        /* \"#utility.yul\":17518:17541   */\n      swap1\n      pop\n        /* \"#utility.yul\":17494:17543   */\n    tag_479:\n        /* \"#utility.yul\":17556:17636   */\n      tag_480\n        /* \"#utility.yul\":17612:17634   */\n      tag_481\n        /* \"#utility.yul\":17630:17633   */\n      dup6\n        /* \"#utility.yul\":17612:17634   */\n      tag_272\n      jump\t// in\n    tag_481:\n        /* \"#utility.yul\":17602:17610   */\n      dup4\n        /* \"#utility.yul\":17598:17635   */\n      add\n        /* \"#utility.yul\":17585:17596   */\n      dup3\n        /* \"#utility.yul\":17556:17636   */\n      tag_280\n      jump\t// in\n    tag_480:\n        /* \"#utility.yul\":17215:17646   */\n      pop\n      pop\n        /* \"#utility.yul\":17200:17646   */\n    tag_476:\n        /* \"#utility.yul\":17110:17653   */\n      pop\n      pop\n      pop\n      jump\t// out\n        /* \"#utility.yul\":17659:17776   */\n    tag_282:\n        /* \"#utility.yul\":17713:17721   */\n      0x00\n        /* \"#utility.yul\":17763:17768   */\n      dup3\n        /* \"#utility.yul\":17757:17761   */\n      dup3\n        /* \"#utility.yul\":17753:17769   */\n      shr\n        /* \"#utility.yul\":17732:17769   */\n      swap1\n      pop\n        /* \"#utility.yul\":17659:17776   */\n      swap3\n      swap2\n      pop\n      pop\n      jump\t// out\n        /* \"#utility.yul\":17782:17951   */\n    tag_283:\n        /* \"#utility.yul\":17826:17832   */\n      0x00\n        /* \"#utility.yul\":17859:17910   */\n      tag_484\n        /* \"#utility.yul\":17907:17908   */\n      0x00\n        /* \"#utility.yul\":17903:17909   */\n      not\n        /* \"#utility.yul\":17895:17900   */\n      dup5\n        /* \"#utility.yul\":17892:17893   */\n      0x08\n        /* \"#utility.yul\":17888:17901   */\n      mul\n        /* \"#utility.yul\":17859:17910   */\n      tag_282\n      jump\t// in\n    tag_484:\n        /* \"#utility.yul\":17855:17911   */\n      not\n        /* \"#utility.yul\":17940:17944   */\n      dup1\n        /* \"#utility.yul\":17934:17938   */\n      dup4\n        /* \"#utility.yul\":17930:17945   */\n      and\n        /* \"#utility.yul\":17920:17945   */\n      swap2\n      pop\n        /* \"#utility.yul\":17833:17951   */\n      pop\n        /* \"#utility.yul\":17782:17951   */\n      swap3\n      swap2\n      pop\n      pop\n      jump\t// out\n        /* \"#utility.yul\":17956:18251   */\n    tag_284:\n        /* \"#utility.yul\":18032:18036   */\n      0x00\n        /* \"#utility.yul\":18178:18207   */\n      tag_486\n        /* \"#utility.yul\":18203:18206   */\n      dup4\n        /* \"#utility.yul\":18197:18201   */\n      dup4\n        /* \"#utility.yul\":18178:18207   */\n      tag_283\n      jump\t// in\n    tag_486:\n        /* \"#utility.yul\":18170:18207   */\n      swap2\n      pop\n        /* \"#utility.yul\":18240:18243   */\n      dup3\n        /* \"#utility.yul\":18237:18238   */\n      0x02\n        /* \"#utility.yul\":18233:18244   */\n      mul\n        /* \"#utility.yul\":18227:18231   */\n      dup3\n        /* \"#utility.yul\":18224:18245   */\n      or\n        /* \"#utility.yul\":18216:18245   */\n      swap1\n      pop\n        /* \"#utility.yul\":17956:18251   */\n      swap3\n      swap2\n      pop\n      pop\n      jump\t// out\n        /* \"#utility.yul\":18256:19651   */\n    tag_147:\n        /* \"#utility.yul\":18373:18410   */\n      tag_488\n        /* \"#utility.yul\":18406:18409   */\n      dup3\n        /* \"#utility.yul\":18373:18410   */\n      tag_233\n      jump\t// in\n    tag_488:\n        /* \"#utility.yul\":18475:18493   */\n      0xffffffffffffffff\n        /* \"#utility.yul\":18467:18473   */\n      dup2\n        /* \"#utility.yul\":18464:18494   */\n      gt\n        /* \"#utility.yul\":18461:18517   */\n      iszero\n      tag_489\n      jumpi\n        /* \"#utility.yul\":18497:18515   */\n      tag_490\n      tag_243\n      jump\t// in\n    tag_490:\n        /* \"#utility.yul\":18461:18517   */\n    tag_489:\n        /* \"#utility.yul\":18541:18579   */\n      tag_491\n        /* \"#utility.yul\":18573:18577   */\n      dup3\n        /* \"#utility.yul\":18567:18578   */\n      sload\n        /* \"#utility.yul\":18541:18579   */\n      tag_87\n      jump\t// in\n    tag_491:\n        /* \"#utility.yul\":18626:18693   */\n      tag_492\n        /* \"#utility.yul\":18686:18692   */\n      dup3\n        /* \"#utility.yul\":18678:18684   */\n      dup3\n        /* \"#utility.yul\":18672:18676   */\n      dup6\n        /* \"#utility.yul\":18626:18693   */\n      tag_281\n      jump\t// in\n    tag_492:\n        /* \"#utility.yul\":18720:18721   */\n      0x00\n        /* \"#utility.yul\":18744:18748   */\n      0x20\n        /* \"#utility.yul\":18731:18748   */\n      swap1\n      pop\n        /* \"#utility.yul\":18776:18778   */\n      0x1f\n        /* \"#utility.yul\":18768:18774   */\n      dup4\n        /* \"#utility.yul\":18765:18779   */\n      gt\n        /* \"#utility.yul\":18793:18794   */\n      0x01\n        /* \"#utility.yul\":18788:19406   */\n      dup2\n      eq\n      tag_494\n      jumpi\n        /* \"#utility.yul\":19450:19451   */\n      0x00\n        /* \"#utility.yul\":19467:19473   */\n      dup5\n        /* \"#utility.yul\":19464:19541   */\n      iszero\n      tag_495\n      jumpi\n        /* \"#utility.yul\":19516:19525   */\n      dup3\n        /* \"#utility.yul\":19511:19514   */\n      dup8\n        /* \"#utility.yul\":19507:19526   */\n      add\n        /* \"#utility.yul\":19501:19527   */\n      mload\n        /* \"#utility.yul\":19492:19527   */\n      swap1\n      pop\n        /* \"#utility.yul\":19464:19541   */\n    tag_495:\n        /* \"#utility.yul\":19567:19634   */\n      tag_496\n        /* \"#utility.yul\":19627:19633   */\n      dup6\n        /* \"#utility.yul\":19620:19625   */\n      dup3\n        /* \"#utility.yul\":19567:19634   */\n      tag_284\n      jump\t// in\n    tag_496:\n        /* \"#utility.yul\":19561:19565   */\n      dup7\n        /* \"#utility.yul\":19554:19635   */\n      sstore\n        /* \"#utility.yul\":19423:19645   */\n      pop\n        /* \"#utility.yul\":18758:19645   */\n      jump(tag_493)\n        /* \"#utility.yul\":18788:19406   */\n    tag_494:\n        /* \"#utility.yul\":18840:18844   */\n      0x1f\n        /* \"#utility.yul\":18836:18845   */\n      not\n        /* \"#utility.yul\":18828:18834   */\n      dup5\n        /* \"#utility.yul\":18824:18846   */\n      and\n        /* \"#utility.yul\":18874:18911   */\n      tag_497\n        /* \"#utility.yul\":18906:18910   */\n      dup7\n        /* \"#utility.yul\":18874:18911   */\n      tag_271\n      jump\t// in\n    tag_497:\n        /* \"#utility.yul\":18933:18934   */\n      0x00\n        /* \"#utility.yul\":18947:19155   */\n    tag_498:\n        /* \"#utility.yul\":18961:18968   */\n      dup3\n        /* \"#utility.yul\":18958:18959   */\n      dup2\n        /* \"#utility.yul\":18955:18969   */\n      lt\n        /* \"#utility.yul\":18947:19155   */\n      iszero\n      tag_500\n      jumpi\n        /* \"#utility.yul\":19040:19049   */\n      dup5\n        /* \"#utility.yul\":19035:19038   */\n      dup10\n        /* \"#utility.yul\":19031:19050   */\n      add\n        /* \"#utility.yul\":19025:19051   */\n      mload\n        /* \"#utility.yul\":19017:19023   */\n      dup3\n        /* \"#utility.yul\":19010:19052   */\n      sstore\n        /* \"#utility.yul\":19091:19092   */\n      0x01\n        /* \"#utility.yul\":19083:19089   */\n      dup3\n        /* \"#utility.yul\":19079:19093   */\n      add\n        /* \"#utility.yul\":19069:19093   */\n      swap2\n      pop\n        /* \"#utility.yul\":19138:19140   */\n      0x20\n        /* \"#utility.yul\":19127:19136   */\n      dup6\n        /* \"#utility.yul\":19123:19141   */\n      add\n        /* \"#utility.yul\":19110:19141   */\n      swap5\n      pop\n        /* \"#utility.yul\":18984:18988   */\n      0x20\n        /* \"#utility.yul\":18981:18982   */\n      dup2\n        /* \"#utility.yul\":18977:18989   */\n      add\n        /* \"#utility.yul\":18972:18989   */\n      swap1\n      pop\n        /* \"#utility.yul\":18947:19155   */\n      jump(tag_498)\n    tag_500:\n        /* \"#utility.yul\":19183:19189   */\n      dup7\n        /* \"#utility.yul\":19174:19181   */\n      dup4\n        /* \"#utility.yul\":19171:19190   */\n      lt\n        /* \"#utility.yul\":19168:19347   */\n      iszero\n      tag_501\n      jumpi\n        /* \"#utility.yul\":19241:19250   */\n      dup5\n        /* \"#utility.yul\":19236:19239   */\n      dup10\n        /* \"#utility.yul\":19232:19251   */\n      add\n        /* \"#utility.yul\":19226:19252   */\n      mload\n        /* \"#utility.yul\":19284:19332   */\n      tag_502\n        /* \"#utility.yul\":19326:19330   */\n      0x1f\n        /* \"#utility.yul\":19318:19324   */\n      dup10\n        /* \"#utility.yul\":19314:19331   */\n      and\n        /* \"#utility.yul\":19303:19312   */\n      dup3\n        /* \"#utility.yul\":19284:19332   */\n      tag_283\n      jump\t// in\n    tag_502:\n        /* \"#utility.yul\":19276:19282   */\n      dup4\n        /* \"#utility.yul\":19269:19333   */\n      sstore\n        /* \"#utility.yul\":19191:19347   */\n      pop\n        /* \"#utility.yul\":19168:19347   */\n    tag_501:\n        /* \"#utility.yul\":19393:19394   */\n      0x01\n        /* \"#utility.yul\":19389:19390   */\n      0x02\n        /* \"#utility.yul\":19381:19387   */\n      dup9\n        /* \"#utility.yul\":19377:19391   */\n      mul\n        /* \"#utility.yul\":19373:19395   */\n      add\n        /* \"#utility.yul\":19367:19371   */\n      dup9\n        /* \"#utility.yul\":19360:19396   */\n      sstore\n        /* \"#utility.yul\":18795:19406   */\n      pop\n      pop\n      pop\n        /* \"#utility.yul\":18758:19645   */\n    tag_493:\n      pop\n        /* \"#utility.yul\":18348:19651   */\n      pop\n      pop\n      pop\n        /* \"#utility.yul\":18256:19651   */\n      pop\n      pop\n      jump\t// out\n        /* \"#utility.yul\":19657:19970   */\n    tag_153:\n        /* \"#utility.yul\":19770:19774   */\n      0x00\n        /* \"#utility.yul\":19808:19810   */\n      0x20\n        /* \"#utility.yul\":19797:19806   */\n      dup3\n        /* \"#utility.yul\":19793:19811   */\n      add\n        /* \"#utility.yul\":19785:19811   */\n      swap1\n      pop\n        /* \"#utility.yul\":19857:19866   */\n      dup2\n        /* \"#utility.yul\":19851:19855   */\n      dup2\n        /* \"#utility.yul\":19847:19867   */\n      sub\n        /* \"#utility.yul\":19843:19844   */\n      0x00\n        /* \"#utility.yul\":19832:19841   */\n      dup4\n        /* \"#utility.yul\":19828:19845   */\n      add\n        /* \"#utility.yul\":19821:19868   */\n      mstore\n        /* \"#utility.yul\":19885:19963   */\n      tag_504\n        /* \"#utility.yul\":19958:19962   */\n      dup2\n        /* \"#utility.yul\":19949:19955   */\n      dup5\n        /* \"#utility.yul\":19885:19963   */\n      tag_237\n      jump\t// in\n    tag_504:\n        /* \"#utility.yul\":19877:19963   */\n      swap1\n      pop\n        /* \"#utility.yul\":19657:19970   */\n      swap3\n      swap2\n      pop\n      pop\n      jump\t// out\n        /* \"#utility.yul\":19976:20418   */\n    tag_187:\n        /* \"#utility.yul\":20125:20129   */\n      0x00\n        /* \"#utility.yul\":20163:20165   */\n      0x60\n        /* \"#utility.yul\":20152:20161   */\n      dup3\n        /* \"#utility.yul\":20148:20166   */\n      add\n        /* \"#utility.yul\":20140:20166   */\n      swap1\n      pop\n        /* \"#utility.yul\":20176:20247   */\n      tag_506\n        /* \"#utility.yul\":20244:20245   */\n      0x00\n        /* \"#utility.yul\":20233:20242   */\n      dup4\n        /* \"#utility.yul\":20229:20246   */\n      add\n        /* \"#utility.yul\":20220:20226   */\n      dup7\n        /* \"#utility.yul\":20176:20247   */\n      tag_232\n      jump\t// in\n    tag_506:\n        /* \"#utility.yul\":20257:20329   */\n      tag_507\n        /* \"#utility.yul\":20325:20327   */\n      0x20\n        /* \"#utility.yul\":20314:20323   */\n      dup4\n        /* \"#utility.yul\":20310:20328   */\n      add\n        /* \"#utility.yul\":20301:20307   */\n      dup6\n        /* \"#utility.yul\":20257:20329   */\n      tag_232\n      jump\t// in\n    tag_507:\n        /* \"#utility.yul\":20339:20411   */\n      tag_508\n        /* \"#utility.yul\":20407:20409   */\n      0x40\n        /* \"#utility.yul\":20396:20405   */\n      dup4\n        /* \"#utility.yul\":20392:20410   */\n      add\n        /* \"#utility.yul\":20383:20389   */\n      dup5\n        /* \"#utility.yul\":20339:20411   */\n      tag_238\n      jump\t// in\n    tag_508:\n        /* \"#utility.yul\":19976:20418   */\n      swap5\n      swap4\n      pop\n      pop\n      pop\n      pop\n      jump\t// out\n        /* \"#utility.yul\":20424:20514   */\n    tag_285:\n        /* \"#utility.yul\":20458:20465   */\n      0x00\n        /* \"#utility.yul\":20501:20506   */\n      dup2\n        /* \"#utility.yul\":20494:20507   */\n      iszero\n        /* \"#utility.yul\":20487:20508   */\n      iszero\n        /* \"#utility.yul\":20476:20508   */\n      swap1\n      pop\n        /* \"#utility.yul\":20424:20514   */\n      swap2\n      swap1\n      pop\n      jump\t// out\n        /* \"#utility.yul\":20520:20636   */\n    tag_286:\n        /* \"#utility.yul\":20590:20611   */\n      tag_511\n        /* \"#utility.yul\":20605:20610   */\n      dup2\n        /* \"#utility.yul\":20590:20611   */\n      tag_285\n      jump\t// in\n    tag_511:\n        /* \"#utility.yul\":20583:20588   */\n      dup2\n        /* \"#utility.yul\":20580:20612   */\n      eq\n        /* \"#utility.yul\":20570:20630   */\n      tag_512\n      jumpi\n        /* \"#utility.yul\":20626:20627   */\n      0x00\n        /* \"#utility.yul\":20623:20624   */\n      dup1\n        /* \"#utility.yul\":20616:20628   */\n      revert\n        /* \"#utility.yul\":20570:20630   */\n    tag_512:\n        /* \"#utility.yul\":20520:20636   */\n      pop\n      jump\t// out\n        /* \"#utility.yul\":20642:20779   */\n    tag_287:\n        /* \"#utility.yul\":20696:20701   */\n      0x00\n        /* \"#utility.yul\":20727:20733   */\n      dup2\n        /* \"#utility.yul\":20721:20734   */\n      mload\n        /* \"#utility.yul\":20712:20734   */\n      swap1\n      pop\n        /* \"#utility.yul\":20743:20773   */\n      tag_514\n        /* \"#utility.yul\":20767:20772   */\n      dup2\n        /* \"#utility.yul\":20743:20773   */\n      tag_286\n      jump\t// in\n    tag_514:\n        /* \"#utility.yul\":20642:20779   */\n      swap3\n      swap2\n      pop\n      pop\n      jump\t// out\n        /* \"#utility.yul\":20785:21130   */\n    tag_197:\n        /* \"#utility.yul\":20852:20858   */\n      0x00\n        /* \"#utility.yul\":20901:20903   */\n      0x20\n        /* \"#utility.yul\":20889:20898   */\n      dup3\n        /* \"#utility.yul\":20880:20887   */\n      dup5\n        /* \"#utility.yul\":20876:20899   */\n      sub\n        /* \"#utility.yul\":20872:20904   */\n      slt\n        /* \"#utility.yul\":20869:20988   */\n      iszero\n      tag_516\n      jumpi\n        /* \"#utility.yul\":20907:20986   */\n      tag_517\n      tag_225\n      jump\t// in\n    tag_517:\n        /* \"#utility.yul\":20869:20988   */\n    tag_516:\n        /* \"#utility.yul\":21027:21028   */\n      0x00\n        /* \"#utility.yul\":21052:21113   */\n      tag_518\n        /* \"#utility.yul\":21105:21112   */\n      dup5\n        /* \"#utility.yul\":21096:21102   */\n      dup3\n        /* \"#utility.yul\":21085:21094   */\n      dup6\n        /* \"#utility.yul\":21081:21103   */\n      add\n        /* \"#utility.yul\":21052:21113   */\n      tag_287\n      jump\t// in\n    tag_518:\n        /* \"#utility.yul\":21042:21113   */\n      swap2\n      pop\n        /* \"#utility.yul\":20998:21123   */\n      pop\n        /* \"#utility.yul\":20785:21130   */\n      swap3\n      swap2\n      pop\n      pop\n      jump\t// out\n        /* \"#utility.yul\":21136:21234   */\n    tag_288:\n        /* \"#utility.yul\":21187:21193   */\n      0x00\n        /* \"#utility.yul\":21221:21226   */\n      dup2\n        /* \"#utility.yul\":21215:21227   */\n      mload\n        /* \"#utility.yul\":21205:21227   */\n      swap1\n      pop\n        /* \"#utility.yul\":21136:21234   */\n      swap2\n      swap1\n      pop\n      jump\t// out\n        /* \"#utility.yul\":21240:21387   */\n    tag_289:\n        /* \"#utility.yul\":21341:21352   */\n      0x00\n        /* \"#utility.yul\":21378:21381   */\n      dup2\n        /* \"#utility.yul\":21363:21381   */\n      swap1\n      pop\n        /* \"#utility.yul\":21240:21387   */\n      swap3\n      swap2\n      pop\n      pop\n      jump\t// out\n        /* \"#utility.yul\":21393:21779   */\n    tag_290:\n        /* \"#utility.yul\":21497:21500   */\n      0x00\n        /* \"#utility.yul\":21525:21563   */\n      tag_522\n        /* \"#utility.yul\":21557:21562   */\n      dup3\n        /* \"#utility.yul\":21525:21563   */\n      tag_288\n      jump\t// in\n    tag_522:\n        /* \"#utility.yul\":21579:21667   */\n      tag_523\n        /* \"#utility.yul\":21660:21666   */\n      dup2\n        /* \"#utility.yul\":21655:21658   */\n      dup6\n        /* \"#utility.yul\":21579:21667   */\n      tag_289\n      jump\t// in\n    tag_523:\n        /* \"#utility.yul\":21572:21667   */\n      swap4\n      pop\n        /* \"#utility.yul\":21676:21741   */\n      tag_524\n        /* \"#utility.yul\":21734:21740   */\n      dup2\n        /* \"#utility.yul\":21729:21732   */\n      dup6\n        /* \"#utility.yul\":21722:21726   */\n      0x20\n        /* \"#utility.yul\":21715:21720   */\n      dup7\n        /* \"#utility.yul\":21711:21727   */\n      add\n        /* \"#utility.yul\":21676:21741   */\n      tag_235\n      jump\t// in\n    tag_524:\n        /* \"#utility.yul\":21766:21772   */\n      dup1\n        /* \"#utility.yul\":21761:21764   */\n      dup5\n        /* \"#utility.yul\":21757:21773   */\n      add\n        /* \"#utility.yul\":21750:21773   */\n      swap2\n      pop\n        /* \"#utility.yul\":21501:21779   */\n      pop\n        /* \"#utility.yul\":21393:21779   */\n      swap3\n      swap2\n      pop\n      pop\n      jump\t// out\n        /* \"#utility.yul\":21785:22056   */\n    tag_207:\n        /* \"#utility.yul\":21915:21918   */\n      0x00\n        /* \"#utility.yul\":21937:22030   */\n      tag_526\n        /* \"#utility.yul\":22026:22029   */\n      dup3\n        /* \"#utility.yul\":22017:22023   */\n      dup5\n        /* \"#utility.yul\":21937:22030   */\n      tag_290\n      jump\t// in\n    tag_526:\n        /* \"#utility.yul\":21930:22030   */\n      swap2\n      pop\n        /* \"#utility.yul\":22047:22050   */\n      dup2\n        /* \"#utility.yul\":22040:22050   */\n      swap1\n      pop\n        /* \"#utility.yul\":21785:22056   */\n      swap3\n      swap2\n      pop\n      pop\n      jump\t// out\n\n    auxdata: 0xa26469706673582212200bc1b62467bf7ebdbbd3e8351294c8417b698887677a79a73e13210f62d1b3dc64736f6c63430008190033\n}\n",
				"bytecode": {
					"linkReferences": {},
					"object": "60806040526064600455600a600555348015610019575f80fd5b506040516120d53803806120d5833981810160405281019061003b91906103cf565b335f73ffffffffffffffffffffffffffffffffffffffff168173ffffffffffffffffffffffffffffffffffffffff16036100ac575f6040517f1e4fbdf70000000000000000000000000000000000000000000000000000000081526004016100a3919061041c565b60405180910390fd5b6100bb8161015960201b60201c565b50600180819055508160025f6101000a81548173ffffffffffffffffffffffffffffffffffffffff021916908373ffffffffffffffffffffffffffffffffffffffff1602179055508060035f6101000a81548173ffffffffffffffffffffffffffffffffffffffff021916908373ffffffffffffffffffffffffffffffffffffffff1602179055506101523361021a60201b60201c565b5050610435565b5f805f9054906101000a900473ffffffffffffffffffffffffffffffffffffffff169050815f806101000a81548173ffffffffffffffffffffffffffffffffffffffff021916908373ffffffffffffffffffffffffffffffffffffffff1602179055508173ffffffffffffffffffffffffffffffffffffffff168173ffffffffffffffffffffffffffffffffffffffff167f8be0079c531659141344cd1fd0a4f28419497f9722a3daafe3b4186f6b6457e060405160405180910390a35050565b6102286102aa60201b60201c565b5f73ffffffffffffffffffffffffffffffffffffffff168173ffffffffffffffffffffffffffffffffffffffff1603610298575f6040517f1e4fbdf700000000000000000000000000000000000000000000000000000000815260040161028f919061041c565b60405180910390fd5b6102a78161015960201b60201c565b50565b6102b861034360201b60201c565b73ffffffffffffffffffffffffffffffffffffffff166102dc61034a60201b60201c565b73ffffffffffffffffffffffffffffffffffffffff16146103415761030561034360201b60201c565b6040517f118cdaa7000000000000000000000000000000000000000000000000000000008152600401610338919061041c565b60405180910390fd5b565b5f33905090565b5f805f9054906101000a900473ffffffffffffffffffffffffffffffffffffffff16905090565b5f80fd5b5f73ffffffffffffffffffffffffffffffffffffffff82169050919050565b5f61039e82610375565b9050919050565b6103ae81610394565b81146103b8575f80fd5b50565b5f815190506103c9816103a5565b92915050565b5f80604083850312156103e5576103e4610371565b5b5f6103f2858286016103bb565b9250506020610403858286016103bb565b9150509250929050565b61041681610394565b82525050565b5f60208201905061042f5f83018461040d565b92915050565b611c93806104425f395ff3fe608060405234801561000f575f80fd5b50600436106100fe575f3560e01c806355a373d6116100955780639428cda3116100645780639428cda31461028d578063ad039fad146102bd578063aface8cd146102ed578063f2fde38b14610309576100fe565b806355a373d614610229578063715018a6146102475780637862f04c146102515780638da5cb5b1461026f576100fe565b80632024c1b7116100d15780632024c1b71461018e57806336913a40146101c057806338daefb6146101f1578063469c81101461020d576100fe565b80630d80fefd146101025780631293092e14610134578063147e910814610152578063185870f914610170575b5f80fd5b61011c6004803603810190610117919061112f565b610325565b60405161012b93929190611218565b60405180910390f35b61013c6103ff565b6040516101499190611254565b60405180910390f35b61015a610405565b6040516101679190611254565b60405180910390f35b610178610411565b604051610185919061126d565b60405180910390f35b6101a860048036038101906101a3919061112f565b610436565b6040516101b793929190611218565b60405180910390f35b6101da60048036038101906101d591906112b0565b610568565b6040516101e89291906112ee565b60405180910390f35b61020b6004803603810190610206919061112f565b61070b565b005b61022760048036038101906102229190611448565b610761565b005b610231610ad7565b60405161023e91906114ea565b60405180910390f35b61024f610afc565b005b610259610b06565b6040516102669190611254565b60405180910390f35b610277610b0c565b604051610284919061126d565b60405180910390f35b6102a760048036038101906102a291906112b0565b610b33565b6040516102b49190611254565b60405180910390f35b6102d760048036038101906102d29190611503565b610b5e565b6040516102e491906115e5565b60405180910390f35b6103076004803603810190610302919061112f565b610bf1565b005b610323600480360381019061031e9190611503565b610c03565b005b60068181548110610334575f80fd5b905f5260205f2090600302015f91509050805f015f9054906101000a900473ffffffffffffffffffffffffffffffffffffffff169080600101805461037890611632565b80601f01602080910402602001604051908101604052809291908181526020018280546103a490611632565b80156103ef5780601f106103c6576101008083540402835291602001916103ef565b820191905f5260205f20905b8154815290600101906020018083116103d257829003601f168201915b5050505050908060020154905083565b60045481565b5f600680549050905090565b60035f9054906101000a900473ffffffffffffffffffffffffffffffffffffffff1681565b5f60605f6006805490508410610481576040517f08c379a0000000000000000000000000000000000000000000000000000000008152600401610478906116ac565b60405180910390fd5b5f60068581548110610496576104956116ca565b5b905f5260205f2090600302019050805f015f9054906101000a900473ffffffffffffffffffffffffffffffffffffffff168160010182600201548180546104dc90611632565b80601f016020809104026020016040519081016040528092919081815260200182805461050890611632565b80156105535780601f1061052a57610100808354040283529160200191610553565b820191905f5260205f20905b81548152906001019060200180831161053657829003601f168201915b50505050509150935093509350509193909250565b60605f60075f8573ffffffffffffffffffffffffffffffffffffffff1673ffffffffffffffffffffffffffffffffffffffff1681526020019081526020015f208054905083106105ed576040517f08c379a00000000000000000000000000000000000000000000000000000000081526004016105e490611767565b60405180910390fd5b5f60075f8673ffffffffffffffffffffffffffffffffffffffff1673ffffffffffffffffffffffffffffffffffffffff1681526020019081526020015f20848154811061063d5761063c6116ca565b5b905f5260205f20015490505f6006828154811061065d5761065c6116ca565b5b905f5260205f209060030201905080600101816002015481805461068090611632565b80601f01602080910402602001604051908101604052809291908181526020018280546106ac90611632565b80156106f75780601f106106ce576101008083540402835291602001916106f7565b820191905f5260205f20905b8154815290600101906020018083116106da57829003601f168201915b505050505091509350935050509250929050565b610713610c87565b6064811115610757576040517f08c379a000000000000000000000000000000000000000000000000000000000815260040161074e906117cf565b60405180910390fd5b8060058190555050565b610769610d0e565b5f606460055460045461077c919061181a565b6107869190611888565b90505f8160045461079791906118b8565b90506108083360035f9054906101000a900473ffffffffffffffffffffffffffffffffffffffff168460025f9054906101000a900473ffffffffffffffffffffffffffffffffffffffff1673ffffffffffffffffffffffffffffffffffffffff16610d54909392919063ffffffff16565b61085633308360025f9054906101000a900473ffffffffffffffffffffffffffffffffffffffff1673ffffffffffffffffffffffffffffffffffffffff16610d54909392919063ffffffff16565b60025f9054906101000a900473ffffffffffffffffffffffffffffffffffffffff1673ffffffffffffffffffffffffffffffffffffffff166342966c68826040518263ffffffff1660e01b81526004016108b09190611254565b5f604051808303815f87803b1580156108c7575f80fd5b505af11580156108d9573d5f803e3d5ffd5b50505050600660405180606001604052803373ffffffffffffffffffffffffffffffffffffffff16815260200185815260200142815250908060018154018082558091505060019003905f5260205f2090600302015f909190919091505f820151815f015f6101000a81548173ffffffffffffffffffffffffffffffffffffffff021916908373ffffffffffffffffffffffffffffffffffffffff160217905550602082015181600101908161098f9190611a7f565b5060408201518160020155505060075f3373ffffffffffffffffffffffffffffffffffffffff1673ffffffffffffffffffffffffffffffffffffffff1681526020019081526020015f2060016006805490506109eb91906118b8565b908060018154018082558091505060019003905f5260205f20015f90919091909150557f69e27f80547602d16208b028c44d20f25956e1fb7d0f51d62aa02f392426f37182604051610a3d9190611254565b60405180910390a17f6ef4855b666dcc7884561072e4358b28dfe01feb1b7f4dcebc00e62d50394ac781604051610a749190611254565b60405180910390a13373ffffffffffffffffffffffffffffffffffffffff167f0d7fccda06d6eb51c23cbd16d49b9b3f3ebafb002dba1b074895cbb35d0e813084604051610ac29190611b4e565b60405180910390a25050610ad4610dd6565b50565b60025f9054906101000a900473ffffffffffffffffffffffffffffffffffffffff1681565b610b04610c87565b565b60055481565b5f805f9054906101000a900473ffffffffffffffffffffffffffffffffffffffff16905090565b6007602052815f5260405f208181548110610b4c575f80fd5b905f5260205f20015f91509150505481565b606060075f8373ffffffffffffffffffffffffffffffffffffffff1673ffffffffffffffffffffffffffffffffffffffff1681526020019081526020015f20805480602002602001604051908101604052809291908181526020018280548015610be557602002820191905f5260205f20905b815481526020019060010190808311610bd1575b50505050509050919050565b610bf9610c87565b8060048190555050565b610c0b610c87565b5f73ffffffffffffffffffffffffffffffffffffffff168173ffffffffffffffffffffffffffffffffffffffff1603610c7b575f6040517f1e4fbdf7000000000000000000000000000000000000000000000000000000008152600401610c72919061126d565b60405180910390fd5b610c8481610ddf565b50565b610c8f610ea0565b73ffffffffffffffffffffffffffffffffffffffff16610cad610b0c565b73ffffffffffffffffffffffffffffffffffffffff1614610d0c57610cd0610ea0565b6040517f118cdaa7000000000000000000000000000000000000000000000000000000008152600401610d03919061126d565b60405180910390fd5b565b600260015403610d4a576040517f3ee5aeb500000000000000000000000000000000000000000000000000000000815260040160405180910390fd5b6002600181905550565b610dd0848573ffffffffffffffffffffffffffffffffffffffff166323b872dd868686604051602401610d8993929190611b6e565b604051602081830303815290604052915060e01b6020820180517bffffffffffffffffffffffffffffffffffffffffffffffffffffffff8381831617835250505050610ea7565b50505050565b60018081905550565b5f805f9054906101000a900473ffffffffffffffffffffffffffffffffffffffff169050815f806101000a81548173ffffffffffffffffffffffffffffffffffffffff021916908373ffffffffffffffffffffffffffffffffffffffff1602179055508173ffffffffffffffffffffffffffffffffffffffff168173ffffffffffffffffffffffffffffffffffffffff167f8be0079c531659141344cd1fd0a4f28419497f9722a3daafe3b4186f6b6457e060405160405180910390a35050565b5f33905090565b5f610ed1828473ffffffffffffffffffffffffffffffffffffffff16610f3c90919063ffffffff16565b90505f815114158015610ef5575080806020019051810190610ef39190611bd8565b155b15610f3757826040517f5274afe7000000000000000000000000000000000000000000000000000000008152600401610f2e919061126d565b60405180910390fd5b505050565b6060610f4983835f610f51565b905092915050565b606081471015610f9857306040517fcd786059000000000000000000000000000000000000000000000000000000008152600401610f8f919061126d565b60405180910390fd5b5f808573ffffffffffffffffffffffffffffffffffffffff168486604051610fc09190611c47565b5f6040518083038185875af1925050503d805f8114610ffa576040519150601f19603f3d011682016040523d82523d5f602084013e610fff565b606091505b509150915061100f86838361101a565b925050509392505050565b60608261102f5761102a826110a7565b61109f565b5f825114801561105557505f8473ffffffffffffffffffffffffffffffffffffffff163b145b1561109757836040517f9996b31500000000000000000000000000000000000000000000000000000000815260040161108e919061126d565b60405180910390fd5b8190506110a0565b5b9392505050565b5f815111156110b95780518082602001fd5b6040517f1425ea4200000000000000000000000000000000000000000000000000000000815260040160405180910390fd5b5f604051905090565b5f80fd5b5f80fd5b5f819050919050565b61110e816110fc565b8114611118575f80fd5b50565b5f8135905061112981611105565b92915050565b5f60208284031215611144576111436110f4565b5b5f6111518482850161111b565b91505092915050565b5f73ffffffffffffffffffffffffffffffffffffffff82169050919050565b5f6111838261115a565b9050919050565b61119381611179565b82525050565b5f81519050919050565b5f82825260208201905092915050565b8281835e5f83830152505050565b5f601f19601f8301169050919050565b5f6111db82611199565b6111e581856111a3565b93506111f58185602086016111b3565b6111fe816111c1565b840191505092915050565b611212816110fc565b82525050565b5f60608201905061122b5f83018661118a565b818103602083015261123d81856111d1565b905061124c6040830184611209565b949350505050565b5f6020820190506112675f830184611209565b92915050565b5f6020820190506112805f83018461118a565b92915050565b61128f81611179565b8114611299575f80fd5b50565b5f813590506112aa81611286565b92915050565b5f80604083850312156112c6576112c56110f4565b5b5f6112d38582860161129c565b92505060206112e48582860161111b565b9150509250929050565b5f6040820190508181035f83015261130681856111d1565b90506113156020830184611209565b9392505050565b5f80fd5b5f80fd5b7f4e487b71000000000000000000000000000000000000000000000000000000005f52604160045260245ffd5b61135a826111c1565b810181811067ffffffffffffffff8211171561137957611378611324565b5b80604052505050565b5f61138b6110eb565b90506113978282611351565b919050565b5f67ffffffffffffffff8211156113b6576113b5611324565b5b6113bf826111c1565b9050602081019050919050565b828183375f83830152505050565b5f6113ec6113e78461139c565b611382565b90508281526020810184848401111561140857611407611320565b5b6114138482856113cc565b509392505050565b5f82601f83011261142f5761142e61131c565b5b813561143f8482602086016113da565b91505092915050565b5f6020828403121561145d5761145c6110f4565b5b5f82013567ffffffffffffffff81111561147a576114796110f8565b5b6114868482850161141b565b91505092915050565b5f819050919050565b5f6114b26114ad6114a88461115a565b61148f565b61115a565b9050919050565b5f6114c382611498565b9050919050565b5f6114d4826114b9565b9050919050565b6114e4816114ca565b82525050565b5f6020820190506114fd5f8301846114db565b92915050565b5f60208284031215611518576115176110f4565b5b5f6115258482850161129c565b91505092915050565b5f81519050919050565b5f82825260208201905092915050565b5f819050602082019050919050565b611560816110fc565b82525050565b5f6115718383611557565b60208301905092915050565b5f602082019050919050565b5f6115938261152e565b61159d8185611538565b93506115a883611548565b805f5b838110156115d85781516115bf8882611566565b97506115ca8361157d565b9250506001810190506115ab565b5085935050505092915050565b5f6020820190508181035f8301526115fd8184611589565b905092915050565b7f4e487b71000000000000000000000000000000000000000000000000000000005f52602260045260245ffd5b5f600282049050600182168061164957607f821691505b60208210810361165c5761165b611605565b5b50919050565b7f4d65737361676520696e646578206f7574206f6620626f756e647300000000005f82015250565b5f611696601b836111a3565b91506116a182611662565b602082019050919050565b5f6020820190508181035f8301526116c38161168a565b9050919050565b7f4e487b71000000000000000000000000000000000000000000000000000000005f52603260045260245ffd5b7f4d65737361676520696e646578206f7574206f6620626f756e647320666f72205f8201527f7573657200000000000000000000000000000000000000000000000000000000602082015250565b5f6117516024836111a3565b915061175c826116f7565b604082019050919050565b5f6020820190508181035f83015261177e81611745565b9050919050565b7f496e76616c6964206665652070657263656e74616765000000000000000000005f82015250565b5f6117b96016836111a3565b91506117c482611785565b602082019050919050565b5f6020820190508181035f8301526117e6816117ad565b9050919050565b7f4e487b71000000000000000000000000000000000000000000000000000000005f52601160045260245ffd5b5f611824826110fc565b915061182f836110fc565b925082820261183d816110fc565b91508282048414831517611854576118536117ed565b5b5092915050565b7f4e487b71000000000000000000000000000000000000000000000000000000005f52601260045260245ffd5b5f611892826110fc565b915061189d836110fc565b9250826118ad576118ac61185b565b5b828204905092915050565b5f6118c2826110fc565b91506118cd836110fc565b92508282039050818111156118e5576118e46117ed565b5b92915050565b5f819050815f5260205f209050919050565b5f6020601f8301049050919050565b5f82821b905092915050565b5f600883026119477fffffffffffffffffffffffffffffffffffffffffffffffffffffffffffffffff8261190c565b611951868361190c565b95508019841693508086168417925050509392505050565b5f61198361197e611979846110fc565b61148f565b6110fc565b9050919050565b5f819050919050565b61199c83611969565b6119b06119a88261198a565b848454611918565b825550505050565b5f90565b6119c46119b8565b6119cf818484611993565b505050565b5b818110156119f2576119e75f826119bc565b6001810190506119d5565b5050565b601f821115611a3757611a08816118eb565b611a11846118fd565b81016020851015611a20578190505b611a34611a2c856118fd565b8301826119d4565b50505b505050565b5f82821c905092915050565b5f611a575f1984600802611a3c565b1980831691505092915050565b5f611a6f8383611a48565b9150826002028217905092915050565b611a8882611199565b67ffffffffffffffff811115611aa157611aa0611324565b5b611aab8254611632565b611ab68282856119f6565b5f60209050601f831160018114611ae7575f8415611ad5578287015190505b611adf8582611a64565b865550611b46565b601f198416611af5866118eb565b5f5b82811015611b1c57848901518255600182019150602085019450602081019050611af7565b86831015611b395784890151611b35601f891682611a48565b8355505b6001600288020188555050505b505050505050565b5f6020820190508181035f830152611b6681846111d1565b905092915050565b5f606082019050611b815f83018661118a565b611b8e602083018561118a565b611b9b6040830184611209565b949350505050565b5f8115159050919050565b611bb781611ba3565b8114611bc1575f80fd5b50565b5f81519050611bd281611bae565b92915050565b5f60208284031215611bed57611bec6110f4565b5b5f611bfa84828501611bc4565b91505092915050565b5f81519050919050565b5f81905092915050565b5f611c2182611c03565b611c2b8185611c0d565b9350611c3b8185602086016111b3565b80840191505092915050565b5f611c528284611c17565b91508190509291505056fea26469706673582212200bc1b62467bf7ebdbbd3e8351294c8417b698887677a79a73e13210f62d1b3dc64736f6c63430008190033",
					"opcodes": "PUSH1 0x80 PUSH1 0x40 MSTORE PUSH1 0x64 PUSH1 0x4 SSTORE PUSH1 0xA PUSH1 0x5 SSTORE CALLVALUE DUP1 ISZERO PUSH2 0x19 JUMPI PUSH0 DUP1 REVERT JUMPDEST POP PUSH1 0x40 MLOAD PUSH2 0x20D5 CODESIZE SUB DUP1 PUSH2 0x20D5 DUP4 CODECOPY DUP2 DUP2 ADD PUSH1 0x40 MSTORE DUP2 ADD SWAP1 PUSH2 0x3B SWAP2 SWAP1 PUSH2 0x3CF JUMP JUMPDEST CALLER PUSH0 PUSH20 0xFFFFFFFFFFFFFFFFFFFFFFFFFFFFFFFFFFFFFFFF AND DUP2 PUSH20 0xFFFFFFFFFFFFFFFFFFFFFFFFFFFFFFFFFFFFFFFF AND SUB PUSH2 0xAC JUMPI PUSH0 PUSH1 0x40 MLOAD PUSH32 0x1E4FBDF700000000000000000000000000000000000000000000000000000000 DUP2 MSTORE PUSH1 0x4 ADD PUSH2 0xA3 SWAP2 SWAP1 PUSH2 0x41C JUMP JUMPDEST PUSH1 0x40 MLOAD DUP1 SWAP2 SUB SWAP1 REVERT JUMPDEST PUSH2 0xBB DUP2 PUSH2 0x159 PUSH1 0x20 SHL PUSH1 0x20 SHR JUMP JUMPDEST POP PUSH1 0x1 DUP1 DUP2 SWAP1 SSTORE POP DUP2 PUSH1 0x2 PUSH0 PUSH2 0x100 EXP DUP2 SLOAD DUP2 PUSH20 0xFFFFFFFFFFFFFFFFFFFFFFFFFFFFFFFFFFFFFFFF MUL NOT AND SWAP1 DUP4 PUSH20 0xFFFFFFFFFFFFFFFFFFFFFFFFFFFFFFFFFFFFFFFF AND MUL OR SWAP1 SSTORE POP DUP1 PUSH1 0x3 PUSH0 PUSH2 0x100 EXP DUP2 SLOAD DUP2 PUSH20 0xFFFFFFFFFFFFFFFFFFFFFFFFFFFFFFFFFFFFFFFF MUL NOT AND SWAP1 DUP4 PUSH20 0xFFFFFFFFFFFFFFFFFFFFFFFFFFFFFFFFFFFFFFFF AND MUL OR SWAP1 SSTORE POP PUSH2 0x152 CALLER PUSH2 0x21A PUSH1 0x20 SHL PUSH1 0x20 SHR JUMP JUMPDEST POP POP PUSH2 0x435 JUMP JUMPDEST PUSH0 DUP1 PUSH0 SWAP1 SLOAD SWAP1 PUSH2 0x100 EXP SWAP1 DIV PUSH20 0xFFFFFFFFFFFFFFFFFFFFFFFFFFFFFFFFFFFFFFFF AND SWAP1 POP DUP2 PUSH0 DUP1 PUSH2 0x100 EXP DUP2 SLOAD DUP2 PUSH20 0xFFFFFFFFFFFFFFFFFFFFFFFFFFFFFFFFFFFFFFFF MUL NOT AND SWAP1 DUP4 PUSH20 0xFFFFFFFFFFFFFFFFFFFFFFFFFFFFFFFFFFFFFFFF AND MUL OR SWAP1 SSTORE POP DUP2 PUSH20 0xFFFFFFFFFFFFFFFFFFFFFFFFFFFFFFFFFFFFFFFF AND DUP2 PUSH20 0xFFFFFFFFFFFFFFFFFFFFFFFFFFFFFFFFFFFFFFFF AND PUSH32 0x8BE0079C531659141344CD1FD0A4F28419497F9722A3DAAFE3B4186F6B6457E0 PUSH1 0x40 MLOAD PUSH1 0x40 MLOAD DUP1 SWAP2 SUB SWAP1 LOG3 POP POP JUMP JUMPDEST PUSH2 0x228 PUSH2 0x2AA PUSH1 0x20 SHL PUSH1 0x20 SHR JUMP JUMPDEST PUSH0 PUSH20 0xFFFFFFFFFFFFFFFFFFFFFFFFFFFFFFFFFFFFFFFF AND DUP2 PUSH20 0xFFFFFFFFFFFFFFFFFFFFFFFFFFFFFFFFFFFFFFFF AND SUB PUSH2 0x298 JUMPI PUSH0 PUSH1 0x40 MLOAD PUSH32 0x1E4FBDF700000000000000000000000000000000000000000000000000000000 DUP2 MSTORE PUSH1 0x4 ADD PUSH2 0x28F SWAP2 SWAP1 PUSH2 0x41C JUMP JUMPDEST PUSH1 0x40 MLOAD DUP1 SWAP2 SUB SWAP1 REVERT JUMPDEST PUSH2 0x2A7 DUP2 PUSH2 0x159 PUSH1 0x20 SHL PUSH1 0x20 SHR JUMP JUMPDEST POP JUMP JUMPDEST PUSH2 0x2B8 PUSH2 0x343 PUSH1 0x20 SHL PUSH1 0x20 SHR JUMP JUMPDEST PUSH20 0xFFFFFFFFFFFFFFFFFFFFFFFFFFFFFFFFFFFFFFFF AND PUSH2 0x2DC PUSH2 0x34A PUSH1 0x20 SHL PUSH1 0x20 SHR JUMP JUMPDEST PUSH20 0xFFFFFFFFFFFFFFFFFFFFFFFFFFFFFFFFFFFFFFFF AND EQ PUSH2 0x341 JUMPI PUSH2 0x305 PUSH2 0x343 PUSH1 0x20 SHL PUSH1 0x20 SHR JUMP JUMPDEST PUSH1 0x40 MLOAD PUSH32 0x118CDAA700000000000000000000000000000000000000000000000000000000 DUP2 MSTORE PUSH1 0x4 ADD PUSH2 0x338 SWAP2 SWAP1 PUSH2 0x41C JUMP JUMPDEST PUSH1 0x40 MLOAD DUP1 SWAP2 SUB SWAP1 REVERT JUMPDEST JUMP JUMPDEST PUSH0 CALLER SWAP1 POP SWAP1 JUMP JUMPDEST PUSH0 DUP1 PUSH0 SWAP1 SLOAD SWAP1 PUSH2 0x100 EXP SWAP1 DIV PUSH20 0xFFFFFFFFFFFFFFFFFFFFFFFFFFFFFFFFFFFFFFFF AND SWAP1 POP SWAP1 JUMP JUMPDEST PUSH0 DUP1 REVERT JUMPDEST PUSH0 PUSH20 0xFFFFFFFFFFFFFFFFFFFFFFFFFFFFFFFFFFFFFFFF DUP3 AND SWAP1 POP SWAP2 SWAP1 POP JUMP JUMPDEST PUSH0 PUSH2 0x39E DUP3 PUSH2 0x375 JUMP JUMPDEST SWAP1 POP SWAP2 SWAP1 POP JUMP JUMPDEST PUSH2 0x3AE DUP2 PUSH2 0x394 JUMP JUMPDEST DUP2 EQ PUSH2 0x3B8 JUMPI PUSH0 DUP1 REVERT JUMPDEST POP JUMP JUMPDEST PUSH0 DUP2 MLOAD SWAP1 POP PUSH2 0x3C9 DUP2 PUSH2 0x3A5 JUMP JUMPDEST SWAP3 SWAP2 POP POP JUMP JUMPDEST PUSH0 DUP1 PUSH1 0x40 DUP4 DUP6 SUB SLT ISZERO PUSH2 0x3E5 JUMPI PUSH2 0x3E4 PUSH2 0x371 JUMP JUMPDEST JUMPDEST PUSH0 PUSH2 0x3F2 DUP6 DUP3 DUP7 ADD PUSH2 0x3BB JUMP JUMPDEST SWAP3 POP POP PUSH1 0x20 PUSH2 0x403 DUP6 DUP3 DUP7 ADD PUSH2 0x3BB JUMP JUMPDEST SWAP2 POP POP SWAP3 POP SWAP3 SWAP1 POP JUMP JUMPDEST PUSH2 0x416 DUP2 PUSH2 0x394 JUMP JUMPDEST DUP3 MSTORE POP POP JUMP JUMPDEST PUSH0 PUSH1 0x20 DUP3 ADD SWAP1 POP PUSH2 0x42F PUSH0 DUP4 ADD DUP5 PUSH2 0x40D JUMP JUMPDEST SWAP3 SWAP2 POP POP JUMP JUMPDEST PUSH2 0x1C93 DUP1 PUSH2 0x442 PUSH0 CODECOPY PUSH0 RETURN INVALID PUSH1 0x80 PUSH1 0x40 MSTORE CALLVALUE DUP1 ISZERO PUSH2 0xF JUMPI PUSH0 DUP1 REVERT JUMPDEST POP PUSH1 0x4 CALLDATASIZE LT PUSH2 0xFE JUMPI PUSH0 CALLDATALOAD PUSH1 0xE0 SHR DUP1 PUSH4 0x55A373D6 GT PUSH2 0x95 JUMPI DUP1 PUSH4 0x9428CDA3 GT PUSH2 0x64 JUMPI DUP1 PUSH4 0x9428CDA3 EQ PUSH2 0x28D JUMPI DUP1 PUSH4 0xAD039FAD EQ PUSH2 0x2BD JUMPI DUP1 PUSH4 0xAFACE8CD EQ PUSH2 0x2ED JUMPI DUP1 PUSH4 0xF2FDE38B EQ PUSH2 0x309 JUMPI PUSH2 0xFE JUMP JUMPDEST DUP1 PUSH4 0x55A373D6 EQ PUSH2 0x229 JUMPI DUP1 PUSH4 0x715018A6 EQ PUSH2 0x247 JUMPI DUP1 PUSH4 0x7862F04C EQ PUSH2 0x251 JUMPI DUP1 PUSH4 0x8DA5CB5B EQ PUSH2 0x26F JUMPI PUSH2 0xFE JUMP JUMPDEST DUP1 PUSH4 0x2024C1B7 GT PUSH2 0xD1 JUMPI DUP1 PUSH4 0x2024C1B7 EQ PUSH2 0x18E JUMPI DUP1 PUSH4 0x36913A40 EQ PUSH2 0x1C0 JUMPI DUP1 PUSH4 0x38DAEFB6 EQ PUSH2 0x1F1 JUMPI DUP1 PUSH4 0x469C8110 EQ PUSH2 0x20D JUMPI PUSH2 0xFE JUMP JUMPDEST DUP1 PUSH4 0xD80FEFD EQ PUSH2 0x102 JUMPI DUP1 PUSH4 0x1293092E EQ PUSH2 0x134 JUMPI DUP1 PUSH4 0x147E9108 EQ PUSH2 0x152 JUMPI DUP1 PUSH4 0x185870F9 EQ PUSH2 0x170 JUMPI JUMPDEST PUSH0 DUP1 REVERT JUMPDEST PUSH2 0x11C PUSH1 0x4 DUP1 CALLDATASIZE SUB DUP2 ADD SWAP1 PUSH2 0x117 SWAP2 SWAP1 PUSH2 0x112F JUMP JUMPDEST PUSH2 0x325 JUMP JUMPDEST PUSH1 0x40 MLOAD PUSH2 0x12B SWAP4 SWAP3 SWAP2 SWAP1 PUSH2 0x1218 JUMP JUMPDEST PUSH1 0x40 MLOAD DUP1 SWAP2 SUB SWAP1 RETURN JUMPDEST PUSH2 0x13C PUSH2 0x3FF JUMP JUMPDEST PUSH1 0x40 MLOAD PUSH2 0x149 SWAP2 SWAP1 PUSH2 0x1254 JUMP JUMPDEST PUSH1 0x40 MLOAD DUP1 SWAP2 SUB SWAP1 RETURN JUMPDEST PUSH2 0x15A PUSH2 0x405 JUMP JUMPDEST PUSH1 0x40 MLOAD PUSH2 0x167 SWAP2 SWAP1 PUSH2 0x1254 JUMP JUMPDEST PUSH1 0x40 MLOAD DUP1 SWAP2 SUB SWAP1 RETURN JUMPDEST PUSH2 0x178 PUSH2 0x411 JUMP JUMPDEST PUSH1 0x40 MLOAD PUSH2 0x185 SWAP2 SWAP1 PUSH2 0x126D JUMP JUMPDEST PUSH1 0x40 MLOAD DUP1 SWAP2 SUB SWAP1 RETURN JUMPDEST PUSH2 0x1A8 PUSH1 0x4 DUP1 CALLDATASIZE SUB DUP2 ADD SWAP1 PUSH2 0x1A3 SWAP2 SWAP1 PUSH2 0x112F JUMP JUMPDEST PUSH2 0x436 JUMP JUMPDEST PUSH1 0x40 MLOAD PUSH2 0x1B7 SWAP4 SWAP3 SWAP2 SWAP1 PUSH2 0x1218 JUMP JUMPDEST PUSH1 0x40 MLOAD DUP1 SWAP2 SUB SWAP1 RETURN JUMPDEST PUSH2 0x1DA PUSH1 0x4 DUP1 CALLDATASIZE SUB DUP2 ADD SWAP1 PUSH2 0x1D5 SWAP2 SWAP1 PUSH2 0x12B0 JUMP JUMPDEST PUSH2 0x568 JUMP JUMPDEST PUSH1 0x40 MLOAD PUSH2 0x1E8 SWAP3 SWAP2 SWAP1 PUSH2 0x12EE JUMP JUMPDEST PUSH1 0x40 MLOAD DUP1 SWAP2 SUB SWAP1 RETURN JUMPDEST PUSH2 0x20B PUSH1 0x4 DUP1 CALLDATASIZE SUB DUP2 ADD SWAP1 PUSH2 0x206 SWAP2 SWAP1 PUSH2 0x112F JUMP JUMPDEST PUSH2 0x70B JUMP JUMPDEST STOP JUMPDEST PUSH2 0x227 PUSH1 0x4 DUP1 CALLDATASIZE SUB DUP2 ADD SWAP1 PUSH2 0x222 SWAP2 SWAP1 PUSH2 0x1448 JUMP JUMPDEST PUSH2 0x761 JUMP JUMPDEST STOP JUMPDEST PUSH2 0x231 PUSH2 0xAD7 JUMP JUMPDEST PUSH1 0x40 MLOAD PUSH2 0x23E SWAP2 SWAP1 PUSH2 0x14EA JUMP JUMPDEST PUSH1 0x40 MLOAD DUP1 SWAP2 SUB SWAP1 RETURN JUMPDEST PUSH2 0x24F PUSH2 0xAFC JUMP JUMPDEST STOP JUMPDEST PUSH2 0x259 PUSH2 0xB06 JUMP JUMPDEST PUSH1 0x40 MLOAD PUSH2 0x266 SWAP2 SWAP1 PUSH2 0x1254 JUMP JUMPDEST PUSH1 0x40 MLOAD DUP1 SWAP2 SUB SWAP1 RETURN JUMPDEST PUSH2 0x277 PUSH2 0xB0C JUMP JUMPDEST PUSH1 0x40 MLOAD PUSH2 0x284 SWAP2 SWAP1 PUSH2 0x126D JUMP JUMPDEST PUSH1 0x40 MLOAD DUP1 SWAP2 SUB SWAP1 RETURN JUMPDEST PUSH2 0x2A7 PUSH1 0x4 DUP1 CALLDATASIZE SUB DUP2 ADD SWAP1 PUSH2 0x2A2 SWAP2 SWAP1 PUSH2 0x12B0 JUMP JUMPDEST PUSH2 0xB33 JUMP JUMPDEST PUSH1 0x40 MLOAD PUSH2 0x2B4 SWAP2 SWAP1 PUSH2 0x1254 JUMP JUMPDEST PUSH1 0x40 MLOAD DUP1 SWAP2 SUB SWAP1 RETURN JUMPDEST PUSH2 0x2D7 PUSH1 0x4 DUP1 CALLDATASIZE SUB DUP2 ADD SWAP1 PUSH2 0x2D2 SWAP2 SWAP1 PUSH2 0x1503 JUMP JUMPDEST PUSH2 0xB5E JUMP JUMPDEST PUSH1 0x40 MLOAD PUSH2 0x2E4 SWAP2 SWAP1 PUSH2 0x15E5 JUMP JUMPDEST PUSH1 0x40 MLOAD DUP1 SWAP2 SUB SWAP1 RETURN JUMPDEST PUSH2 0x307 PUSH1 0x4 DUP1 CALLDATASIZE SUB DUP2 ADD SWAP1 PUSH2 0x302 SWAP2 SWAP1 PUSH2 0x112F JUMP JUMPDEST PUSH2 0xBF1 JUMP JUMPDEST STOP JUMPDEST PUSH2 0x323 PUSH1 0x4 DUP1 CALLDATASIZE SUB DUP2 ADD SWAP1 PUSH2 0x31E SWAP2 SWAP1 PUSH2 0x1503 JUMP JUMPDEST PUSH2 0xC03 JUMP JUMPDEST STOP JUMPDEST PUSH1 0x6 DUP2 DUP2 SLOAD DUP2 LT PUSH2 0x334 JUMPI PUSH0 DUP1 REVERT JUMPDEST SWAP1 PUSH0 MSTORE PUSH1 0x20 PUSH0 KECCAK256 SWAP1 PUSH1 0x3 MUL ADD PUSH0 SWAP2 POP SWAP1 POP DUP1 PUSH0 ADD PUSH0 SWAP1 SLOAD SWAP1 PUSH2 0x100 EXP SWAP1 DIV PUSH20 0xFFFFFFFFFFFFFFFFFFFFFFFFFFFFFFFFFFFFFFFF AND SWAP1 DUP1 PUSH1 0x1 ADD DUP1 SLOAD PUSH2 0x378 SWAP1 PUSH2 0x1632 JUMP JUMPDEST DUP1 PUSH1 0x1F ADD PUSH1 0x20 DUP1 SWAP2 DIV MUL PUSH1 0x20 ADD PUSH1 0x40 MLOAD SWAP1 DUP2 ADD PUSH1 0x40 MSTORE DUP1 SWAP3 SWAP2 SWAP1 DUP2 DUP2 MSTORE PUSH1 0x20 ADD DUP3 DUP1 SLOAD PUSH2 0x3A4 SWAP1 PUSH2 0x1632 JUMP JUMPDEST DUP1 ISZERO PUSH2 0x3EF JUMPI DUP1 PUSH1 0x1F LT PUSH2 0x3C6 JUMPI PUSH2 0x100 DUP1 DUP4 SLOAD DIV MUL DUP4 MSTORE SWAP2 PUSH1 0x20 ADD SWAP2 PUSH2 0x3EF JUMP JUMPDEST DUP3 ADD SWAP2 SWAP1 PUSH0 MSTORE PUSH1 0x20 PUSH0 KECCAK256 SWAP1 JUMPDEST DUP2 SLOAD DUP2 MSTORE SWAP1 PUSH1 0x1 ADD SWAP1 PUSH1 0x20 ADD DUP1 DUP4 GT PUSH2 0x3D2 JUMPI DUP3 SWAP1 SUB PUSH1 0x1F AND DUP3 ADD SWAP2 JUMPDEST POP POP POP POP POP SWAP1 DUP1 PUSH1 0x2 ADD SLOAD SWAP1 POP DUP4 JUMP JUMPDEST PUSH1 0x4 SLOAD DUP2 JUMP JUMPDEST PUSH0 PUSH1 0x6 DUP1 SLOAD SWAP1 POP SWAP1 POP SWAP1 JUMP JUMPDEST PUSH1 0x3 PUSH0 SWAP1 SLOAD SWAP1 PUSH2 0x100 EXP SWAP1 DIV PUSH20 0xFFFFFFFFFFFFFFFFFFFFFFFFFFFFFFFFFFFFFFFF AND DUP2 JUMP JUMPDEST PUSH0 PUSH1 0x60 PUSH0 PUSH1 0x6 DUP1 SLOAD SWAP1 POP DUP5 LT PUSH2 0x481 JUMPI PUSH1 0x40 MLOAD PUSH32 0x8C379A000000000000000000000000000000000000000000000000000000000 DUP2 MSTORE PUSH1 0x4 ADD PUSH2 0x478 SWAP1 PUSH2 0x16AC JUMP JUMPDEST PUSH1 0x40 MLOAD DUP1 SWAP2 SUB SWAP1 REVERT JUMPDEST PUSH0 PUSH1 0x6 DUP6 DUP2 SLOAD DUP2 LT PUSH2 0x496 JUMPI PUSH2 0x495 PUSH2 0x16CA JUMP JUMPDEST JUMPDEST SWAP1 PUSH0 MSTORE PUSH1 0x20 PUSH0 KECCAK256 SWAP1 PUSH1 0x3 MUL ADD SWAP1 POP DUP1 PUSH0 ADD PUSH0 SWAP1 SLOAD SWAP1 PUSH2 0x100 EXP SWAP1 DIV PUSH20 0xFFFFFFFFFFFFFFFFFFFFFFFFFFFFFFFFFFFFFFFF AND DUP2 PUSH1 0x1 ADD DUP3 PUSH1 0x2 ADD SLOAD DUP2 DUP1 SLOAD PUSH2 0x4DC SWAP1 PUSH2 0x1632 JUMP JUMPDEST DUP1 PUSH1 0x1F ADD PUSH1 0x20 DUP1 SWAP2 DIV MUL PUSH1 0x20 ADD PUSH1 0x40 MLOAD SWAP1 DUP2 ADD PUSH1 0x40 MSTORE DUP1 SWAP3 SWAP2 SWAP1 DUP2 DUP2 MSTORE PUSH1 0x20 ADD DUP3 DUP1 SLOAD PUSH2 0x508 SWAP1 PUSH2 0x1632 JUMP JUMPDEST DUP1 ISZERO PUSH2 0x553 JUMPI DUP1 PUSH1 0x1F LT PUSH2 0x52A JUMPI PUSH2 0x100 DUP1 DUP4 SLOAD DIV MUL DUP4 MSTORE SWAP2 PUSH1 0x20 ADD SWAP2 PUSH2 0x553 JUMP JUMPDEST DUP3 ADD SWAP2 SWAP1 PUSH0 MSTORE PUSH1 0x20 PUSH0 KECCAK256 SWAP1 JUMPDEST DUP2 SLOAD DUP2 MSTORE SWAP1 PUSH1 0x1 ADD SWAP1 PUSH1 0x20 ADD DUP1 DUP4 GT PUSH2 0x536 JUMPI DUP3 SWAP1 SUB PUSH1 0x1F AND DUP3 ADD SWAP2 JUMPDEST POP POP POP POP POP SWAP2 POP SWAP4 POP SWAP4 POP SWAP4 POP POP SWAP2 SWAP4 SWAP1 SWAP3 POP JUMP JUMPDEST PUSH1 0x60 PUSH0 PUSH1 0x7 PUSH0 DUP6 PUSH20 0xFFFFFFFFFFFFFFFFFFFFFFFFFFFFFFFFFFFFFFFF AND PUSH20 0xFFFFFFFFFFFFFFFFFFFFFFFFFFFFFFFFFFFFFFFF AND DUP2 MSTORE PUSH1 0x20 ADD SWAP1 DUP2 MSTORE PUSH1 0x20 ADD PUSH0 KECCAK256 DUP1 SLOAD SWAP1 POP DUP4 LT PUSH2 0x5ED JUMPI PUSH1 0x40 MLOAD PUSH32 0x8C379A000000000000000000000000000000000000000000000000000000000 DUP2 MSTORE PUSH1 0x4 ADD PUSH2 0x5E4 SWAP1 PUSH2 0x1767 JUMP JUMPDEST PUSH1 0x40 MLOAD DUP1 SWAP2 SUB SWAP1 REVERT JUMPDEST PUSH0 PUSH1 0x7 PUSH0 DUP7 PUSH20 0xFFFFFFFFFFFFFFFFFFFFFFFFFFFFFFFFFFFFFFFF AND PUSH20 0xFFFFFFFFFFFFFFFFFFFFFFFFFFFFFFFFFFFFFFFF AND DUP2 MSTORE PUSH1 0x20 ADD SWAP1 DUP2 MSTORE PUSH1 0x20 ADD PUSH0 KECCAK256 DUP5 DUP2 SLOAD DUP2 LT PUSH2 0x63D JUMPI PUSH2 0x63C PUSH2 0x16CA JUMP JUMPDEST JUMPDEST SWAP1 PUSH0 MSTORE PUSH1 0x20 PUSH0 KECCAK256 ADD SLOAD SWAP1 POP PUSH0 PUSH1 0x6 DUP3 DUP2 SLOAD DUP2 LT PUSH2 0x65D JUMPI PUSH2 0x65C PUSH2 0x16CA JUMP JUMPDEST JUMPDEST SWAP1 PUSH0 MSTORE PUSH1 0x20 PUSH0 KECCAK256 SWAP1 PUSH1 0x3 MUL ADD SWAP1 POP DUP1 PUSH1 0x1 ADD DUP2 PUSH1 0x2 ADD SLOAD DUP2 DUP1 SLOAD PUSH2 0x680 SWAP1 PUSH2 0x1632 JUMP JUMPDEST DUP1 PUSH1 0x1F ADD PUSH1 0x20 DUP1 SWAP2 DIV MUL PUSH1 0x20 ADD PUSH1 0x40 MLOAD SWAP1 DUP2 ADD PUSH1 0x40 MSTORE DUP1 SWAP3 SWAP2 SWAP1 DUP2 DUP2 MSTORE PUSH1 0x20 ADD DUP3 DUP1 SLOAD PUSH2 0x6AC SWAP1 PUSH2 0x1632 JUMP JUMPDEST DUP1 ISZERO PUSH2 0x6F7 JUMPI DUP1 PUSH1 0x1F LT PUSH2 0x6CE JUMPI PUSH2 0x100 DUP1 DUP4 SLOAD DIV MUL DUP4 MSTORE SWAP2 PUSH1 0x20 ADD SWAP2 PUSH2 0x6F7 JUMP JUMPDEST DUP3 ADD SWAP2 SWAP1 PUSH0 MSTORE PUSH1 0x20 PUSH0 KECCAK256 SWAP1 JUMPDEST DUP2 SLOAD DUP2 MSTORE SWAP1 PUSH1 0x1 ADD SWAP1 PUSH1 0x20 ADD DUP1 DUP4 GT PUSH2 0x6DA JUMPI DUP3 SWAP1 SUB PUSH1 0x1F AND DUP3 ADD SWAP2 JUMPDEST POP POP POP POP POP SWAP2 POP SWAP4 POP SWAP4 POP POP POP SWAP3 POP SWAP3 SWAP1 POP JUMP JUMPDEST PUSH2 0x713 PUSH2 0xC87 JUMP JUMPDEST PUSH1 0x64 DUP2 GT ISZERO PUSH2 0x757 JUMPI PUSH1 0x40 MLOAD PUSH32 0x8C379A000000000000000000000000000000000000000000000000000000000 DUP2 MSTORE PUSH1 0x4 ADD PUSH2 0x74E SWAP1 PUSH2 0x17CF JUMP JUMPDEST PUSH1 0x40 MLOAD DUP1 SWAP2 SUB SWAP1 REVERT JUMPDEST DUP1 PUSH1 0x5 DUP2 SWAP1 SSTORE POP POP JUMP JUMPDEST PUSH2 0x769 PUSH2 0xD0E JUMP JUMPDEST PUSH0 PUSH1 0x64 PUSH1 0x5 SLOAD PUSH1 0x4 SLOAD PUSH2 0x77C SWAP2 SWAP1 PUSH2 0x181A JUMP JUMPDEST PUSH2 0x786 SWAP2 SWAP1 PUSH2 0x1888 JUMP JUMPDEST SWAP1 POP PUSH0 DUP2 PUSH1 0x4 SLOAD PUSH2 0x797 SWAP2 SWAP1 PUSH2 0x18B8 JUMP JUMPDEST SWAP1 POP PUSH2 0x808 CALLER PUSH1 0x3 PUSH0 SWAP1 SLOAD SWAP1 PUSH2 0x100 EXP SWAP1 DIV PUSH20 0xFFFFFFFFFFFFFFFFFFFFFFFFFFFFFFFFFFFFFFFF AND DUP5 PUSH1 0x2 PUSH0 SWAP1 SLOAD SWAP1 PUSH2 0x100 EXP SWAP1 DIV PUSH20 0xFFFFFFFFFFFFFFFFFFFFFFFFFFFFFFFFFFFFFFFF AND PUSH20 0xFFFFFFFFFFFFFFFFFFFFFFFFFFFFFFFFFFFFFFFF AND PUSH2 0xD54 SWAP1 SWAP4 SWAP3 SWAP2 SWAP1 PUSH4 0xFFFFFFFF AND JUMP JUMPDEST PUSH2 0x856 CALLER ADDRESS DUP4 PUSH1 0x2 PUSH0 SWAP1 SLOAD SWAP1 PUSH2 0x100 EXP SWAP1 DIV PUSH20 0xFFFFFFFFFFFFFFFFFFFFFFFFFFFFFFFFFFFFFFFF AND PUSH20 0xFFFFFFFFFFFFFFFFFFFFFFFFFFFFFFFFFFFFFFFF AND PUSH2 0xD54 SWAP1 SWAP4 SWAP3 SWAP2 SWAP1 PUSH4 0xFFFFFFFF AND JUMP JUMPDEST PUSH1 0x2 PUSH0 SWAP1 SLOAD SWAP1 PUSH2 0x100 EXP SWAP1 DIV PUSH20 0xFFFFFFFFFFFFFFFFFFFFFFFFFFFFFFFFFFFFFFFF AND PUSH20 0xFFFFFFFFFFFFFFFFFFFFFFFFFFFFFFFFFFFFFFFF AND PUSH4 0x42966C68 DUP3 PUSH1 0x40 MLOAD DUP3 PUSH4 0xFFFFFFFF AND PUSH1 0xE0 SHL DUP2 MSTORE PUSH1 0x4 ADD PUSH2 0x8B0 SWAP2 SWAP1 PUSH2 0x1254 JUMP JUMPDEST PUSH0 PUSH1 0x40 MLOAD DUP1 DUP4 SUB DUP2 PUSH0 DUP8 DUP1 EXTCODESIZE ISZERO DUP1 ISZERO PUSH2 0x8C7 JUMPI PUSH0 DUP1 REVERT JUMPDEST POP GAS CALL ISZERO DUP1 ISZERO PUSH2 0x8D9 JUMPI RETURNDATASIZE PUSH0 DUP1 RETURNDATACOPY RETURNDATASIZE PUSH0 REVERT JUMPDEST POP POP POP POP PUSH1 0x6 PUSH1 0x40 MLOAD DUP1 PUSH1 0x60 ADD PUSH1 0x40 MSTORE DUP1 CALLER PUSH20 0xFFFFFFFFFFFFFFFFFFFFFFFFFFFFFFFFFFFFFFFF AND DUP2 MSTORE PUSH1 0x20 ADD DUP6 DUP2 MSTORE PUSH1 0x20 ADD TIMESTAMP DUP2 MSTORE POP SWAP1 DUP1 PUSH1 0x1 DUP2 SLOAD ADD DUP1 DUP3 SSTORE DUP1 SWAP2 POP POP PUSH1 0x1 SWAP1 SUB SWAP1 PUSH0 MSTORE PUSH1 0x20 PUSH0 KECCAK256 SWAP1 PUSH1 0x3 MUL ADD PUSH0 SWAP1 SWAP2 SWAP1 SWAP2 SWAP1 SWAP2 POP PUSH0 DUP3 ADD MLOAD DUP2 PUSH0 ADD PUSH0 PUSH2 0x100 EXP DUP2 SLOAD DUP2 PUSH20 0xFFFFFFFFFFFFFFFFFFFFFFFFFFFFFFFFFFFFFFFF MUL NOT AND SWAP1 DUP4 PUSH20 0xFFFFFFFFFFFFFFFFFFFFFFFFFFFFFFFFFFFFFFFF AND MUL OR SWAP1 SSTORE POP PUSH1 0x20 DUP3 ADD MLOAD DUP2 PUSH1 0x1 ADD SWAP1 DUP2 PUSH2 0x98F SWAP2 SWAP1 PUSH2 0x1A7F JUMP JUMPDEST POP PUSH1 0x40 DUP3 ADD MLOAD DUP2 PUSH1 0x2 ADD SSTORE POP POP PUSH1 0x7 PUSH0 CALLER PUSH20 0xFFFFFFFFFFFFFFFFFFFFFFFFFFFFFFFFFFFFFFFF AND PUSH20 0xFFFFFFFFFFFFFFFFFFFFFFFFFFFFFFFFFFFFFFFF AND DUP2 MSTORE PUSH1 0x20 ADD SWAP1 DUP2 MSTORE PUSH1 0x20 ADD PUSH0 KECCAK256 PUSH1 0x1 PUSH1 0x6 DUP1 SLOAD SWAP1 POP PUSH2 0x9EB SWAP2 SWAP1 PUSH2 0x18B8 JUMP JUMPDEST SWAP1 DUP1 PUSH1 0x1 DUP2 SLOAD ADD DUP1 DUP3 SSTORE DUP1 SWAP2 POP POP PUSH1 0x1 SWAP1 SUB SWAP1 PUSH0 MSTORE PUSH1 0x20 PUSH0 KECCAK256 ADD PUSH0 SWAP1 SWAP2 SWAP1 SWAP2 SWAP1 SWAP2 POP SSTORE PUSH32 0x69E27F80547602D16208B028C44D20F25956E1FB7D0F51D62AA02F392426F371 DUP3 PUSH1 0x40 MLOAD PUSH2 0xA3D SWAP2 SWAP1 PUSH2 0x1254 JUMP JUMPDEST PUSH1 0x40 MLOAD DUP1 SWAP2 SUB SWAP1 LOG1 PUSH32 0x6EF4855B666DCC7884561072E4358B28DFE01FEB1B7F4DCEBC00E62D50394AC7 DUP2 PUSH1 0x40 MLOAD PUSH2 0xA74 SWAP2 SWAP1 PUSH2 0x1254 JUMP JUMPDEST PUSH1 0x40 MLOAD DUP1 SWAP2 SUB SWAP1 LOG1 CALLER PUSH20 0xFFFFFFFFFFFFFFFFFFFFFFFFFFFFFFFFFFFFFFFF AND PUSH32 0xD7FCCDA06D6EB51C23CBD16D49B9B3F3EBAFB002DBA1B074895CBB35D0E8130 DUP5 PUSH1 0x40 MLOAD PUSH2 0xAC2 SWAP2 SWAP1 PUSH2 0x1B4E JUMP JUMPDEST PUSH1 0x40 MLOAD DUP1 SWAP2 SUB SWAP1 LOG2 POP POP PUSH2 0xAD4 PUSH2 0xDD6 JUMP JUMPDEST POP JUMP JUMPDEST PUSH1 0x2 PUSH0 SWAP1 SLOAD SWAP1 PUSH2 0x100 EXP SWAP1 DIV PUSH20 0xFFFFFFFFFFFFFFFFFFFFFFFFFFFFFFFFFFFFFFFF AND DUP2 JUMP JUMPDEST PUSH2 0xB04 PUSH2 0xC87 JUMP JUMPDEST JUMP JUMPDEST PUSH1 0x5 SLOAD DUP2 JUMP JUMPDEST PUSH0 DUP1 PUSH0 SWAP1 SLOAD SWAP1 PUSH2 0x100 EXP SWAP1 DIV PUSH20 0xFFFFFFFFFFFFFFFFFFFFFFFFFFFFFFFFFFFFFFFF AND SWAP1 POP SWAP1 JUMP JUMPDEST PUSH1 0x7 PUSH1 0x20 MSTORE DUP2 PUSH0 MSTORE PUSH1 0x40 PUSH0 KECCAK256 DUP2 DUP2 SLOAD DUP2 LT PUSH2 0xB4C JUMPI PUSH0 DUP1 REVERT JUMPDEST SWAP1 PUSH0 MSTORE PUSH1 0x20 PUSH0 KECCAK256 ADD PUSH0 SWAP2 POP SWAP2 POP POP SLOAD DUP2 JUMP JUMPDEST PUSH1 0x60 PUSH1 0x7 PUSH0 DUP4 PUSH20 0xFFFFFFFFFFFFFFFFFFFFFFFFFFFFFFFFFFFFFFFF AND PUSH20 0xFFFFFFFFFFFFFFFFFFFFFFFFFFFFFFFFFFFFFFFF AND DUP2 MSTORE PUSH1 0x20 ADD SWAP1 DUP2 MSTORE PUSH1 0x20 ADD PUSH0 KECCAK256 DUP1 SLOAD DUP1 PUSH1 0x20 MUL PUSH1 0x20 ADD PUSH1 0x40 MLOAD SWAP1 DUP2 ADD PUSH1 0x40 MSTORE DUP1 SWAP3 SWAP2 SWAP1 DUP2 DUP2 MSTORE PUSH1 0x20 ADD DUP3 DUP1 SLOAD DUP1 ISZERO PUSH2 0xBE5 JUMPI PUSH1 0x20 MUL DUP3 ADD SWAP2 SWAP1 PUSH0 MSTORE PUSH1 0x20 PUSH0 KECCAK256 SWAP1 JUMPDEST DUP2 SLOAD DUP2 MSTORE PUSH1 0x20 ADD SWAP1 PUSH1 0x1 ADD SWAP1 DUP1 DUP4 GT PUSH2 0xBD1 JUMPI JUMPDEST POP POP POP POP POP SWAP1 POP SWAP2 SWAP1 POP JUMP JUMPDEST PUSH2 0xBF9 PUSH2 0xC87 JUMP JUMPDEST DUP1 PUSH1 0x4 DUP2 SWAP1 SSTORE POP POP JUMP JUMPDEST PUSH2 0xC0B PUSH2 0xC87 JUMP JUMPDEST PUSH0 PUSH20 0xFFFFFFFFFFFFFFFFFFFFFFFFFFFFFFFFFFFFFFFF AND DUP2 PUSH20 0xFFFFFFFFFFFFFFFFFFFFFFFFFFFFFFFFFFFFFFFF AND SUB PUSH2 0xC7B JUMPI PUSH0 PUSH1 0x40 MLOAD PUSH32 0x1E4FBDF700000000000000000000000000000000000000000000000000000000 DUP2 MSTORE PUSH1 0x4 ADD PUSH2 0xC72 SWAP2 SWAP1 PUSH2 0x126D JUMP JUMPDEST PUSH1 0x40 MLOAD DUP1 SWAP2 SUB SWAP1 REVERT JUMPDEST PUSH2 0xC84 DUP2 PUSH2 0xDDF JUMP JUMPDEST POP JUMP JUMPDEST PUSH2 0xC8F PUSH2 0xEA0 JUMP JUMPDEST PUSH20 0xFFFFFFFFFFFFFFFFFFFFFFFFFFFFFFFFFFFFFFFF AND PUSH2 0xCAD PUSH2 0xB0C JUMP JUMPDEST PUSH20 0xFFFFFFFFFFFFFFFFFFFFFFFFFFFFFFFFFFFFFFFF AND EQ PUSH2 0xD0C JUMPI PUSH2 0xCD0 PUSH2 0xEA0 JUMP JUMPDEST PUSH1 0x40 MLOAD PUSH32 0x118CDAA700000000000000000000000000000000000000000000000000000000 DUP2 MSTORE PUSH1 0x4 ADD PUSH2 0xD03 SWAP2 SWAP1 PUSH2 0x126D JUMP JUMPDEST PUSH1 0x40 MLOAD DUP1 SWAP2 SUB SWAP1 REVERT JUMPDEST JUMP JUMPDEST PUSH1 0x2 PUSH1 0x1 SLOAD SUB PUSH2 0xD4A JUMPI PUSH1 0x40 MLOAD PUSH32 0x3EE5AEB500000000000000000000000000000000000000000000000000000000 DUP2 MSTORE PUSH1 0x4 ADD PUSH1 0x40 MLOAD DUP1 SWAP2 SUB SWAP1 REVERT JUMPDEST PUSH1 0x2 PUSH1 0x1 DUP2 SWAP1 SSTORE POP JUMP JUMPDEST PUSH2 0xDD0 DUP5 DUP6 PUSH20 0xFFFFFFFFFFFFFFFFFFFFFFFFFFFFFFFFFFFFFFFF AND PUSH4 0x23B872DD DUP7 DUP7 DUP7 PUSH1 0x40 MLOAD PUSH1 0x24 ADD PUSH2 0xD89 SWAP4 SWAP3 SWAP2 SWAP1 PUSH2 0x1B6E JUMP JUMPDEST PUSH1 0x40 MLOAD PUSH1 0x20 DUP2 DUP4 SUB SUB DUP2 MSTORE SWAP1 PUSH1 0x40 MSTORE SWAP2 POP PUSH1 0xE0 SHL PUSH1 0x20 DUP3 ADD DUP1 MLOAD PUSH28 0xFFFFFFFFFFFFFFFFFFFFFFFFFFFFFFFFFFFFFFFFFFFFFFFFFFFFFFFF DUP4 DUP2 DUP4 AND OR DUP4 MSTORE POP POP POP POP PUSH2 0xEA7 JUMP JUMPDEST POP POP POP POP JUMP JUMPDEST PUSH1 0x1 DUP1 DUP2 SWAP1 SSTORE POP JUMP JUMPDEST PUSH0 DUP1 PUSH0 SWAP1 SLOAD SWAP1 PUSH2 0x100 EXP SWAP1 DIV PUSH20 0xFFFFFFFFFFFFFFFFFFFFFFFFFFFFFFFFFFFFFFFF AND SWAP1 POP DUP2 PUSH0 DUP1 PUSH2 0x100 EXP DUP2 SLOAD DUP2 PUSH20 0xFFFFFFFFFFFFFFFFFFFFFFFFFFFFFFFFFFFFFFFF MUL NOT AND SWAP1 DUP4 PUSH20 0xFFFFFFFFFFFFFFFFFFFFFFFFFFFFFFFFFFFFFFFF AND MUL OR SWAP1 SSTORE POP DUP2 PUSH20 0xFFFFFFFFFFFFFFFFFFFFFFFFFFFFFFFFFFFFFFFF AND DUP2 PUSH20 0xFFFFFFFFFFFFFFFFFFFFFFFFFFFFFFFFFFFFFFFF AND PUSH32 0x8BE0079C531659141344CD1FD0A4F28419497F9722A3DAAFE3B4186F6B6457E0 PUSH1 0x40 MLOAD PUSH1 0x40 MLOAD DUP1 SWAP2 SUB SWAP1 LOG3 POP POP JUMP JUMPDEST PUSH0 CALLER SWAP1 POP SWAP1 JUMP JUMPDEST PUSH0 PUSH2 0xED1 DUP3 DUP5 PUSH20 0xFFFFFFFFFFFFFFFFFFFFFFFFFFFFFFFFFFFFFFFF AND PUSH2 0xF3C SWAP1 SWAP2 SWAP1 PUSH4 0xFFFFFFFF AND JUMP JUMPDEST SWAP1 POP PUSH0 DUP2 MLOAD EQ ISZERO DUP1 ISZERO PUSH2 0xEF5 JUMPI POP DUP1 DUP1 PUSH1 0x20 ADD SWAP1 MLOAD DUP2 ADD SWAP1 PUSH2 0xEF3 SWAP2 SWAP1 PUSH2 0x1BD8 JUMP JUMPDEST ISZERO JUMPDEST ISZERO PUSH2 0xF37 JUMPI DUP3 PUSH1 0x40 MLOAD PUSH32 0x5274AFE700000000000000000000000000000000000000000000000000000000 DUP2 MSTORE PUSH1 0x4 ADD PUSH2 0xF2E SWAP2 SWAP1 PUSH2 0x126D JUMP JUMPDEST PUSH1 0x40 MLOAD DUP1 SWAP2 SUB SWAP1 REVERT JUMPDEST POP POP POP JUMP JUMPDEST PUSH1 0x60 PUSH2 0xF49 DUP4 DUP4 PUSH0 PUSH2 0xF51 JUMP JUMPDEST SWAP1 POP SWAP3 SWAP2 POP POP JUMP JUMPDEST PUSH1 0x60 DUP2 SELFBALANCE LT ISZERO PUSH2 0xF98 JUMPI ADDRESS PUSH1 0x40 MLOAD PUSH32 0xCD78605900000000000000000000000000000000000000000000000000000000 DUP2 MSTORE PUSH1 0x4 ADD PUSH2 0xF8F SWAP2 SWAP1 PUSH2 0x126D JUMP JUMPDEST PUSH1 0x40 MLOAD DUP1 SWAP2 SUB SWAP1 REVERT JUMPDEST PUSH0 DUP1 DUP6 PUSH20 0xFFFFFFFFFFFFFFFFFFFFFFFFFFFFFFFFFFFFFFFF AND DUP5 DUP7 PUSH1 0x40 MLOAD PUSH2 0xFC0 SWAP2 SWAP1 PUSH2 0x1C47 JUMP JUMPDEST PUSH0 PUSH1 0x40 MLOAD DUP1 DUP4 SUB DUP2 DUP6 DUP8 GAS CALL SWAP3 POP POP POP RETURNDATASIZE DUP1 PUSH0 DUP2 EQ PUSH2 0xFFA JUMPI PUSH1 0x40 MLOAD SWAP2 POP PUSH1 0x1F NOT PUSH1 0x3F RETURNDATASIZE ADD AND DUP3 ADD PUSH1 0x40 MSTORE RETURNDATASIZE DUP3 MSTORE RETURNDATASIZE PUSH0 PUSH1 0x20 DUP5 ADD RETURNDATACOPY PUSH2 0xFFF JUMP JUMPDEST PUSH1 0x60 SWAP2 POP JUMPDEST POP SWAP2 POP SWAP2 POP PUSH2 0x100F DUP7 DUP4 DUP4 PUSH2 0x101A JUMP JUMPDEST SWAP3 POP POP POP SWAP4 SWAP3 POP POP POP JUMP JUMPDEST PUSH1 0x60 DUP3 PUSH2 0x102F JUMPI PUSH2 0x102A DUP3 PUSH2 0x10A7 JUMP JUMPDEST PUSH2 0x109F JUMP JUMPDEST PUSH0 DUP3 MLOAD EQ DUP1 ISZERO PUSH2 0x1055 JUMPI POP PUSH0 DUP5 PUSH20 0xFFFFFFFFFFFFFFFFFFFFFFFFFFFFFFFFFFFFFFFF AND EXTCODESIZE EQ JUMPDEST ISZERO PUSH2 0x1097 JUMPI DUP4 PUSH1 0x40 MLOAD PUSH32 0x9996B31500000000000000000000000000000000000000000000000000000000 DUP2 MSTORE PUSH1 0x4 ADD PUSH2 0x108E SWAP2 SWAP1 PUSH2 0x126D JUMP JUMPDEST PUSH1 0x40 MLOAD DUP1 SWAP2 SUB SWAP1 REVERT JUMPDEST DUP2 SWAP1 POP PUSH2 0x10A0 JUMP JUMPDEST JUMPDEST SWAP4 SWAP3 POP POP POP JUMP JUMPDEST PUSH0 DUP2 MLOAD GT ISZERO PUSH2 0x10B9 JUMPI DUP1 MLOAD DUP1 DUP3 PUSH1 0x20 ADD REVERT JUMPDEST PUSH1 0x40 MLOAD PUSH32 0x1425EA4200000000000000000000000000000000000000000000000000000000 DUP2 MSTORE PUSH1 0x4 ADD PUSH1 0x40 MLOAD DUP1 SWAP2 SUB SWAP1 REVERT JUMPDEST PUSH0 PUSH1 0x40 MLOAD SWAP1 POP SWAP1 JUMP JUMPDEST PUSH0 DUP1 REVERT JUMPDEST PUSH0 DUP1 REVERT JUMPDEST PUSH0 DUP2 SWAP1 POP SWAP2 SWAP1 POP JUMP JUMPDEST PUSH2 0x110E DUP2 PUSH2 0x10FC JUMP JUMPDEST DUP2 EQ PUSH2 0x1118 JUMPI PUSH0 DUP1 REVERT JUMPDEST POP JUMP JUMPDEST PUSH0 DUP2 CALLDATALOAD SWAP1 POP PUSH2 0x1129 DUP2 PUSH2 0x1105 JUMP JUMPDEST SWAP3 SWAP2 POP POP JUMP JUMPDEST PUSH0 PUSH1 0x20 DUP3 DUP5 SUB SLT ISZERO PUSH2 0x1144 JUMPI PUSH2 0x1143 PUSH2 0x10F4 JUMP JUMPDEST JUMPDEST PUSH0 PUSH2 0x1151 DUP5 DUP3 DUP6 ADD PUSH2 0x111B JUMP JUMPDEST SWAP2 POP POP SWAP3 SWAP2 POP POP JUMP JUMPDEST PUSH0 PUSH20 0xFFFFFFFFFFFFFFFFFFFFFFFFFFFFFFFFFFFFFFFF DUP3 AND SWAP1 POP SWAP2 SWAP1 POP JUMP JUMPDEST PUSH0 PUSH2 0x1183 DUP3 PUSH2 0x115A JUMP JUMPDEST SWAP1 POP SWAP2 SWAP1 POP JUMP JUMPDEST PUSH2 0x1193 DUP2 PUSH2 0x1179 JUMP JUMPDEST DUP3 MSTORE POP POP JUMP JUMPDEST PUSH0 DUP2 MLOAD SWAP1 POP SWAP2 SWAP1 POP JUMP JUMPDEST PUSH0 DUP3 DUP3 MSTORE PUSH1 0x20 DUP3 ADD SWAP1 POP SWAP3 SWAP2 POP POP JUMP JUMPDEST DUP3 DUP2 DUP4 MCOPY PUSH0 DUP4 DUP4 ADD MSTORE POP POP POP JUMP JUMPDEST PUSH0 PUSH1 0x1F NOT PUSH1 0x1F DUP4 ADD AND SWAP1 POP SWAP2 SWAP1 POP JUMP JUMPDEST PUSH0 PUSH2 0x11DB DUP3 PUSH2 0x1199 JUMP JUMPDEST PUSH2 0x11E5 DUP2 DUP6 PUSH2 0x11A3 JUMP JUMPDEST SWAP4 POP PUSH2 0x11F5 DUP2 DUP6 PUSH1 0x20 DUP7 ADD PUSH2 0x11B3 JUMP JUMPDEST PUSH2 0x11FE DUP2 PUSH2 0x11C1 JUMP JUMPDEST DUP5 ADD SWAP2 POP POP SWAP3 SWAP2 POP POP JUMP JUMPDEST PUSH2 0x1212 DUP2 PUSH2 0x10FC JUMP JUMPDEST DUP3 MSTORE POP POP JUMP JUMPDEST PUSH0 PUSH1 0x60 DUP3 ADD SWAP1 POP PUSH2 0x122B PUSH0 DUP4 ADD DUP7 PUSH2 0x118A JUMP JUMPDEST DUP2 DUP2 SUB PUSH1 0x20 DUP4 ADD MSTORE PUSH2 0x123D DUP2 DUP6 PUSH2 0x11D1 JUMP JUMPDEST SWAP1 POP PUSH2 0x124C PUSH1 0x40 DUP4 ADD DUP5 PUSH2 0x1209 JUMP JUMPDEST SWAP5 SWAP4 POP POP POP POP JUMP JUMPDEST PUSH0 PUSH1 0x20 DUP3 ADD SWAP1 POP PUSH2 0x1267 PUSH0 DUP4 ADD DUP5 PUSH2 0x1209 JUMP JUMPDEST SWAP3 SWAP2 POP POP JUMP JUMPDEST PUSH0 PUSH1 0x20 DUP3 ADD SWAP1 POP PUSH2 0x1280 PUSH0 DUP4 ADD DUP5 PUSH2 0x118A JUMP JUMPDEST SWAP3 SWAP2 POP POP JUMP JUMPDEST PUSH2 0x128F DUP2 PUSH2 0x1179 JUMP JUMPDEST DUP2 EQ PUSH2 0x1299 JUMPI PUSH0 DUP1 REVERT JUMPDEST POP JUMP JUMPDEST PUSH0 DUP2 CALLDATALOAD SWAP1 POP PUSH2 0x12AA DUP2 PUSH2 0x1286 JUMP JUMPDEST SWAP3 SWAP2 POP POP JUMP JUMPDEST PUSH0 DUP1 PUSH1 0x40 DUP4 DUP6 SUB SLT ISZERO PUSH2 0x12C6 JUMPI PUSH2 0x12C5 PUSH2 0x10F4 JUMP JUMPDEST JUMPDEST PUSH0 PUSH2 0x12D3 DUP6 DUP3 DUP7 ADD PUSH2 0x129C JUMP JUMPDEST SWAP3 POP POP PUSH1 0x20 PUSH2 0x12E4 DUP6 DUP3 DUP7 ADD PUSH2 0x111B JUMP JUMPDEST SWAP2 POP POP SWAP3 POP SWAP3 SWAP1 POP JUMP JUMPDEST PUSH0 PUSH1 0x40 DUP3 ADD SWAP1 POP DUP2 DUP2 SUB PUSH0 DUP4 ADD MSTORE PUSH2 0x1306 DUP2 DUP6 PUSH2 0x11D1 JUMP JUMPDEST SWAP1 POP PUSH2 0x1315 PUSH1 0x20 DUP4 ADD DUP5 PUSH2 0x1209 JUMP JUMPDEST SWAP4 SWAP3 POP POP POP JUMP JUMPDEST PUSH0 DUP1 REVERT JUMPDEST PUSH0 DUP1 REVERT JUMPDEST PUSH32 0x4E487B7100000000000000000000000000000000000000000000000000000000 PUSH0 MSTORE PUSH1 0x41 PUSH1 0x4 MSTORE PUSH1 0x24 PUSH0 REVERT JUMPDEST PUSH2 0x135A DUP3 PUSH2 0x11C1 JUMP JUMPDEST DUP2 ADD DUP2 DUP2 LT PUSH8 0xFFFFFFFFFFFFFFFF DUP3 GT OR ISZERO PUSH2 0x1379 JUMPI PUSH2 0x1378 PUSH2 0x1324 JUMP JUMPDEST JUMPDEST DUP1 PUSH1 0x40 MSTORE POP POP POP JUMP JUMPDEST PUSH0 PUSH2 0x138B PUSH2 0x10EB JUMP JUMPDEST SWAP1 POP PUSH2 0x1397 DUP3 DUP3 PUSH2 0x1351 JUMP JUMPDEST SWAP2 SWAP1 POP JUMP JUMPDEST PUSH0 PUSH8 0xFFFFFFFFFFFFFFFF DUP3 GT ISZERO PUSH2 0x13B6 JUMPI PUSH2 0x13B5 PUSH2 0x1324 JUMP JUMPDEST JUMPDEST PUSH2 0x13BF DUP3 PUSH2 0x11C1 JUMP JUMPDEST SWAP1 POP PUSH1 0x20 DUP2 ADD SWAP1 POP SWAP2 SWAP1 POP JUMP JUMPDEST DUP3 DUP2 DUP4 CALLDATACOPY PUSH0 DUP4 DUP4 ADD MSTORE POP POP POP JUMP JUMPDEST PUSH0 PUSH2 0x13EC PUSH2 0x13E7 DUP5 PUSH2 0x139C JUMP JUMPDEST PUSH2 0x1382 JUMP JUMPDEST SWAP1 POP DUP3 DUP2 MSTORE PUSH1 0x20 DUP2 ADD DUP5 DUP5 DUP5 ADD GT ISZERO PUSH2 0x1408 JUMPI PUSH2 0x1407 PUSH2 0x1320 JUMP JUMPDEST JUMPDEST PUSH2 0x1413 DUP5 DUP3 DUP6 PUSH2 0x13CC JUMP JUMPDEST POP SWAP4 SWAP3 POP POP POP JUMP JUMPDEST PUSH0 DUP3 PUSH1 0x1F DUP4 ADD SLT PUSH2 0x142F JUMPI PUSH2 0x142E PUSH2 0x131C JUMP JUMPDEST JUMPDEST DUP2 CALLDATALOAD PUSH2 0x143F DUP5 DUP3 PUSH1 0x20 DUP7 ADD PUSH2 0x13DA JUMP JUMPDEST SWAP2 POP POP SWAP3 SWAP2 POP POP JUMP JUMPDEST PUSH0 PUSH1 0x20 DUP3 DUP5 SUB SLT ISZERO PUSH2 0x145D JUMPI PUSH2 0x145C PUSH2 0x10F4 JUMP JUMPDEST JUMPDEST PUSH0 DUP3 ADD CALLDATALOAD PUSH8 0xFFFFFFFFFFFFFFFF DUP2 GT ISZERO PUSH2 0x147A JUMPI PUSH2 0x1479 PUSH2 0x10F8 JUMP JUMPDEST JUMPDEST PUSH2 0x1486 DUP5 DUP3 DUP6 ADD PUSH2 0x141B JUMP JUMPDEST SWAP2 POP POP SWAP3 SWAP2 POP POP JUMP JUMPDEST PUSH0 DUP2 SWAP1 POP SWAP2 SWAP1 POP JUMP JUMPDEST PUSH0 PUSH2 0x14B2 PUSH2 0x14AD PUSH2 0x14A8 DUP5 PUSH2 0x115A JUMP JUMPDEST PUSH2 0x148F JUMP JUMPDEST PUSH2 0x115A JUMP JUMPDEST SWAP1 POP SWAP2 SWAP1 POP JUMP JUMPDEST PUSH0 PUSH2 0x14C3 DUP3 PUSH2 0x1498 JUMP JUMPDEST SWAP1 POP SWAP2 SWAP1 POP JUMP JUMPDEST PUSH0 PUSH2 0x14D4 DUP3 PUSH2 0x14B9 JUMP JUMPDEST SWAP1 POP SWAP2 SWAP1 POP JUMP JUMPDEST PUSH2 0x14E4 DUP2 PUSH2 0x14CA JUMP JUMPDEST DUP3 MSTORE POP POP JUMP JUMPDEST PUSH0 PUSH1 0x20 DUP3 ADD SWAP1 POP PUSH2 0x14FD PUSH0 DUP4 ADD DUP5 PUSH2 0x14DB JUMP JUMPDEST SWAP3 SWAP2 POP POP JUMP JUMPDEST PUSH0 PUSH1 0x20 DUP3 DUP5 SUB SLT ISZERO PUSH2 0x1518 JUMPI PUSH2 0x1517 PUSH2 0x10F4 JUMP JUMPDEST JUMPDEST PUSH0 PUSH2 0x1525 DUP5 DUP3 DUP6 ADD PUSH2 0x129C JUMP JUMPDEST SWAP2 POP POP SWAP3 SWAP2 POP POP JUMP JUMPDEST PUSH0 DUP2 MLOAD SWAP1 POP SWAP2 SWAP1 POP JUMP JUMPDEST PUSH0 DUP3 DUP3 MSTORE PUSH1 0x20 DUP3 ADD SWAP1 POP SWAP3 SWAP2 POP POP JUMP JUMPDEST PUSH0 DUP2 SWAP1 POP PUSH1 0x20 DUP3 ADD SWAP1 POP SWAP2 SWAP1 POP JUMP JUMPDEST PUSH2 0x1560 DUP2 PUSH2 0x10FC JUMP JUMPDEST DUP3 MSTORE POP POP JUMP JUMPDEST PUSH0 PUSH2 0x1571 DUP4 DUP4 PUSH2 0x1557 JUMP JUMPDEST PUSH1 0x20 DUP4 ADD SWAP1 POP SWAP3 SWAP2 POP POP JUMP JUMPDEST PUSH0 PUSH1 0x20 DUP3 ADD SWAP1 POP SWAP2 SWAP1 POP JUMP JUMPDEST PUSH0 PUSH2 0x1593 DUP3 PUSH2 0x152E JUMP JUMPDEST PUSH2 0x159D DUP2 DUP6 PUSH2 0x1538 JUMP JUMPDEST SWAP4 POP PUSH2 0x15A8 DUP4 PUSH2 0x1548 JUMP JUMPDEST DUP1 PUSH0 JUMPDEST DUP4 DUP2 LT ISZERO PUSH2 0x15D8 JUMPI DUP2 MLOAD PUSH2 0x15BF DUP9 DUP3 PUSH2 0x1566 JUMP JUMPDEST SWAP8 POP PUSH2 0x15CA DUP4 PUSH2 0x157D JUMP JUMPDEST SWAP3 POP POP PUSH1 0x1 DUP2 ADD SWAP1 POP PUSH2 0x15AB JUMP JUMPDEST POP DUP6 SWAP4 POP POP POP POP SWAP3 SWAP2 POP POP JUMP JUMPDEST PUSH0 PUSH1 0x20 DUP3 ADD SWAP1 POP DUP2 DUP2 SUB PUSH0 DUP4 ADD MSTORE PUSH2 0x15FD DUP2 DUP5 PUSH2 0x1589 JUMP JUMPDEST SWAP1 POP SWAP3 SWAP2 POP POP JUMP JUMPDEST PUSH32 0x4E487B7100000000000000000000000000000000000000000000000000000000 PUSH0 MSTORE PUSH1 0x22 PUSH1 0x4 MSTORE PUSH1 0x24 PUSH0 REVERT JUMPDEST PUSH0 PUSH1 0x2 DUP3 DIV SWAP1 POP PUSH1 0x1 DUP3 AND DUP1 PUSH2 0x1649 JUMPI PUSH1 0x7F DUP3 AND SWAP2 POP JUMPDEST PUSH1 0x20 DUP3 LT DUP2 SUB PUSH2 0x165C JUMPI PUSH2 0x165B PUSH2 0x1605 JUMP JUMPDEST JUMPDEST POP SWAP2 SWAP1 POP JUMP JUMPDEST PUSH32 0x4D65737361676520696E646578206F7574206F6620626F756E64730000000000 PUSH0 DUP3 ADD MSTORE POP JUMP JUMPDEST PUSH0 PUSH2 0x1696 PUSH1 0x1B DUP4 PUSH2 0x11A3 JUMP JUMPDEST SWAP2 POP PUSH2 0x16A1 DUP3 PUSH2 0x1662 JUMP JUMPDEST PUSH1 0x20 DUP3 ADD SWAP1 POP SWAP2 SWAP1 POP JUMP JUMPDEST PUSH0 PUSH1 0x20 DUP3 ADD SWAP1 POP DUP2 DUP2 SUB PUSH0 DUP4 ADD MSTORE PUSH2 0x16C3 DUP2 PUSH2 0x168A JUMP JUMPDEST SWAP1 POP SWAP2 SWAP1 POP JUMP JUMPDEST PUSH32 0x4E487B7100000000000000000000000000000000000000000000000000000000 PUSH0 MSTORE PUSH1 0x32 PUSH1 0x4 MSTORE PUSH1 0x24 PUSH0 REVERT JUMPDEST PUSH32 0x4D65737361676520696E646578206F7574206F6620626F756E647320666F7220 PUSH0 DUP3 ADD MSTORE PUSH32 0x7573657200000000000000000000000000000000000000000000000000000000 PUSH1 0x20 DUP3 ADD MSTORE POP JUMP JUMPDEST PUSH0 PUSH2 0x1751 PUSH1 0x24 DUP4 PUSH2 0x11A3 JUMP JUMPDEST SWAP2 POP PUSH2 0x175C DUP3 PUSH2 0x16F7 JUMP JUMPDEST PUSH1 0x40 DUP3 ADD SWAP1 POP SWAP2 SWAP1 POP JUMP JUMPDEST PUSH0 PUSH1 0x20 DUP3 ADD SWAP1 POP DUP2 DUP2 SUB PUSH0 DUP4 ADD MSTORE PUSH2 0x177E DUP2 PUSH2 0x1745 JUMP JUMPDEST SWAP1 POP SWAP2 SWAP1 POP JUMP JUMPDEST PUSH32 0x496E76616C6964206665652070657263656E7461676500000000000000000000 PUSH0 DUP3 ADD MSTORE POP JUMP JUMPDEST PUSH0 PUSH2 0x17B9 PUSH1 0x16 DUP4 PUSH2 0x11A3 JUMP JUMPDEST SWAP2 POP PUSH2 0x17C4 DUP3 PUSH2 0x1785 JUMP JUMPDEST PUSH1 0x20 DUP3 ADD SWAP1 POP SWAP2 SWAP1 POP JUMP JUMPDEST PUSH0 PUSH1 0x20 DUP3 ADD SWAP1 POP DUP2 DUP2 SUB PUSH0 DUP4 ADD MSTORE PUSH2 0x17E6 DUP2 PUSH2 0x17AD JUMP JUMPDEST SWAP1 POP SWAP2 SWAP1 POP JUMP JUMPDEST PUSH32 0x4E487B7100000000000000000000000000000000000000000000000000000000 PUSH0 MSTORE PUSH1 0x11 PUSH1 0x4 MSTORE PUSH1 0x24 PUSH0 REVERT JUMPDEST PUSH0 PUSH2 0x1824 DUP3 PUSH2 0x10FC JUMP JUMPDEST SWAP2 POP PUSH2 0x182F DUP4 PUSH2 0x10FC JUMP JUMPDEST SWAP3 POP DUP3 DUP3 MUL PUSH2 0x183D DUP2 PUSH2 0x10FC JUMP JUMPDEST SWAP2 POP DUP3 DUP3 DIV DUP5 EQ DUP4 ISZERO OR PUSH2 0x1854 JUMPI PUSH2 0x1853 PUSH2 0x17ED JUMP JUMPDEST JUMPDEST POP SWAP3 SWAP2 POP POP JUMP JUMPDEST PUSH32 0x4E487B7100000000000000000000000000000000000000000000000000000000 PUSH0 MSTORE PUSH1 0x12 PUSH1 0x4 MSTORE PUSH1 0x24 PUSH0 REVERT JUMPDEST PUSH0 PUSH2 0x1892 DUP3 PUSH2 0x10FC JUMP JUMPDEST SWAP2 POP PUSH2 0x189D DUP4 PUSH2 0x10FC JUMP JUMPDEST SWAP3 POP DUP3 PUSH2 0x18AD JUMPI PUSH2 0x18AC PUSH2 0x185B JUMP JUMPDEST JUMPDEST DUP3 DUP3 DIV SWAP1 POP SWAP3 SWAP2 POP POP JUMP JUMPDEST PUSH0 PUSH2 0x18C2 DUP3 PUSH2 0x10FC JUMP JUMPDEST SWAP2 POP PUSH2 0x18CD DUP4 PUSH2 0x10FC JUMP JUMPDEST SWAP3 POP DUP3 DUP3 SUB SWAP1 POP DUP2 DUP2 GT ISZERO PUSH2 0x18E5 JUMPI PUSH2 0x18E4 PUSH2 0x17ED JUMP JUMPDEST JUMPDEST SWAP3 SWAP2 POP POP JUMP JUMPDEST PUSH0 DUP2 SWAP1 POP DUP2 PUSH0 MSTORE PUSH1 0x20 PUSH0 KECCAK256 SWAP1 POP SWAP2 SWAP1 POP JUMP JUMPDEST PUSH0 PUSH1 0x20 PUSH1 0x1F DUP4 ADD DIV SWAP1 POP SWAP2 SWAP1 POP JUMP JUMPDEST PUSH0 DUP3 DUP3 SHL SWAP1 POP SWAP3 SWAP2 POP POP JUMP JUMPDEST PUSH0 PUSH1 0x8 DUP4 MUL PUSH2 0x1947 PUSH32 0xFFFFFFFFFFFFFFFFFFFFFFFFFFFFFFFFFFFFFFFFFFFFFFFFFFFFFFFFFFFFFFFF DUP3 PUSH2 0x190C JUMP JUMPDEST PUSH2 0x1951 DUP7 DUP4 PUSH2 0x190C JUMP JUMPDEST SWAP6 POP DUP1 NOT DUP5 AND SWAP4 POP DUP1 DUP7 AND DUP5 OR SWAP3 POP POP POP SWAP4 SWAP3 POP POP POP JUMP JUMPDEST PUSH0 PUSH2 0x1983 PUSH2 0x197E PUSH2 0x1979 DUP5 PUSH2 0x10FC JUMP JUMPDEST PUSH2 0x148F JUMP JUMPDEST PUSH2 0x10FC JUMP JUMPDEST SWAP1 POP SWAP2 SWAP1 POP JUMP JUMPDEST PUSH0 DUP2 SWAP1 POP SWAP2 SWAP1 POP JUMP JUMPDEST PUSH2 0x199C DUP4 PUSH2 0x1969 JUMP JUMPDEST PUSH2 0x19B0 PUSH2 0x19A8 DUP3 PUSH2 0x198A JUMP JUMPDEST DUP5 DUP5 SLOAD PUSH2 0x1918 JUMP JUMPDEST DUP3 SSTORE POP POP POP POP JUMP JUMPDEST PUSH0 SWAP1 JUMP JUMPDEST PUSH2 0x19C4 PUSH2 0x19B8 JUMP JUMPDEST PUSH2 0x19CF DUP2 DUP5 DUP5 PUSH2 0x1993 JUMP JUMPDEST POP POP POP JUMP JUMPDEST JUMPDEST DUP2 DUP2 LT ISZERO PUSH2 0x19F2 JUMPI PUSH2 0x19E7 PUSH0 DUP3 PUSH2 0x19BC JUMP JUMPDEST PUSH1 0x1 DUP2 ADD SWAP1 POP PUSH2 0x19D5 JUMP JUMPDEST POP POP JUMP JUMPDEST PUSH1 0x1F DUP3 GT ISZERO PUSH2 0x1A37 JUMPI PUSH2 0x1A08 DUP2 PUSH2 0x18EB JUMP JUMPDEST PUSH2 0x1A11 DUP5 PUSH2 0x18FD JUMP JUMPDEST DUP2 ADD PUSH1 0x20 DUP6 LT ISZERO PUSH2 0x1A20 JUMPI DUP2 SWAP1 POP JUMPDEST PUSH2 0x1A34 PUSH2 0x1A2C DUP6 PUSH2 0x18FD JUMP JUMPDEST DUP4 ADD DUP3 PUSH2 0x19D4 JUMP JUMPDEST POP POP JUMPDEST POP POP POP JUMP JUMPDEST PUSH0 DUP3 DUP3 SHR SWAP1 POP SWAP3 SWAP2 POP POP JUMP JUMPDEST PUSH0 PUSH2 0x1A57 PUSH0 NOT DUP5 PUSH1 0x8 MUL PUSH2 0x1A3C JUMP JUMPDEST NOT DUP1 DUP4 AND SWAP2 POP POP SWAP3 SWAP2 POP POP JUMP JUMPDEST PUSH0 PUSH2 0x1A6F DUP4 DUP4 PUSH2 0x1A48 JUMP JUMPDEST SWAP2 POP DUP3 PUSH1 0x2 MUL DUP3 OR SWAP1 POP SWAP3 SWAP2 POP POP JUMP JUMPDEST PUSH2 0x1A88 DUP3 PUSH2 0x1199 JUMP JUMPDEST PUSH8 0xFFFFFFFFFFFFFFFF DUP2 GT ISZERO PUSH2 0x1AA1 JUMPI PUSH2 0x1AA0 PUSH2 0x1324 JUMP JUMPDEST JUMPDEST PUSH2 0x1AAB DUP3 SLOAD PUSH2 0x1632 JUMP JUMPDEST PUSH2 0x1AB6 DUP3 DUP3 DUP6 PUSH2 0x19F6 JUMP JUMPDEST PUSH0 PUSH1 0x20 SWAP1 POP PUSH1 0x1F DUP4 GT PUSH1 0x1 DUP2 EQ PUSH2 0x1AE7 JUMPI PUSH0 DUP5 ISZERO PUSH2 0x1AD5 JUMPI DUP3 DUP8 ADD MLOAD SWAP1 POP JUMPDEST PUSH2 0x1ADF DUP6 DUP3 PUSH2 0x1A64 JUMP JUMPDEST DUP7 SSTORE POP PUSH2 0x1B46 JUMP JUMPDEST PUSH1 0x1F NOT DUP5 AND PUSH2 0x1AF5 DUP7 PUSH2 0x18EB JUMP JUMPDEST PUSH0 JUMPDEST DUP3 DUP2 LT ISZERO PUSH2 0x1B1C JUMPI DUP5 DUP10 ADD MLOAD DUP3 SSTORE PUSH1 0x1 DUP3 ADD SWAP2 POP PUSH1 0x20 DUP6 ADD SWAP5 POP PUSH1 0x20 DUP2 ADD SWAP1 POP PUSH2 0x1AF7 JUMP JUMPDEST DUP7 DUP4 LT ISZERO PUSH2 0x1B39 JUMPI DUP5 DUP10 ADD MLOAD PUSH2 0x1B35 PUSH1 0x1F DUP10 AND DUP3 PUSH2 0x1A48 JUMP JUMPDEST DUP4 SSTORE POP JUMPDEST PUSH1 0x1 PUSH1 0x2 DUP9 MUL ADD DUP9 SSTORE POP POP POP JUMPDEST POP POP POP POP POP POP JUMP JUMPDEST PUSH0 PUSH1 0x20 DUP3 ADD SWAP1 POP DUP2 DUP2 SUB PUSH0 DUP4 ADD MSTORE PUSH2 0x1B66 DUP2 DUP5 PUSH2 0x11D1 JUMP JUMPDEST SWAP1 POP SWAP3 SWAP2 POP POP JUMP JUMPDEST PUSH0 PUSH1 0x60 DUP3 ADD SWAP1 POP PUSH2 0x1B81 PUSH0 DUP4 ADD DUP7 PUSH2 0x118A JUMP JUMPDEST PUSH2 0x1B8E PUSH1 0x20 DUP4 ADD DUP6 PUSH2 0x118A JUMP JUMPDEST PUSH2 0x1B9B PUSH1 0x40 DUP4 ADD DUP5 PUSH2 0x1209 JUMP JUMPDEST SWAP5 SWAP4 POP POP POP POP JUMP JUMPDEST PUSH0 DUP2 ISZERO ISZERO SWAP1 POP SWAP2 SWAP1 POP JUMP JUMPDEST PUSH2 0x1BB7 DUP2 PUSH2 0x1BA3 JUMP JUMPDEST DUP2 EQ PUSH2 0x1BC1 JUMPI PUSH0 DUP1 REVERT JUMPDEST POP JUMP JUMPDEST PUSH0 DUP2 MLOAD SWAP1 POP PUSH2 0x1BD2 DUP2 PUSH2 0x1BAE JUMP JUMPDEST SWAP3 SWAP2 POP POP JUMP JUMPDEST PUSH0 PUSH1 0x20 DUP3 DUP5 SUB SLT ISZERO PUSH2 0x1BED JUMPI PUSH2 0x1BEC PUSH2 0x10F4 JUMP JUMPDEST JUMPDEST PUSH0 PUSH2 0x1BFA DUP5 DUP3 DUP6 ADD PUSH2 0x1BC4 JUMP JUMPDEST SWAP2 POP POP SWAP3 SWAP2 POP POP JUMP JUMPDEST PUSH0 DUP2 MLOAD SWAP1 POP SWAP2 SWAP1 POP JUMP JUMPDEST PUSH0 DUP2 SWAP1 POP SWAP3 SWAP2 POP POP JUMP JUMPDEST PUSH0 PUSH2 0x1C21 DUP3 PUSH2 0x1C03 JUMP JUMPDEST PUSH2 0x1C2B DUP2 DUP6 PUSH2 0x1C0D JUMP JUMPDEST SWAP4 POP PUSH2 0x1C3B DUP2 DUP6 PUSH1 0x20 DUP7 ADD PUSH2 0x11B3 JUMP JUMPDEST DUP1 DUP5 ADD SWAP2 POP POP SWAP3 SWAP2 POP POP JUMP JUMPDEST PUSH0 PUSH2 0x1C52 DUP3 DUP5 PUSH2 0x1C17 JUMP JUMPDEST SWAP2 POP DUP2 SWAP1 POP SWAP3 SWAP2 POP POP JUMP INVALID LOG2 PUSH5 0x6970667358 0x22 SLT KECCAK256 SIGNEXTEND 0xC1 0xB6 0x24 PUSH8 0xBF7EBDBBD3E83512 SWAP5 0xC8 COINBASE PUSH28 0x698887677A79A73E13210F62D1B3DC64736F6C634300081900330000 "
				},
				"gasEstimates": {
					"creation": {
						"codeDepositCost": "1463000",
						"executionCost": "infinite",
						"totalCost": "infinite"
					},
					"external": {
						"developerFeePercentage()": "2492",
						"developerWallet()": "2598",
						"getMessageByIndex(uint256)": "infinite",
						"getTotalMessages()": "2508",
						"getUserMessageByIndex(address,uint256)": "infinite",
						"getUserMessageIndexes(address)": "infinite",
						"messageCost()": "2471",
						"messages(uint256)": "infinite",
						"owner()": "2604",
						"renounceOwnership()": "infinite",
						"sendMessage(string)": "infinite",
						"setDeveloperFeePercentage(uint256)": "infinite",
						"setMessageCost(uint256)": "infinite",
						"tokenContract()": "infinite",
						"transferOwnership(address)": "infinite",
						"userMessages(address,uint256)": "infinite"
					}
				},
				"methodIdentifiers": {
					"developerFeePercentage()": "7862f04c",
					"developerWallet()": "185870f9",
					"getMessageByIndex(uint256)": "2024c1b7",
					"getTotalMessages()": "147e9108",
					"getUserMessageByIndex(address,uint256)": "36913a40",
					"getUserMessageIndexes(address)": "ad039fad",
					"messageCost()": "1293092e",
					"messages(uint256)": "0d80fefd",
					"owner()": "8da5cb5b",
					"renounceOwnership()": "715018a6",
					"sendMessage(string)": "469c8110",
					"setDeveloperFeePercentage(uint256)": "38daefb6",
					"setMessageCost(uint256)": "aface8cd",
					"tokenContract()": "55a373d6",
					"transferOwnership(address)": "f2fde38b",
					"userMessages(address,uint256)": "9428cda3"
				}
			},
			"storageLayout": {
				"storage": [
					{
						"astId": 8,
						"contract": "contracts/GlobalChat.sol:GlobalChat",
						"label": "_owner",
						"offset": 0,
						"slot": "0",
						"type": "t_address"
					},
					{
						"astId": 1569,
						"contract": "contracts/GlobalChat.sol:GlobalChat",
						"label": "_status",
						"offset": 0,
						"slot": "1",
						"type": "t_uint256"
					},
					{
						"astId": 1645,
						"contract": "contracts/GlobalChat.sol:GlobalChat",
						"label": "tokenContract",
						"offset": 0,
						"slot": "2",
						"type": "t_contract(ERC20Burnable)923"
					},
					{
						"astId": 1647,
						"contract": "contracts/GlobalChat.sol:GlobalChat",
						"label": "developerWallet",
						"offset": 0,
						"slot": "3",
						"type": "t_address"
					},
					{
						"astId": 1650,
						"contract": "contracts/GlobalChat.sol:GlobalChat",
						"label": "messageCost",
						"offset": 0,
						"slot": "4",
						"type": "t_uint256"
					},
					{
						"astId": 1653,
						"contract": "contracts/GlobalChat.sol:GlobalChat",
						"label": "developerFeePercentage",
						"offset": 0,
						"slot": "5",
						"type": "t_uint256"
					},
					{
						"astId": 1664,
						"contract": "contracts/GlobalChat.sol:GlobalChat",
						"label": "messages",
						"offset": 0,
						"slot": "6",
						"type": "t_array(t_struct(Message)1660_storage)dyn_storage"
					},
					{
						"astId": 1669,
						"contract": "contracts/GlobalChat.sol:GlobalChat",
						"label": "userMessages",
						"offset": 0,
						"slot": "7",
						"type": "t_mapping(t_address,t_array(t_uint256)dyn_storage)"
					}
				],
				"types": {
					"t_address": {
						"encoding": "inplace",
						"label": "address",
						"numberOfBytes": "20"
					},
					"t_array(t_struct(Message)1660_storage)dyn_storage": {
						"base": "t_struct(Message)1660_storage",
						"encoding": "dynamic_array",
						"label": "struct GlobalChat.Message[]",
						"numberOfBytes": "32"
					},
					"t_array(t_uint256)dyn_storage": {
						"base": "t_uint256",
						"encoding": "dynamic_array",
						"label": "uint256[]",
						"numberOfBytes": "32"
					},
					"t_contract(ERC20Burnable)923": {
						"encoding": "inplace",
						"label": "contract ERC20Burnable",
						"numberOfBytes": "20"
					},
					"t_mapping(t_address,t_array(t_uint256)dyn_storage)": {
						"encoding": "mapping",
						"key": "t_address",
						"label": "mapping(address => uint256[])",
						"numberOfBytes": "32",
						"value": "t_array(t_uint256)dyn_storage"
					},
					"t_string_storage": {
						"encoding": "bytes",
						"label": "string",
						"numberOfBytes": "32"
					},
					"t_struct(Message)1660_storage": {
						"encoding": "inplace",
						"label": "struct GlobalChat.Message",
						"members": [
							{
								"astId": 1655,
								"contract": "contracts/GlobalChat.sol:GlobalChat",
								"label": "sender",
								"offset": 0,
								"slot": "0",
								"type": "t_address"
							},
							{
								"astId": 1657,
								"contract": "contracts/GlobalChat.sol:GlobalChat",
								"label": "content",
								"offset": 0,
								"slot": "1",
								"type": "t_string_storage"
							},
							{
								"astId": 1659,
								"contract": "contracts/GlobalChat.sol:GlobalChat",
								"label": "timestamp",
								"offset": 0,
								"slot": "2",
								"type": "t_uint256"
							}
						],
						"numberOfBytes": "96"
					},
					"t_uint256": {
						"encoding": "inplace",
						"label": "uint256",
						"numberOfBytes": "32"
					}
				}
			},
			"userdoc": {
				"kind": "user",
				"methods": {},
				"version": 1
			}
		}
	}
}